:020000040000FA
:100000000040002069590000A5590000A7590000D0
:1000100000000000000000000000000000000000E0
:10002000000000000000000000000000A9590000CE
:100030000000000000000000AB590000AD590000B6
:10004000AF5900008D4A0000CD5F0000AF5900009D
:10005000AF59000000000000E1590000AF59000056
:10006000AF59000095640000595E0000AF590000D0
:10007000AF590000AF590000AF590000AF59000060
:10008000AF590000AF590000AF590000AF59000050
:10009000AF5900005953000029540000AF59000027
:1000A000AF590000AF590000000000000000000040
:1000B0000000000000000000000000000000000040
:1000C00010B5064C2378002B07D1054B002B02D02E
:1000D000044800E000BF0123237010BDEC000020A5
:1000E000000000008045010008B5084B002B03D03C
:1000F0000748084900E000BF07480368002B00D10B
:1001000008BD064B002BFBD09847F9E70000000024
:1001100080450100F0000020EC00002000000000FD
:10012000164B002B00D1144B9D46402292029A1A86
:10013000924600218B460F461348144A121A12F0B9
:10014000B7F90F4B002B00D098470E4B002B00D077
:1001500098470020002104000D000D48002802D01F
:100160000C4800E000BF0CF0B3F82000290011F0AB
:100170003DF90BF02BFEC0460000080000400020B7
:100180000000000000000000EC000020800C0020B7
:100190000000000000000000031C30B5044A0832D3
:1001A00004C334C934C334C934C334C934C330BDBF
:1001B000B829010010B5041C034B0833036005F097
:1001C000E1F9201C10BDC046E029010007B504304C
:1001D00001AB0EF09EFD011E019804D002480CF008
:1001E000BDFA012040420EBD783C010007B5043045
:1001F00001AB0EF095FC011E019804D002480CF0F2
:10020000ADFA012040420EBD8D3C010010B5041C2A
:10021000022A01D1036902E0012A01D1C368C91889
:10022000201D0EF057FE011E05D006480CF096FA70
:100230000120404204E00448E1680CF08FFAE068D5
:1002400010BDC046A23C0100B43C010008B504301A
:100250000EF015FD011C0020814204D002480CF074
:100260007DFA0120404208BDCC3C010084B010B5AD
:1002700004928922041C0593064B0391083308C09D
:1002800003A9920012F0F7F8201C10BC08BC04B0BF
:100290001847C046E029010010B57F2816D900296B
:1002A00006D0FF2811D88038094B4000C05A0DE015
:1002B000074A4C00A25A8BB2824203D001318029F6
:1002C000F6D10B1C8033D8B200E0002010BDC04630
:1002D0009433010070B57F2806D8031C613B192BAD
:1002E0001AD8203880B217E0F72500210C226D00C3
:1002F0006B1A5B085B18094E5C00A65BB04207D026
:1003000001D81D1C00E0191C013A002AF0D103E0BD
:10031000002A01D0024BE05A70BDC046703801007F
:100320009434010010B5041C034B036040300FF0FF
:10033000F8F8201C10BDC046182A010010B5041C96
:10034000024B036000F06CF9201C10BD702A010004
:1003500013B51C4C201C02F0F3F99621201D8901D5
:1003600004F0C4FB184901A802F02EFF201C01A9CB
:10037000EC30782204F098F801A80FF0D2F8134975
:1003800013480BF0A1FE041C1248211C0BF0FCFECC
:10039000201C0BF089FD104810F0FCFF041C201CF1
:1003A00011F014F8011E08D00C480CF0D7F9F6E74C
:1003B00001A80FF0B6F811F099FD201C11F00BF810
:1003C000012016BD08010020E13C0100F03C0100C5
:1003D000E43C0100F23C0100013D0100053D01004B
:1003E00037B50D4D281C02F0EBF80C4C281C221CD4
:1003F0000B4911F0C2FA12230A4D00930A4B281C34
:10040000019315211723162201F0FCFD281C074932
:10041000221C11F0B2FA37BD0801002000000020B4
:1004200031040000EC040020023D01003D03000007
:10043000E823194A9B0010B5C2501833041CC01899
:100440000FF06FF8ED239B00E0180FF06AF881239E
:100450009B00E01803F0B8F9201CC530FF3002F013
:100460000FFF201C8D30FF3003F074F9201C653025
:10047000FF3003F06FF9201CEC3003F06DFE201C00
:10048000D03004F07BF9201C643005F031F8201DD9
:10049000FFF748FF201C10BD202C010010B52A4C8E
:1004A0000B1CA544141C902292008218274986A890
:1004B0000CF0A6F90322A30702D4023A224001322B
:1004C000A30506D5630501D5082300E010231A43D0
:1004D000D2B286A996A800F0E7FF011E04D01C48FE
:1004E0000CF03CF900202BE0230703D596A899993E
:1004F0000EF0F0FC8922FFA896A99200803011F03E
:10050000BAFF8A20800002F091FD8622041CFFA918
:100510008C319200684611F0AEFFFFAB8033196852
:10052000FFAB84331A68FFAB88331B68201CFFF7CE
:100530009DFE201C04E0201C02F09AFD11F0D6FC68
:10054000D423DB009D4410BD60F9FFFF0A3D01008C
:10055000113D0100081C08B501F0BAF8011C00208B
:10056000814204D002480CF0F9F80120404208BD55
:10057000293D0100081C08B5111C01F0BFF9011C40
:100580000020814204D003480CF0E8F801204042EA
:1005900008BDC046403D010008B5902380229B0065
:1005A0000021C018920001F02FFA011C00208142A6
:1005B00004D003480CF0D2F80120404208BDC046E8
:1005C000573D010038B5041C0D1C04F03FFF104BD3
:1005D000083323600F4B1A68002A04D00E48291CE8
:1005E0000CF0BCF812E01C6090233021201C9B0012
:1005F000E1540A4B1030E254013BE11800F02CFFAB
:1006000004E0201C04F02EFF11F070FC201C38BD0B
:10061000202A0100780700206C3D01004102000003
:100620000A4B10B508330360094B041C1A68824258
:1006300007D100221A6090239B00101CE11800F0E3
:100640000BFF201C04F00EFF201C10BD202A01000F
:1006500078070020F8B50D1C03690935002B35D04B
:1006600000224369561C9A5C202A15D0052A53D0D3
:10067000092E02D12E242C700135141C413C192C5A
:1006800008D81F7B1024082E00D8083C274201D030
:100690002032D2B22A700135321E0B2AE2D1DA7A28
:1006A0000A72DA7F14069A7F120422431C7F2243C7
:1006B0005C7F240222430A605A7E1C7E120222437F
:1006C0008A80DA7D9B7D12021343CB8000242C703C
:1006D0008D69A54224D00369A34201D1002418E00A
:1006E000CB69002BFAD0028C0E4B9A42F6D00E1C2E
:1006F000C7696300F85A00280BD00021FFF7CCFD32
:100700000028EBD0F369013B9C42E7D22855013425
:10071000EFE700232B5503E0E522092EBAD1A9E724
:10072000F8BDC046FFFF0000F8B5041C0DF0F2FF55
:10073000051E53D12378032B48D16779012F45D16A
:10074000261C80223036301C291C92000DF065FFDB
:100750005522234B4121E254224B9218E254221C91
:10076000DE3BFF3B313233701370231C6122323386
:1007700085201A7059707223800023541A4823541C
:100780001A4BE1541A4BE2542369B832FF32A35496
:10079000184A190AA154184A190CA154174A1B0ED9
:1007A000A354E3680132A354154A190AA154154A07
:1007B000190CA154144A1B0EA354E36960785A1C07
:1007C000E262311C3B1C01F0BFFE657100216078C4
:1007D0000A1C01F0C7FE431E9841C0B2F8BDC046D6
:1007E0002E0200002F020000150200001602000079
:1007F00017020000190200001A0200001B0200008C
:100800001D0200001E0200001F020000002310B5A0
:100810000371013BC362041C0DF086FF011C032021
:10082000002939D11D4B1E4AE35CA25C1B02134315
:100830001C4A1BB2013893422ED1231C69331B780A
:10084000081C1A06231C68331B781B041343221C44
:10085000663212781343221C673212781202134355
:10086000114A1B021B0A934216D0231C85331878A9
:10087000013B1B7800061B041843231C82331B78A2
:100880008334184323781B0218430002074B000AE5
:10089000C018431E9841C0B210BDC0462F020000D0
:1008A0002E02000055AAFFFF46415400BABEABFF1E
:1008B0000023F0B5036089B0071C081C161C0DF05E
:1008C000C9FE0B23051E00DA89E1C64B8200D4580D
:1008D0000C23002C00D182E13C602378002B0DD04A
:1008E000607801F00BFE0123034007D1002E00D1F8
:1008F00075E1420700D472E10A2370E10023E8B2F7
:100900002370607001F006FE0323C20700D566E184
:10091000002E01D04307EFD4201C0021FFF776FF03
:100920000025012825D1231CF333FF330022197839
:10093000914209D0DA79587911069A7900021204A5
:100940000A4319790A43024304A96A500435103353
:10095000102DEBD1002604AB9D590220002D05D0AF
:10096000201C291CFFF752FF00280AD00436102E45
:10097000F1D10123032800D131E1002801D00D235A
:100980002DE1231C221C3C331B783B3212781B02C6
:10099000134380221BB292009342F0D1231C221CED
:1009A00047331B78463212781B02134311D1231CA4
:1009B00057331B781A06231C56331B781B0413432A
:1009C000221C543212781343221C55321278120220
:1009D00013430093009BA361231C40331A78531EDA
:1009E000E270012BCBD8231C3D331978A17000296C
:1009F000C5D04B1E1942C2D1231C42331F78013B84
:100A00001B783F021F4327813B07B8D1231C443387
:100A10001878013B1B780002184310D1231C533374
:100A20001878013B1B7800061B041843231C503325
:100A30001B781843231C51331B781B021843231CBB
:100A4000261C3F331B783E3636781B021E43019628
:100A500095D0009B53430393039A3B099B199B1822
:100A6000029398428BD3C01A05F008FF002886D065
:100A70005D4B0126984204D95C4E8642B6417642CF
:100A80000236019B029A0230EB1852196061E5614F
:100A90002362A262032E17D1002F00D06FE7231C20
:100AA0005F331B7880001A06231C5E331B781B04FF
:100AB0001343221C5C3212781343221C5D321278DD
:100AC0001202134363620FE0002F00D157E7039A2D
:100AD000D3186362022E01D1400005E003230122F6
:100AE000434310405B081818414BC018009B400A54
:100AF000834200D243E701235B422361E3608133F9
:100B00006371032E2FD1231C221C61331B786032AA
:100B100012781B021343012B25D1691C201C0DF0F8
:100B200003FE00281FD1334B6071334AE35CA25CA3
:100B30001B021343314A1BB2934214D1231C33339B
:100B40001B781A06231C32331B781B041343221C08
:100B5000303212781343221C3132127812021343BE
:100B6000274A934208D0274A2670138801339BB244
:100B70001380E380002332E0234BE35C1A06234B0F
:100B8000E35C1B04134385229200A25C1343204ABA
:100B9000A25C120213431F4A9342E4D11E4BE35C52
:100BA0001A061E4BE35C1B04134386229200A25CD0
:100BB00013431B4AA25C120213432361194BE35CEB
:100BC0001A06194BE35C1B04134387229200A25CB4
:100BD0001343164AA25C12021343E360C3E7181CD6
:100BE00009B0F0BD7C070020F50F0000F5FF000004
:100BF000FF0100002F0200002E02000055AAFFFF97
:100C000052526141240A002017020000160200001F
:100C100015020000727241611B0200001A020000FE
:100C2000190200001F0200001E0200001D02000049
:100C3000F8B5051C0E1E06D1C768002F13D04369F6
:100C40009F4211D30FE00DF095FD0124A04242D93F
:100C5000431C02D1012464423DE06B69041C371C33
:100C6000984201D237E001273C1C6B6901349C4259
:100C700004D3012F01D800242DE00224281C211CBC
:100C80000DF078FD002808D0431C01D0012801D1C7
:100C9000041C20E0BC42E8D1EDE7281C211C0F4ACF
:100CA0000DF017FE002813D1002E0AD12B69EC603D
:100CB0005A1C10D00122013B2B616B7913436B71DD
:100CC00009E0281C311C221C0DF003FE0028EDD089
:100CD0000128BFD00124201CF8BDC046FFFFFF0F34
:100CE00001235B42F0B503840133FF33061C1C1C57
:100CF00087B00293306831690DF016FD071E00D0F1
:100D00008DE075692B78002B00D180E0E97AE52B26
:100D100071D03F220A40090702D50F2A6BD101E0AA
:100D20000F2A58D1F2690492002A68D04022134257
:100D300006D09343697B1C1CF3880291338401E045
:100D4000A3425BD16B7B029A934257D1EB7EAA7E82
:100D50001B0213431BB2002B50D13F22297803936F
:100D60000A400D21013A51430122019103992D4B73
:100D7000CB5CE9184F78EB5C3F021F43002A14D08C
:100D8000019BFE2B3AD8381CFFF7A4FA019B049A6A
:100D90005B000590985AFFF79DFA059B83422DD181
:100DA000019B3A1C0133019302E01F4B9F4225D166
:100DB000039B013303930D2BD8D12B785B0607D50A
:100DC000002A05D0019B049A5B009B5A002B15D189
:100DD000013CE4B213E0002C1BD1281C0DF02CFCCC
:100DE000029B834215D11AE00B2B18D0E85CD15C32
:100DF00001338842F8D001235B423384FF24301C46
:100E000000210DF0ECFD071E00D173E707E0042779
:100E100005E00123B269D17A0B40ECD1E6E7381C3A
:100E200007B0F0BDA03D0100FFFF0000F0B50B785A
:100E300087B0051C0F1C2F2B01D05C2B00D1013774
:100E40000024AC603B781F2B06D8281C211C0DF019
:100E5000FDFC6C6124E101373B782F2BFBD05C2B30
:100E6000F9D00026EB690393B85D741C1F281CD9C8
:100E70002F281AD05C2818D0FF2E00D1FFE00121C6
:100E8000FFF70AFA002800D1F9E07F2808D80023EC
:100E9000844AD25C002A03D001338242F8D1EEE0CA
:100EA000039B76009853261CDEE73F191F2300247E
:100EB00083426441A400002E00D1E0E07300039956
:100EC0009A1E8A5A202A01D02E2A01D1013EF2E729
:100ED00001960026039AA8699E5220210B220DF04C
:100EE0009CFB039A7300D35A202B01D10136F8E7FB
:100EF0002E2BFBD0331E08D003221443E4B204E0AF
:100F0000019A013A0192002A06D0019A03995200EF
:100F1000023A8A5A2E2AF3D1082202920022161C83
:100F200005925A1C0492039A5B00985A002859D0E3
:100F3000202806D02E2809D1049B019A934200D183
:100F40009FE003231C43E4B2049BEAE7059B029A5B
:100F5000934204D2049B019A93421CD191E0029BDC
:100F60000B2B06D103230B221C43E4B2331C029249
:100F700039E0049B019A934205D003231C43049B50
:100F8000E4B293422ED8019BB60004930B23F6B231
:100F90000293033B24E07F280DD90021FFF77CF961
:100FA000002803D0404B18188038007802231C43D7
:100FB000E4B200285ED000233C4AD25C002A03D071
:100FC00001338242F8D155E0031C413B9BB2192BFF
:100FD0005CD802231E43AB69059A9854131C013355
:100FE0000593B1E7331CAA691178E52901D1E039ED
:100FF0001170029A082A01D1B600F3B20C221A40ED
:101000000C2A03D003211940032902D102210C43E9
:10101000E4B2A1070BD403263340012B02D10F33D6
:101020001C43E4B2042A02D108231C43E4B2AB6996
:10103000281CDC7200210DF009FC002802D1281CBC
:10104000FFF74EFEAB69DB7A002805D0042827D1D4
:10105000034225D1013023E05B0721D46969CB7AB3
:10106000DB0605D52B6818780DF021FBA860F3E6A8
:10107000052015E003231C43E4B25F20ABE7062004
:101080000EE0029B0B2B00D07DE76BE7031C613B5E
:101090009BB2192B9FD8012320381E4380B29AE7B8
:1010A00007B0F0BDAD3D0100F13D0100B63D0100CE
:1010B000F0B5866989B0C36905AD041C311C281CD4
:1010C0000C2200930DF0A0FAEB7A01252B4259D0A7
:1010D0000023F372E361301C05A90B220DF094FA92
:1010E0002B1E052B13D900990A88002A0FD0102037
:1010F00002315B009C460123134063445208DF0326
:1011000001D5764F7B4001380028F2D1ECE707216A
:101110000F221A40101C3030392801D93732101CE8
:10112000013903AA571878701B09F1D17E20505459
:101130008B4208D0F05C202805D00133F8E7F0544A
:101140000133072B05D820200729F8D8505C01313E
:10115000F5E7201C00210DF079FB002809D1201CA7
:10116000FFF7BEFD002804D10135642DB3D15D3DEC
:10117000B1E0051E042D00D0ADE005ABDB7AF372C3
:10118000009BE36105ABDB7A01269B070CD50020B1
:10119000009A4300D35A002B01D00130F8E71930F0
:1011A0000D2105F06BFB061C201C00210DF04EFBF1
:1011B000002800D08BE0051C206821690DF0B4FAEE
:1011C000002800D083E063691B78E52B01D0002B59
:1011D00003D10135B54201D107E0051C201C0121D6
:1011E0000DF0FDFB0028E7D071E0013D002D19D185
:1011F000206821690DF098FA051E6CD16069291CE0
:1012000020220DF00AFA0B226069A1690DF0FCF9A9
:10121000A369DA7A182313406269137301222368E1
:101220001A7158E0E188201C491B0DF00FFB031ECA
:101230004BD1A0690DF000FA0190206821690DF0F2
:1012400073FA031E41D1EAB200926A46E369127949
:101250009C4663690D215A730F22DA72EAB2013A91
:101260004A43011C18739876D8761D4EB04203D0BD
:1012700066465000805B01321A4E8E5D98559E196D
:10128000371C06127E70002800D1154801310D2947
:10129000EBD11349884204D061465200525A002AC9
:1012A00003D140220099114300916A461278201C14
:1012B0001A7001232268002113710DF090FB0028A1
:1012C00008D1013D002DB8D192E71D1C03E0072590
:1012D000042800D0051C281C09B0F0BD2110010015
:1012E000FFFF0000A03D010070B5164AC688038CC0
:1012F000051C311C934200D0191C281C0DF0A6FAC5
:10130000041E1CD1286829690DF00EFA041E13D1A1
:1013100020226869211C0DF080F9E5236A691370A9
:101320002A68E43B1371EB88B34208D2211C281CC5
:101330000DF055FB041EE5D0042C00D1023C201C0E
:1013400070BDC046FFFF0000FF23F7B5051C1C1C45
:1013500004270093296900296AD028680DF0E4F970
:10136000071E67D168690378002B6DD0C17AE52B21
:1013700056D02E2B54D03F220A40161C20218E43DB
:10138000082E4DD00F2A42D13132134206D093435A
:10139000417B1C1CEB8800912B8401E0A3423FD1D0
:1013A000437B009A93423BD1EB69827E0193C37EDB
:1013B0001B0213431BB2002B32D13F2201780A409B
:1013C0000D21013A4A430C398C46664620495F5C40
:1013D000C1194978C75D09023943002E07D0FE2A9A
:1013E0001ED8019E5700B9538C46013202E0194FB6
:1013F000B94215D101330D2BE7D103785B061CD51B
:10140000FE2A0DD8002301995200535215E0002CFA
:1014100016D10DF011F9009B834211D1002715E080
:10142000FF24281C00210DF0DAFA071E92D001E0FB
:10143000002FF3D000232B6108E0013CE4B2F0E779
:1014400001235B422B8401E00427F3E7381CFEBD37
:10145000A03D0100FFFF00001FB5019003A8141C70
:10146000009103910DF0F6F80B22002817DB0D4BCD
:101470008000C1581A1C002901D000230B70019B69
:10148000002B01D00021197013501A1E07D0002222
:10149000012C04D101A86946FFF70AFA021C101CAE
:1014A00004B010BD7C070020F0B591B0051C03917D
:1014B0000920002D00D198E0171C00231E222B606C
:1014C0003A4007A803A9FFF7F3F9002800D08CE001
:1014D00004AB0D93464B07A803990E93FFF7A6FCA8
:1014E0000C9C002802D1002C00D106301F261C23A2
:1014F0003E401F424CD000280AD0042802D107A841
:10150000FFF7D6FD08230C9C1E43002807D06CE093
:101510001123E27A1A4267D108207B0765D433078A
:1015200040D50DF052F80027030CDBB282B2C1B2F5
:10153000120A2374000E2376079BA173E273A17530
:10154000E27560746076E77227776777A777E77749
:101550001878211C01930DF0AAF80123019AA776AF
:10156000E7762775677502901371B8421AD0101C80
:101570000299D76A0DF0A7FA002836D1029B079886
:10158000013BC360391C0DF0CFF800280AD02CE0D5
:1015900000282AD1E37A0420DA0626D4BA0701D536
:1015A000DB0721D4330701D520231E43079F211CCD
:1015B000FB6AAE710026EB612C62EE7138780DF09B
:1015C00076F82861E37F301C1A06A37F1B041343BF
:1015D000227F1343627FAE6012021343EB60AE6161
:1015E0002F60FB88AB8000E0072011B0F0BDC04643
:1015F000260A002010B586B001910923002833D0B7
:10160000041C01A902A80022FFF752F9002820D1EA
:10161000029B201C236003ABA361154B0199E3617E
:10162000FFF704FC00281CD16169002907D0CB7AA0
:10163000DB060DD5029B18780DF039F8A060029BEF
:10164000201CDB880021A3800DF000F9042804D1C0
:10165000052000232360031C06E00023984203D0EA
:10166000F7E70428F5D1F3E7181C06B010BDC04613
:10167000260A00207FB5041C0E1C0DF003F8051E81
:1016800021D1002E04D1201C291C0DF0DFF819E017
:1016900001ABA3610D4B201CE361FFF755FE04284D
:1016A00001D1256101E000280CD1201C311CFEF77E
:1016B000D1FF201C00210DF092F9042802D1002353
:1016C000236100E0051C281C04B070BD260A002020
:1016D00030B599B0019001A906A80122FFF7E8F8FA
:1016E000002841D103AB0C93204B06A801990D9320
:1016F000FFF79CFB002837D10B990630002933D027
:10170000CD7A0130EB072FD4069B187800930CF0AC
:10171000CEFF041E17D0EB0615D50FA806A924226C
:101720000CF072FF0FA8022111940DF08FF8002821
:101730001AD10FA8FFF708FE002802D0042802D013
:1017400012E0072010E006A8FFF7CEFD00280BD11D
:10175000002C03D10698FEF7E7FF05E00698211C50
:101760000DF0B1F90028F5D019B030BD260A0020DF
:10177000F0B595B007900CF028FF07A9061C0122D0
:101780000BA8FFF795F8041E00D0B2E008AB119348
:10179000594B0BA807991293FFF748FB041E18D06A
:1017A000042800D0A5E00B980021FFF741FA071E9E
:1017B00011D0023C012807D00124431C04D00B980F
:1017C0000CF0A8FF041E08D00B98391C0DF07BF913
:1017D0008FE008248DE00724F6E70B9D391C281CB8
:1017E0000CF0BCFF2B1C80223033211C0290920095
:1017F000181C01930CF011FF019820210B220CF012
:101800000CFF2E22019B2C1C1A702B1C10223B3328
:101810001A70F3B26A4603932B1C127B46331A707C
:10182000B3B21B0A6A4604932B1C127C47331A700E
:10183000330CDBB26A4605932B1C127D48331A70B9
:10184000330E6A4606932B1C127E49331A70019898
:10185000391C50340CF0E8FE01992022201C0CF0B9
:10186000D3FE2E2351352B700B9B0D991A78032A2A
:1018700005D15B6ACB1A5A1E93415B421940201C6A
:101880000CF0D2FE0B9B9E78029B9E19029BB342EA
:1018900011D0029B0B985D1CC362012303710CF0F5
:1018A00014FF041E90D180220198211C92000CF09C
:1018B000B4FE0295EAE70BA8FFF7FAFB041E83D1FA
:1018C00010231098391CC3726B461B7B83756B46C3
:1018D0001B7CC3756B461B7D03766B461B7E437674
:1018E0000CF0A2FE01230B9A1371101CFEF71CFFD3
:1018F000041C201C15B0F0BD260A002030B5A1B094
:10190000039002910EA803A90122FEF7D1FF00283F
:1019100075D10E9B0EA8179305AB1493394B039901
:101920001593FFF783FA002869D113990430002931
:1019300065D008AC0B31201C15220CF065FE17A8F1
:101940000EA924220CF060FE02A80CF083FE031CFA
:101950000B20002B53DB17A80299FFF767FA00282A
:1019600043D004284BD117A8FFF7A2FB002846D18B
:101970001C9D1A21281C02ABC91813220D300CF033
:1019800043FE202223780E9C1343EB720123237124
:10199000EB7ADB062BD5109B0093199B0193019AE0
:1019A000009B934223D0291C20780CF080FE011C60
:1019B000201C0CF0D3FE011C022000291FD0201C8B
:1019C0000CF0B2FE0E9B002819D11A1C513212786D
:1019D0002E2A0CD15033181C19990CF025FE0E9BA1
:1019E00000930123009A137101E0082007E00EA87C
:1019F000FFF77AFC002802D10E98FEF795FE21B081
:101A000030BDC046260A0020F0B58FB00B900D1CEB
:101A100001921323012900D9D2E20BA80CF01AFE7F
:101A20000B23002800DACBE2D04B8200D4580C23E1
:101A3000002C00D1C4E200232370C3B2181C04930D
:101A400000F068FD01210323084200D0B8E207330B
:101A5000420700D5B4E204980DAA00F083FD0028E7
:101A600001D00123ACE20D9E7F2EFAD90590002D06
:101A700000D186E2059B019AF61A019B0D96013B67
:101A80001A4202D1002A00D081E2FA21301CC9009A
:101A900004F0F4FE0023B6495A00515A884201D29C
:101AA0000133F8E7B34BD35A0193019AB24B9A42F0
:101AB00003D9019B5B0A019302E0019B002B04D038
:101AC000019B802B03D9802300E001230193301C6C
:101AD000019904F0D3FEA94B984200D85DE2A84BCF
:101AE000984200D860E2A74B8000C018430A0393D5
:101AF00003230293002308932033059A0693944608
:101B0000069B039A63440793089B9F186246079BB2
:101B1000FF18019B9B1ADB199E4201D20E234FE254
:101B2000049803210CAA00F01DFD002800D02BE230
:101B30000C9B954A013B934200D925E20C994B1E20
:101B4000DA194B421340DF1B029B0C97032B06D183
:101B5000069BDB190693079BDB19079302E0039BA7
:101B6000DB190393069B0D9F0199F81A039BC01A7A
:101B7000089BC01A04F082FE029B0990022B03D13D
:101B80007E4B9842CAD911E0029B032B05D17C4BB6
:101B9000099A0C269A42C1D90DE0029B012B05D16E
:101BA0007A4B06269F4206D8029E04E0774B062613
:101BB0009F4200D8023E002D4FD1231C802230339B
:101BC000181C291C92000A930CF027FDF023012712
:101BD000FF33E754DB19E754F223FF33E554DB19F5
:101BE000E654F423FE22FF330D9EE254059B684920
:101BF000981904F043FE3F22FA2183081343490059
:101C00006354F623FF33E054DB19E254F823FF3327
:101C1000E554DB19E554FA23FF33E554DB19E654A8
:101C2000FC23320AFF33E254320CDB19E254FE2368
:101C3000360EFF33E654574AA93BFF3BA354564A9E
:101C40005533A3540C900A9904982A1C3B1C00F0AD
:101C50007BFCF826002801D003E7F026271C802211
:101C60003037381C002192000CF0D7FC4B490B2276
:101C7000381C0CF0C9FC231C02213B335970694607
:101C80000979002299706946097E1A70D970069BFD
:101C9000190A231C3F33197001215970029B033B21
:101CA000591E8B41211C41310A70221C5B021B1200
:101CB000423213700D9B354A934205D8221C4332A1
:101CC00013701B12537008E0221C190A5032137053
:101CD0005170190C1B0E9170D370231C3F22453399
:101CE000DA70C0325A716A460025127D1E70DA71B0
:101CF0001D719D711D725D729D720CF066FC029AE1
:101D00000C900304032A4DD1221C1B0E7332537016
:101D1000231C10707533020C1A706A46000E127B79
:101D20005870213B1A70039B201C1A0A231C553340
:101D30001A70039B77301A0C231C56331A70039BBE
:101D400017491A0E231C57331A7002225A71013A8E
:101D50005A720532DA727A325A76573A9D71DD71CB
:101D60001D729D721D73DA7637E0C0467C07002035
:101D7000623C01004C3C0100FF010000F50F000037
:101D8000F5FF000007020000FF7F0000FFFF0000DA
:101D9000C13E00002E0200002F020000BD3D0100E8
:101DA000C93D0100221C1B0E57325370231C1070BA
:101DB0005933020C1A706A46000E127B5870133B9E
:101DC0001A70039B201C1A0A231C47331A708022A6
:101DD0007D495A73573ADA735B30163A0CF014FCAB
:101DE00055237A4A0498A354794ADB18A354391C22
:101DF000059AA93B00F0A8FB002800D031E6029B21
:101E0000032B06D1059B04989A1D391C012300F071
:101E10009BFB8022381C002192000CF0FEFB029BF1
:101E2000032B0FD0012B01D16A4B00E06A4B1E43FC
:101E3000231CFF2230330C961E70360E5A709A7097
:101E4000DE7016E0644B221C1E43231C30331E70D0
:101E5000FF233132137053709370D3701371537129
:101E60009371D37113725372231C0F223B330C9660
:101E70001A70079B391C1A1C5D1C0498012300F082
:101E800063FB011E00D0ECE58022381C92000CF0B0
:101E9000C4FB01230C930C9B039A93420ED204982B
:101EA000391C2A1C01236E1C00F04EFB002800D0B8
:101EB000D7E50C9B351C01330C93ECE7029B2E1CE1
:101EC000032B01D0089B01936B1C03930498391CCE
:101ED0002A1C012300F038FB002800D0C1E5019B3B
:101EE000039D9B19AB42EFD1029B032B40D1221CD7
:101EF0004F33303213705370211C0F3393704122D3
:101F0000333185250A707221AD006155334D61551D
:101F100033496254334AA354099B0132013BA35411
:101F2000314A190AA154314A190CA154304A1B0EE6
:101F3000A354872302229B00E2542E4B234AE054F1
:101F40002D4B391CE0542D4BE054CB3BFF3BA354AD
:101F50001F4A5533A354059B04985A1C012300F0D3
:101F6000F3FA059B0498DA1D391C012300F0ECFA02
:101F7000002104980A1C00F0F5FA431E9841C3B2F0
:101F80001EE03F23059375E501230C93D6E51C4B1A
:101F9000019A9A4200D98CE592E503235843013017
:101FA0004008C018023B02E00223023040000293C6
:101FB000134BC018430A0393202308931F3B9CE54F
:101FC000181C0FB0F0BDC046DD3D01002E02000020
:101FD0002F02000000FFFF0000FFFFFF15020000BE
:101FE0001602000017020000190200001A02000089
:101FF0001B0200001D0200001E0200001F02000064
:10200000FF010000F0B50025041C85B00F1C0393F0
:102010000B990AAB161C5D57FEF7D4FA174B391C07
:102020000833236094239B00E01801235B42009354
:10203000321C039B03F0ECFB9B239B00E618002162
:10204000301C182210F034FA301C291C0FF0CEFA84
:10205000A22300229B00E250F3687268201C1A60E1
:102060009223074A9B00E250064A0433E25005B02F
:10207000F0BD201CFEF7D4FA0FF038FF682A0100EB
:10208000A086010040420F00F8B59B239B00C518B5
:10209000161C2B696A681D4F1A6094239B00C41894
:1020A0004023201C19430FF0D5F93116201C0FF0E6
:1020B000D1F93114201C0FF0CDF93112201C0FF092
:1020C000C9F9311C201C0FF0C5F9201C95210FF017
:1020D000C1F9201CFF210FF0BDF9061C030608D42E
:1020E000EB686A68201C1A60FF210FF0B3F9301CFE
:1020F0000BE0013F002FECD1EB686A68201C1A60EE
:10210000FF210FF0A7F901204042F8BD881300001D
:1021100038B5051C0F4C37210022281CFFF7B4FFEF
:10212000281C29210022FFF7AFFF002809D18022B7
:10213000A12392009B00EA5007480AF00FFB012000
:1021400006E0013C002CE6D104480AF021FB201CEB
:1021500038BDC04688130000713E0100863E010074
:102160009B239B0070B5C518161C2B696A681A6002
:1021700094239B00C4184023201C19430FF06AF9D4
:102180003116201C0FF066F93114201C0FF062F993
:102190003112201C0FF05EF9311C201C0FF05AF98F
:1021A000201C95210FF056F9094E201CFF210FF03D
:1021B00051F903060BD5013E002EF6D1EB686A6893
:1021C000201C1A60FF210FF045F90120404270BD2C
:1021D00088130000F8B59B239B00C5186A682B691B
:1021E0007A211A6094239B00C418201C0FF032F946
:1021F0000021201C0FF02EF90021201C0FF02AF9DD
:102200000021201C0FF026F90021201C0FF022F9DC
:10221000201C95210FF01EF9164F201CFF210FF0F6
:1022200019F9061C030618D4FF21201C0FF012F91F
:10223000FF21201C0FF00EF9FF21201C0FF00AF9DE
:10224000FF21201C0FF006F9EB686A68201C1A6059
:10225000FF210FF0FFF8301C0BE0013F002FDCD115
:10226000EB686A68201C1A60FF210FF0F3F8012068
:102270004042F8BD8813000038B5051C134C3220CD
:102280000FF02DFA281CFFF7A5FF37210022281C8C
:10229000FFF7FAFE8022281C2921D205FFF7F4FE61
:1022A00000280BD1281CFFF795FF09480AF056FAC1
:1022B000A12301229B00EA50022006E0013C002CF1
:1022C000DDD104480AF064FA201C38BD88130000F0
:1022D000A43E0100B83E01009B239B00F7B5C51842
:1022E0006A682B6948211A6094239B00C418201C3B
:1022F0000FF0B0F80021201C0FF0ACF80021201CDA
:102300000FF0A8F80121201C0FF0A4F8AA21201C2E
:102310000FF0A0F8201C87210FF09CF80026201C4D
:10232000FF210FF097F8030615D46B4604271870A9
:10233000201CFF210FF08EF86B46013F9855002FAF
:10234000F6D1EB686A68201C1A60FF210FF082F852
:102350006B4618780CE0074B01369E42DFD1EB68E4
:102360006A68201C1A60FF210FF074F801204042B7
:10237000FEBDC046404B4C00942370B5051C9B002D
:10238000C618083BE958301C03F07EFA9B23102442
:102390009B00EB18DA685B681360301CFF21013C7E
:1023A0000FF058F8002CF8D1281C211C221CFFF734
:1023B0006BFE012801D00B480FE0281CFFF78CFFB3
:1023C000012803D1281CFFF757FF09E0052803D196
:1023D000281CFFF79DFE03E003480AF0D9F9201CF2
:1023E00070BDC046D63E01000D3F01007FB50921FA
:1023F0000022051CFFF7B4FE002804D024480AF090
:10240000C7F9002041E0281C694610220CF02AFE82
:10241000041E2048F3D168467F217E220CF00BFE7B
:1024200000280CD001282CD1A1239B00E8503F218B
:10243000684630220CF0FFFD0130800225E080224A
:10244000A12392009B00EA50C33A4921FF3A684613
:102450000CF0F1FD3121041C2F2268460CF0EBFD3D
:102460005022051C532168460CF0E5FD01231A1C7F
:102470008240101C0235E418AB4060435843400AC8
:1024800003E005480AF084F9201C04B070BDC04682
:10249000443F0100683F01008D3F010038B5041C36
:1024A000FFF76AFFA2239B00011EE050104811D0E5
:1024B00010480AF053F9201CFFF798FF912380225F
:1024C0009B00E0501021201C9200FFF7DDFD051E4F
:1024D00004D009480AF05CF9012506E094239B002A
:1024E000E018043BE15803F0CFF9281C38BDC04682
:1024F000A53F0100BD3F0100CE3F010008B5044BE0
:102500008000C0580368DB6A9847C0B208BDC04667
:102510007807002008B5044B8000C05803689B6A08
:102520009847C0B208BDC0467807002010B5054CDA
:10253000800000590468246BA047431E9841800026
:1025400010BDC0467807002010B5054C800000592A
:102550000468646BA047431E9841800010BDC046CC
:102560007807002038B50C1C151C012913D0002950
:1025700004D003291ED10123136019E00F4B800002
:10258000C0580323002816D003689B6B9847431E4E
:102590009841C3B20FE0094B8000C05803230028C4
:1025A00009D00368DB6B9847231C002803D0286000
:1025B000002300E00423181C38BDC0467807002023
:1025C0001423F0B5041C95B019220093182104308F
:1025D00002F096FA231C251C261C6433181CB43503
:1025E00013211193B83602F08FFF281C0DF063FE03
:1025F0001E210022301C0DF069FB201CD03002F09F
:10260000DDF8231CEC33181C06214A4A129301F012
:10261000C7FD201C002701226530131C00971121E3
:10262000FF3001F0A3F8201C8D3000971A21022200
:102630000123FF3001F09AF8201CB530012102225D
:102640001A23FF3002F078F9231CC533FF331093AF
:10265000311C181C3A22042300F0A2FE81239B00A7
:10266000E31813931D230093183B0193311C109A18
:102670002B1C139801F0CCFA93239B00E0181399BC
:10268000109A129B01F0A0FC96239B00E018291CD5
:102690001C2202F0A3FB9C239B00E0180A2300935A
:1026A0000133019301330293013303930133049304
:1026B00001330593013306930133079301330893E4
:1026C0000133099301330A9301330B9301330C93C4
:1026D00001330D9301330E93013308220F93072129
:1026E000103B0DF0FBFAE8239B00E018291C02F0D8
:1026F0000DFCEF239B00E0181D2102F061F9F82387
:102700009B00E7501198277003210EF0F8FD231C61
:10271000221C201C08499C33A0321C6011605760A9
:10272000064A80305A610221012203F00BFA201C74
:1027300015B0F0BD382E010001F20000EDF10000EF
:102740000123F0B5057885B01D4044D10090FD20EF
:10275000800500F033FC009BD033181C019300F07F
:1027600001FA00F0F9F8202000F060FC041C1030A1
:102770000CF017FF194B65802380182000F056FCE1
:10278000061C071C164B291C0293009B102208C62E
:10279000301C03950FF08CFE02A9301C08220FF0AC
:1027A0006AFE104B01987B611223A760E560A3804D
:1027B000A561E561211C01F079FF002805D0201CEE
:1027C0000CF078FE201C00F053FC0122009B1B78CB
:1027D0001343009A137005B0F0BDC046FD0300001E
:1027E0005DF2000035F20000BFF34F8F024A034B49
:1027F000DA60BFF34F8FFEE70400FA0500ED00E05A
:10280000F0B595B018220021061C0EA80FF050FE5E
:102810000EA813210EF0C9FE0EA803210EF066FFCC
:102820000122474B00921B68002B01D0DBB20093C2
:10283000002409A80021434A012303F0F9FAFF23E9
:10284000221CB342624153421E4072B63E4B1022DC
:10285000211C05A81F680FF02BFE3C4B6421301C87
:10286000059304F09BF80A2104F07EF905256943DD
:10287000503179180691301C0A2104F08FF80A2192
:1028800004F072F96943503179180791301C0A211C
:1028900004F06AF94D4350357F1980250897AD0142
:1028A000009B002B34D00026FA277F00032C02D196
:1028B00080250024AD0105ABF358254A029363003F
:1028C0000133D3180022019218780299095C581E2E
:1028D00003910178102008410399084204D0012097
:1028E000904001990143019101320633092AEBD14D
:1028F000019B09A8D943174B0901194029430EF040
:10290000B0FFFA23139A0F999B001068014201D17E
:10291000FFF76AFF013B002BF7D10134013F6D0047
:10292000E4B2002FC2D10436102EBDD1044B1B6877
:10293000002BB5D0009B013BDBB20093B0E7C04653
:1029400080070020F0FF0000040000205740010035
:1029500021400100F01F000038B50023134C236014
:102960000CF0B2FC251C002808D0201C04210CF01F
:10297000A7FC002819D00E4B236016E00122042189
:102980000C4B1A60236800200B4A506054680948B9
:10299000002CFBD0A122D20082581B020139134324
:1029A0000029F0D12B600123436038BD840700204B
:1029B000ED5EBC0B00D00040FCD00040F0B585B00F
:1029C0001F1C0AAB1B88061C0D1C02920393002FD0
:1029D0001BD0202000F02AFB6B46041C1A89039BA5
:1029E000A9B200933B1C0CF04EFD3368301C5B68B1
:1029F000211C984700280BD0002C08D0201C0CF07C
:102A000059FD201C00F034FB01E0024800E00248C0
:102A100005B0F0BD17FCFFFF16FCFFFF38B50A4BF1
:102A20001C68002C0ED0656D00F0A2FBA36C9842D0
:102A300006D3201C0CF075FC201C04490CF05EFC35
:102A40002C1CEEE738BDC046AC070020B4070020C0
:102A5000031CF0B51B0C8FB00293284B04901C682C
:102A6000274B05911E6885B20027002E43D0002C0D
:102A70002DD0636D23490393A36C9AB21B0C8D4236
:102A800011D121498A420ED1002B02D0029A9342E1
:102A90001BD1002F18D1201C0CF043FC201C1B491B
:102AA0000CF02CFC10E0002A01D0AA420DD1002B22
:102AB00002D0029A934208D1201C0CF032FC201C58
:102AC00012490CF01BFC00E00127039CCFE7104BE0
:102AD000EB18012B0FD91023291C0093029A0D4BE0
:102AE00006A80CF0D0FC3368301C9B6806A99847F8
:102AF00006A80CF0DFFC0FB0F0BDC046A807002010
:102B0000B8070020FE030000FF030000B407002008
:102B100002FCFFFF512A000010B572B60B4B1C6877
:102B2000002C03D0201C0CF0FCFB08E062B65C20FB
:102B300000F07CFA00215C22041C0FF0B9FC002399
:102B4000E364034B201CE36310BDC04688070020EC
:102B500000400020024B1878012318407047C046FF
:102B60002A0C0020F7B5061CFFF7F4FF041E33D132
:102B70001A4D2E60FFF7D0FF194B1A4918600CF060
:102B8000BDFBFFF7C9FF184B1860184B4363184B88
:102B90008363286800280ED0C027164E1649221CD1
:102BA000331C0097FFF70AFF009728681349221C7F
:102BB000331CFFF703FF0C2000F038FA002383805A
:102BC00083710F4B03600F4B836000F0D7FA012134
:102BD0000D4A13780B431370F7BDC046B8070020A9
:102BE0008C070020B4070020BC070020FC3F002019
:102BF000E9F30000512A0000FF030000FE0300007B
:102C0000B82A01001D2A00002A0C0020F7B5002870
:102C100001D1002019E00029FBD00193171C0D1CE5
:102C2000061CFFF779FF041EF3D0084B019A43639B
:102C3000066045608760064B002A00D0054B201CCB
:102C4000A36305490CF05AFB201CFEBDFC3F00208D
:102C5000B3F30000D1F30000B4070020024B186862
:102C6000434258417047C046B4070020002310B5C6
:102C700004499C006258002A01D00133F8E76050F3
:102C8000101C10BD90070020002310B5044A9900C5
:102C90008C58844201D00133F8E70020885010BDE1
:102CA0009007002010B50024074BE058002802D000
:102CB00003685B6898470434182CF5D1034B1B68F4
:102CC000002B00D120BF10BD90070020B4070020CA
:102CD000F8B5FFF73FFF002855D02B4E3468351C60
:102CE000E36CDA0718D502252B43E3640423274F4E
:102CF0003868C26C1343C364636BC3630CF037FB67
:102D00003B68181C596C02F05CF93068C36C2B42AC
:102D100039D002F090F936E01D4F1E4E3A68002A75
:102D200001D1326806E0216DB94203D1616D0029FD
:102D300000D00A1C2A602A6831688A4208D11B0721
:102D400006D52C60FFF7AEFF3B68002BFAD02B6056
:102D50002B68A34217D03268934204D10E4A5A63BB
:102D60000E4A9A6305E0944203D10020191C021C0C
:102D700006E0201C0CF0FBFA2B68201C191C626C6E
:102D80005B6C02F0DDF8F8BD8C070020B007002076
:102D9000B4070020BC070020FC3F0020E9F300003E
:102DA00038B5114B051C1C68FFF7D4FE002803D171
:102DB000281C0EF094FC16E0E36CDB0706D5FFF749
:102DC000ABFE0A4B1860002800D0041C00F0D0F9BC
:102DD0004519A564201C0CF0A4FA201C04490CF031
:102DE0008DFAFFF775FF38BD8C070020B007002073
:102DF000AC070020F0B51E4B85B01C681D4B1A684F
:102E00000393002A05D00F1C051CFFF7A3FE002822
:102E100001D119482AE0E36CDB070ED5FFF77CFEF1
:102E2000164B061E186008D00CF07BFA301C1449B3
:102E30000CF064FA341CFFF74BFF3B042B43A364F4
:102E4000201C0CF06EFA201C0E490CF057FA0E4BA9
:102E50000020EB18012B09D9C0230093039B291CE8
:102E600018683A1C094BFFF7A9FD002005B0F0BD1A
:102E70008C070020B807002016FCFFFFB0070020D9
:102E8000B4070020A807002002FCFFFF512A000021
:102E900010B5FFF75FFE002809D0054C20680CF044
:102EA00040FA206803490CF029FAFFF711FF10BD22
:102EB0008C07002088070020F7B500282FD00C1CB5
:102EC000051CFFF747FE00282BD00726164F386851
:102ED000C36C1E4006D0281C211C144A0CF038FA82
:102EE00000261FE002F08FF802213A68D36C1940E7
:102EF000019103D003218B43D36413E001263343B4
:102F0000D364201CA8473A68D36C191CB143D16420
:102F1000019E5B0706D5201C0CF052FA02E0044E1D
:102F200000E0044E301CFEBD8C070020C1F3000001
:102F300017FCFFFF16FCFFFF021C10B5014B12CB64
:102F400012C210BDC0070020034A044B12681A6069
:102F50007E225A607047C04604000020C00700204F
:102F600070B5124D031C2A78022A1AD081421AD950
:102F70000A1A072A17D9081C032218431040041EF6
:102F800011D11A1C72B62878094EC300F0189A5154
:102F900041600CF02FFA2B7801332B7062B6201CA5
:102FA00002E0044800E0044870BDC0462B0C00203D
:102FB000C807002013FCFFFF17FCFFFF38B50021F6
:102FC000041C03F0F9FD002823D1FE21201C8905F3
:102FD00003F0FCFD00281CD1043009F0F9FA051CAF
:102FE0000F48401B04F0A4FC211C04F089F903F0F5
:102FF00001FE03239843041C281C09F0F3FA201C4B
:1030000009F0E6FA002806D1203C002CF7D105484B
:1030100005E0054803E00119FFF7A2FF002038BDD5
:103020000038002013FCFFFF17FCFFFF38B5051C1C
:1030300000240D4B1B789C4209DA0C49E300C918A7
:10304000281C0CF0DFF900280AD10134F1E7281C14
:1030500009F0BEFA041E04D11420FFF7D1FB00E0F2
:10306000041C201C38BDC0462B0C0020C8070020C3
:1030700038B5002818D00D4B1C780023A34211DA74
:103080000B49DA005558A8420AD98A18526890426A
:1030900006D28023043802681B061343036003E052
:1030A0000133EBE709F09EFA38BDC0462B0C002037
:1030B000C807002010B50024084A094B11681B6896
:1030C000CB181360074BE058002802D003681B6838
:1030D00098470434282CF5D110BDC04600080020C4
:1030E00008080020D807002070B5002816DD0C4B1A
:1030F000051C1A681C1C0B4E002A02D030680EF00A
:10310000C9F9FA21256000243068074B89008361E2
:10311000C46269430EF0C6F9201C00E0034870BD8C
:103120000808002004080020B530000017FCFFFF4D
:10313000F8B50A4E071C3568002D0AD13020FFF77C
:1031400075FF041C02F0B8FB054BA5612360E56226
:103150003460381CFFF7C8FFF8BDC04604080020E3
:10316000082D0100014B18687047C0460808002070
:10317000014B18687047C04600080020094B10B585
:103180001B68041C002B02D10620FFF7D1FF00238F
:10319000054A99008858002801D00133F8E78C507F
:1031A00010BDC04604080020D8070020002310B539
:1031B000044A99008C58844201D00133F8E700207A
:1031C000885010BDD807002010B5041C002902D07B
:1031D0000B78002B02D1034B236001E00CF0A8F91F
:1031E000201C10BD502E0100014B03607047C046EB
:1031F000502E010010B50548054C20600CF024FA53
:10320000201C0449044A0EF0B8FB10BD502E0100EA
:103210000C08002023F5000000000020054A031CD4
:10322000106810B5002803D00268146806CBA047C8
:1032300010BDC0461008002010B5054C0121201C0F
:103240000CF0F6F9201C0349034A0EF096FB10BD62
:1032500014080020F1F500000000002008B5074A1E
:1032600003880120934208D0834202D00020DB076C
:1032700003D41E20FFF7C4FA002008BDFFFF0000A2
:1032800010B5041C034B08330360FFF7FDFC201C42
:1032900010BDC046D02A0100FA2370B52A4A4189E0
:1032A0009B005943131C3833041C181C083A1D6832
:1032B0001E1C8D420CD2061C244B227B1D1D082A8D
:1032C0000BD8042A09D89D1C022A06D81D1C04E02C
:1032D000083B301C9342EAD1EEE7FA2130688900BE
:1032E00003F0CCFA60812B78201C23732A21002262
:1032F0000CF0D4F9002801D0154824E0201C2B2123
:1033000010220CF0CBF90028F6D1201C2D2101222F
:103310000CF0C4F90028EFD1201C2E2101220CF062
:10332000BDF90028E8D16A78201C0E210CF0B6F90E
:103330000028E1D101223379201C1A432A210CF004
:10334000ADF90028D8D170BD582E010037420100D8
:103350000EFCFFFF7FB5161C0F226A44041C1D1CC7
:103360001170002E15D0002B13DD0123018900936D
:10337000006B01F00BF9002801D007480AE000902B
:103380002189206B321C2B1C01F0B6F8002801D0DB
:10339000F3E7024804B070BD0EFCFFFF17FCFFFF0F
:1033A000F7B5061C002501931B4B14360833041C8B
:1033B00003600F1C0092858018228571C5810582EB
:1033C0004582291C301C0FF073F8301C1C210EF0B4
:1033D000ECF86B469B880221A3806B461B88217307
:1033E000238114236381231C38331A7927638A438A
:1033F00001310A40A571201C1D705D709D701A710D
:103400005D71FFF749FFA84203D10122A37913435D
:10341000A371201CFEBDC046D02A010030B5042592
:10342000837985B0041C2B4204D1FFF71FFCA379DC
:103430002B43A371A36AA2691B6800251A422AD1F3
:10344000201C01216A460623FFF784FF002801D0D3
:10345000124D20E06B4602216846595600781B79D0
:10346000227B40B25BB251435343424389B2D20004
:10347000E281CA00228202229BB2DB006382A3792E
:10348000201C9343A3710CF017F90122A18802A814
:10349000131C0CF090F8281C05B030BD0EFCFFFF8B
:1034A000F7B5041C0CF02BF9251C0090201CFFF72D
:1034B000B5FF0E22A35E724F5B423C35BB4203DA7E
:1034C0002B789B0700D5B4E0201CFFF7A7FF0E2246
:1034D000A35EFA225B4200269200934203DD2B7822
:1034E0009B0700D4A5E0201CFFF798FF1022A35EE5
:1034F0005B42BB4203DA2B785B0700D5A5E0201CBA
:10350000FFF78CFF1022A35EFA225B4292009342E7
:1035100003DD2B785B0700D497E0201CFFF77EFFCC
:103520001222A35EBB4203DA2B781B0700D597E07B
:10353000201CFFF773FF1223E25EFA239B009A42DE
:1035400003DD2B781B0700D48AE0002E0DD02878ED
:103550000309032B09DC0F22013313401901024038
:103560000A432A70042B00D184E0231C3D331B78CE
:103570000133DBB2092B01D86B7011E000232878EE
:103580006B7003090CD00F220F3313401901024056
:103590000A432A70002B03D1D3B2012293432B702C
:1035A00001262B780B203340019368D1354B009ACC
:1035B00004389A4263DD902380191B049A425EDC32
:1035C000201CFFF72BFF0E22A35E2F4F5B42032030
:1035D000BB4254DBC825201CFFF720FF0E22A35E50
:1035E000AD005B420420AB4249DC201CFFF716FF14
:1035F0001022A35E02205B42BB4240DB201CFFF78F
:103600000DFF1022A35E301C5B42AB4237DC201C56
:10361000FFF704FF1222A35E0520BB422FDB201C14
:10362000FFF7FCFE1222A35E0620AB4227DC0198C6
:1036300025E00126311C2B785A0891430A1C0221EF
:10364000B2408B4313432B704DE70126311C2B787E
:103650009A0891438A0004218B4313432B705CE743
:1036600001222B78D9088A430821D2008B431343C7
:103670002B706CE701222B7813432B7075E7FEBD8E
:1036800018FCFFFFFF700200E0FCFFFF30B5C369CC
:10369000C2681B6885B0041C451D1A424ED0EB7FE2
:1036A000002B01D0013BEB77EB7F082B0DD90123D9
:1036B000A2791A4209D11A43A271A1881A1C02A840
:1036C0000BF079FFFFF754FD2062EB7F012B1ED832
:1036D0000123A2791A421AD00022A188A271684659
:1036E00002320BF068FFA31DDD7F012D0FD1FFF724
:1036F0003FFD236AA188C01A144B984202D902A840
:10370000042201E0032202A82B1C0BF054FF032328
:10371000A5791D40012D16D1FFF72AFD236AC01A95
:103720000B4B98420FD90222A379A1881343A371AE
:1037300002A803322B1C0BF03EFF04E0EB7F0B2BA7
:10374000B2D80133AFE705B030BDC046E703000093
:10375000DB05000010B5041C034B08330360FFF7C2
:1037600025FD201C10BDC046F02A0100F0B5071C45
:1037700000250E1C85B002930AAB1B780837039313
:10378000104B041C08330360019285808571291C4D
:10379000381C18220EF08CFE381C311C039A0DF0D8
:1037A00009FF6B466A469B88127AA380A31DE671C7
:1037B000DA77631D2562201CDD77FFF7DFFC201C14
:1037C00005B0F0BDF02A010010B5041C034B08330E
:1037D0000360FFF759FA201C10BDC046102B0100F2
:1037E0007FB5161C0F226A44041C1D1C1170002E8C
:1037F00015D0002B13DD012301890093C06B00F06D
:10380000C5FE002801D007480AE000902189E06B3E
:10381000321C2B1C00F070FE002801D0F3E7024898
:1038200004B070BD0EFCFFFF17FCFFFF002330B596
:1038300085B003AC217001890093051C221CC06B6C
:10384000013300F0A3FE002801D00A480FE02070E9
:10385000607029890090221CE86B022300F04CFE66
:103860000028F2D1207863780002184300B205B036
:1038700030BDC0460EFCFFFF13B56B46DC1D0023B8
:10388000221C23700133FFF7ABFF002801D1207801
:1038900000E0014816BDC0460EFCFFFFD0B5041C79
:1038A0000CF023F82269E369981A05F01FFDA3695B
:1038B000061CE0680F1C181A05F018FD021C0B1CF2
:1038C000301C391C07F042F80022104B04F0C4FEF3
:1038D0000F4A104B04F09CFB05F098FD0021041CDE
:1038E00003F060F9002804D0201C0B4903F09AF97A
:1038F000041C201C05F036FD021C0B1C002007498F
:1039000005F044F905F0BCFCD0BDC046008066401F
:10391000EA2E4454FB2109400000B4430080764065
:10392000F0B5041C89B0006C0BF09FFF051C206CE7
:103930000BF092FF0221071C201C0CF005F802215D
:103940000590201C0CF012F803F0AAFF0221019050
:10395000201C0CF01DF803F0A3FF0290281C05F0BA
:1039600001FD041C0D1C06F0A1FF05F04FFD291CF4
:103970000390201C06F048FF05F048FD0490381C19
:1039800005F0F0FC041C0D1C06F090FF05F03EFD58
:10399000291C071C201C06F037FF0690079103998D
:1039A000029803F0ADFC0499041C019803F0A8FCF4
:1039B000011C201C03F0D6FD05F0D4FC051C059865
:1039C0000E1C03F06DFF041C0698079905F01EFD00
:1039D000011C201C03F094FC391C041C019803F00A
:1039E0008FFC039903F08CFC011C201C03F01AF9D6
:1039F000391C041C029803F083FC049903F080FC3A
:103A0000011C201C03F00EF905F0ACFC021C0B1C81
:103A1000281C311C06F09AFF00220C4B04F01CFEFF
:103A20000B4A0C4B04F0F4FA05F0F0FC0021041CE6
:103A300003F0B8F8002804D0201C074903F0F2F87E
:103A4000041C201C03F00CFF09B0F0BD0080764080
:103A5000EA2E4454FB2119400000B443F8B510216C
:103A60000022041C0BF033FF1D4E002834D1201C13
:103A70000821FFF701FFB0422ED00325054027D1D2
:103A8000FA23184A61899B005943131C50331E1CAA
:103A9000083A1F68181C8F4203D3083B061C934248
:103AA000F7D1FA213068890002F0E8FE1121608127
:103AB000A022201C0BF00BFF00280DD1012233792E
:103AC000201C1A4310210BF002FF002805D003E050
:103AD0006420FFF765F9CAE7014D281CF8BDC04610
:103AE0000EFCFFFF982E0100F7B50426041C807918
:103AF0003040051E16D10227201C0BF0F6FEA379DC
:103B00000622BB433343A371A188012368460BF00F
:103B100052FDA379281C1A1CB243A2713B4202D168
:103B2000014800E00148FEBD14FCFFFF15FCFFFF4B
:103B300010B583795A070ED4041C9B0701D4FFF7F4
:103B4000D3FF236C201C002B02D0FFF7E9FE03E01B
:103B5000FFF7A4FE00E0014810BDC04615FCFFFFC2
:103B600070B5466C86B001AC051C01916260A36023
:103B7000002E0BD00A4905A8FFF726FB301C05A92B
:103B8000221C0CF09EFB05A80BF0CBFC2B1C0C336D
:103B900007CC07C30222AB791343AB7106B070BDEB
:103BA0003D420100642330B5041C0281438185B08D
:103BB0008180FFF753FF0222A379656C9343A371C1
:103BC000002D1CD0114901A8FFF7FEFA281C01A9FD
:103BD0000CF0ACFB051C01A80BF0A3FC002D0ED0D3
:103BE000291C0C22103101A80EF045FC201C019963
:103BF000029A039BFFF7B4FF281CFFF739FA012252
:103C0000A3791343A37105B030BDC0463D42010006
:103C1000F7B5009308AB1B88041C019309AB1D8802
:103C200000230F1C161C0D4A83800832837102602A
:103C3000C360036143618361C36103621D2124305A
:103C40000BF038FE009BE7632664201C291C63648C
:103C5000019AFFF7A7FF201CFEBDC046102B0100F4
:103C6000F0B5051CA5B06420049105920DF037FD58
:103C70000C21042209A80CF0A0FBCE4924221BA889
:103C80000EF0F9FB052106A80A1C0DF02BFACA4913
:103C900007A801F057FAA86800F06EFBAC68C749A6
:103CA00018A8FFF791FA201C18A9782200F0D2FB7F
:103CB00018A80BF036FC6E246420013C0DF00FFDBB
:103CC000002CF9D1A86800F057FBA8680BF0F9FFA9
:103CD000012168680BF027FD0121071C68680BF0C3
:103CE00035FD061C0A200DF0FAFC0022B44B0392AD
:103CF0009F4210DB013203923A1CC8320BDB0422D4
:103D00000392C8229200974205DC03220392C82F37
:103D100001DC013A0392002202929E4210DB012351
:103D20000293331CC8330BDB04230293C8239B008C
:103D30009E4205DC03230293C82E01DC013B029363
:103D4000652606A80DF0C5F902ABF618371C7B787E
:103D5000002B06D07B1E19783A7806A8FF2301F0C5
:103D600087F9892302AA03379B189F42EFD16B463C
:103D70000C21595E6B4606A808229A5EFF2301F0CB
:103D800077F90023A8680093743006A91A1C0DF077
:103D9000B0F9731E1B78039A934234D13378029A98
:103DA000934230D17778002F2DD1391C28680BF041
:103DB000CBFD03F075FD3A1C031C211C09A80CF077
:103DC00047FB391C28680BF0D1FD03F069FD012287
:103DD000031C211C09A80CF03BFB391C28680BF0C4
:103DE000D7FD03F05DFD211C031C022209A80CF085
:103DF0002FFBFE23211C9B0509A803220CF028FBA6
:103E000001237370E418892302AA03369B189E428B
:103E1000BFD164200DF063FC0B2C00DC58E709A82F
:103E20000CF002FB0122011C0CA80CF0C6FA0024C5
:103E300009A80CF0F9FA84423EDA211C002209A8F4
:103E40000CF0F4FA211C061C002209A80CF0EEFA72
:103E5000011C301C03F054FA211C061C012209A885
:103E60000CF0E4FA0122071C211C09A80CF0DEFA70
:103E7000011C381C03F044FA011C301C02F0D2FE75
:103E8000211C061C022209A80CF0D0FA0222211CD7
:103E9000071C09A80CF0CAFA011C381C03F030FA00
:103EA000011C301C02F0BEFE211C031C00220CA8C9
:103EB0000CF0CEFA0134BBE709A90A1C012318A8AB
:103EC0000DF093F818A90FA80CF0DCFA18A80CF064
:103ED000D0FA12A809A90CAA01230DF086F8002334
:103EE00015A80FA912AA0DF080F8002115A80A1C28
:103EF0000CF09CFA0121061C002215A80CF096FA81
:103F00000022041C022115A80CF090FAFC21071CC9
:103F10008905301C03F0F4F903F0A2FCFC21061C17
:103F200018908905201C03F0EBF903F099FCFC21A3
:103F3000041C19908905381C03F0E2F903F090FC89
:103F4000221C031C311C1A902868FFF709FEA86880
:103F50000BF0B7FE07A908A8AC680DF0B2F8002373
:103F6000184A009308A90192201C1A1C00F046FA76
:103F700008A80DF099F8FA2080000DF0B0FBA868B1
:103F80000BF09FFE15A80CF074FA12A80CF071FA51
:103F90000FA80CF06EFA0CA80CF06BFA07A80DF045
:103FA00083F806A80DF080F809A80CF062FA25B095
:103FB000F0BDC046484201006C420100B142010020
:103FC000E0FCFFFFDC050000F0B58360204B85B00E
:103FD0001F68051C01604260002F36D02020FFF7CB
:103FE00025F8041C10300BF0DCFA05232380013384
:103FF00063801820FFF71AF8164B061C0293002363
:1040000020C6191C01901022301C03930EF050FAA8
:1040100002A90822301C0EF02EFA0F4B019A381C10
:1040200053610023E360C233A3800023A260A36135
:10403000E3613B68211C5B689847002805D0201C81
:104040000BF038FA201CFFF713F8281C05B0F0BD60
:1040500010080020613C0000A9F90000F7B5041C1D
:104060000121A37A00259C460D3399400091291C1B
:10407000276FFB680193019B9D4231DABB687A6927
:104080006B4363445B00E67AD3181A785878E37977
:10409000012E04D15E1E361A101C321C0EE0022EB8
:1040A00005D15E1EB21A267A013E301A06E0032EB2
:1040B00004D1267A013EB61A021C301C5B00434331
:1040C000606F667A8218D3189B79B34200DD331C87
:1040D000627B1A4202D00123AB4019430135CAE783
:1040E0001123C943FB56606C994023691940009B1A
:1040F00019430DF0B6FBA37B072B18D8627B581C25
:10410000520062730A499A00A073022B03D88858A0
:104110000DF0DAFAA4E7074B201C23630023636346
:10412000054B8958E462236414300DF0BBF9F7BDE8
:10413000F02E01005D400000D1F9000010B5041C14
:10414000044B03600DF0A6F9201C01F0CBFB201CF2
:1041500010BDC046082D010010B5041C0E4B0833DD
:104160000360FFF723F8201C74300CF09DFF201C27
:1041700060300CF099FF201C58300BF0D2F9201C55
:1041800050300BF0CEF9201C044B14306361FFF764
:10419000D5FF201C10BDC046302B0100202D010092
:1041A000F8B50025041C314B858008330360857108
:1041B0001430161C0F1C01F07FFB201C2C4BE562F9
:1041C000636125645030FFF70FF8201C5830FFF76B
:1041D0000BF8201C603000F045FF201C3368266778
:1041E000590009B20423F25E74300CF07BFF33787F
:1041F000226FE3717368A78023721023E572A572A2
:104200002561D356916859188B4204DA01209840F1
:1042100001330543F8E71123D168D35659188B426F
:1042200006DA01229A402069013302432261F6E74F
:104230001420FEF7FBFE226900212A430123061CFD
:1042400001F0F6FDFF226272221C00230125483294
:1042500066646573A3732373201C1370A366FEF753
:104260008DFFA379201C2B43A371F8BD302B0100D7
:10427000202D0100F7B5437A002B66D00121837A07
:1042800000259C460D3399400091291C076FFB685F
:104290000193019B9D422CDABB687A696B436344AE
:1042A0005B00C67AD3181A785C78C379012E04D1E2
:1042B0005E1E361B141C321C0EE0022E05D15E1E43
:1042C000B21A067A013E341B06E0032E04D1067AA8
:1042D000013EB61A221C341C5B006343446FA218D3
:1042E000D3189B79002B02D00123AB401943013531
:1042F000CFE71123C943FB56041C99400369406C66
:104300001940009B19430DF0ACFA667AB31EDBB27C
:10431000FC2B14D8FEF726FF0C4B051C236300234F
:104320000B4863630B4BFF21E4622364704302F08C
:1043300035FB011C201C694314300DF0B3F8637A7F
:10434000012B02D8201C0BF04DFBF7BDE5F9000056
:10435000B6030000D1F9000007B501228188131CC3
:1043600068460BF028F9012268460249131C0BF03D
:1043700022F907BDFE030000031C13B548331A7869
:10438000041C002A0DD000221A7001328188131CEF
:1043900068460BF010F9012268460449131C0BF023
:1043A0000AF9201C74300CF094FE13BDFF030000CA
:1043B00008B548300378002B06D00378012B03D0D2
:1043C000024801210AF0ECFF08BDC046FF030000CF
:1043D00010B50121041C06200AF0E2FF064B9842AA
:1043E00009D1231C48331A78002A04D01B78012BEA
:1043F00001D020BFF5E710BD16FCFFFF73B5079C89
:10440000051C002C09DB061C48363078002806D035
:104410003078012803D00D4816E00D4814E00698C6
:1044200012B2C0B20090281C1BB274300CF061FEB6
:104430000020844207D02B1C4A331C8007234C35B4
:104440002880337000E0201C76BDC04612FCFFFFC0
:1044500017FCFFFFF8B5041C171E09DD061C4836C3
:104460003378002B06D03378012B03D00C4816E0AC
:104470000C4814E0221CE3795632013B1370231CD4
:104480000025201C54331D8050300BF06EF8231C87
:104490004A331F800223281C4C3425803370F8BD1A
:1044A00012FCFFFF17FCFFFFF7B5002A1BDD051C00
:1044B000161C0F1CFFF77CFF2B1C48331878C4B266
:1044C000002C12D1391C01A80BF047F801A9321CAD
:1044D000281CFFF7BFFF01A80BF023F8281CFFF7EB
:1044E00077FF201C02E0024800E00248FEBDC04603
:1044F00017FCFFFF11FCFFFFF0B51F1C85B00AABD6
:104500001B78041C039300933B1C0D1C161C0CF021
:10451000D5FE002832D0237D082B2DD82368002219
:10452000191CFC318A62A0211648C9005A508446E1
:104530001A5005200138C046C046C046C046C04695
:10454000C046C046C046C046C046C046C046F1D17F
:10455000012062462368985005225A5001F048FF16
:10456000039B201C0093291C3B1C321C0CF0A6FE54
:10457000237D01332375CCE7034800E0207505B0A7
:10458000F0BDC046FC0F00000EFCFFFFF0B51F1C85
:1045900085B00AAB1B78041C039300933B1C0D1CD5
:1045A000161C0CF073FE002832D0237D082B2DD86A
:1045B00023680022191CFC318A62A0211648C90018
:1045C0005A5084461A5005200138C046C046C0469D
:1045D000C046C046C046C046C046C046C046C046AB
:1045E000C046F1D1012062462368985005225A50F6
:1045F00001F0FEFE039B201C0093291C3B1C321C77
:104600000CF044FE237D01332375CCE7034800E022
:10461000207505B0F0BDC046FC0F00000EFCFFFF8A
:1046200008B4024B9C46043808BC6047F1FD00000A
:1046300070B5002926D00D1C0026C468002C1ED0A1
:104640000222A988A3884B40134216D1114203D1FC
:10465000AB889B0707D510E0A068A9680BF09CFE0B
:10466000002804D1F4E7A368AA68934205D12B88F7
:10467000002B09D022889A4206D0E469DEE7201C8C
:10468000002E0DDC07480BE06B88002B02D06288FF
:104690009A42F2D1A388044A01361343A380ECE77F
:1046A00070BDC04617FCFFFF0080FFFFF7B5002973
:1046B00052D00D1C061CC468002C19D0AA880023F7
:1046C000920702D5A3889B07DB0F226829688A42DC
:1046D0000CD1002B06D0A068A9680BF05DFE002865
:1046E0003CD103E0A368AA68934237D0E469E3E7CA
:1046F000F0682A88071C031E22D01988914205D22F
:10470000D9691F1C00290DD00B1CF6E7191C3B1C96
:1047100008E00C88944207D14F886C88A74203D2E6
:104720000B1CC9690029F4D183420BD119888A4234
:1047300005D3914206D158886988884202D9EB6135
:10474000F56002E0D969E961DD6168460849012345
:104750000AF031FF002009E0064807E0A3881AB2FA
:10476000002A02DA5B045B0CA3800348FEBDC0464E
:10477000FD03000017FCFFFF16FCFFFF064B10B502
:104780001A1C041C08323033026043600430FEF708
:104790007BFA201C10BDC046502B010008B4024B10
:1047A0009C46043808BC60477D47000008B4024BB3
:1047B0009C46043808BC60470BFE00000C4A0023EE
:1047C000111C3032083110B5038183724260C3601E
:1047D0000361436143830160041C0430FEF746FA21
:1047E000044B1A68002A00D11C60201C10BDC04672
:1047F000502B010010080020F7B50D1C0126C468DD
:104800000192002C36D023882A889A4201D0002BAE
:1048100025D163886A889A4201D0002B1FD1FEF708
:1048200099F90123002806D0A288BF331340C03B6A
:104830005A425341DBB2019A93420FD1A28813B27C
:10484000002B0BDB231C291C103381C981C35306A9
:1048500007D4FEF77FF9002803D006E00026E469BC
:10486000CFE7201C0BF0DAFAF9E7211C0248FEF72B
:1048700023FBF4E7301CFEBD1DFE000008B4024B14
:104880009C46043808BC60471FFF0000F0B587B0A5
:1048900001930EAB1B88061C03930D9B0D1C00930C
:1048A000019B02920C9F002B3DD0002F02D1009B58
:1048B000DB0738D52020FEF7B9FB041C10300AF0C6
:1048C00070FE6B461B89258063801820FEF7AEFBC7
:1048D0000497071C051C009B00210593019B1022D7
:1048E00008C7381C0DF0E4FD04A90822381C0DF09F
:1048F000C2FD0E4B02226B610023A5600399E360A9
:10490000A361E36133680A43A2805B68301C211C09
:104910009847002808D0201C0AF0CCFD201CFEF788
:10492000A7FB034800E0034807B0F0BD4BFF0000C1
:1049300016FCFFFF17FCFFFFF0B5041C161C00253A
:104940008380164A164B857102602181468105736A
:10495000186889B08C46A8421DD0124A0595049269
:104960006A4604AB82CB82C2C023614602932A1CF2
:10497000231CFFF78BFF0B4A094B06926A46186807
:10498000079506AB82CB82C2C023311C02932A1C3E
:10499000231CFFF77BFF201C09B0F0BDA02B0100FA
:1049A000100800205D00010030B50024034D847123
:1049B0000560818042730373846030BDC02B0100A9
:1049C00070B5041C00250D4B0E1C083385808571C5
:1049D0000360211C14300BF000FC201C211C1C3037
:1049E0000BF01EFC064BA680A571E5712572657261
:1049F000E5602561201C1C6070BDC046D82B0100FD
:104A0000180800208379DB0702D54172002000E0FE
:104A10000048704716FCFFFF8379DB0701D5407A19
:104A200000E001487047C04616FCFFFF38B5056935
:104A3000002D23D0037A032B22D8041CFFF7ECFFB0
:104A4000283528702C20FEF7F1FA2C220021051CB5
:104A50000DF02EFD002322695362E368002B01D183
:104A6000E26005E0596A002901D00B1CFAE75A629E
:104A7000237A256101332372002002E0014800E01F
:104A8000014838BD17FCFFFF13FCFFFF10B5134CA6
:104A90002068FFF7CBFF2068114B0269114CE250F0
:104AA000114B5A68002A03D000225A600132A260DA
:104AB0001B690C4A002B0FD000210B4B196180237E
:104AC000DB00D358012B05D1A923DB00D158C9B293
:104AD000FFF798FF0123A36010BDC046180800200F
:104AE0000405000000100040FC10004008B500293B
:104AF00003DB024B19600CF09EFC08BD1C08002073
:104B000070B5041C1E1C04AB1D7800F021FD201C98
:104B10000D4B40302360FEF767FB231C221C4C33F7
:104B20001E701D730023E1214E32A3646365138060
:104B300053809381D381013B201C63644902FFF7BA
:104B4000D5FF201C70BDC046182A010002200D4A66
:104B50000D4B30B59850101C8022D2009C58002C70
:104B6000FAD0A124084DE400295199580029FCD01D
:104B70000021054A11508022D2009A58002AFAD00A
:104B800030BDC0460405000000E00140F0B50F4C08
:104B90000125A4460E4805518024E4000459002C48
:104BA000FAD000248027FF009C4207DAA5004E5966
:104BB0005651C559002DFCD00134F3E7002362465D
:104BC0008350C359002BFCD0F0BDC0460405000043
:104BD00000E0014030B501240A480B4B1C50041C76
:104BE0008020C0001D58002DFAD00A601A58002AF3
:104BF000FCD00021044A11518022D2009A58002A88
:104C0000FAD030BD0405000000E00140F7B5802770
:104C10007F053D697C690822113C6C43061C211C00
:104C200068460DF028FC104B009A9A4219D0009368
:104C3000002301937969301C13396943FFF786FF1C
:104C4000019A301C00990BF000FB301C211CFFF76F
:104C50007DFF7969AB0813396943301C221CFFF7CB
:104C600095FF0198FEBDC046FECA0000F0B50C1CC1
:104C7000ABB00021051C161C12A830220DF018FC48
:104C8000201C0DF0BEFC021E102A00DD1022211C8B
:104C900012A80DF0F0FB311C202216A80DF0EBFB42
:104CA00080235B051A69281C0C925A690C99113AE9
:104CB00051435E690D91FFF7A9FF0D9B0021083359
:104CC0003022041C1EA80F930DF0F2FB311C0C9B2C
:104CD00013395943281CFFF739FF00230F9E0B930C
:104CE0000E930B9BA34237DA311C1EA830220DF025
:104CF000C2FB1EA812A90DF07AFC002818D1354974
:104D0000281C221C109111940BF09FFA6A460996F8
:104D100015AB83CB83C283CB83C283CB83C2281CD6
:104D2000149B1299139A0BF0A4FA01230E930EE030
:104D30006A46099621AB83CB83C283CB83C283CBE4
:104D400083C2281C1E991F9A209B0BF092FA0B9B82
:104D5000303601330B93C4E7E6433021F617264083
:104D60004E430F9B9E190E9B002B1CD10C9B981E33
:104D700001F084FD84422AD016490134281C221CEB
:104D8000109111940BF061FA6A46099615AB43CB6A
:104D900043C243CB43C243CB43C2281C1299139A4C
:104DA000149B0BF066FA281C0D99FFF7CFFE8023A9
:104DB0005B0559690C9B13394B43191C0C23634346
:104DC000281C02330D9AFFF7E1FE002000E00248A4
:104DD0002BB0F0BDFECA000013FCFFFF37B5828088
:104DE000FA2200230D1C12499200083183710160E0
:104DF0004561C260836043820E49041C01A8FEF72E
:104E0000E3F9281C01A90BF091FA051C01A80AF08E
:104E100088FB002D09D0291C201C103112300222E1
:104E20000DF029FB281CFEF723F9201C3EBDC046CF
:104E3000F82B0100BF42010030B50225837985B00F
:104E4000041C2B4204D1FDF711FFA3792B43A3715E
:104E5000201C0BF07CFA00282BD06B46DD1C281C94
:104E60000BF06CFA2B78002B03D001A80BF064FA3E
:104E70000EE00122104B1A60104B5A68002AFBD03A
:104E800000225A600E4B01321B6801930A4B5A6094
:104E9000019BDA17920FD3189B102382FEF768F953
:104EA0000122E368A188C018A060131C02A80AF0C0
:104EB00082FB002005B030BD00C00040FCC00040B7
:104EC00008C5004010B5041C054B083303601830BA
:104ED0000AF027FB201C14300AF023FB201C10BD15
:104EE000182C010038B5041C8068002808D0064B37
:104EF0001D8800F011FA0368291C1B6A15229847C7
:104F0000201CFDF7C1FE38BD260C002038B5002559
:104F1000041C094B8580083385710360C16014301F
:104F2000FEF762F9201C1830FEF75EF9034BA5600E
:104F30002561201C1C6038BD182C010020080020B1
:104F4000002815D0006041608260C3600461456143
:104F50008661C761444604624C464462544684629A
:104F60005C46C462644604636E464663744684636A
:104F7000002A06D0C46B043C043A25681560B4428C
:104F8000F9D18C6BA6464E6BB546002B06D0CC6B88
:104F9000043C043B1D682560B442F9D10C6BA44667
:104FA000CC6AA3468C6AA2464C6AA1460C6AA0460B
:104FB000CF698E694D690C69CB688A680868496851
:104FC0007047006041608260C36004614561866132
:104FD000C761444604624C464462544684625C465F
:104FE000C462644604636E46466374468463C46B5D
:104FF000043C043925680D60B442F9D1C76986695B
:10500000456904697047006041608260C360046163
:1050100045618661C761444604624C464462544619
:1050200084625C46C462644604636C4644637446AE
:10503000846304697047846BA646446BA546046B81
:10504000A446C46AA346846AA246446AA146046A86
:10505000A046C769866945690469C36882680068B3
:1050600041687047014B03607047C046102F010034
:1050700030B504686088814206DAA588AA4203DA5E
:10508000002901DB002A01DA034804E050436118DB
:1050900008188371002030BD17FCFFFFF0B5071C16
:1050A00085B00D1C1E1C002921DD002B1FD00468BB
:1050B00063880391994200DD0393A38802929A4288
:1050C00000DD0293002306340193019B029A934270
:1050D0000BDA201C311C039A0DF0CDF93B687619D0
:1050E0005B88E418019B0133EEE7002000E00148F3
:1050F00005B0F0BD17FCFFFFF8B5041C0E1C151C15
:105100001F1C002901DB002A02DA0D4B236015E089
:10511000101C48430630FDF789FF20600AF091FA21
:105120002368201C5E809D80002F05D0311C2A1C26
:105130003B1CFFF7B3FF01E00BF0CBFFF8BDC0460F
:10514000102F0100F0B5061C87B00C1E05D0002002
:105150000F1C051C0190011C15E0224B03603EE072
:105160003022524294469C446246092A14D90A2BA2
:105170000DD1019B2D1801330193A94200DA291C9E
:105180000020051C01373B78002BE9D106E0002800
:10519000F8D001350020F5E70120F3E76A46928850
:1051A00009B212B2301CFFF7A7FF33689D1D03AB95
:1051B0001F1C2278002A12D0111C3039092902D86C
:1051C0001A70013309E000221A70BB4205D9381C5D
:1051D0000DF06BF83B1C287001350134E9E7301CF9
:1051E00007B0F0BD102F0100F0B5041C87B004A873
:1051F000151C1E1C0F1CFDF79FFE23685A88954244
:1052000008DA9B889E4205DA1F2F03D9059B00937D
:105210009F4201DD18482DE0052300217B430193C7
:10522000049B0293019B029ACB18A03BD35C002203
:1052300003938B199C4653192768009378888342FF
:1052400002DABB889C4507DB0132052AF3D1013124
:105250000529E7D100200DE063465843009BFB1869
:10526000102717411818039B1F407B1E9F417F4248
:105270008771E9E707B0F0BD17FCFFFFF7B50368DA
:105280009E1D5B885A1A019200291CDD0C1C051C0E
:105290000027994202DB0BF01CFF12E02B689B8871
:1052A0009F420EDA3119301C019A0DF0E4F8019B8F
:1052B000211CF0180BF0FFFE2B6801375B88F618F5
:1052C000ECE7002000E00148FEBDC04617FCFFFFF0
:1052D00010B50548054C20600AF0B6F9201C0449B9
:1052E000044A0CF04AFB10BD102F010024080020D6
:1052F000A910010000000020436810B5041C002B19
:1053000002D104480CF03BF9606803681B699847B8
:1053100010BDC046C7420100436810B5041C002BF5
:1053200002D104480CF02BF9606803681B699847A8
:1053300010BDC046C742010080B2002807D1BFF3AC
:105340004F8F034A034BDA60BFF34F8FFEE770477E
:105350000400FA0500ED00E00120054A08B51378C5
:105360005840044B10701B68002B00D0984708BDB4
:105370002C0C002028080020F0B5264B85B01B78A7
:10538000002B45D0244B254E1D6834686A42554198
:1053900062425441EDB2E4B20193002D36D103A82C
:1053A0000BF03AFF05280CD0002804D0291C2A1C39
:1053B000FFF7C2FF06E0019B03981B680093984724
:1053C00000E00125002C1ED1154B03A91B880124E8
:1053D0000B80144B1B68181C00930BF01FFF071E5B
:1053E000052F0BD0002805D000210A1CFFF7A4FFD1
:1053F000002403E00098336898473C1C002DCCD073
:10540000002CCAD004E0002D02D1C6E7002CDBD06E
:1054100005B0F0BD2D0C002030080020340800201D
:10542000280C00202C08002008B5074B1B68002B17
:1054300007D09847002806D000210A1CFFF77CFF00
:1054400001E0FFF799FF08BD3808002010B5041CE3
:10545000012201F0DDF8024B201C0833236010BD4F
:10546000602C010010B5041C034B0833036001F0ED
:10547000B5F8201C10BDC046602C0100842010B57A
:1054800040000CF019FD00218022041C044B4160F7
:105490000360520008300DF00BF8201C10BDC04610
:1054A000402C010070B5041C0E1C151C002110229C
:1054B0000CF0FEFF054B201C2361311C2A1C00F060
:1054C0000DFC034B201C1C6070BDC046A086010073
:1054D0003C08002038B5054D2B68834204D0041CDD
:1054E000216900F0B5FB2C6038BDC0463C080020A7
:1054F00010B5041C034B083303601C3000F01AFB8A
:10550000201C10BD882C010070B5051C041C0E4B1E
:105510000E1C083308C5281C002118220CF0C8FFF7
:105520000023201C311CE36123626363A363E364F3
:10553000064A231C1C3000F0CDFA281C311C0CF04C
:1055400034F8201C70BDC046882C010029130100CE
:1055500010B5041C00F03EF9014B201C236010BD67
:10556000A02C010008B5054B1B68002B04D1044892
:105570001821192200F0BEFC08BDC046E409002035
:10558000740C0020074B083303600023064A995827
:10559000814201D10021995080220433520093426C
:1055A000F4D17047A82C010040080020F0B50F1C72
:1055B00085B02F49051C0DF01AF8041E02D1FFF723
:1055C000D1FF52E0281C2B490DF011F8002803D11F
:1055D000FFF7C8FF012448E0281C27490DF007F811
:1055E0000024A04206D1FFF7BDFF02343DE00134A4
:1055F000402C0FD0214BA600F2580193002AF6D17F
:105600000BE002A8291C0CF067F902A80CF0B0F915
:1056100000280CD10124644227E02B783A2BF0D1EA
:10562000281C174902AA07F00DF9029818E002A8F1
:105630000CF088F9002803D002A80CF08DF90FE0D7
:1056400002A80CF076F9051EE4D0036802A89B6856
:1056500000930CF061F93A1C011C009B281C984730
:105660000028D7D0019B03349851201C05B0F0BD11
:10567000EA42010007430100F14201004008002016
:10568000F942010008B5031C0020022B0DDD07497B
:10569000033B9B005A585850824204D01368101C98
:1056A0005B68984701E00120404208BD40080020A7
:1056B00070B50C1C151C022810DC0F4B1B68002B4E
:1056C00001D1FFF74FFF6619B44205D021780B488E
:1056D00000F0AEFC0134F7E7281C0BE00338084B60
:1056E0008000C058002803D003681B68984701E079
:1056F0000120404270BDC046E4090020740C002027
:105700004008002010B50C1C02280BDC0C4B1B6859
:10571000002B01D1FFF726FF0A480CF0AAF82070F1
:1057200001200BE00338084B8000C058002803D04C
:1057300003689B68984701E00120404210BDC046C5
:10574000E4090020740C00204008002008B5031C68
:105750000120022B0BDD033B054A9B0098580028D3
:1057600003D00368DB68984701E00120404208BD90
:105770004008002008B5031C0020022B0BDD033B72
:1057800005489B001858002803D003681B699847F8
:1057900001E00120404208BD4008002008B5024851
:1057A0000BF0EDFE08BDC046FD420100074A13683C
:1057B0001818EFF30881884205D30C220120044B0E
:1057C00040421A6001E01060181C70470800002079
:1057D0007C0C002038B50C4B041C03600023436094
:1057E0008360C3600362436283639623051D9B014C
:1057F000C363281C00F07EFB281C0449221C00F017
:105800000BFC201C38BDC046E02C0100091401002F
:10581000F7B50027041C08A8C7570E480025083014
:105820002060082020610C48261D6560A560257356
:105830006561A0610097301C00F082FC301C2B1CBD
:105840002169626900F002FC301CA16900F036FC9D
:10585000201CFEBDE82C010040420F0070B5094D30
:105860002B6883420CD0041C061D301C2169626920
:10587000002300F0EBFB301CA16900F01FFC2C6042
:1058800070BDC04640090020002208B5024B81616E
:105890001A60FFF7E3FF08BD4009002010B5041CA3
:1058A000044B03600BF0F6FD201C00F01BF8201CDD
:1058B00010BDC046082D0100084B10B50833036029
:1058C000002343608360C360041C00F041F8044976
:1058D00020610BF090FE201C10BDC046302D010051
:1058E000F314010010B5041C034B083303600BF0E4
:1058F0000DFE201C10BDC046302D0100064B10B51A
:105900001B68041C002B00D09847044B1B68002B1D
:1059100001D0201C984710BD440900204C090020EC
:10592000094B10B51B68041C002B04D098470028B5
:1059300001D1FFF7E3FF054B1B68181E00D0984705
:10594000002C00D0206010BD480900205009002024
:10595000004870472C2F010008B502480BF054FE98
:1059600008BDC0462C2F01000848026803210A43E5
:1059700002600749074A084B9B1A03DD043BC858DD
:10598000D050FBDC0548804705480047240500400F
:10599000244B010000000020EC000020896600007C
:1059A00021010000FEE7FEE7FEE7FEE7FEE7FEE777
:1059B00001704B1C0AD001238B404360044BC36031
:1059C000044B0361044B4361044B83607047C04642
:1059D000080500500C05005010050050140500503B
:1059E00037B5A223A022DB00D205D358BE220193F3
:1059F000314B5200995800295DD0C1218900595876
:105A0000002958DA00249C502C4BA500E8580028A7
:105A10004ED02B4BE35C002B30D0019B0121E340A7
:105A20000B4212D0231CA022C133FF339B00D205AE
:105A30009B589B039B0F032B07D0224B1B68E34013
:105A40000B4202D0204B1B6817E0019B0122E34070
:105A5000134213D1231CA021C133FF339B00C9057E
:105A60005B589B039B0F032B08D1184B1B68E3402B
:105A7000134203D00221144B1B689847A023DB0577
:105A8000EA18E023C025DB00D158AD0229420FD02F
:105A9000D1580F480840D0500198E040C10702D5C6
:105AA000D158294303E08020D15880020143D150CE
:105AB00001341F2CA8D137BD0060004060090020D0
:105AC0002E0C0020DC0900205C090020E0090020E9
:105AD000FFFFFCFF30B5041C081C4D1C1CD00F48F8
