:020000021000EC
:1080000000400020210C02005D0C02005F0C020009
:108010000000000000000000000000000000000060
:10802000000000000000000000000000610C0200E1
:108030000000000000000000630C0200650C02005C
:10804000670C020011C0010085120200670C0200DB
:10805000670C020000000000990C0200670C02008F
:10806000670C02004D17020011110200670C02009C
:10807000670C0200670C0200670C0200670C02002C
:10808000670C0200670C0200670C0200670C02001C
:10809000670C0200FDED0100C9EF0100670C020052
:1080A000670C0200670C02000000000000000000E6
:1080B00000000000000000000000000000000000C0
:1080C00010B5064C2378002B07D1054B002B02D0AE
:1080D000044800E000BF0123237010BDBC20002035
:1080E00000000000E8FB020008B5084B002B03D09D
:1080F0000748084900E000BF07480368002B00D18B
:1081000008BD064B002BFBD09847F9E700000000A4
:10811000E8FB0200C0200020BC200020000000007E
:10812000164B002B00D1144B9D46402292029A1A06
:10813000924600218B460F461348144A121A15F036
:10814000E0FF0F4B002B00D098470E4B002B00D0C8
:1081500098470020002104000D000D48002802D09F
:108160000C4800E000BF0FF06BF82000290014F06D
:1081700078FF0EF087FFC046000008000040002096
:108180000000000000000000BC200020CC2C0020DB
:10819000000000000000000010B5041C034B083371
:1081A000036000F0C1FB201C10BDC046E8E30200E4
:1081B000F0B50025041C85B00F1C03930B990AAB86
:1081C000161C5D5700F082FB174B391C08332360E7
:1081D00094239B00E01801235B420093321C039B15
:1081E00008F09CFC9B239B00E6180021301C182201
:1081F00015F087FF301C291C15F03AF8A223002245
:108200009B00E250F3687268201C1A609223074AB0
:108210009B00E250064A0433E25005B0F0BD201C3A
:1082200000F082FB15F091FCE8E30200A08601005B
:1082300040420F00F8B59B239B00C518161C2B6904
:108240006A681D4F1A6094239B00C4184023201CA9
:10825000194314F041FF3116201C14F03DFF311476
:10826000201C14F039FF3112201C14F035FF311C92
:10827000201C14F031FF201C952114F02DFF201C30
:10828000FF2114F029FF061C030608D4EB686A6876
:10829000201C1A60FF2114F01FFF301C0BE0013F6F
:1082A000002FECD1EB686A68201C1A60FF2114F0E3
:1082B00013FF01204042F8BD8813000038B5051CAB
:1082C0000F4C37210022281CFFF7B4FF281C29215E
:1082D0000022FFF7AFFF002809D18022A1239200DE
:1082E0009B00EA5007480FF0DBF8012006E0013C54
:1082F000002CE6D104480FF069F9201C38BDC046B7
:1083000088130000FCF0020011F102009B239B0087
:1083100070B5C518161C2B696A681A6094239B00F7
:10832000C4184023201C194314F0D6FE3116201C1B
:1083300014F0D2FE3114201C14F0CEFE3112201C99
:1083400014F0CAFE311C201C14F0C6FE201C95211E
:1083500014F0C2FE094E201CFF2114F0BDFE0306DE
:108360000BD5013E002EF6D1EB686A68201C1A601E
:10837000FF2114F0B1FE0120404270BD88130000BF
:10838000F8B59B239B00C5186A682B697A211A608F
:1083900094239B00C418201C14F09EFE0021201C76
:1083A00014F09AFE0021201C14F096FE0021201CDF
:1083B00014F092FE0021201C14F08EFE201C95214A
:1083C00014F08AFE164F201CFF2114F085FE061CB7
:1083D000030618D4FF21201C14F07EFEFF21201C70
:1083E00014F07AFEFF21201C14F076FEFF21201CE1
:1083F00014F072FEEB686A68201C1A60FF2114F00A
:108400006BFE301C0BE0013F002FDCD1EB686A688B
:10841000201C1A60FF2114F05FFE01204042F8BDCD
:108420008813000038B5051C134C322014F099FF56
:10843000281CFFF7A5FF37210022281CFFF7FAFEB2
:108440008022281C2921D205FFF7F4FE00280BD139
:10845000281CFFF795FF09480FF022F8A1230122FD
:108460009B00EA50022006E0013C002CDDD10448CC
:108470000FF0ACF8201C38BD881300002FF102006B
:1084800043F102009B239B00F7B5C5186A682B696E
:1084900048211A6094239B00C418201C14F01CFE71
:1084A0000021201C14F018FE0021201C14F014FEE2
:1084B0000121201C14F010FEAA21201C14F00CFE37
:1084C000201C872114F008FE0026201CFF2114F038
:1084D00003FE030615D46B4604271870201CFF21E9
:1084E00014F0FAFD6B46013F9855002FF6D1EB686A
:1084F0006A68201C1A60FF2114F0EEFD6B461878A4
:108500000CE0074B01369E42DFD1EB686A68201C05
:108510001A60FF2114F0E0FD01204042FEBDC0467C
:10852000404B4C00942370B5051C9B00C618083BBB
:10853000E958301C08F02EFB9B2310249B00EB18FD
:10854000DA685B681360301CFF21013C14F0C4FD45
:10855000002CF8D1281C211C221CFFF76BFE0128DF
:108560000BD0281C211C221CFFF764FE012804D01C
:108570000C480FF02BF8201C12E0281CFFF782FF9C
:10858000012803D1281CFFF74DFF09E0052803D17E
:10859000281CFFF793FE03E003480FF017F80020B4
:1085A00070BDC04661F1020098F102007FB509215B
:1085B0000022051CFFF7AAFE002804D024480FF073
:1085C00005F8002041E0281C694610220FF0F6FF54
:1085D000041E2048F3D168467F217E220FF0CEFF93
:1085E00000280CD001282CD1A1239B00E8503F216A
:1085F000684630220FF0C2FF0130800225E0802261
:10860000A12392009B00EA50C33A4921FF3A6846F1
:108610000FF0B4FF3121041C2F2268460FF0AEFF8B
:108620005022051C532168460FF0A8FF01231A1C95
:108630008240101C0235E418AB4060435843400AA6
:1086400003E005480EF0C2FF201C04B070BDC04618
:10865000CFF10200F3F1020018F2020038B5041C59
:10866000FFF760FFA2239B00011EE050104811D0CD
:1086700010480EF015FF201CFFF798FF9123802271
:108680009B00E0501021201C9200FFF7D3FD051E37
:1086900004D009480EF09AFF012506E094239B00C0
:1086A000E018043BE15808F075FA281C38BDC046B4
:1086B00030F2020048F2020059F2020010B5041C28
:1086C000034B0833036008F04FF9201C10BDC0466F
:1086D00030E4020007B5043001AB10F069FD011E63
:1086E000019804D002480EF0DBFE012040420EBD8E
:1086F00076F2020007B5043001AB10F088FC011ED1
:10870000019804D002480EF0CBFE012040420EBD7D
:108710008BF2020010B5041C022A01D1036902E0A9
:10872000012A01D1C368C918201D10F01DFE011EC9
:1087300005D006480EF0B4FE0120404204E0044893
:10874000E1680EF0ADFEE06810BDC046A0F2020088
:10875000B2F2020008B5043010F0F4FC011C002055
:10876000814204D002480EF09BFE0120404208BD29
:10877000CAF2020084B030B50693031C0592084A81
:1087800004AC083204C3221C049132CA32C332CA78
:1087900032C332CA32C330BC08BC04B01847C0462A
:1087A00030E4020008B503484D2100220FF0E5FF38
:1087B00008BDC046F02B002070B5151C9022A8B053
:1087C000920082180B1C18A822490EF06BFF03229E
:1087D000AB0702D4023A2A400132AB0506D56B053D
:1087E00001D5082300E010231A43D2B206AC18A921
:1087F000201C10F071FB011E04D017480EF050FE33
:10880000002025E02B0703D5201CE16810F0ACFD0B
:108810000FAD201C2B1C16C816C316C816C316C8CD
:1088200016C3282001F060FE6A46041C12AB43CB3D
:1088300043C243CB43C2201C0F996A68AB68FFF761
:1088400099FF201C04E0201C01F070FE15F07DF95A
:1088500028B070BDDFF20200E6F20200081C08B585
:1088600010F06FFE011C0020814204D002480EF07F
:1088700017FE0120404208BDFEF20200081C08B5A8
:10888000111C10F04CFF011C0020814204D0034851
:108890000EF006FE0120404208BDC04615F302005E
:1088A00008B5902380229B000021C018920000F0A0
:1088B00037FC011C0020814204D003480EF0F0FD7B
:1088C0000120404208BDC0462CF3020038B5041C0C
:1088D0000D1C07F0ADFF104B083323600F4B1A68D7
:1088E000002A04D00E48291C0EF0DAFD12E01C60AC
:1088F00090233021201C9B00E1540A4B1030E2549D
:10890000013BE11800F0E4FB04E0201C07F09CFFB1
:1089100015F01BF9201C38BD60E40200D8200020AF
:1089200041F30200410200000A4B10B50833036016
:10893000094B041C1A68824207D100221A60902356
:108940009B00101CE11800F0C3FB201C07F07CFF0B
:10895000201C10BD60E40200D820002008B50348A8
:1089600000219A220FF00CFF08BDC046DC20002039
:10897000031C30B5044A083204C334C934C334C9B3
:1089800034C30A681A6030BDA8E40200F8B5041CBC
:1089900010F024F8051E53D12378032B48D16779B2
:1089A000012F45D1261C80223036301C291C920014
:1089B0000FF072FF5522234B4121E254224B9218B3
:1089C000E254221CDE3BFF3B313233701370231C18
:1089D0006122323385201A7059707223800023542B
:1089E0001A4823541A4BE1541A4BE2542369B83203
:1089F000FF32A354184A190AA154184A190CA15459
:108A0000174A1B0EA354E3680132A354154A190AEE
:108A1000A154154A190CA154144A1B0EA354E3691E
:108A200060785A1CE262311C3B1C00F09BFE6571B1
:108A3000002160780A1C00F0A3FE431E9841C0B2DA
:108A4000F8BDC0462E0200002F02000015020000F3
:108A50001602000017020000190200001A020000AE
:108A60001B0200001D0200001E0200001F02000089
:108A7000002310B50371013BC362041C0FF0B8FF63
:108A8000011C0320002939D11D4B1E4AE35CA25C66
:108A90001B0213431C4A1BB2013893422ED1231CE4
:108AA00069331B78081C1A06231C68331B781B04C7
:108AB0001343221C663212781343221C6732127849
:108AC00012021343114A1B021B0A934216D0231CA5
:108AD00085331878013B1B7800061B041843231CC0
:108AE00082331B788334184323781B021843000217
:108AF000074B000AC018431E9841C0B210BDC046C3
:108B00002F0200002E02000055AAFFFF464154002C
:108B1000BABEABFF0023F0B5036089B0071C081C88
:108B2000161C0FF0FBFE0B23051E00DA89E1C64B75
:108B30008200D4580C23002C00D182E13C602378C1
:108B4000002B0DD0607800F0E7FD0123034007D132
:108B5000002E00D175E1420700D472E10A2370E1D2
:108B60000023E8B22370607000F0E2FD0323C20727
:108B700000D566E1002E01D04307EFD4201C002170
:108B8000FFF776FF0025012825D1231CF333FF339F
:108B900000221978914209D0DA79587911069A7928
:108BA000000212040A4319790A43024304A96A50D5
:108BB00004351033102DEBD1002604AB9D59022053
:108BC000002D05D0201C291CFFF752FF00280AD0D9
:108BD0000436102EF1D10123032800D131E1002801
:108BE00001D00D232DE1231C221C3C331B783B328A
:108BF00012781B02134380221BB292009342F0D1E1
:108C0000231C221C47331B78463212781B02134365
:108C100011D1231C57331B781A06231C56331B789B
:108C20001B041343221C543212781343221C553266
:108C30001278120213430093009BA361231C40335C
:108C40001A78531EE270012BCBD8231C3D331978C0
:108C5000A1700029C5D04B1E1942C2D1231C42333A
:108C60001F78013B1B783F021F4327813B07B8D188
:108C7000231C44331878013B1B780002184310D1A1
:108C8000231C53331878013B1B7800061B04184340
:108C9000231C50331B781843231C51331B781B02B1
:108CA0001843231C261C3F331B783E3636781B02A4
:108CB0001E43019695D0009B53430393039A3B09AF
:108CC0009B199B18029398428BD3C01A08F032FF6D
:108CD000002886D05D4B0126984204D95C4E86421E
:108CE000B64176420236019B029A0230EB185219C5
:108CF0006061E5612362A262032E17D1002F00D0CC
:108D00006FE7231C5F331B7880001A06231C5E3339
:108D10001B781B041343221C5C3212781343221C61
:108D20005D3212781202134363620FE0002F00D10C
:108D300057E7039AD3186362022E01D1400005E081
:108D400003230122434310405B081818414BC0180D
:108D5000009B400A834200D243E701235B42236128
:108D6000E36081336371032E2FD1231C221C6133F6
:108D70001B78603212781B021343012B25D1691C2A
:108D8000201C0FF035FE00281FD1334B6071334A91
:108D9000E35CA25C1B021343314A1BB2934214D121
:108DA000231C33331B781A06231C32331B781B0415
:108DB0001343221C303212781343221C31321278B2
:108DC00012021343274A934208D0274A2670138879
:108DD00001339BB21380E380002332E0234BE35C3A
:108DE0001A06234BE35C1B04134385229200A25C0A
:108DF0001343204AA25C120213431F4A9342E4D158
:108E00001E4BE35C1A061E4BE35C1B0413438622D5
:108E10009200A25C13431B4AA25C1202134323611B
:108E2000194BE35C1A06194BE35C1B0413438722BE
:108E30009200A25C1343164AA25C12021343E36041
:108E4000C3E7181C09B0F0BDE8200020F50F0000B2
:108E5000F5FF0000FF0100002F0200002E020000BD
:108E600055AAFFFF52526141A02B002017020000BB
:108E70001602000015020000727241611B02000020
:108E80001A020000190200001F0200001E0200006A
:108E90001D020000F8B5051C0E1E06D1C768002F84
:108EA00013D043699F4211D30FE00FF0C7FD012497
:108EB000A04242D9431C02D1012464423DE06B69C7
:108EC000041C371C984201D237E001273C1C6B6917
:108ED00001349C4204D3012F01D800242DE0022448
:108EE000281C211C0FF0AAFD002808D0431C01D02B
:108EF000012801D1041C20E0BC42E8D1EDE7281C88
:108F0000211C0F4A0FF063FE002813D1002E0AD156
:108F10002B69EC605A1C10D00122013B2B616B794C
:108F200013436B7109E0281C311C221C0FF04FFE0B
:108F30000028EDD00128BFD00124201CF8BDC04678
:108F4000FFFFFF0FF7B50B78041C0D1C2F2B01D072
:108F50005C2B00D101350026A6602B781F2B06D88C
:108F6000201C311C0FF0D6FD6661ABE001352B787B
:108F70002F2BFBD05C2BF9D0A66920210B22301CB3
:108F80000FF08AFC002108220B1C00920A1C5F1CB7
:108F9000EB5C0197202B19D92F2B17D05C2B15D008
:108FA0002E2B73D0009881426ED25FB2002F04DA6C
:108FB00003273A43444F803BFB5C00274348C05D96
:108FC00000286DD001379842F8D15DE00198002764
:108FD0002D18202098427F41BB00002954D03178C1
:108FE000E52901D1E03931700099082901D19200B9
:108FF000D2B203211140012902D10F310B43DBB260
:109000000C210A40042A02D104321343DBB2F3726A
:10901000201C00210FF07EFD00281DD12068216951
:109020000FF0E6FC002817D162691378002B12D0EC
:109030000823D17A0B4009D1A669D05CF15C0133D9
:10904000884203D10B2BF8D1002005E0201C002121
:109050000FF043FEE0E70420A369DB7A002805D087
:1090600004282FD103422DD101302BE05B0729D4F6
:109070006169CB7ADB0605D5236818780FF07BFC95
:10908000A06074E705201DE006201BE0009B082B74
:10909000FAD10B2392000099D2B20093019B76E79C
:1090A0001F1C413F192F02D802273A4307E01F1C1B
:1090B000613F192F03D80127203B3A43DBB2735499
:1090C0000131EBE7FEBDC046B8F3020075F30200C4
:1090D0001FB5019003A8141C009103910FF01EFC12
:1090E0000B22002817DB0D4B8000C1581A1C0029E9
:1090F00001D000230B70019B002B01D000211970BF
:1091000013501A1E07D00022012C04D101A8694671
:10911000FFF700FD021C101C04B010BDE820002069
:10912000F0B58FB00B900D1C01921323012900D9CB
:10913000D1E20BA80FF0F2FB0B23002800DACAE201
:10914000CF4B8200D4580C23002C00D1C3E2002363
:109150002370C3B2181C049300F0EAFA0121032320
:10916000084200D0B7E20733420700D5B3E20498C3
:109170000DAA00F005FB002801D00123ABE20D9EF3
:109180007F2EFAD90590002D00D185E2059B019A2A
:10919000F61A019B0D96013B1A4202D1002A00D01B
:1091A00080E2FA21301CC90008F0C4FC0023B54954
:1091B0005A00515A884201D20133F8E7B24BD35AD0
:1091C0000193019AB14B9A4203D9019B5B0A019327
:1091D00002E0019B002B04D0019B802B03D980234C
:1091E00000E001230193301C019908F0A3FCA84B77
:1091F000984200D85CE2A74B984200D85FE2A64BA9
:109200008000C018430A03930323029300230893AA
:109210002033059A06939446069B039A634407936A
:10922000089B9F186246079BFF18019B9B1ADB193E
:109230009E4201D20E234EE2049803210CAA00F0B4
:109240009FFA002800D02AE20C9B944A013B9342EB
:1092500000D924E20C994B1EDA194B421340DF1B54
:10926000029B0C97032B06D1069BDB190693079BE9
:10927000DB19079302E0039BDB190393069B0D9F09
:109280000199F81A039BC01A089BC01A08F052FCF7
:10929000029B0990022B03D17D4B9842CAD911E061
:1092A000029B032B05D17B4B099A0C269A42C1D90C
:1092B0000DE0029B012B05D1794B06269F4206D873
:1092C000029E04E0764B06269F4200D8023E002D07
:1092D0004FD1231C80223033181C291C92000A9382
:1092E0000FF0DAFAF0230127FF33E754DB19E754D4
:1092F000F223FF33E554DB19E654F423FE22FF3357
:109300000D9EE254059B6749981908F013FC3F2213
:10931000FA218308134349006354F623FF33E054D2
:10932000DB19E254F823FF33E554DB19E554FA2343
:10933000FF33E554DB19E654FC23320AFF33E254D1
:10934000320CDB19E254FE23360EFF33E654564A44
:10935000A93BFF3BA354554A5533A3540C902A1CF8
:1093600004980A993B1C00F0FDF9F835002801D05B
:1093700003E7F025271C80223037381C002192009B
:109380000FF08AFA4A490B22381C0FF07CFA231C92
:1093900002213B3359706946097900229970694668
:1093A000097E1A70D970069B190A231C3F33197065
:1093B00001215970029B033B591E8B41211C4131F5
:1093C0000A70221C5B021B12423213700D9B344A3E
:1093D000934205D8221C433213701B12537008E0CD
:1093E000221C190A503213705170190C1B0E917007
:1093F000D370231C3F224533DA70221CFF214932EF
:109400001D70517069460023097D13709370D170EF
:10941000137153719371274A0C92029A032A4DD10A
:10942000221C2121733291702731D1706946097B4A
:10943000137053701F3A1170039A201C110A221CDA
:1094400055321170039A7730110C221C563211706C
:10945000039A110E221C57321170022151710139E9
:109460009371D37113725172937213730531231C6C
:10947000D172802270331A70573A9A700E4937E0D1
:10948000E8200020E6F00200D0F00200FF0100001A
:10949000F50F0000F5FF000007020000FF7F00004D
:1094A000FFFF0000C13E00002E0200002F0200005E
:1094B00084F302000000214890F30200221C57327E
:1094C00013705370231C212259331A7027325A709B
:1094D0006A46127B133B1A70039B201C1A0A231C3A
:1094E00047331A7080227D495A73573ADA735B30DA
:1094F000163A0FF0C8F95523794A0498A354794ACB
:10950000DB18A354391C059AA93B00F02BF900285D
:1095100000D032E6029B032B06D1059B04989A1DCE
:10952000391C012300F01EF98022381C0021920012
:109530000FF0B2F9029B032B0FD0012B01D16A4B24
:1095400000E06A4B1D43231CFF2230330C951D7035
:109550002D0E5A709A70DD7016E0644B221C1D436C
:10956000231C30331D70FF233132137053709370FE
:10957000D370137153719371D37113725372231C8F
:109580000F223B330C951A70079B391C1A1C5D1C6B
:109590000498012300F0E6F8011E00D0EDE58022DA
:1095A000381C92000FF078F901230C930C9B039A5E
:1095B00093420ED20498391C2A1C01236E1C00F021
:1095C000D1F8002800D0D8E50C9B351C01330C9352
:1095D000ECE7029B2E1C032B01D0089B01936B1C14
:1095E00003930498391C2A1C012300F0BBF80028BF
:1095F00000D0C2E5019B039D9B19AB42EFD1029BBA
:10960000032B40D1221C4F33303213705370211C76
:109610000F3393704122333185250A707221AD00DA
:109620006155334D615533496254334AA354099B04
:109630000132013BA354314A190AA154304A190C92
:10964000A154304A1B0EA354872302229B00E254EC
:109650002D4B234AE0542D4B391CE0542C4BE05445
:10966000CB3BFF3BA3541F4A5533A354059B04989F
:109670005A1C012300F076F8059B0498DA1D391C6A
:10968000012300F06FF8002104980A1C00F078F81C
:10969000431E9841C3B21EE03F23059376E50123A4
:1096A0000C93D7E51B4B019A9A4200D98DE593E5BF
:1096B0000323584301304008C018023B02E0022354
:1096C000023040000293134BC018430A0393202337
:1096D00008931F3B9DE5181C0FB0F0BDA4F30200DA
:1096E0002E0200002F02000000FFFF0000FFFFFF1E
:1096F0001502000016020000170200001902000007
:109700001A0200001B0200001D0200001E020000E1
:109710001F020000FF01000008B5044B8000C05884
:109720000368DB6A9847C0B208BDC046D820002055
:1097300008B5044B8000C05803689B6A9847C0B2C4
:1097400008BDC046D820002010B5054C8000005947
:109750000468246BA047431E9841800010BDC0469A
:10976000D820002010B5054C800000590468646BB7
:10977000A047431E9841800010BDC046D82000205D
:1097800038B50C1C151C012913D0002904D003295D
:109790001ED10123136019E00F4B8000C058032332
:1097A000002816D003689B6B9847431E9841C3B2AC
:1097B0000FE0094B8000C0580323002809D003683C
:1097C000DB6B9847231C002803D02860002300E0AF
:1097D0000423181C38BDC046D820002010B5041C36
:1097E000034B0360403010F0E3F9201C10BDC0466D
:1097F000D8E4020030B51E4C85B0201C00F066F99C
:109800001C49684600F03EFF201C6946EC30782277
:1098100002F002F90434684610F0CAF91649201C17
:1098200013F09AFB0222154968460DF03BFF1449DC
:10983000201C13F091FB1349201C13F08DFB1248E0
:1098400013F0E3FB051C281C13F0FBFB041E09D0DE
:10985000211C0E480DF024FEF5E7684610F0A8F92B
:1098600014F073F9281C13F0F1FB201C05B030BD77
:10987000EC2000206CF402006FF402007DF4020082
:109880008DF4020097F40200A3F40200A7F4020092
:10989000102337B50C4D00930C4B281C0193172156
:1098A00015231622FEF784FC094C0A49221C281CA9
:1098B00013F08EFE084D281C00F048F8281C0749BC
:1098C000221C13F085FE37BDD0240020A4F4020032
:1098D0000020002099810100EC200020E198010087
:1098E000E823194A9B0010B5C2501833041CC01855
:1098F00010F05EF9ED239B00E01810F059F9812378
:109900009B00E01801F0E6F9201CC530FF3000F0A4
:109910003DFF201C8D30FF3001F0A2F9201C653086
:10992000FF3001F09DF9201CEC3001F09BFE201C63
:10993000D03002F0E5F9201C643006F0CBFF201D8A
:10994000FFF74CFF201C10BD50E602001423F0B5B9
:10995000041C95B0192200931821043002F092FBE8
:10996000231C251C261C6433181CB43513211193A9
:10997000B83606F0BBFF281C11F037F81E21002274
:10998000301C10F03DFD201CD03002F0D9F9231C12
:10999000EC33181C06214A4A129301F087FE201C62
:1099A000002701226530131C00971121FF3001F0C0
:1099B00063F9201C8D3000971A2102220123FF3009
:1099C00001F05AF9201CB530012102221A23FF3080
:1099D00002F074FA231CC533FF331093311C181C9A
:1099E0003A22042300F062FF81239B00E3181393C3
:1099F0001D230093183B0193311C109A2B1C1398C4
:109A000001F08CFB93239B00E0181399109A129B92
:109A100001F060FD96239B00E018291C1C2202F037
:109A20009FFC9C239B00E0180A23009301330193C1
:109A300001330293013303930133049301330593FC
:109A400001330693013307930133089301330993DC
:109A500001330A9301330B9301330C9301330D93BC
:109A600001330E93013308220F930721103B10F0AE
:109A7000CFFCE8239B00E018291C02F015FFEF2320
:109A80009B00E0181D2102F05DFAF8239B00E750CF
:109A900011982770032113F02EFA231C221C201C7E
:109AA00008499C33A0321C6011605760064A803020
:109AB0005A610221012207F0A1F9201C15B0F0BD66
:109AC00088EB020087980200739802000123F0B52A
:109AD00006788DB01E4000D0A8E0041CFD20800553
:109AE00000F0CAFC231CD033181C039300F098FA32
:109AF00000F090F9202000F0F7FC051C103010F069
:109B0000E6F84B4B6E802B80182000F0EDFC071C14
:109B1000484B10C70490311C1022381C0A930B9636
:109B200014F0EFFA0AA90822381C14F0CDFA424BBF
:109B3000049A039853611223AA60EE60AB80AE6171
:109B4000EE61291C02F074F8002805D0281C0FF0E3
:109B5000F8FF281C00F0EAFC01222378642013435C
:109B6000237000F07BFB0025261C6536FF36301C79
:109B700010F026FA002855D0201C8D30FF3010F050
:109B80001FFA00284ED0092D4CDC6420013500F06E
:109B900065FB0A2DE8D1F82728482949BF0000F0C5
:109BA0003DFCE359002B34D100F05AF8011C06A803
:109BB00000F068FD0FF0D7FE04900FF0D4FE6B4666
:109BC0000590198A08A810F00FF8059B09A8190C30
:109BD00010F00AF808A909AA07A810F055F809A872
:109BE0000FF0E6FF08A80FF0E3FF01230093E8233E
:109BF0009B00E01806A9039B07AA02F0F1FE07A844
:109C00000FF0D6FF06A80FF0D3FFEA239B00E3581E
:109C1000E351E823211C9B00E018EC31321C03F0D7
:109C200077F8A1E70748064900F0F8FB0DB0F0BD52
:109C3000FD030000E3980200BB980200001C002016
:109C40000020002008000020BFF34F8F024A034B82
:109C5000DA60BFF34F8FFEE70400FA0500ED00E085
:109C6000F0B589B0192201A8124914F02DFA00228A
:109C70000524114B261C5A71802301255B055F6E5C
:109C8000381C311C07F0DCFF081C291C07F052FFB0
:109C90000523021C611E1C1B5E435D4363439B182E
:109CA00001AA3F1A9B5C04480C1E4354E8D109B03A
:109CB000F0BDC046E2F40200F22B0020F0B595B0F2
:109CC00018220021061C0EA814F01BFA0EA813215E
:109CD00013F0ADFA0EA8032113F04AFB0122474B03
:109CE00000921B68002B01D0DBB20093002409A86E
:109CF0000021434A012307F0F7F9FF23221CB34256
:109D0000624153421E4072B63E4B1022211C05A8F0
:109D10001F6814F0F6F93C4B6421301C059307F0E2
:109D200099FF0A2108F07CF805256943503179181C
:109D30000691301C0A2107F08DFF0A2108F070F807
:109D40006943503179180791301C0A2108F068F8EE
:109D50004D4350357F1980250897AD01009B002B9E
:109D600034D00026FA277F00032C02D1802500245E
:109D7000AD0105ABF358254A029363000133D318B4
:109D80000022019218780299095C581E039101780B
:109D9000102008410399084204D001209040019905
:109DA0000143019101320633092AEBD1019B09A835
:109DB000D943174B09011940294313F094FBFA23A7
:109DC000139A0F999B001068014201D1FFF73CFFE5
:109DD000013B002BF7D10134013F6D00E4B2002FAD
:109DE000C2D10436102EBDD1044B1B68002BB5D058
:109DF000009B013BDBB20093B0E7C0465C2700202C
:109E0000F0FF00000420002031F50200FBF4020006
:109E1000F01F000038B50023134C23600FF097FDAE
:109E2000251C002808D0201C04210FF08CFD0028E0
:109E300019D00E4B236016E0012204210C4B1A604E
:109E4000236800200B4A506054680948002CFBD05E
:109E5000A122D20082581B02013913430029F0D1FC
:109E60002B600123436038BD60270020ED5EBC0BF2
:109E700000D00040FCD00040F0B585B01F1C0AABFC
:109E80001B88061C0D1C02920393002F1BD0202060
:109E900000F02AFB6B46041C1A89039BA9B20093AD
:109EA0003B1C0FF037FE3368301C5B68211C984761
:109EB00000280BD0002C08D0201C0FF042FE201CE4
:109EC00000F034FB01E0024800E0024805B0F0BDBC
:109ED00017FCFFFF16FCFFFF38B50A4B1C68002C6F
:109EE0000ED0656D00F0A2FBA36C984206D3201C37
:109EF0000FF05EFD201C04490FF047FD2C1CEEE71F
:109F000038BDC0468827002090270020031CF0B5EC
:109F10001B0C8FB00293284B04901C68274B0591B3
:109F20001E6885B20027002E43D0002C2DD0636D13
:109F300023490393A36C9AB21B0C8D4211D1214982
:109F40008A420ED1002B02D0029A93421BD1002FDD
:109F500018D1201C0FF02CFD201C1B490FF015FD03
:109F600010E0002A01D0AA420DD1002B02D0029AA3
:109F7000934208D1201C0FF01BFD201C12490FF04A
:109F800004FD00E00127039CCFE7104BEB18012BE9
:109F90000FD91023291C0093029A0D4B06A80FF02D
:109FA000B9FD3368301C9B6806A9984706A80FF0D6
:109FB000C8FD0FB0F0BDC0468427002094270020C4
:109FC000FE030000FF0300009027002002FCFFFFBB
:109FD0000D9F010010B572B60B4B1C68002C03D00E
:109FE000201C0FF0E5FC08E062B65C2000F07CFA73
:109FF00000215C22041C14F084F80023E364034B6A
:10A00000201CE36310BDC0466427002000400020F0
:10A01000024B1878012318407047C046F82B0020E7
:10A02000F7B5061CFFF7F4FF041E33D11A4D2E605E
:10A03000FFF7D0FF194B1A4918600FF0A6FCFFF785
:10A04000C9FF184B1860184B4363184B836328688B
:10A0500000280ED0C027164E1649221C331C00972C
:10A06000FFF70AFF009728681349221C331CFFF7EB
:10A0700003FF0C2000F038FA0023838083710F4B1C
:10A0800003600F4B836000F0D7FA01210D4A13786B
:10A090000B431370F7BDC0469427002068270020AB
:10A0A0009027002098270020FC3F0020779A02008C
:10A0B0000D9F0100FF030000FE030000E8E4020022
:10A0C000D99E0100F82B0020F7B5002801D100200F
:10A0D00019E00029FBD00193171C0D1C061CFFF78B
:10A0E00079FF041EF3D0084B019A43630660456074
:10A0F0008760064B002A00D0054B201CA36305494E
:10A100000FF043FC201CFEBDFC3F0020419A0200E2
:10A110005F9A020090270020024B18684342584182
:10A120007047C04690270020002310B504499C00CA
:10A130006258002A01D00133F8E76050101C10BDAE
:10A140006C270020002310B5044A99008C588442E3
:10A1500001D00133F8E70020885010BD6C270020A3
:10A1600010B50024074BE058002802D003685B6854
:10A1700098470434182CF5D1034B1B68002B00D1F1
:10A1800020BF10BD6C27002090270020F8B5FFF7F6
:10A190003FFF002855D02B4E3468351CE36CDA079E
:10A1A00018D502252B43E3640423274F3868C26C7B
:10A1B0001343C364636BC3630FF020FC3B68181C3C
:10A1C000596C03F0A0F93068C36C2B4239D003F00E
:10A1D000D4F936E01D4F1E4E3A68002A01D132688C
:10A1E00006E0216DB94203D1616D002900D00A1C3F
:10A1F0002A602A6831688A4208D11B0706D52C607C
:10A20000FFF7AEFF3B68002BFAD02B602B68A34210
:10A2100017D03268934204D10E4A5A630E4A9A63A9
:10A2200005E0944203D10020191C021C06E0201C0A
:10A230000FF0E4FB2B68201C191C626C5B6C03F0B4
:10A2400021F9F8BD682700208C27002090270020E6
:10A2500098270020FC3F0020779A020038B5114B68
:10A26000051C1C68FFF7D4FE002803D1281C13F03E
:10A2700078F816E0E36CDB0706D5FFF7ABFE0A4B78
:10A280001860002800D0041C00F0D0F94519A5641E
:10A29000201C0FF08DFB201C04490FF076FBFFF70C
:10A2A00075FF38BD682700208C27002088270020F4
:10A2B000F0B51E4B85B01C681D4B1A680393002A2D
:10A2C00005D00F1C051CFFF7A3FE002801D119487B
:10A2D0002AE0E36CDB070ED5FFF77CFE164B061E6B
:10A2E000186008D00FF064FB301C14490FF04DFBD0
:10A2F000341CFFF74BFF3B042B43A364201C0FF0DF
:10A3000057FB201C0E490FF040FB0E4B0020EB18B2
:10A31000012B09D9C0230093039B291C18683A1C00
:10A32000094BFFF7A9FD002005B0F0BD682700200C
:10A330009427002016FCFFFF8C2700209027002088
:10A340008427002002FCFFFF0D9F010010B5FFF7DE
:10A350005FFE002809D0054C20680FF029FB20681B
:10A3600003490FF012FBFFF711FF10BD6827002013
:10A3700064270020F7B500282FD00C1C051CFFF720
:10A3800047FE00282BD00726164F3868C36C1E40A6
:10A3900006D0281C211C144A0FF021FB00261FE0C8
:10A3A00003F0D3F802213A68D36C1940019103D02D
:10A3B00003218B43D36413E001263343D364201C71
:10A3C000A8473A68D36C191CB143D164019E5B075E
:10A3D00006D5201C0FF03BFB02E0044E00E0044ECB
:10A3E000301CFEBD682700204F9A020017FCFFFFBB
:10A3F00016FCFFFF021C10B5014B12CB12C210BDA0
:10A400009C270020034A044B12681A607E225A607F
:10A410007047C046042000209C27002070B5124DD4
:10A42000031C2A78022A1AD081421AD90A1A072A4A
:10A4300017D9081C032218431040041E11D11A1CFE
:10A4400072B62878094EC300F0189A5141600FF097
:10A4500018FB2B7801332B7062B6201C02E00448F5
:10A4600000E0044870BDC046F92B0020A42700205E
:10A4700013FCFFFF17FCFFFF38B50021041C07F099
:10A48000F7FC002823D1FE21201C890507F0FAFCE7
:10A4900000281CD104300CF051FF051C0F48401B54
:10A4A00008F0A2FB211C08F087F807F0FFFC03234B
:10A4B0009843041C281C0CF04BFF201C0CF03EFFA2
:10A4C000002806D1203C002CF7D1054805E00548BE
:10A4D00003E00119FFF7A2FF002038BD003800207B
:10A4E00013FCFFFF17FCFFFF38B5051C00240D4BC4
:10A4F0001B789C4209DA0C49E300C918281C0FF0AC
:10A50000C8FA00280AD10134F1E7281C0CF016FF24
:10A51000041E04D11420FFF7D1FB00E0041C201C12
:10A5200038BDC046F92B0020A427002038B50028EC
:10A5300018D00D4B1C780023A34211DA0B49DA0026
:10A540005558A8420AD98A185268904206D28023E8
:10A55000043802681B061343036003E00133EBE792
:10A560000CF0F6FE38BDC046F92B0020A4270020D1
:10A5700010B50024084A094B11681B68CB181360FA
:10A58000074BE058002802D003681B689847043442
:10A59000282CF5D110BDC046DC270020E427002080
:10A5A000B427002070B5002816DD0C4B051C1A6876
:10A5B0001C1C0B4E002A02D0306812F0ADFDFA21AF
:10A5C000256000243068074B89008361C4626943B9
:10A5D00012F0AAFD201C00E0034870BDE427002013
:10A5E000E027002071A5010017FCFFFFF8B50A4E17
:10A5F000071C3568002D0AD13020FFF775FF041CB9
:10A6000006F0E0FA054BA5612360E5623460381C72
:10A61000FFF7C8FFF8BDC046E027002058EA020057
:10A62000014B18687047C046E4270020014B1868AA
:10A630007047C046DC270020094B10B51B68041C7E
:10A64000002B02D10620FFF7D1FF0023054A990015
:10A650008858002801D00133F8E78C5010BDC0465F
:10A66000E0270020B4270020002310B5044A9900F9
:10A670008C58844201D00133F8E70020885010BD87
:10A68000B427002010B5041C002902D00B78002B41
:10A6900002D1034B236001E00FF091FA201C10BDA2
:10A6A000A0EB0200F8B5051C0E1C141C002908D0F4
:10A6B0000B78002B05D0081C97B213F068FD874279
:10A6C00002D90B4B2B6010E0601DFFF70DFF2860D7
:10A6D0000FF04DFB2868221C4780311C043013F01A
:10A6E000F3FC2B681C1900232371281CF8BDC046FD
:10A6F000A0EB0200014B03607047C046A0EB0200D4
:10A7000010B50548054C20600FF034FB201C0449AF
:10A71000044A12F05DFF10BDA0EB0200E827002004
:10A72000B19B020000200020054A031C106810B5F0
:10A73000002803D00268146806CBA04710BDC046AD
:10A74000EC27002010B5054C0121201C0FF006FB62
:10A75000201C0349034A12F03BFF10BDF0270020E4
:10A760001D9D02000020002008B5074A0388012033
:10A77000934208D0834202D00020DB0703D41E207E
:10A78000FFF79CFA002008BDFFFF000010B5041C75
:10A79000034B08330360FFF7D5FC201C10BDC046F7
:10A7A00000E50200FA2370B52A4A41899B0059430B
:10A7B000131C3833041C181C083A1D681E1C8D42DB
:10A7C0000CD2061C244B227B1D1D082A0BD8042A00
:10A7D00009D89D1C022A06D81D1C04E0083B301C29
:10A7E0009342EAD1EEE7FA213068890007F0A2F936
:10A7F00060812B78201C23732A2100220FF0E4FAB9
:10A80000002801D0154824E0201C2B2110220FF035
:10A81000DBFA0028F6D1201C2D2101220FF0D4FAFA
:10A820000028EFD1201C2E2101220FF0CDFA0028A4
:10A83000E8D16A78201C0E210FF0C6FA0028E1D179
:10A8400001223379201C1A432A210FF0BDFA002877
:10A85000D8D170BDA8EB020011F702000EFCFFFF7B
:10A860007FB5161C0F226A44041C1D1C1170002E9B
:10A8700015D0002B13DD012301890093006B01F03B
:10A8800047F9002801D007480AE000902189206B91
:10A89000321C2B1C01F0F2F8002801D0F3E702482B
:10A8A00004B070BD0EFCFFFF17FCFFFFF7B5061CE0
:10A8B000002501931B4B14360833041C03600F1C46
:10A8C0000092858018228571C58105824582291CE8
:10A8D000301C13F016FC301C1C2112F0A8FC6B4637
:10A8E0009B880221A3806B461B882173238114233C
:10A8F0006381231C38331A7927638A4301310A4064
:10A90000A571201C1D705D709D701A715D71FFF73F
:10A9100049FFA84203D10122A3791343A371201C4C
:10A92000FEBDC04600E5020030B50425837985B040
:10A93000041C2B4204D1FFF7F7FBA3792B43A3712F
:10A94000A36AA2691B6800251A422AD1201C012192
:10A950006A460623FFF784FF002801D0124D20E04D
:10A960006B4602216846595600781B79227B40B21B
:10A970005BB251435343424389B2D200E281CA00E1
:10A98000228202229BB2DB006382A379201C9343C4
:10A99000A3710FF027FA0122A18802A8131C0FF05F
:10A9A000A0F9281C05B030BD0EFCFFFFF7B5041C54
:10A9B0000FF03BFA251C0090201CFFF7B5FF0E227C
:10A9C000A35E724F5B423C35BB4203DA2B789B0798
:10A9D00000D5B4E0201CFFF7A7FF0E22A35EFA22E9
:10A9E0005B4200269200934203DD2B789B0700D444
:10A9F000A5E0201CFFF798FF1022A35E5B42BB423C
:10AA000003DA2B785B0700D5A5E0201CFFF78CFF4D
:10AA10001022A35EFA225B429200934203DD2B7860
:10AA20005B0700D497E0201CFFF77EFF1222A35E95
:10AA3000BB4203DA2B781B0700D597E0201CFFF7F9
:10AA400073FF1223E25EFA239B009A4203DD2B7808
:10AA50001B0700D48AE0002E0DD028780309032BB1
:10AA600009DC0F2201331340190102400A432A7006
:10AA7000042B00D184E0231C3D331B780133DBB26F
:10AA8000092B01D86B7011E0002328786B70030943
:10AA90000CD00F220F331340190102400A432A70D1
:10AAA000002B03D1D3B2012293432B7001262B78C4
:10AAB0000B203340019368D1354B009A04389A42F9
:10AAC00063DD902380191B049A425EDC201CFFF793
:10AAD0002BFF0E22A35E2F4F5B420320BB4254DBB1
:10AAE000C825201CFFF720FF0E22A35EAD005B42AD
:10AAF0000420AB4249DC201CFFF716FF1022A35EA6
:10AB000002205B42BB4240DB201CFFF70DFF1022FE
:10AB1000A35E301C5B42AB4237DC201CFFF704FF16
:10AB20001222A35E0520BB422FDB201CFFF7FCFE98
:10AB30001222A35E0620AB4227DC019825E0012605
:10AB4000311C2B785A0891430A1C0221B2408B43D6
:10AB500013432B704DE70126311C2B789A08914343
:10AB60008A0004218B4313432B705CE701222B786E
:10AB7000D9088A430821D2008B4313432B706CE71A
:10AB800001222B7813432B7075E7FEBD18FCFFFFE5
:10AB9000FF700200E0FCFFFF30B5C369C2681B68AC
:10ABA00085B0041C451D1A424ED0EB7F002B01D00E
:10ABB000013BEB77EB7F082B0DD90123A2791A42D9
:10ABC00009D11A43A271A1881A1C02A80FF089F8B2
:10ABD000FFF72CFD2062EB7F012B1ED80123A27909
:10ABE0001A421AD00022A188A271684602320FF0E0
:10ABF00078F8A31DDD7F012D0FD1FFF717FD236A24
:10AC0000A188C01A144B984202D902A8042201E07C
:10AC1000032202A82B1C0FF064F80323A5791D4022
:10AC2000012D16D1FFF702FD236AC01A0B4B984283
:10AC30000FD90222A379A1881343A37102A803327A
:10AC40002B1C0FF04EF804E0EB7F0B2BB2D8013336
:10AC5000AFE705B030BDC046E7030000DB050000EC
:10AC600010B5041C034B08330360FFF7FDFC201CE8
:10AC700010BDC04620E50200F0B5071C00250E1CE3
:10AC800085B002930AAB1B7808370393104B041C62
:10AC900008330360019285808571291C381C1822B5
:10ACA00013F02FFA381C311C039A12F0C5FA6B46C8
:10ACB0006A469B88127AA380A31DE671DA77631D2A
:10ACC0002562201CDD77FFF7B7FC201C05B0F0BD26
:10ACD00020E5020010B5041C034B08330360FFF7A6
:10ACE00031FA201C10BDC04640E502007FB5161C9D
:10ACF0000F226A44041C1D1C1170002E15D0002B5D
:10AD000013DD012301890093C06B00F001FF0028CF
:10AD100001D007480AE000902189E06B321C2B1C0F
:10AD200000F0ACFE002801D0F3E7024804B070BD8B
:10AD30000EFCFFFF17FCFFFF002330B585B003AC0E
:10AD4000217001890093051C221CC06B013300F0A7
:10AD5000DFFE002801D00A480FE0207060702989CA
:10AD60000090221CE86B022300F088FE0028F2D13C
:10AD7000207863780002184300B205B030BDC046A9
:10AD80000EFCFFFF13B56B46DC1D0023221C237055
:10AD90000133FFF7ABFF002801D1207800E0014824
:10ADA00016BDC0460EFCFFFFD0B5041C0FF037F9EE
:10ADB0002269E369981A09F0F5FBA369061CE068AB
:10ADC0000F1C181A09F0EEFB021C0B1C301C391C5E
:10ADD0000AF018FF0022104B08F09AFD0F4A104BA2
:10ADE00008F072FA09F06EFC0021041C07F036F836
:10ADF000002804D0201C0B4907F070F8041C201C0C
:10AE000009F00CFC021C0B1C0020074909F01AF881
:10AE100009F092FBD0BDC04600806640EA2E445443
:10AE2000FB2109400000B44300807640F0B5041CCB
:10AE300089B0006C0FF0AFF8051C206C0FF0A2F881
:10AE40000221071C201C0FF019F902210590201C7B
:10AE50000FF026F907F080FE02210190201C0FF070
:10AE600031F907F079FE0290281C09F0D7FB041C89
:10AE70000D1C0AF077FE09F025FC291C0390201C0C
:10AE80000AF01EFE09F01EFC0490381C09F0C6FBF7
:10AE9000041C0D1C0AF066FE09F014FC291C071C9A
:10AEA000201C0AF00DFE069007910399029807F006
:10AEB00083FB0499041C019807F07EFB011C201CF5
:10AEC00007F0ACFC09F0AAFB051C05980E1C07F066
:10AED00043FE041C0698079909F0F4FB011C201C92
:10AEE00007F06AFB391C041C019807F065FB039905
:10AEF00007F062FB011C201C06F0F0FF391C041C4B
:10AF0000029807F059FB049907F056FB011C201C1E
:10AF100006F0E4FF09F082FB021C0B1C281C311C0C
:10AF20000AF070FE00220C4B08F0F2FC0B4A0C4BAE
:10AF300008F0CAF909F0C6FB0021041C06F08EFFD8
:10AF4000002804D0201C074906F0C8FF041C201C60
:10AF500007F0E2FD09B0F0BD00807640EA2E4454CF
:10AF6000FB2119400000B443F8B510210022041C55
:10AF70000FF047F81D4E002834D1201C0821FFF7A0
:10AF800001FFB0422ED00325054027D1FA23184AED
:10AF900061899B005943131C50331E1C083A1F68DB
:10AFA000181C8F4203D3083B061C9342F7D1FA21A9
:10AFB0003068890006F0BEFD11216081A022201CAE
:10AFC0000FF01FF800280DD101223379201C1A43FD
:10AFD00010210FF016F8002805D003E06420FFF7D9
:10AFE0003DF9CAE7014D281CF8BDC0460EFCFFFF25
:10AFF000E8EB0200F7B50426041C80793040051EFA
:10B0000016D10227201C0FF00AF8A3790622BB43B1
:10B010003343A371A188012368460EF062FEA37931
:10B02000281C1A1CB243A2713B4202D1014800E025
:10B030000148FEBD14FCFFFF15FCFFFF10B583792E
:10B040005A070ED4041C9B0701D4FFF7D3FF236CCF
:10B05000201C002B02D0FFF7E9FE03E0FFF7A4FE5F
:10B0600000E0014810BDC04615FCFFFF70B5466CFE
:10B0700086B001AC051C01916260A360002E0BD06C
:10B080000A4905A8FFF7FEFA301C05A9221C0FF09B
:10B09000B2FC05A80EF08CFD2B1C0C3307CC07C3AB
:10B0A0000222AB791343AB7106B070BD17F70200F3
:10B0B000642330B5041C0281438185B08180FFF791
:10B0C00053FF0222A379656C9343A371002D1CD01A
:10B0D000114901A8FFF7D6FA281C01A90FF0C0FCFE
:10B0E000051C01A80EF064FD002D0ED0291C0C22B9
:10B0F000103101A812F0E8FF201C0199029A039B6D
:10B10000FFF7B4FF281CFFF711FA0122A3791343BC
:10B11000A37105B030BDC04617F70200F7B5009324
:10B1200008AB1B88041C019309AB1D8800230F1C6E
:10B13000161C0D4A8380083283710260C36003616C
:10B1400043618361C36103621D2124300EF04CFF13
:10B15000009BE7632664201C291C6364019AFFF7A7
:10B16000A7FF201CFEBDC04640E50200F0B5051C4F
:10B17000A5B064200491059212F0F3F80C2104228A
:10B1800009A80FF0B9FECE4924221BA812F09CFF9B
:10B19000052106A80A1C10F044FDCA4907A802F0C0
:10B1A000BDFAA86800F06EFBAC68C74918A8FFF7A5
:10B1B00069FA201C18A9782200F004FC18A80EF0E7
:10B1C000F7FC6E246420013C12F0CBF8002CF9D17E
:10B1D000A86800F057FBA8680FF00DF90121686816
:10B1E0000EF037FE0121071C68680EF045FE061CB4
:10B1F0000A2012F0B6F80022B44B03929F4210DBF3
:10B20000013203923A1CC8320BDB04220392C8229B
:10B210009200974205DC03220392C82F01DC013A19
:10B220000392002202929E4210DB01230293331C00
:10B23000C8330BDB04230293C8239B009E4205DC2A
:10B2400003230293C82E01DC013B0293652606A866
:10B2500010F0DEFC02ABF618371C7B78002B06D012
:10B260007B1E19783A7806A8FF2302F0EDF98923AE
:10B2700002AA03379B189F42EFD16B460C21595EFF
:10B280006B4606A808229A5EFF2302F0DDF9002330
:10B29000A8680093743006A91A1C10F0C9FC731E2C
:10B2A0001B78039A934234D13378029A934230D177
:10B2B0007778002F2DD1391C28680EF0DFFE07F0BB
:10B2C0004BFC3A1C031C211C09A80FF060FE391C22
:10B2D00028680EF0E5FE07F03FFC0122031C211C4C
:10B2E00009A80FF054FE391C28680EF0EBFE07F099
:10B2F00033FC211C031C022209A80FF048FEFE2388
:10B30000211C9B0509A803220FF041FE0123737045
:10B31000E418892302AA03369B189E42BFD16420F9
:10B3200012F01FF80B2C00DC58E709A80FF01BFEE9
:10B330000122011C0CA80FF0DFFD002409A80FF06A
:10B3400012FE84423EDA211C002209A80FF00DFEF5
:10B35000211C061C002209A80FF007FE011C301C4E
:10B3600007F02AF9211C061C012209A80FF0FDFD97
:10B370000122071C211C09A80FF0F7FD011C381C35
:10B3800007F01AF9011C301C06F0A8FD211C061C50
:10B39000022209A80FF0E9FD0222211C071C09A8BE
:10B3A0000FF0E3FD011C381C07F006F9011C301CEE
:10B3B00006F094FD211C031C00220CA80FF0E7FDF1
:10B3C0000134BBE709A90A1C012318A810F0ACFB43
:10B3D00018A90FA80FF0F5FD18A80FF0E9FD12A8A5
:10B3E00009A90CAA012310F09FFB002315A80FA99F
:10B3F00012AA10F099FB002115A80A1C0FF0B5FD48
:10B400000121061C002215A80FF0AFFD0022041C2C
:10B41000022115A80FF0A9FDFC21071C8905301C8D
:10B4200007F0CAF807F078FBFC21061C1890890584
:10B43000201C07F0C1F807F06FFBFC21041C1990D9
:10B440008905381C07F0B8F807F066FB221C031CBE
:10B45000311C1A902868FFF709FEA8680EF0CBFF90
:10B4600007A908A8AC6810F0CBFB0023184A00938A
:10B4700008A90192201C1A1C00F046FA08A810F036
:10B48000B2FBFA20800011F06CFFA8680EF0B3FF49
:10B4900015A80FF08DFD12A80FF08AFD0FA80FF070
:10B4A00087FD0CA80FF084FD07A810F09CFB06A8F0
:10B4B00010F099FB09A80FF07BFD25B0F0BDC04648
:10B4C00022F7020046F702008BF70200E0FCFFFFC4
:10B4D000DC050000F0B58360204B85B01F68051CBB
:10B4E00001604260002F36D02020FEF7FDFF041CD3
:10B4F00010300EF0ECFB052323800133638018200D
:10B50000FEF7F2FF164B061C0293002320C6191CFF
:10B5100001901022301C039312F0F3FD02A90822BF
:10B52000301C12F0D1FD0F4B019A381C53610023DF
:10B53000E360C233A3800023A260A361E3613B68A0
:10B54000211C5B689847002805D0201C0EF0F9FAF2
:10B55000201CFEF7EBFF281C05B0F0BDEC270020F7
:10B560006DB10100DDA00200F7B5041C0121A37A32
:10B5700000259C460D3399400091291C276FFB68DC
:10B580000193019B9D4231DABB687A696B43634446
:10B590005B00E67AD3181A785878E379012E04D143
:10B5A0005E1E361A101C321C0EE0022E05D15E1EE5
:10B5B000B21A267A013E301A06E0032E04D1267A0A
:10B5C000013EB61A021C301C5B004343606F667A72
:10B5D0008218D3189B79B34200DD331C627B1A4278
:10B5E00002D00123AB4019430135CAE71123C943F7
:10B5F000FB56606C994023691940009B194311F078
:10B6000072FFA37B072B18D8627B581C5200627311
:10B610000A499A00A073022B03D8885811F096FEAD
:10B62000A4E7074B201C236300236363054B895861
:10B63000E4622364143011F077FDF7BD40EC0200A2
:10B6400069B5010005A1020010B5041C044B03609C
:10B6500011F062FD201C05F0CBFA201C10BDC04685
:10B6600058EA020010B5041C0E4B08330360FEF7C5
:10B67000FBFF201C743010F0B6FA201C603010F074
:10B68000B2FA201C58300EF093FA201C50300EF005
:10B690008FFA201C044B14306361FFF7D5FF201C88
:10B6A00010BDC04660E5020070EA0200F8B5002552
:10B6B000041C314B85800833036085711430161CDF
:10B6C0000F1C05F07FFA201C2C4BE562636125649A
:10B6D0005030FFF70FF8201C5830FFF70BF8201CF4
:10B6E000603001F0ABFF201C33682667590009B2B7
:10B6F0000423F25E743010F094FA3378226FE37111
:10B700007368A78023721023E572A5722561D35652
:10B71000916859188B4204DA01209840013305439F
:10B72000F8E71123D168D35659188B4206DA012263
:10B730009A402069013302432261F6E71420FEF7A4
:10B74000D3FE226900212A430123061C05F0CCFC0C
:10B75000FF226272221C0023012548326664657351
:10B76000A3732373201C1370A366FEF765FFA379F0
:10B77000201C2B43A371F8BD60E5020070EA0200B3
:10B78000F7B5437A002B66D00121837A00259C46C9
:10B790000D3399400091291C076FFB680193019BB1
:10B7A0009D422CDABB687A696B4363445B00C67ABE
:10B7B000D3181A785C78C379012E04D15E1E361B2B
:10B7C000141C321C0EE0022E05D15E1EB21A067A3F
:10B7D000013E341B06E0032E04D1067A013EB61A60
:10B7E000221C341C5B006343446FA218D3189B795E
:10B7F000002B02D00123AB4019430135CFE71123C1
:10B80000C943FB56041C99400369406C1940009BD6
:10B81000194311F068FE667AB31EDBB2FC2B14D814
:10B82000FEF7FEFE0C4B051C236300230B486363ED
:10B830000B4BFF21E4622364704306F00BFA011CFA
:10B84000201C6943143011F06FFC637A012B02D87D
:10B85000201C0EF061FCF7BD19A10200B603000028
:10B8600005A1020007B501228188131C68460EF06D
:10B8700038FA012268460249131C0EF032FA07BD5D
:10B88000FE030000031C13B548331A78041C002A79
:10B890000DD000221A7001328188131C68460EF008
:10B8A00020FA012268460449131C0EF01AFA201CE3
:10B8B000743010F0ADF913BDFF03000008B5483037
:10B8C0000378002B06D00378012B03D00248012116
:10B8D0000EF0ADF808BDC046FF03000010B5012111
:10B8E000041C06200EF0A3F8064B984209D1231C35
:10B8F00048331A78002A04D01B78012B01D020BFCE
:10B90000F5E710BD16FCFFFF73B5079C051C002C66
:10B9100009DB061C48363078002806D0307801282C
:10B9200003D00D4816E00D4814E0069812B2C0B2DC
:10B930000090281C1BB2743010F07AF90020844269
:10B9400007D02B1C4A331C8007234C3528803370CA
:10B9500000E0201C76BDC04612FCFFFF17FCFFFF75
:10B96000F0B587B00D9E002E22DB041C03930292DB
:10B970000F1CFFF7A3FF231C48331D78EDB2002DE9
:10B9800018D1391C05A810F03BF90C9B05A90093B0
:10B99000029A039B0196201CFFF7B6FF05A810F042
:10B9A00022F9301E07D0201CFFF798FF281C02E068
:10B9B000024800E0024807B0F0BDC04617FCFFFF98
:10B9C00011FCFFFFF8B5041C171E09DD061C4836E4
:10B9D0003378002B06D03378012B03D00C4816E0C7
:10B9E0000C4814E0221CE3795632013B1370231CEF
:10B9F0000025201C54331D8050300EF036F9231CD6
:10BA00004A331F800223281C4C3425803370F8BD34
:10BA100012FCFFFF17FCFFFFF7B5002A1BDD051C1A
:10BA2000161C0F1CFFF74AFF2B1C48331878C4B2B2
:10BA3000002C12D1391C01A80EF00FF901A9321CFB
:10BA4000281CFFF7BFFF01A80EF0B2F8281CFFF773
:10BA500045FF201C02E0024800E00248FEBDC0464F
:10BA600017FCFFFF11FCFFFFFF2902D841720020E5
:10BA700000E001487047C04617FCFFFFF0B51F1CEF
:10BA800085B00AAB1B78041C039300933B1C0D1C70
:10BA9000161C11F00FFA002832D0237D082B2DD868
:10BAA00023680022191CFC318A62A0211648C900B3
:10BAB0005A5084461A5005200138C046C046C04638
:10BAC000C046C046C046C046C046C046C046C04646
:10BAD000C046F1D1012062462368985005225A5091
:10BAE00005F0E2FD039B201C0093291C3B1C321C2B
:10BAF00011F0E0F9237D01332375CCE7034800E022
:10BB0000207505B0F0BDC046FC0F00000EFCFFFF25
:10BB1000F0B51F1C85B00AAB1B78041C039300937F
:10BB20003B1C0D1C161C11F0ADF9002832D0237DF2
:10BB3000082B2DD823680022191CFC318A62A02111
:10BB40001648C9005A5084461A5005200138C0468C
:10BB5000C046C046C046C046C046C046C046C046B5
:10BB6000C046C046C046F1D10120624623689850C5
:10BB700005225A5005F098FD039B201C0093291CB8
:10BB80003B1C321C11F07EF9237D01332375CCE779
:10BB9000034800E0207505B0F0BDC046FC0F000072
:10BBA0000EFCFFFF08B4024B9C46043808BC6047FB
:10BBB00025A5020070B5002926D00D1C0026C468FA
:10BBC000002C1ED00222A988A3884B40134216D114
:10BBD000114203D1AB889B0707D510E0A068A96884
:10BBE0000FF079F9002804D1F4E7A368AA6893421A
:10BBF00005D12B88002B09D022889A4206D0E4690F
:10BC0000DEE7201C002E0DDC07480BE06B88002BC4
:10BC100002D062889A42F2D1A388044A01361343C3
:10BC2000A380ECE770BDC04617FCFFFF0080FFFF5C
:10BC3000F7B5002952D00D1C061CC468002C19D081
:10BC4000AA880023920702D5A3889B07DB0F2268EE
:10BC500029688A420CD1002B06D0A068A9680FF091
:10BC60003AF900283CD103E0A368AA68934237D090
:10BC7000E469E3E7F0682A88071C031E22D01988CC
:10BC8000914205D2D9691F1C00290DD00B1CF6E783
:10BC9000191C3B1C08E00C88944207D14F886C8823
:10BCA000A74203D20B1CC9690029F4D183420BD1EE
:10BCB00019888A4205D3914206D1588869888842FA
:10BCC00002D9EB61F56002E0D969E961DD6168469E
:10BCD000084901230EF005F8002009E0064807E0B6
:10BCE000A3881AB2002A02DA5B045B0CA380034823
:10BCF000FEBDC046FD03000017FCFFFF16FCFFFF62
:10BD0000064B10B51A1C041C083230330260436025
:10BD10000430FEF717FA201C10BDC04680E5020073
:10BD200008B4024B9C46043808BC604701BD0100C2
:10BD300008B4024B9C46043808BC60473FA502008B
:10BD40000C4A0023111C3032083110B50381837274
:10BD50004260C3600361436143830160041C04309B
:10BD6000FEF7E2F9044B1A68002A00D11C60201C7F
:10BD700010BDC04680E50200EC270020F7B50D1C81
:10BD80000126C4680192002C36D023882A889A4262
:10BD900001D0002B25D163886A889A4201D0002BFC
:10BDA0001FD1FEF735F90123002806D0A288BF3342
:10BDB0001340C03B5A425341DBB2019A93420FD128
:10BDC000A28813B2002B0BDB231C291C103381C962
:10BDD00081C3530607D4FEF71BF9002803D006E001
:10BDE0000026E469CFE7201C0EF0B2FBF9E7211C26
:10BDF0000248FEF7BFFAF4E7301CFEBD51A5020071
:10BE000008B4024B9C46043808BC604753A60200A5
:10BE1000F0B587B001930EAB1B88061C03930D9BF6
:10BE20000D1C0093019B02920C9F002B3DD0002F14
:10BE300002D1009BDB0738D52020FEF755FB041C00
:10BE400010300DF044FF6B461B892580638018205D
:10BE5000FEF74AFB0497071C051C009B0021059375
:10BE6000019B102208C7381C12F04BF904A90822C4
:10BE7000381C12F029F90E4B02226B610023A560D9
:10BE80000399E360A361E36133680A43A2805B68BE
:10BE9000301C211C9847002808D0201C0DF051FEB2
:10BEA000201CFEF743FB034800E0034807B0F0BD49
:10BEB0007FA6020016FCFFFF17FCFFFFF0B5041C75
:10BEC000161C00258380164A164B8571026021815D
:10BED00046810573186889B08C46A8421DD0124A65
:10BEE000059504926A4604AB82CB82C2C0236146A8
:10BEF00002932A1C231CFFF78BFF0B4A094B069267
:10BF00006A461868079506AB82CB82C2C023311CF3
:10BF100002932A1C231CFFF77BFF201C09B0F0BDF5
:10BF2000D0E50200EC27002091A7020030B50024E4
:10BF3000034D84710560818042730373846030BD5A
:10BF4000F0E5020070B5041C00250D4B0E1C0833F3
:10BF5000858085710360211C14300EF0D8FC201CF4
:10BF6000211C1C300EF0F6FC064BA680A571E57175
:10BF700025726572E5602561201C1C6070BDC0469D
:10BF800008E60200F42700208379DB0702D541721E
:10BF9000002000E00048704716FCFFFF8379DB07B4
:10BFA00001D5407A00E001487047C04616FCFFFF0B
:10BFB00038B50569002D23D0037A032B22D8041C41
:10BFC000FFF7ECFF283528702C20FEF78DFA2C2285
:10BFD0000021051C12F095F8002322695362E368E2
:10BFE000002B01D1E26005E0596A002901D00B1C49
:10BFF000FAE75A62237A256101332372002002E0B6
:10C00000014800E0014838BD17FCFFFF13FCFFFFAB
:10C0100010B5134C2068FFF7CBFF2068114B026965
:10C02000114CE250114B5A68002A03D000225A608A
:10C030000132A2601B690C4A002B0FD000210B4B70
:10C0400019618023DB00D358012B05D1A923DB0024
:10C05000D158C9B2FFF798FF0123A36010BDC046B5
:10C06000F42700200405000000100040FC100040F0
:10C0700008B5002903DB024B196011F017F808BD61
:10C08000F827002070B5041C1E1C04AB1D7804F0BA
:10C0900051FC201C0D4B40302360FEF72BFB231C72
:10C0A000221C4C331E701D730023E1214E32A36409
:10C0B0006365138053809381D381013B201C6364AB
:10C0C0004902FFF7D5FF201C70BDC046D8E402002E
:10C0D00002200D4A0D4B30B59850101C8022D20022
:10C0E0009C58002CFAD0A124084DE40029519958FD
:10C0F0000029FCD00021054A11508022D2009A5814
:10C10000002AFAD030BDC0460405000000E001401E
:10C11000F0B50F4C0125A4460E4805518024E400DB
:10C120000459002CFAD000248027FF009C4207DA33
:10C13000A5004E595651C559002DFCD00134F3E7E6
:10C14000002362468350C359002BFCD0F0BDC0468B
:10C150000405000000E0014030B501240A480B4B03
:10C160001C50041C8020C0001D58002DFAD00A600D
:10C170001A58002AFCD00021044A11518022D20012
:10C180009A58002AFAD030BD0405000000E00140B2
:10C19000F7B580277F053D697C690822113C6C4317
:10C1A000061C211C684611F08FFF104B009A9A4222
:10C1B00019D00093002301937969301C1339694326
:10C1C000FFF786FF019A301C00990EF0D8FB301C57
:10C1D000211CFFF77DFF7969AB0813396943301CD7
:10C1E000221CFFF795FF0198FEBDC046FECA000065
:10C1F000F0B50C1CABB00021051C161C12A8302297
:10C2000011F07FFF201C11F0C2FF021E102A00DD7A
:10C210001022211C12A811F057FF311C202216A851
:10C2200011F052FF80235B051A69281C0C925A6991
:10C230000C99113A51435E690D91FFF7A9FF0D9BCF
:10C24000002108333022041C1EA80F9311F059FF5F
:10C25000311C0C9B13395943281CFFF739FF00236D
:10C260000F9E0B930E930B9BA34237DA311C1EA833
:10C27000302211F029FF1EA812A911F07EFF00281C
:10C2800018D13549281C221C109111940EF077FB0F
:10C290006A46099615AB83CB83C283CB83C283CB1B
:10C2A00083C2281C149B1299139A0EF07CFB012365
:10C2B0000E930EE06A46099621AB83CB83C283CBF3
:10C2C00083C283CB83C2281C1E991F9A209B0EF029
:10C2D0006AFB0B9B303601330B93C4E7E6433021F6
:10C2E000F61726404E430F9B9E190E9B002B1CD128
:10C2F0000C9B981E05F01EFC84422AD0164901347E
:10C30000281C221C109111940EF039FB6A460996E4
:10C3100015AB43CB43C243CB43C243CB43C2281CE0
:10C320001299139A149B0EF03EFB281C0D99FFF7EF
:10C33000CFFE80235B0559690C9B13394B43191CB5
:10C340000C236343281C02330D9AFFF7E1FE002003
:10C3500000E002482BB0F0BDFECA000013FCFFFF56
:10C3600037B58280FA2200230D1C12499200083151
:10C37000837101604561C260836043820E49041C81
:10C3800001A8FEF77FF9281C01A90EF069FB051C26
:10C3900001A80DF00DFC002D09D0291C201C103126
:10C3A0001230022211F090FE281CFEF7BFF8201C6C
:10C3B0003EBDC04628E6020099F7020030B50225CE
:10C3C000837985B0041C2B4204D1FDF7ADFEA3791F
:10C3D0002B43A371201C0EF054FB00282BD06B467E
:10C3E000DD1C281C0EF044FB2B78002B03D001A889
:10C3F0000EF03CFB0EE00122104B1A60104B5A6805
:10C40000002AFBD000225A600E4B01321B680193B8
:10C410000A4B5A60019BDA17920FD3189B102382A4
:10C42000FEF704F90122E368A188C018A060131C7C
:10C4300002A80DF056FC002005B030BD00C0004041
:10C44000FCC0004008C5004010B5041C054B083373
:10C45000036018300DF0ACFB201C14300DF0A8FB6D
:10C46000201C10BD48E60200FF23F0B52B4C8DB018
:10C4700023700023051C69460088009304F082F9AC
:10C48000002802D16B469B782370254E3368DB6809
:10C49000002B06D1002128880A1C0B1C0EF006FB7D
:10C4A0003AE02378032BF5D81E4901A8FEF7EAF8F5
:10C4B000336801A9DE6804A80DF0CFFB301C04A985
:10C4C0000EF0CEFA061C04A80DF072FB371E1ED02B
:10C4D000311C2022103104A811F0F6FD301CFEF7AB
:10C4E00025F8217804ABC9005918082202A811F0D8
:10C4F000EBFD288802A9082201230EF0D7FA0127B4
:10C50000002804D128880C21074A0EF0CDFA01A892
:10C510000DF04EFB002FBDD00DB0F0BD90200020DF
:10C52000FC270020A1F70200FFFF000038B5041C23
:10C530008068002808D0064B1D8801F011FA0368B6
:10C54000291C1B6A15229847201CFDF7FBFD38BDEE
:10C55000A22B0020F8B58C1EE4B2051C069E132CFD
:10C5600022D80120071CA7403C1C244F3C421BD072
:10C57000E97F5C1869181F2C3EDC701C814203D9CE
:10C580000878C8540139F8E70021C8B2984204D2AB
:10C59000545C701884700131F7E732789A18327061
:10C5A000EA7F9B18EB770DE03478013CE4B2A342BC
:10C5B0000AD10021C8B2984204D2545C7018847029
:10C5C0000131F7E7002017E0EF7F0120DF193F1B63
:10C5D0001F2F11DCA01C3618EF7FE819864205D208
:10C5E0003778301B023807700136F5E73C1B023CF8
:10C5F000281CEC770EF0A6FAF8BDC0463F000800F4
:10C60000F0B585B001930AAB1E880BAB1B78451CB7
:10C6100002930EAB1B78041C03930B78171C03705A
:10C620004B8A102243820131281C11F04DFD6B46CC
:10C630009B88268363836B461B7B002623776B4690
:10C6400001221B7A6761E683EB77A31CDA770C9BE8
:10C650000C256362231C201C0D9A28331A705E700F
:10C660009E70311C2A1C2C3011F04BFD201C074BF6
:10C67000E663A363311C2A1C403011F042FD201CEC
:10C68000034B2665E36405B0F0BDC046C7AA0200AF
:10C69000B9AA020038B50D1C01F062F9041C036848
:10C6A000002D02D15B69984708E09B689847854256
:10C6B00004D22368201C9B689847051CFA20800040
:10C6C0006843024905F036FAE08038BD7102000087
:10C6D000F0B5071C161CA1B002C7041C6A4918A8B3
:10C6E0001D1C0EF075FA331E03D0301C11F04FFDE7
:10C6F00083B202220192002202920392013200933D
:10C70000049218A9321C381CFFF77AFF231C18A8C2
:10C7100058335E4906930EF05BFA2B1E03D0281C9B
:10C7200011F035FD83B2022201920022029203929F
:10C7300001320093049218A92A1C0698FFF760FFA3
:10C74000231C18A8AC33524907930EF041FA269BDC
:10C75000002B03D0181C11F01AFD83B202220192A3
:10C7600000220292039201320093049218A9269AA1
:10C770000798FFF745FF631CFF3318A84549089346
:10C780000EF026FA279B002B03D0181C11F0FFFC9B
:10C7900083B202220192002202920392013200939C
:10C7A000049218A9279A0898FFF72AFF231C5533EB
:10C7B000FF3318A8384909930EF00AFA289B002B7A
:10C7C00003D0181C11F0E3FC83B202220192002274
:10C7D0000292039201320093049218A9289A0998B0
:10C7E000FFF70EFF231CA933FF3318A82B490A9328
:10C7F0000EF0EEF9299B002B03D0181C11F0C7FC9A
:10C8000083B202220192002218AD029203920132F9
:10C81000009304920A98291C299AFFF7F1FE204BF5
:10C820001B780B93002B2CD1069B12971393079B1D
:10C830000DAF1493089B1B491593099B381C169345
:10C840000A9B12AE17930EF0C3F949201D213B78C5
:10C8500010222B707B8A6B8206ABC918C01811F0AE
:10C8600033FC06232B756B469B8D2068AB83AE6132
:10C8700001F086F80368291C1B6898470122084BC1
:10C880001A70201C21B0F0BD292A0000242A0000C3
:10C89000252A0000272A0000262A0000282A000056
:10C8A000FA2B00200A18000038B50025041C094B9B
:10C8B0008580083385710360C1601430FDF71AFF6D
:10C8C000201C1830FDF716FF034BA5602561201CC6
:10C8D0001C6038BD48E60200FC270020FA21F0B5B4
:10C8E000041C8FB0012306A8890002220DF0F9F97B
:10C8F00027882C4C2368DB68002B4BD02A4D2B78E3
:10C90000032B47D8294902A8FDF7BCFE236802A9DA
:10C91000DE6806A80DF0A1F906A9301C0EF0A0F8FB
:10C92000061C06A80DF044F96B469A1D0823381C16
:10C93000138004A9073B0EF0BBF8002E08D0311C71
:10C9400006A81031202211F0BFFB301CFDF7EEFDD0
:10C950002D7806ABED005D196B46281CDA8804A91A
:10C9600011F0A3FB002812D00822281C04A911F002
:10C97000ABFB236802A9DD6803A80DF06EF9281C43
:10C9800003A906AA0EF037F803A80DF011F902A8C2
:10C990000DF00EF92068002801D00EF053F90FB009
:10C9A000F0BDC046FC27002090200020A1F7020027
:10C9B00010B507290CD880680C1C00F0D1FF054A7F
:10C9C000036811575B6C9847002802D0024800E0CA
:10C9D000024810BDAFF8020016FCFFFF17FCFFFF76
:10C9E000F0B59E4C0D1CA544041C07939AAB1B7814
:10C9F0009B4909A804930692FDF744FE201C291CBC
:10CA000018300DF032F9C020800001F0C7FB08207B
:10CA1000FDF76AFD061C002100F05AFF15ADA66067
:10CA200000210C220EA811F06CFB2B1C0EAA83CA4D
:10CA300083C38C4B301CEB600023291C2B610FF04F
:10CA40008AF9A06800F08CFF00210C220590281CB8
:10CA500011F057FB1420FDF747FD834B2A1C15935B
:10CA6000031CC2CAC2C3814B059EC3600023A43607
:10CA700003613368002B00D003613060A06800F0D0
:10CA80007FFF00210C22061C281C11F03AFB142009
:10CA9000FDF72AFD764B1593031C86CD86C3754B97
:10CAA000C36000230361336B002B00D0036130634C
:10CAB000A06800F055FF15AD00210C22061C281CB3
:10CAC00011F01FFB1420FDF70FFD6B4B98361593EB
:10CAD000031C86CD86C3694BC360002303613368A2
:10CAE000002B00D00361012504AB1B7C04AA2B435F
:10CAF000306008A9281C13740DF0DCFFA06800F05A
:10CB00004FFF03685E495B6A9847A06800F048FFE2
:10CB100003685C499B699847A06800F041FF0023C7
:10CB200002680093166804992A1CB047049B002BE6
:10CB30000AD0201C0EF08FF8032805DDA06800F055
:10CB40002FFF0368DB6898472F254B2604ABED18B1
:10CB5000F618E81F07350DF0EBFFB542F9D10425B3
:10CB60000EAB0A93A06804AB5D7700F019FF036871
:10CB70000AA91B699847A06800F0F2FE03680AA999
:10CB80005B6D9847A06800F0EBFE03680021DB6D49
:10CB90009847A06800F0E4FE036802219B6D984767
:10CBA0000021201CFFF704FF1820FDF79DFCA16861
:10CBB00000F0F4F9069BA1681B6815A85B190093A7
:10CBC000314B0CAE1B6800270193304B1B6802935E
:10CBD0002F4B1B6803932F4B1A682F4B1B68FFF7D3
:10CBE00077FD3020FDF780FC079AA16800F096FAE7
:10CBF000A06800F0B5FE0368311C9B6A98470823C3
:10CC0000A0683380DB187380B78000F0A9FE03684A
:10CC1000311CDB6A9847291CA0680DF0E6FF099BD0
:10CC200009215A19A0689B780DF0F2FFA06800F066
:10CC300097FEC8210771A068FFF72CFD04AB1B7F8E
:10CC4000BB4204D0A06800F08BFE0DF0B7FF09A82E
:10CC50000CF0AEFF95239B009D44F0BDACFDFFFFA3
:10CC6000ADF70200D5AA0200DDC80100E3AA020068
:10CC700069C40100F1AA02001FAB0200FFAA020072
:10CC80009DCC0100D1CC0100082800200820002004
:10CC900004280020002800200C20002013B50622C4
:10CCA0006846FDF7FFFC094B1C68002C0AD069465A
:10CCB00001A80CF0D2FF201C01A90DF0E8FF01A88B
:10CCC0000CF076FF68460CF073FF13BDFC270020C4
:10CCD000002373B501AE0C1C311C051C019303F03D
:10CCE00051FD002802D1B278064B1A70064B186825
:10CCF000002806D061426141044BC9B21D800DF08D
:10CD0000CEFF73BD90200020FC270020A22B002026
:10CD1000F0B5041C97B0039107A897490592FDF759
:10CD2000B1FC964908A8FDF7ADFC221C0FAD1832E6
:10CD3000281C07A90CF0A8FF08AA291C09A80CF0B8
:10CD4000A3FF281C0CF034FF8D490AA8FDF79AFCBC
:10CD5000A06800F005FE33264F2703685B699847FB
:10CD600004ABF618FF18F01F07360DF0E1FEBE42C7
:10CD7000F9D104230D9500250DAEA06873713571AE
:10CD800000F0EEFD0368311C5B6D9847A06800F071
:10CD9000E7FD0368291C9B6D9847A06800F0E0FD43
:10CDA000071C061C0A371F22291C381C11F0A9F980
:10CDB000FD77301C0DF0F9FE0621A0680DF015FF7F
:10CDC000099B09211A1DA0689B780DF021FFA0681E
:10CDD00000F0C6FDC8210571A068FFF75BFCA068E4
:10CDE00000F0BEFDFF272E1C0581A06800F0B8FDF5
:10CDF0000DF0E4FE0398FEF745FD0AA90CA80CF01F
:10CE00002CFF0CA978220398FEF706FE0CA80CF064
:10CE1000CFFE201C03990DF04DFF04952369DB071D
:10CE20003BD558490BA800F079FC0BA90CA80EF0D3
:10CE3000E7FE00230CA9009301931A1C0398FEF748
:10CE40008FFD0CA80EF0CFFE049B002B01D1043FF8
:10CE500000E00437282F09DDFE220023F90FBA4233
:10CE60004B41049A5B421A40049206E003980DF08D
:10CE7000C2FA002F01DC0123049305980DF0A0F8FD
:10CE8000002806D0012322699A43131C042213436D
:10CE900023610BA80EF0A7FE002623695B072AD5A5
:10CEA0000398FF21FEF7E0FD0025636902229B5EE7
:10CEB0009D4218DA201C29B214300CF0FBFE00222F
:10CEC000011C0398131C743000F07AFCC820800009
:10CED000FDF7C4F903980DF08EFAC820FDF7BEF9EE
:10CEE00023699B0705D5FA208000FDF7B7F90026D6
:10CEF00001E00135D9E723699A0732D508250BA847
:10CF00001D4019D0204900F009FC0BA90CA80EF017
:10CF100077FE00230CA9009301931A1C0398FEF7D7
:10CF20001FFD0CA80EF05FFE1848FDF797F90BA83F
:10CF30000EF059FE164E14E0164900F0EFFB0BA957
:10CF40000CA80EF05DFE0CA92A1C2B1C0095019567
:10CF50000398FEF705FD0CA80EF045FE0BA80EF099
:10CF600042FE6420FDF77AF90B4B01369E4200DC4D
:10CF700054E70CF0FCFC51E7BBF70200CBF70200D2
:10CF8000CDF70200DBF7020020F80200983A00001B
:10CF90008C0A00005DF802008B0A0000F0B5051C49
:10CFA0000024584BA9B0083303600391A9600BAB70
:10CFB0000022191901344A70102CF9D15A82013219
:10CFC0001A7051491A1B013C095D5174002CF8D1AB
:10CFD0009A7B597B12020A43291C45270C31029186
:10CFE00025211B7813AE337002ABFF187282C9186B
:10CFF0001022381C11F068F8029B02AA7361012309
:10D00000338333770933FB771DAB1C706D239B187B
:10D010001C706E23211C9B181EA80C227483F483A1
:10D0200074621C7011F06DF8384B211C0C2223A87F
:10D03000B363F46311F065F8354B0322F3644623C0
:10D0400002A95B18346505962C73DA7706AE0023C7
:10D05000321901345370102CF9D1738201333370BB
:10D060002C4A331B013C125D5A74002CF8D1252048
:10D070001121B37B727B1B020BAF134332787B828F
:10D0800002ABC9183A70C018102211F01DF8012324
:10D0900003983B7505ABBB61BC8300F071FC036872
:10D0A000391C1B68984713ABDB8BA868AB8200F078
:10D0B00067FC03680094A98A029ADF680123B847D5
:10D0C000A86800F05DFC02901420FDF70DFA071C23
:10D0D000211C0C2211F015F8381C01233C61311C75
:10D0E00020C008220793069410F0EEFF0A4BFB6065
:10D0F000029B9B69002B00D03B61281C029B9F6117
:10D1000029B0F0BD68E60200C7F80200C7AA020015
:10D11000B9AA0200B7F8020015AD0200F0B500266A
:10D12000041C764BDDB0083303608160C2608680EA
:10D1300086717349321C47A80DF080FE231C1433FE
:10D140000893042300930E330193113B049347A9E2
:10D15000331C089A029603961DA8FFF751FA6949F5
:10D16000321C47A80DF06AFE0423221C0093DB1832
:10D170000193073B15AF1032049347A9331C029665
:10D18000039632A8FFF73CFA381C5F49321C0DF0B9
:10D1900055FE231C1C33099304230093DB180193D1
:10D1A000073B391C0493099A331C0296039647A83F
:10D1B000FFF726FA5549321C381C0DF03FFE54206B
:10D1C000FDF792F9231C183307930423051C0093E1
:10D1D0000E330193113B391C0493079A331C0296BA
:10D1E0000396FFF70DFA281C494BA5620AA9EC62C9
:10D1F000082230300A930B9610F066FF454B0999D0
:10D20000AB63012329352B702682668223690422B1
:10D21000E361079810F058FF07990422089810F06E
:10D2200053FF6622032304A95218D377BA22521857
:10D23000D377872252005218D377A26AA685911C11
:10D24000CB771DAB0C9332AB0D930F9247AB3249AA
:10D25000321C10A80E930DF0F1FD30224520312133
:10D2600004AB9B181B7812323B7004AB9B181B88D5
:10D27000323A7B8204ABC918C01810F025FF042392
:10D280000CADA0683B75BD61BE8300F079FB0368FF
:10D29000391C1B689847822204AB9B181B885432A8
:10D2A000238404AB9B181B885432A38404AB9B18C3
:10D2B0001B88A068638400F063FB071C1420FDF743
:10D2C00013F9051C311C0C2210F01BFF281C134BFA
:10D2D0002E6110A910931196082210C010F0F4FED0
:10D2E0000F4BEB60BB69B34200D02B61BD61201CCA
:10D2F000FCF71AFF201C5DB0F0BDC04678E60200C6
:10D30000E7F8020017F9020007F90200D7F8020057
:10D310000FAE020093AD0200F7F802008DD30100BA
:10D32000BDAD0200F0B5041C0E1C151C85B00093A9
:10D330000CAB1B88103001930CF0C9FC2680658073
:10D340001820FDF7D1F8071C02AD2B1C3E1C0AAAC1
:10D3500003CA03C3009B002108C6301C102210F032
:10D36000D0FE291C301C082210F0AEFE064B022213
:10D370007B61201C00230199A7600A43E360A2801F
:10D38000A361E36105B0F0BDE7AD0200F0B50B8924
:10D390008BB00593CB68061C04934B88828C049C4D
:10D3A0009A420DD1059B049A1B1BD318032B3BDD1E
:10D3B0002188628808A801230CF093FC0434F1E76B
:10D3C000428C049C9A422FD1059B049A1B1BD318B4
:10D3D000032B29DD2388202006936388F7680793B1
:10D3E000124B089300230993FDF77EF86A4608ABB9
:10D3F000051C03CB03C2C02306990293281C331CCF
:10D40000079AFFF78FFF3B68381C5B68291C984719
:10D41000002807D0002D05D0281C0CF092FB281CFA
:10D42000FDF784F80434CFE70BB0F0BD91AE0200F5
:10D4300070B5041C8EB080680DF025FD0223021C1F
:10D440001A401AD1A38D002B17D069460C4BA28528
:10D450000493059204ABE56841CB41C11023111C34
:10D46000029306A8231CFFF75DFF2B68281C9B680E
:10D4700006A9984706A80CF064FB0EB070BDC04624
:10D4800091AE0200002815D0006041608260C36048
:10D49000046145618661C761444604624C4644624A
:10D4A000544684625C46C462644604636E464663C6
:10D4B00074468463002A06D0C46B043C043A256891
:10D4C0001560B442F9D18C6BA6464E6BB546002B65
:10D4D00006D0CC6B043C043B1D682560B442F9D1F6
:10D4E0000C6BA446CC6AA3468C6AA2464C6AA14641
:10D4F0000C6AA046CF698E694D690C69CB688A6851
:10D50000086849687047006041608260C3600461D8
:10D5100045618661C761444604624C464462544694
:10D5200084625C46C462644604636E464663744625
:10D530008463C46B043C043925680D60B442F9D19E
:10D54000C769866945690469704700604160826007
:10D55000C360046145618661C761444604624C460C
:10D560004462544684625C46C462644604636C460A
:10D5700044637446846304697047846BA646446BB5
:10D58000A546046BA446C46AA346846AA246446ABC
:10D59000A146046AA046C769866945690469C368EB
:10D5A000826800684168704710B5002810D0041CDC
:10D5B00010F0EDFD431E201CE318984206D20278BD
:10D5C0001978013B01705A700130F6E7002000E045
:10D5D000004810BD17FCFFFFF7B5C743051C0E1C24
:10D5E000FF0F002925D0002F00D045420024013430
:10D5F000631EF318281C0A210193009404F010FC08
:10D60000CB17C9185940019B30311970281C0A21C9
:10D6100004F020FB051EEAD1002F03D12D23009A30
:10D620000134B3540025301C3555FFF7BDFF281CCD
:10D6300000E00148FEBDC04617FCFFFF014B036040
:10D640007047C04660EC020030B5046860888142D3
:10D6500006DAA588AA4203DA002901DB002A01DAEA
:10D66000034804E05043611808188371002030BD5E
:10D6700017FCFFFFF0B5071C85B00D1C1E1C002910
:10D6800021DD002B1FD0046863880391994200DDDF
:10D690000393A38802929A4200DD0293002306348A
:10D6A0000193019B029A93420BDA201C311C039ACE
:10D6B00010F00AFD3B6876195B88E418019B013382
:10D6C000EEE7002000E0014805B0F0BD17FCFFFFC9
:10D6D000F8B5041C0E1C151C1F1C002901DB002AB8
:10D6E00002DA0D4B236015E0101C48430630FCF7AE
:10D6F000FBFE20600CF03BFB2368201C5E809D80BD
:10D70000002F05D0311C2A1C3B1CFFF7B3FF01E0A2
:10D710000EF07EFAF8BDC04660EC0200F0B5061CC3
:10D7200087B00C1E05D000200F1C051C0190011CA9
:10D7300015E0224B03603EE03022524294469C4466
:10D740006246092A14D90A2B0DD1019B2D180133E9
:10D750000193A94200DA291C0020051C01373B78FF
:10D76000002BE9D106E00028F8D001350020F5E7CC
:10D770000120F3E76A46928809B212B2301CFFF723
:10D78000A7FF33689D1D03AB1F1C2278002A12D00F
:10D79000111C3039092902D81A70013309E000221E
:10D7A0001A70BB4205D9381C10F0AEFB3B1C287028
:10D7B00001350134E9E7301C07B0F0BD60EC020030
:10D7C000F0B5041C87B004A8151C1E1C0F1CFCF728
:10D7D00011FE23685A88954208DA9B889E4205DA32
:10D7E0001F2F03D9059B00939F4201DD18482DE0B0
:10D7F000052300217B430193049B0293019B029A22
:10D80000CB18A03BD35C002203938B199C46531981
:10D81000276800937888834202DABB889C4507DB3F
:10D820000132052AF3D101310529E7D100200DE0AD
:10D8300063465843009BFB18102717411818039B99
:10D840001F407B1E9F417F428771E9E707B0F0BD13
:10D8500017FCFFFFF7B503689E1D5B885A1A0192FB
:10D8600000291CDD0C1C051C0027994202DB0EF070
:10D87000CFF912E02B689B889F420EDA3119301CD9
:10D88000019A10F021FC019B211CF0180EF0B2F956
:10D890002B6801375B88F618ECE7002000E00148B0
:10D8A000FEBDC04617FCFFFF10B50548054C2060C3
:10D8B0000CF060FA201C0449044A0FF089FE10BDE8
:10D8C00060EC02000C280020E7BB020000200020D2
:10D8D00038B50023041C0160436099420AD1064D0B
:10D8E0002B68002B02D10EF082FC286023689B007D
:10D8F000EB586360201C38BD1C28002070B5002840
:10D900000DD10C4C2668002E07D1083010F0FFF81E
:10D91000051C311CFFF7DCFF2560206808E00122B0
:10D92000054906480B68134002D1026043600A6053
:10D9300070BDC04610280020202800201428002098
:10D94000436810B5041C002B02D104480FF059FCA9
:10D95000606803681B69984710BDC04627F902003C
:10D96000436810B5041C002B02D104480FF049FC99
:10D97000606803681B69984710BDC04627F902001C
:10D98000436810B5041C002B02D104480FF039FC89
:10D99000606803689B69984710BDC04627F902007C
:10D9A000436810B5041C002B02D104480FF029FC79
:10D9B000606803685B6A984710BDC04627F902009B
:10D9C00000487047FFFF00007FB503791648002B21
:10D9D00028D0164D164C2B78201C002B22D102AEDD
:10D9E000301C0EF037FA002816D17388592B13D14A
:10D9F0003378B288D91F012904D80092201C202135
:10DA00000C4A03E0201C202100920B4A09F016FE6C
:10DA100001232B70201C05E0201C0849202210F057
:10DA2000D1FBF7E704B070BD4AF90200FB2B0020E0
:10DA3000FC2B002064F9020081F90200A6F9020023
:10DA400010B5041C024B08C00EF0E2FA201C10BDF9
:10DA500090E7020010B5041C024B08C00EF0EDFA6E
:10DA6000201C10BDA0E70200F0B597B00593036835
:10DA700007AD1B6804910393111C2B1C061C91C954
:10DA800091C30024D3680CA8211C0C22EB602C61EC
:10DA900010F037FB0B4B10940F9311AB1C7000224E
:10DAA00011AB191901344A70102CF8D15A82059A19
:10DAB00001930092301C04992A1C0CAB039CA047D4
:10DAC00017B0F0BD9BBE020038B5064B041C0360C6
:10DAD0004068002804D005690FF081FD281CF8E794
