:020000021000EC
:1080000000400020DD130200191402001B140200BE
:108010000000000000000000000000000000000060
:108020000000000000000000000000001D1402001D
:1080300000000000000000001F14020021140200D4
:108040002314020061C90100411A02002314020036
:108050002314020000000000551402002314020043
:1080600023140200091F0200CD180200231402008D
:10807000231402002314020023140200231402001C
:10808000231402002314020023140200231402000C
:1080900023140200250D0200F10E02002314020039
:1080A000231402002314020000000000000000005E
:1080B00000000000000000000000000000000000C0
:1080C00010B5064C2378002B07D1054B002B02D0AE
:1080D000044800E000BF0123237010BDC020002031
:1080E000000000006C18030008B5084B002B03D0FB
:1080F0000748084900E000BF07480368002B00D18B
:1081000008BD064B002BFBD09847F9E700000000A4
:108110006C180300C4200020B820002000000000DC
:10812000164B002B00D1144B9D46402292029A1A06
:10813000924600218B460F461348144A121A17F034
:10814000D6FC0F4B002B00D098470E4B002B00D0D5
:1081500098470020002104000D000D48002802D09F
:108160000C4800E000BF10F041F82000290016F094
:1081700019FC0FF095FDC0460000080000400020EB
:108180000000000000000000B8200020002D0020AA
:108190000000000000000000031C30B5044A083253
:1081A00004C334C934C334C934C30A681A6030BD47
:1081B00068FF020010B5041C034B0833036008F08D
:1081C00045FF201C10BDC04690FF020007B50430DB
:1081D00001AB12F0C6FA011E019804D0024810F05B
:1081E00071FB012040420EBD280C030007B504308E
:1081F00001AB12F0E5F9011E019804D0024810F01D
:1082000061FB012040420EBD3D0C030010B5041C73
:10821000022A01D1036902E0012A01D1C368C91809
:10822000201D12F07AFB011E05D0044810F04AFB15
:108230000120404200E0E06810BDC046520C03003F
:1082400008B5043012F057FA011C0020814204D016
:10825000024810F037FB0120404208BD640C0300C7
:1082600084B030B50693031C0592084A04AC08326A
:1082700004C3221C049132CA32C332CA32C332CA86
:1082800032C330BC08BC04B01847C04690FF02009F
:1082900008B5044B8000C0580368DB6A9847C0B239
:1082A00008BDC0468027002008B5044B8000C05898
:1082B00003689B6A9847C0B208BDC046802700206B
:1082C00010B5054C800000590468246BA047431E7C
:1082D0009841800010BDC0468027002010B5054C95
:1082E000800000590468646BA047431E98418000D9
:1082F00010BDC0468027002038B50C1C151C012974
:1083000013D0002904D003291ED10123136019E0E2
:108310000F4B8000C0580323002816D003689B6BC6
:108320009847431E9841C3B20FE0094B8000C058E4
:108330000323002809D00368DB6B9847231C00281F
:1083400003D02860002300E00423181C38BDC04679
:108350008027002010B5041C034B0360403013F04D
:1083600003F8201C10BDC046C8FF020010B5041C55
:10837000024B036000F0B0FB201C10BD2000030086
:1083800038B5094C051C0A1C201C172101F040FDC2
:10839000A022201C2A43182101F03AFD201C2E2186
:1083A00001F0F6FC38BDC046222C002010B51A4C56
:1083B0000821201C002201F02BFD201C0921002295
:1083C00001F026FD201C0421002201F021FD201CCB
:1083D0000521002201F01CFD201C0621002201F0D5
:1083E00017FD201C0321002201F012FD201C212179
:1083F000FF2201F00DFD201C1821012201F008FDD3
:108400000A2016F083FC201C0721172201F000FD32
:108410000A2016F07BFC10BD222C002038B5012567
:10842000354C0021201C01F0B3FC344B1D70FFF7CC
:10843000BDFF201C1321292201F0EAFC201C14217D
:10844000892201F0E5FC201C1521022201F0E0FC4C
:10845000201C0022162101F0DBFC281CB121FFF7B3
:108460008FFF2A1C201C032101F0D2FC2A1C201C97
:10847000042101F0CDFC0322201C0F2101F0C8FCD7
:1084800003210720FFF77CFF291C0220FFF778FF5C
:1084900000210B20FFF774FF70210A20FFF770FF07
:1084A00024210C20FFF76CFF00210E20FFF768FF4E
:1084B00000211E20FFF764FF70211D20FFF760FFE1
:1084C00020211F20FFF75CFF00211120FFF758FF3C
:1084D00070211020FFF754FF20211220FFF750FFDA
:1084E000201C0821FF2201F093FC201C18210F22E0
:1084F00001F08EFC281C38BD222C0020242C0020EA
:1085000038B5114D0022281C482101F081FC0520BE
:1085100016F0FCFB281C482101F03AFC4921041C00
:10852000281C01F035FC2401001120430CF06EFCE6
:108530000022064B0BF020FE0CF0F8FC04490AF078
:10854000A1FD0AF01DFF38BD252C00200000B03F22
:108550000000A04008B52C21034801F037FC64213D
:1085600009F0C6FE80B208BD222C002008B50248E2
:10857000222101F02BFC08BD222C002008B5024866
:10858000242101F023FC08BD222C0020F8B5204B4B
:10859000204F1B78204E214D214C002B0CD0FFF793
:1085A000D9FF3880FFF7EAFF3080FFF7DFFF288030
:1085B000FFF7A6FF206003E03B8033802B80236021
:1085C000184D01212C1CC534FF34201C13F029F94F
:1085D000154B01211860201C13F036F9134B0121B3
:1085E0001860201C13F043F9114B186084239B0082
:1085F000E81803F099F90F4B1860201C02F008FFEF
:108600000D4B1860201C02F019FF0C4B1860F8BDD0
:10861000242C0020CC2B0020CE2B0020D02B00209F
:10862000F0240020FC200020E4200020E82000208E
:10863000EC200020F8200020E0200020F420002082
:1086400008B5011C01480FF02DFD08BD790C030091
:1086500010B58AB0041CFFF799FF144A144B128816
:108660001B880092134A14491288201C0192134A55
:1086700012680292124A12680392124A1268049215
:10868000114A12680592114A12680692104A12683D
:108690000792104A126808920F4A12680FF09EFC67
:1086A000201C0FF0A1FB0AB010BDC046CC2B00204F
:1086B000CE2B0020D02B0020AD0C0300F024002096
:1086C000F8200020E4200020E8200020EC200020FA
:1086D000E0200020F42000200420002070B5474C4A
:1086E0008EB0201C01F066FCE121201D490204F03F
:1086F00067F9012102221A2302A804F087F8FFF784
:108700008DFE251C00280BD13D4906A802F09CFADD
:10871000201C06A9EC30782203F0C8FD06A85DE015
:10872000384816F013F90124061C301C16F02AF9FB
:10873000011E08D00134344810F0C4F8211C33481D
:1087400010F0C0F8F1E7301C16F021F9221C304976
:1087500006A810F0B9F906A92E4810F0B3F82E4972
:1087600006A80FF02FFC041C2E1D2C49301C16F0FF
:1087700094F8201CFFF764FF301C294916F08DF88F
:10878000284B1B78002B04D002A813F0BEFD002854
:108790000ED0201C0FF0F2FA234901A802F054FA7F
:1087A000281C01A9EC30642203F080FD01A815E02B
:1087B0001E4901A812F0A2FE281C0123EC3001A9D9
:1087C00078225B4203F09CFD01A812F08AFE201C77
:1087D000FFF73EFF164816F099FAD1E712F0C4FDF4
:1087E00001200EB070BD06A805E001A812F079FEC8
:1087F00016F09BFE01A812F0B7FDF9E7FC2000205F
:10880000E50C0300F00C0300F40C0300F90C03006A
:108810000A0D0300190D0300260D0300290D0300A6
:10882000350D030094200020440D0300EC240020AB
:108830001027000073B5224D281C01F0FBFA214CD3
:10884000281C221C204916F0B3FB10231F4D009357
:108850001F4B281C019317211523162201F01CF829
:10886000221C281C1B4916F0A3FB1B4E1B49301C65
:1088700002F0C0FA1A4D221C291C301C16F098FB7D
:10888000184E1949301C02F0B5FA291C221C301C64
:1088900016F08EFB154E1649301C02F0ABFA291C5F
:1088A000301C221C16F084FB60210022114812F0BB
:1088B00077FB48210022104812F072FB73BDC046BE
:1088C000FC20002000200020FD880100F42400206E
:1088D000F10C03006D830100EC240020500D030017
:1088E000E3B40200F0200020960D0300DC200020FD
:1088F000DC0D0300222C0020252C0020EB23194A3C
:108900009B0010B5C2501833041CC01812F02CFD87
:10891000F0239B00E01812F027FD84239B00E01851
:1089200002F04CFE201CC530FF3002F061FB201C21
:108930008D30FF3002F008FE201C6530FF3002F061
:1089400003FE201CEC3003F0FFFA201CD03003F0B3
:108950007DFE201C643008F02FFB201DFFF7FAFC81
:10896000201C10BD8001030070B5151C9022A8B01A
:10897000920082180B1C18A8224910F0A5F80322B7
:10898000AB0702D4023A2A400132AB0506D56B058B
:1089900001D5082300E010231A43D2B206AC18A96F
:1089A000201C11F072FD011E04D017480FF08AFF41
:1089B000002025E02B0703D5201CE16811F0ADFF56
:1089C0000FAD201C2B1C16C816C316C816C316C81C
:1089D00016C3282002F028F86A46041C12AB43CBC9
:1089E00043C243CB43C2201C0F996A68AB68FFF7B0
:1089F00037FC201C04E0201C02F038F816F095FD2E
:108A000028B070BD2D0E0300340E0300081C08B5FD
:108A100012F070F8011C0020814204D002480FF0CF
:108A200051FF0120404208BD4C0E0300081C08B550
:108A3000111C12F04DF9011C0020814204D00348A2
:108A40000FF040FF0120404208BDC046630E030006
:108A500008B5902380229B000021C018920000F0EE
:108A60001FFC011C0020814204D003480FF02AFFA4
:108A70000120404208BDC0467A0E030038B5041CF0
:108A80000D1C08F047FA104B083323600F4B1A688F
:108A9000002A04D00E48291C0FF014FF12E01C60BD
:108AA00090233021201C9B00E1540A4B1030E254EB
:108AB000013BE11800F0CCFB04E0201C08F036FA82
:108AC00016F033FD201C38BDD0FF020080270020A7
:108AD0008F0E0300410200000A4B10B508330360FB
:108AE000094B041C1A68824207D100221A609023A5
:108AF0009B00101CE11800F0ABFB201C08F016FADC
:108B0000201C10BDD0FF020080270020F8B5041CF7
:108B100011F03DFA051E53D12378032B48D1677914
:108B2000012F45D1261C80223036301C291C920092
:108B300011F08BF95522234B4121E254224B92181C
:108B4000E254221CDE3BFF3B313233701370231C96
:108B50006122323385201A705970722380002354A9
:108B60001A4823541A4BE1541A4BE2542369B83281
:108B7000FF32A354184A190AA154184A190CA154D7
:108B8000174A1B0EA354E3680132A354154A190A6D
:108B9000A154154A190CA154144A1B0EA354E3699D
:108BA00060785A1CE262311C3B1CFFF797FB657131
:108BB000002160780A1CFFF79FFB431E9841C0B25A
:108BC000F8BDC0462E0200002F0200001502000072
:108BD0001602000017020000190200001A0200002D
:108BE0001B0200001D0200001E0200001F02000008
:108BF000002310B50371013BC362041C11F0D1F9CD
:108C0000011C0320002939D11D4B1E4AE35CA25CE4
:108C10001B0213431C4A1BB2013893422ED1231C62
:108C200069331B78081C1A06231C68331B781B0445
:108C30001343221C663212781343221C67321278C7
:108C400012021343114A1B021B0A934216D0231C23
:108C500085331878013B1B7800061B041843231C3E
:108C600082331B788334184323781B021843000295
:108C7000074B000AC018431E9841C0B210BDC04641
:108C80002F0200002E02000055AAFFFF46415400AB
:108C9000BABEABFF0023F0B5036089B0071C081C07
:108CA000161C11F014F90B23051E00DA89E1C64BDE
:108CB0008200D4580C23002C00D182E13C60237840
:108CC000002B0DD06078FFF7E3FA0123034007D1B2
:108CD000002E00D175E1420700D472E10A2370E151
:108CE0000023E8B223706070FFF7DEFA0323C207A7
:108CF00000D566E1002E01D04307EFD4201C0021EF
:108D0000FFF776FF0025012825D1231CF333FF331D
:108D100000221978914209D0DA79587911069A79A6
:108D2000000212040A4319790A43024304A96A5053
:108D300004351033102DEBD1002604AB9D590220D1
:108D4000002D05D0201C291CFFF752FF00280AD057
:108D50000436102EF1D10123032800D131E100287F
:108D600001D00D232DE1231C221C3C331B783B3208
:108D700012781B02134380221BB292009342F0D15F
:108D8000231C221C47331B78463212781B021343E4
:108D900011D1231C57331B781A06231C56331B781A
:108DA0001B041343221C543212781343221C5532E5
:108DB0001278120213430093009BA361231C4033DB
:108DC0001A78531EE270012BCBD8231C3D3319783F
:108DD000A1700029C5D04B1E1942C2D1231C4233B9
:108DE0001F78013B1B783F021F4327813B07B8D107
:108DF000231C44331878013B1B780002184310D120
:108E0000231C53331878013B1B7800061B041843BE
:108E1000231C50331B781843231C51331B781B022F
:108E20001843231C261C3F331B783E3636781B0222
:108E30001E43019695D0009B53430393039A3B092D
:108E40009B199B18029398428BD3C01A09F050FAD1
:108E5000002886D05D4B0126984204D95C4E86429C
:108E6000B64176420236019B029A0230EB18521943
:108E70006061E5612362A262032E17D1002F00D04A
:108E80006FE7231C5F331B7880001A06231C5E33B8
:108E90001B781B041343221C5C3212781343221CE0
:108EA0005D3212781202134363620FE0002F00D18B
:108EB00057E7039AD3186362022E01D1400005E000
:108EC00003230122434310405B081818414BC0188C
:108ED000009B400A834200D243E701235B422361A7
:108EE000E36081336371032E2FD1231C221C613375
:108EF0001B78603212781B021343012B25D1691CA9
:108F0000201C11F04EF800281FD1334B6071334AFA
:108F1000E35CA25C1B021343314A1BB2934214D19F
:108F2000231C33331B781A06231C32331B781B0493
:108F30001343221C303212781343221C3132127830
:108F400012021343274A934208D0274A26701388F7
:108F500001339BB21380E380002332E0234BE35CB8
:108F60001A06234BE35C1B04134385229200A25C88
:108F70001343204AA25C120213431F4A9342E4D1D6
:108F80001E4BE35C1A061E4BE35C1B041343862254
:108F90009200A25C13431B4AA25C1202134323619A
:108FA000194BE35C1A06194BE35C1B04134387223D
:108FB0009200A25C1343164AA25C12021343E360C0
:108FC000C3E7181C09B0F0BD84270020F50F00008E
:108FD000F5FF0000FF0100002F0200002E0200003C
:108FE00055AAFFFF52526141D22B00201702000008
:108FF0001602000015020000727241611B0200009F
:109000001A020000190200001F0200001E020000E8
:109010001D020000F8B5051C0E1E06D1C768002F02
:1090200013D043699F4211D30FE010F0E0FF0124F9
:10903000A04242D9431C02D1012464423DE06B6945
:10904000041C371C984201D237E001273C1C6B6995
:1090500001349C4204D3012F01D800242DE00224C6
:10906000281C211C10F0C3FF002808D0431C01D08D
:10907000012801D1041C20E0BC42E8D1EDE7281C06
:10908000211C0F4A11F07CF8002813D1002E0AD1C0
:109090002B69EC605A1C10D00122013B2B616B79CB
:1090A00013436B7109E0281C311C221C11F068F875
:1090B0000028EDD00128BFD00124201CF8BDC046F7
:1090C000FFFFFF0FF7B50B78041C0D1C2F2B01D0F1
:1090D0005C2B00D101350026A6602B781F2B06D80B
:1090E000201C311C10F0EFFF6661ABE001352B78DE
:1090F0002F2BFBD05C2BF9D0A66920210B22301C32
:1091000010F0A3FE002108220B1C00920A1C5F1C19
:10911000EB5C0197202B19D92F2B17D05C2B15D086
:109120002E2B73D0009881426ED25FB2002F04DAEA
:1091300003273A43444F803BFB5C00274348C05D14
:1091400000286DD001379842F8D15DE001980027E2
:109150002D18202098427F41BB00002954D031783F
:10916000E52901D1E03931700099082901D1920037
:10917000D2B203211140012902D10F310B43DBB2DE
:109180000C210A40042A02D104321343DBB2F372E9
:10919000201C002110F097FF00281DD120682169B4
:1091A00010F0FFFE002817D162691378002B12D04F
:1091B0000823D17A0B4009D1A669D05CF15C013358
:1091C000884203D10B2BF8D1002005E0201C0021A0
:1091D00011F05CF8E0E70420A369DB7A002805D0F1
:1091E00004282FD103422DD101302BE05B0729D475
:1091F0006169CB7ADB0605D52368187810F094FEF8
:10920000A06074E705201DE006201BE0009B082BF2
:10921000FAD10B2392000099D2B20093019B76E71A
:109220001F1C413F192F02D802273A4307E01F1C99
:10923000613F192F03D80127203B3A43DBB2735417
:109240000131EBE7FEBDC046060F0300C30E03006D
:109250001FB5019003A8141C0091039110F037FE74
:109260000B22002817DB0D4B8000C1581A1C002967
:1092700001D000230B70019B002B01D0002119703D
:1092800013501A1E07D00022012C04D101A86946F0
:10929000FFF700FD021C101C04B010BD8427002045
:1092A000F0B58FB00B900D1C01921323012900D94A
:1092B000D1E20BA810F00BFE0B23002800DACAE263
:1092C000CF4B8200D4580C23002C00D1C3E20023E2
:1092D0002370C3B2181C0493FEF7E6FF0121032399
:1092E000084200D0B7E20733420700D5B3E2049842
:1092F0000DAAFFF701F8002801D00123ABE20D9E73
:109300007F2EFAD90590002D00D185E2059B019AA8
:10931000F61A019B0D96013B1A4202D1002A00D099
:1093200080E2FA21301CC90008F0E2FF0023B549B1
:109330005A00515A884201D20133F8E7B24BD35A4E
:109340000193019AB14B9A4203D9019B5B0A0193A5
:1093500002E0019B002B04D0019B802B03D98023CA
:1093600000E001230193301C019908F0C1FFA84BD4
:10937000984200D85CE2A74B984200D85FE2A64B27
:109380008000C018430A0393032302930023089329
:109390002033059A06939446069B039A63440793E9
:1093A000089B9F186246079BFF18019B9B1ADB19BD
:1093B0009E4201D20E234EE2049803210CAAFEF72E
:1093C0009BFF002800D02AE20C9B944A013B934269
:1093D00000D924E20C994B1EDA194B421340DF1BD3
:1093E000029B0C97032B06D1069BDB190693079B68
:1093F000DB19079302E0039BDB190393069B0D9F88
:109400000199F81A039BC01A089BC01A08F070FF54
:10941000029B0990022B03D17D4B9842CAD911E0DF
:10942000029B032B05D17B4B099A0C269A42C1D98A
:109430000DE0029B012B05D1794B06269F4206D8F1
:10944000029E04E0764B06269F4200D8023E002D85
:109450004FD1231C80223033181C291C92000A9300
:1094600010F0F3FCF0230127FF33E754DB19E75436
:10947000F223FF33E554DB19E654F423FE22FF33D5
:109480000D9EE254059B6749981908F031FF3F2271
:10949000FA218308134349006354F623FF33E05451
:1094A000DB19E254F823FF33E554DB19E554FA23C2
:1094B000FF33E554DB19E654FC23320AFF33E25450
:1094C000320CDB19E254FE23360EFF33E654564AC3
:1094D000A93BFF3BA354554A5533A3540C902A1C77
:1094E00004980A993B1CFEF7F9FEF835002801D0D4
:1094F00003E7F025271C80223037381C002192001A
:1095000010F0A3FC4A490B22381C10F095FC231CD8
:1095100002213B33597069460979002299706946E6
:10952000097E1A70D970069B190A231C3F331970E3
:1095300001215970029B033B591E8B41211C413173
:109540000A70221C5B021B12423213700D9B344ABC
:10955000934205D8221C433213701B12537008E04B
:10956000221C190A503213705170190C1B0E917085
:10957000D370231C3F224533DA70221CFF2149326D
:109580001D70517069460023097D13709370D1706E
:10959000137153719371274A0C92029A032A4DD189
:1095A000221C2121733291702531D1706946097BCB
:1095B000137053701F3A1170039A201C110A221C59
:1095C00055321170039A7730110C221C56321170EB
:1095D000039A110E221C5732117002215171013968
:1095E0009371D37113725172937213730531231CEB
:1095F000D172802270331A70573A9A700E4937E050
:1096000084270020120C0300FC0B0300FF01000064
:10961000F50F0000F5FF000007020000FF7F0000CB
:10962000FFFF0000C13E00002E0200002F020000DC
:10963000D20E030000002146DE0E0300221C57322A
:1096400013705370231C212259331A7025325A701B
:10965000A3186A46127B201C1A70039B7F491A0AC2
:10966000231C47331A7080225A73573ADA735B30DF
:10967000163A10F0E1FB5523794A0498A354794A2D
:10968000DB18A354391C059AA93BFEF727FE0028D6
:1096900000D032E6029B032B06D1059B04989A1D4D
:1096A000391C0123FEF71AFE8022381C002192008B
:1096B00010F0CBFB029B032B0FD0012B01D16A4B87
:1096C00000E06A4B1D43231CFF2230330C951D70B4
:1096D0002D0E5A709A70DD7016E0644B221C1D43EB
:1096E000231C30331D70FF2331321370537093707D
:1096F000D370137153719371D37113725372231C0E
:109700000F223B330C951A70079B391C1A1C5D1CE9
:1097100004980123FEF7E2FD011E00D0EDE5802252
:10972000381C920010F091FB01230C930C9B039AC0
:1097300093420ED20498391C2A1C01236E1CFEF79A
:10974000CDFD002800D0D8E50C9B351C01330C93CF
:10975000ECE7029B2E1C032B01D0089B01936B1C92
:1097600003930498391C2A1C0123FEF7B7FD002837
:1097700000D0C2E5019B039D9B19AB42EFD1029B38
:10978000032B40D1221C4F33303213705370211CF5
:109790000F3393704122333185250A707221AD0059
:1097A0006155334D615533496254334AA354099B83
:1097B0000132013BA354314A190AA154304A190C11
:1097C000A154304A1B0EA354872302229B00E2546B
:1097D0002D4B234AE0542D4B391CE0542C4BE054C4
:1097E000CB3BFF3BA3541F4A5533A354059B04981E
:1097F0005A1C0123FEF772FD059B0498DA1D391CE3
:109800000123FEF76BFD002104980A1CFEF774FD8E
:10981000431E9841C3B21EE03F23059376E5012322
:109820000C93D7E51B4B019A9A4200D98DE593E53D
:109830000323584301304008C018023B02E00223D2
:10984000023040000293134BC018430A03932023B5
:1098500008931F3B9DE5181C0FB0F0BDF20E0300EE
:109860002E0200002F02000000FFFF0000FFFFFF9C
:109870001502000016020000170200001902000085
:109880001A0200001B0200001D0200001E02000060
:109890001F020000FF010000F0B50025041C85B088
:1098A0000F1C03930B990AAB161C5D57FFF7E6F8E4
:1098B000174B391C0833236094239B00E0180123C5
:1098C0005B420093321C039B07F006FD9B239B0029
:1098D000E6180021301C182216F009F9301C291C4A
:1098E00015F09BF9A22300229B00E250F3687268F6
:1098F000201C1A609223074A9B00E250064A043358
:10990000E25005B0F0BD201CFFF7E6F815F00DFEA3
:1099100018000300A086010040420F00F8B59B2309
:109920009B00C518161C2B696A681D4F1A6094238A
:109930009B00C4184023201C194315F06EF8311603
:10994000201C15F06AF83114201C15F066F831124D
:10995000201C15F062F8311C201C15F05EF8201C4C
:10996000952115F05AF8201CFF2115F056F8061C19
:10997000030608D4EB686A68201C1A60FF2115F002
:109980004CF8301C0BE0013F002FECD1EB686A680B
:10999000201C1A60FF2115F040F801204042F8BD5C
:1099A0008813000038B5051C0F4C37210022281CF5
:1099B000FFF7B4FF281C29210022FFF7AFFF002882
:1099C00009D18022A12392009B00EA5007480EF0A3
:1099D00079FF012006E0013C002CE6D104480FF09D
:1099E00007F8201C38BDC04688130000860F03000E
:1099F0009B0F03009B239B0070B5C518161C2B6999
:109A00006A681A6094239B00C4184023201C1943E1
:109A100015F003F83116201C14F0FFFF3114201C40
:109A200014F0FBFF3112201C14F0F7FF311C201C36
:109A300014F0F3FF201C952114F0EFFF094E201CB9
:109A4000FF2114F0EAFF03060BD5013E002EF6D1EC
:109A5000EB686A68201C1A60FF2114F0DEFF012009
:109A6000404270BD88130000F8B59B239B00C518C9
:109A70006A682B697A211A6094239B00C418201C01
:109A800014F0CBFF0021201C14F0C7FF0021201C84
:109A900014F0C3FF0021201C14F0BFFF0021201C84
:109AA00014F0BBFF201C952114F0B7FF164F201CAB
:109AB000FF2114F0B2FF061C030618D4FF21201C5E
:109AC00014F0ABFFFF21201C14F0A7FFFF21201C86
:109AD00014F0A3FFFF21201C14F09FFFEB686A68BD
:109AE000201C1A60FF2114F098FF301C0BE0013F8E
:109AF000002FDCD1EB686A68201C1A60FF2114F08B
:109B00008CFF01204042F8BD8813000038B5051CC9
:109B1000134C322015F0FAF8281CFFF7A5FF372167
:109B20000022281CFFF7FAFE8022281C2921D205DA
:109B3000FFF7F4FE00280BD1281CFFF795FF09481A
:109B40000EF0C0FEA12301229B00EA50022006E095
:109B5000013C002CDDD104480EF04AFF201C38BD2A
:109B600088130000B90F0300CD0F03009B239B0057
:109B7000F7B5C5186A682B6948211A6094239B00C1
:109B8000C418201C14F049FF0021201C14F045FFCC
:109B90000021201C14F041FF0121201C14F03DFF86
:109BA000AA21201C14F039FF201C872114F035FF56
:109BB0000026201CFF2114F030FF030615D46B464D
:109BC00004271870201CFF2114F027FF6B46013F6B
:109BD0009855002FF6D1EB686A68201C1A60FF21A7
:109BE00014F01BFF6B4618780CE0074B01369E42C1
:109BF000DFD1EB686A68201C1A60FF2114F00DFFAA
:109C000001204042FEBDC046404B4C00942370B53D
:109C1000051C9B00C618083BE958301C07F098FB50
:109C20009B2310249B00EB18DA685B681360301CE0
:109C3000FF21013C14F0F1FE002CF8D1281C211C5E
:109C4000221CFFF76BFE012801D00B480FE0281CF7
:109C5000FFF78CFF012803D1281CFFF757FF09E00D
:109C6000052803D1281CFFF79DFE03E003480EF0F2
:109C7000BFFE201C70BDC046EB0F03002210030086
:109C80007FB509210022051CFFF7B4FE002804D08F
:109C900024480EF0ADFE002041E0281C6946102249
:109CA00011F0BAF8041E2048F3D168467F217E22C5
:109CB00011F09BF800280CD001282CD1A1239B0087
:109CC000E8503F216846302211F08FF801308002C1
:109CD00025E08022A12392009B00EA50C33A49214B
:109CE000FF3A684611F081F83121041C2F226846A2
:109CF00011F07BF85022051C5321684611F075F8CD
:109D000001231A1C8240101C0235E418AB4060434A
:109D10005843400A03E005480EF06AFE201C04B0D8
:109D200070BDC046591003007D100300A21003004F
:109D300038B5041CFFF76AFFA2239B00011EE05008
:109D4000104811D010480EF0BDFD201CFFF798FF01
:109D5000912380229B00E0501021201C9200FFF7ED
:109D6000DDFD051E04D009480EF042FE012506E087
:109D700094239B00E018043BE15807F0E9FA281C03
:109D800038BDC046BA100300D2100300E310030030
:109D90007FB50025061C437802AA194311700A4CAE
:109DA0000178012349000095201C02F05DFB317809
:109DB00003AE49000095201C321C012302F00AFB6F
:109DC000307804B070BDC046B42100207FB50026B5
:109DD000041C437802AA194311700C4D0178012329
:109DE00049000096281C02F03FFB217803AC490093
:109DF0000096281C221C022302F0ECFA20786378DB
:109E00000002181880B204B070BDC046B421002012
:109E10001FB503AB44785A700022214319700178B2
:109E2000009249001A1C0248022302F01DFB1FBDCC
:109E3000B42100201423F0B5041C95B0192200931E
:109E40001821043002F0C6FD231C251C261C643397
:109E5000181CB43513211193B83607F0B9F8281C33
:109E600012F000FB1E210022301C11F0AFFF201C5D
:109E7000D03002F00BFC231CEC33181C06214A4A9C
:109E8000129302F085F8201C002701226530131C74
:109E900000971121FF3001F063FB201C8D300097EB
:109EA0001A2102220123FF3001F05AFB201CB53099
:109EB000012102221A23FF3002F0A8FC231CC53323
:109EC000FF331093311C181C3A22042301F020F9AF
:109ED00084239B00E31813931D230093183B0193E5
:109EE000311C109A2B1C139801F086FD96239B00C1
:109EF000E0181399109A129B01F05EFF99239B00C2
:109F0000E018291C1C2202F0F1FE9F239B00E018A0
:109F10000A23009301330193013302930133039326
:109F200001330493013305930133069301330793FF
:109F3000013308930133099301330A9301330B93DF
:109F400001330C9301330D9301330E930133082237
:109F50000F930721103B11F041FFEB239B00E0180A
:109F6000291C03F05DF9F2239B00E0181D2102F08B
:109F700091FCFB239B00E75011982770032114F0FC
:109F80005BFC231C221C201C08499C33A0321C6053
:109F900011605760064A80305A610221012207F0A1
:109FA0000BFB201C15B0F0BDA8060300BBAF0200E0
:109FB000A7AF02000123F0B5067889B01E4000D09B
:109FC000B1E0041CFD20800500F0F6FC231CD0331A
:109FD000181C029300F0C4FA00F0B8F9282000F031
:109FE00023FD051C103011F04EFA504B6E802B8073
:109FF000182000F019FD071C4D4B10C70390311CB1
:10A000001022381C0693079615F071FD06A9082248
:10A01000381C15F04FFD474B039A029853611223E9
:10A02000AA60EE60AB802E626E62291C02F0A4FA78
:10A03000002805D0281C11F04DF9281C00F016FD51
:10A040000122237864201343237000F0A7FB00252E
:10A05000271C6537FF37381C11F091FC00283DD0D4
:10A06000201C8D30FF3011F08AFC002836D0092DDD
:10A0700034DC6420013500F091FB0A2DE8D1FB2689
:10A080002D482E49B60000F069FCA359002B1CD1C5
:10A0900000F062F8011C04A800F0D6FD05A810F03D
:10A0A000FEFF01230093EB239B00E01804A9029B11
:10A0B00005AA03F051F905A811F056F904A811F00A
:10A0C00053F9ED239B00E358A351EB23211C9B0084
:10A0D000E018EC313A1C03F0D7FAB9E7FB26164832
:10A0E0001649B60000F03AFCA559002D1BD100F02E
:10A0F00033F8011C04A800F0A7FD05A810F0CFFF5D
:10A10000EB239B00E01804A9029B05AA009503F02D
:10A1100023F905A811F028F904A811F025F9ED2379
:10A120009B00E358A35109B0F0BDC046FD030000F9
:10A130002FB00200EFAF0200001C00200020002022
:10A14000BFF34F8F024A034BDA60BFF34F8FFEE736
:10A150000400FA0500ED00E0F0B589B0192201A86D
:10A16000124915F0A7FC00220524114B261C5A7138
:10A17000802301255B055F6E381C311C08F03EF919
:10A18000081C291C08F0B4F80523021C611E1C1BC6
:10A190005E435D4363439B1801AA3F1A9B5C0448DE
:10A1A0000C1E4354E8D109B0F0BDC046361103007F
:10A1B000272C0020F0B597B018220021061C10A80B
:10A1C00015F095FC10A8132114F006FD10A803212A
:10A1D00014F0A3FD0122554B01921B68002B01D006
:10A1E000DBB2019300240BA80021514A012307F0A0
:10A1F00059FB221C4F4BB342624153421E4072B680
:10A200004D4B1022211C07A81F6815F070FC4B4B0A
:10A210006421301C079308F0FBF80A2108F0DEF9EE
:10A2200005256943503179180891301C0A2108F03E
:10A23000EFF80A2108F0D2F96943503179180991F1
:10A24000301C0A2108F0CAF94D4350357F190A978E
:10A250008027BF01019B002B4BD00026384B751E79
:10A260001D4004D50423013D5B421D430135B3006D
:10A27000049300230293032C02D180270024BF0102
:10A28000049A07ABD3582F4A9C4663000133D31876
:10A290000022039261461878095C581E05910178E6
:10A2A000102008410599084204D0012090400399EC
:10A2B0000143039101320633092AEBD1039B07AA1C
:10A2C000D943214B09011940AB009B589C4505D14E
:10A2D000029B312B02DC0BA8002101E039430BA8C3
:10A2E00014F0D6FDFA23159A1199DB00106801428B
:10A2F00001D1FFF725FF013B002BF7D1029B013471
:10A3000001330293FA23029A7F00E4B25B009A427F
:10A31000B1D10136042EA1D1044B1B68002B99D07A
:10A32000019B013BDBB2019394E7C04688270020E4
:10A33000F0FF0000E7030000082000208511030063
:10A34000030000804F110300F01F000038B5002308
:10A35000134C236010F0C4FE251C002808D0201CDC
:10A36000042110F0B9FE002819D00E4B236016E02E
:10A37000012204210C4B1A60236800200B4A506014
:10A3800054680948002CFBD0A122D20082581B023D
:10A39000013913430029F0D12B600123436038BDFC
:10A3A0008C270020ED5EBC0B00D00040FCD00040AC
:10A3B000F0B585B01F1C0AAB1B88061C0D1C029251
:10A3C0000393002F1BD0282000F02EFB6B46041CAB
:10A3D0001A89039BA9B200933B1C10F064FF3368F9
:10A3E000301C5B68211C984700280BD0002C08D03B
:10A3F000201C10F06FFF201C00F038FB01E0024829
:10A4000000E0024805B0F0BD17FCFFFF16FCFFFF9F
:10A4100038B50B4B1C68002C10D0656D00F0D0FBDC
:10A42000A36C002901D1834206D8201C10F089FEBC
:10A43000201C044910F072FE2C1CECE738BDC0460D
:10A44000B4270020BC270020F0B5041C93B007936C
:10A45000230C0293284B04901C68284B05911E681E
:10A46000069285B20027002E43D0002C2DD0636DBC
:10A4700023490393A36C9AB21B0C8D4211D121493D
:10A480008A420ED1002B02D0029A93421BD1002F98
:10A4900018D1201C10F055FE201C1B4910F03EFE68
:10A4A00010E0002A01D0AA420DD1002B02D0029A5E
:10A4B000934208D1201C10F044FE201C124910F0D9
:10A4C0002DFE00E00127039CCFE7104BEB18012B7A
:10A4D0000FD91023291C0093029A0D4B08A810F0E5
:10A4E000E2FE3368301C9B6808A9984708A810F062
:10A4F000F1FE13B0F0BDC046B0270020C0270020F9
:10A50000FE030000FF030000BC27002002FCFFFF49
:10A5100049A4010010B572B60B4B1C68002C03D087
:10A52000201C10F00EFE08E062B65C2000F07CFA01
:10A5300000215C22041C15F0DAFA0023E364034BCB
:10A54000201CE36310BDC04690270020004000207F
:10A55000024B1878012318407047C0462D2C00206C
:10A56000F7B5061CFFF7F4FF041E33D11A4D2E6019
:10A57000FFF7D0FF194B1A49186010F0CFFDFFF715
:10A58000C9FF184B1860184B4363184B8363286846
:10A5900000280ED0C027164E1649221C331C0097E7
:10A5A000FFF706FF009728681349221C331CFFF7AA
:10A5B000FFFE0C2000F038FA0023838083710F4BDC
:10A5C00003600F4B836000F013FB01210D4A1378E9
:10A5D0000B431370F7BDC046C0270020942700200E
:10A5E000BC270020C4270020FC3F002009B2020045
:10A5F00049A40100FF030000FE03000068000300FF
:10A6000011A401002D2C0020F7B5002801D1002055
:10A6100019E00029FBD00193171C0D1C061CFFF745
:10A6200079FF041EF3D0084B019A4363066045602E
:10A630008760064B002A00D0054B201CA363054908
:10A6400010F06CFD201CFEBDFC3F0020D3B10200C9
:10A65000F1B10200BC270020024B18684342584168
:10A660007047C046BC270020002310B504499C0059
:10A670006258002A01D00133F8E76050101C10BD69
:10A6800098270020002310B5044A99008C58844272
:10A6900001D00133F8E70020885010BD9827002032
:10A6A00010B50024074BE058002802D003685B680F
:10A6B00098470434182CF5D1034B1B68002B00D1AC
:10A6C00020BF10BD98270020BC270020F8B5FFF759
:10A6D0003FFF002855D02B4E3468351CE36CDA0759
:10A6E00018D502252B43E3640423274F3868C26C36
:10A6F0001343C364636BC36310F049FD3B68181CCC
:10A70000596C03F0BCFB3068C36C2B4239D003F0AA
:10A71000F0FB36E01D4F1E4E3A68002A01D1326828
:10A7200006E0216DB94203D1616D002900D00A1CF9
:10A730002A602A6831688A4208D11B0706D52C6036
:10A74000FFF7AEFF3B68002BFAD02B602B68A342CB
:10A7500017D03268934204D10E4A5A630E4A9A6364
:10A7600005E0944203D10020191C021C06E0201CC5
:10A7700010F00DFD2B68201C191C626C5B6C03F043
:10A780003DFBF8BD94270020B8270020BC270020FF
:10A79000C4270020FC3F002009B2020038B5114B4D
:10A7A000051C1C68FFF7D4FE002803D1281C14F0F8
:10A7B000ADFA16E0E36CDB0706D5FFF7ABFE0A4BFC
:10A7C0001860002800D0041C00F0FAF92818A064D2
:10A7D000201C10F0B6FC201C044910F09FFCFFF771
:10A7E00075FF38BD94270020B8270020B42700202B
:10A7F000F0B51E4B85B01C681D4B1A680393002AE8
:10A8000005D00F1C051CFFF7A3FE002801D1194835
:10A810002AE0E36CDB070ED5FFF77CFE164B061E25
:10A82000186008D010F08DFC301C144910F076FC34
:10A83000341CFFF74BFF3B042B43A364201C10F098
:10A8400080FC201C0E4910F069FC0E4B0020EB1818
:10A85000012B09D9C0230093039B291C18683A1CBB
:10A86000094BFFF7A5FD002005B0F0BD942700209F
:10A87000C027002016FCFFFFB8270020BC270020BF
:10A88000B027002002FCFFFF49A4010010B5FFF72C
:10A890005FFE002809D0054C206810F052FC2068AB
:10A8A000034910F03BFCFFF711FF10BD9427002077
:10A8B00090270020F7B500282FD00C1C051CFFF7AF
:10A8C00047FE00282BD00726164F3868C36C1E4061
:10A8D00006D0281C211C144A10F04AFC00261FE058
:10A8E00003F0EFFA02213A68D36C1940019103D0CA
:10A8F00003218B43D36413E001263343D364201C2C
:10A90000A8473A68D36C191CB143D164019E5B0718
:10A9100006D5201C10F064FC02E0044E00E0044E5A
:10A92000301CFEBD94270020E1B1020017FCFFFFA0
:10A9300016FCFFFF021C10B5014B12CB12C210BD5A
:10A94000C8270020034A044B12681A607E225A600E
:10A950007047C04608200020C827002070B5124D5F
:10A96000031C2A78022A1AD081421AD90A1A072A05
:10A9700017D9081C032218431040041E11D11A1CB9
:10A9800072B62878094EC300F0189A51416010F051
:10A9900041FC2B7801332B7062B6201C02E0044886
:10A9A00000E0044870BDC0462E2C0020D0270020B7
:10A9B00013FCFFFF17FCFFFF38B50021041C07F054
:10A9C00035FE002823D1FE21201C890507F038FE22
:10A9D00000281CD104300DF087FC051C0F48401BDB
:10A9E00008F036FD211C08F01BFA07F05DFE03237A
:10A9F0009843041C281C0DF081FC201C0DF074FCF5
:10AA0000002806D1203C002CF7D1054805E0054878
:10AA100003E00119FFF7A2FF002038BD0038002035
:10AA200013FCFFFF17FCFFFF38B5051C00240D4B7E
:10AA30001B789C4209DA0C49E300C918281C10F065
:10AA4000F1FB00280AD10134F1E7281C0DF04CFC81
:10AA5000041E04D11420FFF7ADFB00E0041C201CF1
:10AA600038BDC0462E2C0020D027002038B5002845
:10AA700018D00D4B1C780023A34211DA0B49DA00E1
:10AA80005558A8420AD98A185268904206D28023A3
:10AA9000043802681B061343036003E00133EBE74D
:10AAA0000DF02CFC38BDC0462E2C0020D0270020F5
:10AAB00070B5002816DD0C4B051C1A681C1C0B4ECB
:10AAC000002A02D0306813F0C8FFFA212560002464
:10AAD0003068074B89008361C462694313F0C5FF86
:10AAE000201C00E0034870BD10280020E027002053
:10AAF0009DAB010017FCFFFFF8B5114F061C3D6828
:10AB0000002D0AD13020FFF78FFF041C06F038FC1F
:10AB10000C4BA5612360E5623C600B4D2B68002B5C
:10AB200009D11020FFF780FF041C13F0EBFF201C5D
:10AB30002C6013F0C1FF301CFFF7BAFFF8BDC04610
:10AB4000E0270020780503000C280020014B18683E
:10AB50007047C0461028002070B50D4C2368002BAC
:10AB600003D00C4B1B68002B02D10620FFF7C4FF5B
:10AB7000206813F0B8FF021C0749C3170D684E6820
:10AB80005219734120680A604B6013F0B2FF70BD28
:10AB90000C280020E0270020B820002010B5FFF787
:10ABA000DBFF0024054BE058002802D003681B6837
:10ABB00098470434282CF5D110BDC046E427002066
:10ABC00008B5FFF7C9FFFA22034B920018685968CD
:10ABD000002307F049FD08BDB820002008B5FFF7A5
:10ABE000BBFF024B1868596808BDC046B82000205A
:10ABF0000B4B10B51B68041C002B03D0094B1B68C2
:10AC0000002B02D10620FFF777FF0023064A9900A8
:10AC10008858002801D00133F8E78C5010BDC04699
:10AC20000C280020E0270020E4270020002310B596
:10AC3000044A99008C58844201D00133F8E700207F
:10AC4000885010BDE427002010B5041C002902D054
:10AC50000B78002B02D1034B236001E010F08BFB3B
:10AC6000201C10BDC0060300F8B5051C0E1C141CEA
:10AC7000002908D00B78002B05D0081C97B215F0DE
:10AC800013F8874202D90B4B2B6010E0601DFFF7D1
:10AC9000CBFE286010F015FD2868221C4780311C6F
:10ACA000043014F007FF2B681C1900232371281CA3
:10ACB000F8BDC046C0060300014B03607047C046A4
:10ACC000C006030010B50548054C206010F0FCFCE0
:10ACD000201C0449044A14F06BF910BDC00603009F
:10ACE0001428002069B3020000200020084B73B52F
:10ACF0001D68002D0BD0011C041C2E680831082291
:10AD0000684614F0D7FE0CCC3168281C884773BD08
:10AD100018280020014B03607047C046C806030096
:10AD200030B504686088814206DAA588AA4203DA51
:10AD3000002901DB002A01DA034804E050436118CE
:10AD400008188371002030BD17FCFFFFF0B5071C09
:10AD500085B00D1C1E1C002921DD002B1FD00468AE
:10AD600063880391994200DD0393A38802929A427B
:10AD700000DD0293002306340193019B029A934263
:10AD80000BDA201C311C039A14F094FE3B687619F0
:10AD90005B88E418019B0133EEE7002000E00148E6
:10ADA00005B0F0BD17FCFFFFF8B5041C0E1C151C08
:10ADB0001F1C002901DB002A02DA0D4B236015E07D
:10ADC000101C48430630FFF72FFE206010F079FC7E
:10ADD0002368201C5E809D80002F05D0311C2A1C1A
:10ADE0003B1CFFF7B3FF01E010F09FFBF8BDC0462E
:10ADF000C8060300F0B5061C87B00C1E05D0002065
:10AE00000F1C051C0190011C15E0224B03603EE065
:10AE10003022524294469C446246092A14D90A2B95
:10AE20000DD1019B2D1801330193A94200DA291C91
:10AE30000020051C01373B78002BE9D106E00028F3
:10AE4000F8D001350020F5E70120F3E76A46928843
:10AE500009B212B2301CFFF7A7FF33689D1D03AB88
:10AE60001F1C2278002A12D0111C3039092902D85F
:10AE70001A70013309E000221A70BB4205D9381C50
:10AE800014F032FD3B1C287001350134E9E7301C19
:10AE900007B0F0BDC8060300F0B5041C87B004A8D5
:10AEA000151C1E1C0F1CFFF745FD23685A88954290
:10AEB00008DA9B889E4205DA1F2F03D9059B009371
:10AEC0009F4201DD18482DE0052300217B430193BB
:10AED000049B0293019B029ACB18A03BD35C0022F7
:10AEE00003938B199C4653192768009378888342F3
:10AEF00002DABB889C4507DB0132052AF3D1013118
:10AF00000529E7D100200DE063465843009BFB185C
:10AF1000102717411818039B1F407B1E9F417F423B
:10AF20008771E9E707B0F0BD17FCFFFFF7B50368CD
:10AF30009E1D5B885A1A019200291CDD0C1C051C01
:10AF40000027994202DB10F0F0FA12E02B689B8890
:10AF50009F420EDA3119301C019A14F0ABFD019BAF
:10AF6000211CF01810F0C4FA2B6801375B88F61822
:10AF7000ECE7002000E00148FEBDC04617FCFFFFE3
:10AF800010B50548054C206010F09EFB201C0449BC
:10AF9000044A14F00DF810BDC80603001C28002058
:10AFA000E3B402000020002010B5054C0121201C54
:10AFB00010F07EFB201C0349034A13F0F9FF10BD7B
:10AFC0002028002071B602000020002008B5074AA2
:10AFD00003880120934208D0834202D00020DB077F
:10AFE00003D41E20FFF7E6F8002008BDFFFF000095
:10AFF00010B5041C034B08330360FFF743FB201C10
:10B0000010BDC04678000300FA2370B52A4A418972
:10B010009B005943131C3833041C181C083A1D6844
:10B020001E1C8D420CD2061C244B227B1D1D082A9F
:10B030000BD8042A09D89D1C022A06D81D1C04E03E
:10B04000083B301C9342EAD1EEE7FA2130688900D0
:10B0500007F04EF960812B78201C23732A210022EF
:10B0600010F055FB002801D0154824E0201C2B21AE
:10B07000102210F04CFB0028F6D1201C2D210122BB
:10B0800010F045FB0028EFD1201C2E21012210F0EA
:10B090003EFB0028E8D16A78201C0E2110F037FB17
:10B0A0000028E1D101223379201C1A432A2110F013
:10B0B0002EFB0028D8D170BDD00603006513030015
:10B0C0000EFCFFFF7FB5161C0F226A44041C1D1CDA
:10B0D0001170002E15D0002B13DD01230189009380
:10B0E000006B01F0C1F9002801D007480AE0009088
:10B0F0002189206B321C2B1C01F06CF9002801D037
:10B10000F3E7024804B070BD0EFCFFFF17FCFFFF21
:10B11000F7B5061C00250193214B14360833041C97
:10B12000036085808571C581058245820F1C009270
:10B13000291C1822301C14F0DAFC301C1C2113F0DE
:10B140004BFD6B469B88211CA3806B461B8802220B
:10B15000238114236381231C3E313833A57122736C
:10B1600027631D705D700B7865879343F132134040
:10B17000221CA5870B70231C483215700135221D37
:10B18000D5870833A21DD587201CDD87FFF73CFF3C
:10B19000002802D1A3791D43A571201CFEBDC04625
:10B1A0007800030030B50425837987B0041C2B4256
:10B1B00004D1FFF759FAA3792B43A371A36AA269BB
:10B1C0001B6800251A422AD1201C01216A46062349
:10B1D000FFF778FF002801D0124D20E06B460221D6
:10B1E0006846595600781B79227B40B25BB25143C6
:10B1F0005343424389B2D200E281CA002282022232
:10B200009BB2DB006382A379201C9343A37110F0EF
:10B210008CFA0122A18802A8131C10F03FF9281C07
:10B2200007B030BD0EFCFFFFF7B5041C251CFFF76F
:10B23000B9FF0E22A35E734F5B423E35BB4203DA79
:10B240002B789B0700D5B3E0201CFFF7ABFF0E2245
:10B25000A35E00220192FA225B429200934203DD38
:10B260002B789B0700D4A3E0201CFFF79BFF102244
:10B27000A35E5B42BB4203DA2B785B0700D5A4E0F8
:10B28000201CFFF78FFF1022A35EFA225B42920080
:10B29000934203DD2B785B0700D496E0261C201C2C
:10B2A000FFF780FF1222A35E4836BB4203DA2B78F9
:10B2B0001B0700D595E0201CFFF774FF1223E25E08
:10B2C000FA239B009A4203DD2B781B0700D488E009
:10B2D000019B002B0DD0327813071B0F032B08DCCA
:10B2E0000F2101330B408A431A433270042B00D1E3
:10B2F00081E00F22337819090131114013400929E7
:10B3000003D809010B4333700AE03370002B07D0D8
:10B310000F331340337003D101222B7893432B70EA
:10B3200001272B783B400193019A0B23002A67D118
:10B33000201C10F062FA344A0723904260DD201C82
:10B34000FFF730FF0E23E25E304E52420323B2423B
:10B3500056DBC825201CFFF725FF0E23E25EAD005B
:10B3600052420423AA424BDC201CFFF71BFF102390
:10B37000E25E02235242B24242DB201CFFF712FF80
:10B380001023E25E3B1C5242AA4239DC201CFFF72C
:10B3900009FF1223E25E0523B24231DB201CFFF7D6
:10B3A00001FF1223E25E0623AA4229DC019B27E06B
:10B3B0000121081C2B7801915A089043021C02209D
:10B3C0008A40834313432B704EE70121081C2B78DE
:10B3D00001919A08904382000420834313432B7009
:10B3E0005CE701222B78D9088A430821D2008B43DD
:10B3F00013432B706FE701222B7813432B7078E7F0
:10B40000181CFEBD18FCFFFFFF700200E0FCFFFFF0
:10B4100008B510F096FA064907F002FD09F032FD72
:10B42000044A054B08F084FB09F0BAFC08BDC0468D
:10B430000000B443EA2E4454FB21194008B510F033
:10B4400089FA064907F0ECFC09F01CFD044A054B9B
:10B4500008F06EFB09F0A4FC08BDC0460000B44330
:10B46000EA2E4454FB21194070B5C369C2681B68B9
:10B470008AB0041C451D1A4250D0EB7F002B01D02E
:10B48000013BEB77EB7F082B0DD90123A2791A4200
:10B4900009D11A43A271A1881A1C06A80FF0FEFF59
:10B4A000FFF78EFB2062EB7F012B26D80123A279C8
:10B4B0001A4222D00025A188A57102A802220FF00D
:10B4C000EDFFA31DDE7F012E17D1FFF779FB2B1CAB
:10B4D000226A801A994100900191019BA18806A8D7
:10B4E000AB4203D1164B009A9A4202D9042201239F
:10B4F00001E00322331C0FF0D1FF0323A279134094
:10B50000012B1AD1FFF75CFB0023226A801A9941B4
:10B51000994208D10B4B984205D80EE0EB7F0B2BDC
:10B52000B0D80133ADE70222A379A1881343A371F8
:10B5300006A8033201230FF0B1FF0AB070BDC04668
:10B54000E7030000DB05000010B5041C034B0833C3
:10B550000360FFF76BFB201C10BDC046900003008A
:10B56000F0B5071C00250E1C85B002930AAB1B78B2
:10B5700008370393104B041C083303600192858045
:10B580008571291C381C182214F0B1FA381C311CA2
:10B59000039A13F026FB6B466A469B88127AA380B7
:10B5A000A31DE671DA77631D2562201CDD77FFF7A6
:10B5B0001FFB201C05B0F0BD9000030010B5041C5B
:10B5C000034B08330360FFF75DF8201C10BDC04635
:10B5D000A80003007FB5161C0F226A44041C1D1C22
:10B5E0001170002E15D0002B13DD0123018900936B
:10B5F000C06B00F039FF002801D007480AE0009036
:10B600002189E06B321C2B1C00F0E4FE002801D0E5
:10B61000F3E7024804B070BD0EFCFFFF17FCFFFF0C
:10B62000002330B585B003AC217001890093051C5F
:10B63000221CC06B013300F017FF002801D00A481C
:10B640000FE02070607029890090221CE86B0223B3
:10B6500000F0C0FE0028F2D1207863780002184381
:10B6600000B205B030BDC0460EFCFFFF13B56B46FF
:10B67000DC1D0023221C23700133FFF7ABFF0028E1
:10B6800001D1207800E0014816BDC0460EFCFFFF46
:10B69000D0B5041C10F09BF92269E369981A09F0EF
:10B6A000B5FBA369061CE0680F1C181A09F0AEFB75
:10B6B000021C0B1C301C391C0BF0B2F80022104B82
:10B6C00008F05AFD0F4A104B08F032FA09F02EFC30
:10B6D0000021041C06F0A0FF002804D0201C0B4908
:10B6E00007F030F8041C201C09F0CCFB021C0B1CDA
:10B6F0000020074908F0DAFF09F052FBD0BDC04630
:10B7000000806640EA2E4454FB2109400000B44307
:10B7100000807640F0B5041C89B0006C10F01AF976
:10B72000051C206C10F00DF90221071C201C10F0E4
:10B730007FF902210590201C10F08CF907F040FEE3
:10B7400002210190201C10F097F907F039FE0290B9
:10B75000281C09F097FB041C0D1C0BF011F809F0D4
:10B76000E5FB291C0390201C0AF0B8FF09F0DEFB62
:10B770000490381C09F086FB041C0D1C0BF000F82B
:10B7800009F0D4FB291C071C201C0AF0A7FF069017
:10B7900007910399029807F043FB0499041C019850
:10B7A00007F03EFB011C201C07F06CFC09F06AFB53
:10B7B000051C05980E1C07F003FE041C069807994B
:10B7C00009F0B4FB011C201C07F02AFB391C041CE7
:10B7D000019807F025FB039907F022FB011C201CB0
:10B7E00006F0B0FF391C041C029807F019FB0499FD
:10B7F00007F016FB011C201C06F0A4FF09F042FB19
:10B80000021C0B1C281C311C0BF00AF800220C4BEC
:10B8100008F0B2FC0B4A0C4B08F08AF909F086FBE1
:10B820000021041C06F0F8FE002804D0201C074963
:10B8300006F088FF041C201C07F0A2FD09B0F0BD33
:10B8400000807640EA2E4454FB2119400000B443A6
:10B85000F8B510210022041C10F0ABF81D4E002892
:10B8600034D1201C0821FFF701FFB0422ED0032560
:10B87000054027D1FA23184A61899B005943131CBC
:10B8800050331E1C083A1F68181C8F4203D3083B14
:10B89000061C9342F7D1FA213068890006F028FD92
:10B8A00011216081A022201C10F083F800280DD106
:10B8B00001223379201C1A43102110F07AF8002855
:10B8C00005D003E06420FEF769FFCAE7014D281C9C
:10B8D000F8BDC0460EFCFFFF10070300F0B50426BC
:10B8E000041C807985B03040051E16D10227201C2B
:10B8F00010F06DF8A3790622BB433343A371A188EE
:10B90000012368460FF0CAFDA379281C1A1CB24314
:10B91000A2713B4202D1024800E0024805B0F0BDEE
:10B9200014FCFFFF15FCFFFF10B583795A070ED4F6
:10B93000041C9B0701D4FFF7D1FF236C201C002BB4
:10B9400002D0FFF7E7FE03E0FFF7A2FE00E00148A8
:10B9500010BDC04615FCFFFF70B5466C86B001AC4B
:10B96000051C01916260A360002E0CD00B4905A854
:10B97000FFF76AF9301C05A9221C0C2310F0ADFD5D
:10B9800005A80FF0F1FC2B1C0C3307CC07C30222D7
:10B99000AB791343AB7106B070BDC0466B130300A7
:10B9A000642330B5041C0281438185B08180FFF798
:10B9B0004FFF0222A379606C9343A371002813D038
:10B9C0000C4910F055FD051E0ED0011C0C22103143
:10B9D00001A814F06FF8201C0199029A039BFFF74D
:10B9E000BBFF281CFFF742F80122A3791343A37180
:10B9F00005B030BD6B130300F7B5009308AB1B888F
:10BA0000041C019309AB1D8800230F1C161C0D4A52
:10BA10008380083283710260C36003614361836184
:10BA2000C36103621D2124300FF0B6FF009BE76362
:10BA30002664201C291C6364019AFFF7B1FF201CB7
:10BA4000FEBDC046A800030082B0F0B5051CA3B03F
:10BA500064202993289213F059F90C21042207A895
:10BA600010F0A3FFCF49242219A814F023F80521D0
:10BA700004A80A1C0FF062FDCB4905A8FFF7BAF92C
:10BA8000A86800F073FBAC68C84916A8FFF7DCF89B
:10BA9000201C16A9782200F009FC16A80FF064FCFF
:10BAA0006E246420013C13F031F9002CF9D1A86810
:10BAB00000F05CFBA86810F084F9012168680FF0C1
:10BAC000B0FE0121071C68680FF0BEFE061C0A20AC
:10BAD00013F01CF90022B64B03929F4210DB013297
:10BAE00003923A1CC8320BDB04220392C822920054
:10BAF000974205DC03220392C82F01DC013A03922E
:10BB0000002202929E4210DB01230293331CC833B1
:10BB10000BDB04230293C8239B009E4205DC032316
:10BB20000293C82E01DC013B02935D2604A80FF0AE
:10BB3000FCFC02ABF618371C7B78002B06D07B1E72
:10BB400019783A7804A8FF23FFF7EAF8812302AABC
:10BB500003379B189F42EFD16B460C21595E6B4611
:10BB600004A808229A5EFF23FFF7DAF80023A868EA
:10BB70000093743004A91A1C0FF0E7FC731E1B78A5
:10BB8000039A934234D13378029A934230D1777832
:10BB9000002F2DD1391C28680FF04AFF07F010FC48
:10BBA0003A1C031C211C07A810F04AFF391C286806
:10BBB0000FF050FF07F004FC0122031C211C07A812
:10BBC00010F03EFF391C28680FF056FF07F0F8FB15
:10BBD000211C031C022207A810F032FFFE23211CA7
:10BBE0009B0507A8032210F02BFF01237370E418B4
:10BBF000812302AA03369B189E42BFD1642013F012
:10BC000085F80B2C00DC58E707A810F005FF01228F
:10BC1000011C0AA810F0C9FE002407A810F0FCFEC1
:10BC200084423EDA211C002207A810F0F7FE211CF6
:10BC3000061C002207A810F0F1FE011C301C07F0C2
:10BC4000EFF8211C061C012207A810F0E7FE0122D4
:10BC5000071C211C07A810F0E1FE011C381C07F08E
:10BC6000DFF8011C301C06F06DFD211C061C0222B1
:10BC700007A810F0D3FE0222211C071C07A810F011
:10BC8000CDFE011C381C07F0CBF8011C301C06F05F
:10BC900059FD211C031C00220AA810F0D1FE01341A
:10BCA000BBE707A90A1C012316A811F096FC16A9E8
:10BCB0000DA810F0DFFE16A810F0D3FE10A807A9FB
:10BCC0000AAA012311F089FC002313A80DA910AAC8
:10BCD00011F083FC002113A80A1C10F09FFE012123
:10BCE000061C002213A810F099FE0022041C022159
:10BCF00013A810F093FEFC21071C8905301C07F0E7
:10BD00008FF807F03DFBFC21061C16908905201CCE
:10BD100007F086F807F034FBFC21041C1790890516
:10BD2000381C07F07DF807F02BFB221C031C311C8C
:10BD300018902868FFF710FEA86810F042F805A9CF
:10BD400006A8AC680FF0DAFB00231A4A009306A994
:10BD50000192201C1A1C00F04BFA06A80FF0C1FB40
:10BD6000FA20800012F0D2FFA86810F02AF813A879
:10BD700010F077FE10A810F074FE0DA810F071FE00
:10BD80000AA810F06EFE05A80FF0ABFB04A80FF098
:10BD9000A8FB07A810F065FE23B0F0BC08BC02B0F9
:10BDA0001847C046761303009A130300DF130300FD
:10BDB000E0FCFFFFDC050000F0B58360204B85B0A0
:10BDC0001F68051C01604260002F36D02820FEF756
:10BDD0002BFE041C10300FF056FB0523238001338B
:10BDE00063801820FEF720FE164B061C02930023EA
:10BDF00020C6191C01901022301C039313F077FE0B
:10BE000002A90822301C13F055FE0F4B019A381C72
:10BE100053610023E360C233A3800023A260236246
:10BE200063623B68211C5B689847002805D0201C92
:10BE30000FF050FA201CFEF719FE281C05B0F0BDCB
:10BE40001828002049BA010091BA0200F7B5041C75
:10BE50000121A37A00259C460D3399400091291CAD
:10BE6000276FFB680193019B9D4231DABB687A69B9
:10BE70006B4363445B00E67AD3181A785878E37909
:10BE8000012E04D15E1E361A101C321C0EE0022E4A
:10BE900005D15E1EB21A267A013E301A06E0032E44
:10BEA00004D1267A013EB61A021C301C5B004343C3
:10BEB000606F667A8218D3189B79B34200DD331C19
:10BEC000627B1A4202D00123AB4019430135CAE715
:10BED0001123C943FB56606C994023691940009BAC
:10BEE000194312F0D5FFA37B072B18D8627B581C8F
:10BEF000520062730A499A00A073022B03D8885833
:10BF000012F0F9FEA4E7074B201C236300236363B0
:10BF1000054B8958E4622364143012F0A6FDF7BD86
:10BF2000680703004DBE0100D1BA020010B5041C21
:10BF3000044B036012F091FD201C05F037FA201C21
:10BF400010BDC0467805030010B5041C0E4B083325
:10BF50000360FEF76BFE201C74300FF0C2FA201C49
:10BF600060300FF0BEFA201C58300FF0FDF9201C95
:10BF700050300FF0F9F9201C044B14306361FFF7C7
:10BF8000D5FF201C10BDC046C00003009005030073
:10BF9000F8B50025041C314B85800833036085719A
:10BFA0001430161C0F1C05F0EBF9201C2C4BE5621D
:10BFB000636125645030FEF77FFE201C5830FEF789
:10BFC0007BFE201C6030FEF7A5FE201C3368266730
:10BFD000590009B20423F25E74300FF0AFFA3378DF
:10BFE000226FE3717368A78023721023E572A57234
:10BFF0002561D356916859188B4204DA0120984084
:10C0000001330543F8E71123D168D35659188B4201
:10C0100006DA01229A402069013302432261F6E7E1
:10C020001420FEF701FD226900212A430123061C8A
:10C0300005F038FCFF226272221C002301254832E1
:10C0400066646573A3732373201C1370A366FEF7E5
:10C05000CFFDA379201C2B43A371F8BDC0000300C2
:10C0600090050300F7B5437A002B66D00121837A4F
:10C0700000259C460D3399400091291C076FFB68F1
:10C080000193019B9D422CDABB687A696B43634440
:10C090005B00C67AD3181A785C78C379012E04D174
:10C0A0005E1E361B141C321C0EE0022E05D15E1ED5
:10C0B000B21A067A013E341B06E0032E04D1067A3A
:10C0C000013EB61A221C341C5B006343446FA21865
:10C0D000D3189B79002B02D00123AB4019430135C3
:10C0E000CFE71123C943FB56041C99400369406CF8
:10C0F0001940009B194312F0CBFE667AB31EDBB2E7
:10C10000FC2B14D8FEF722FD0C4B051C23630023E7
:10C110000B4863630B4BFF21E4622364704306F01A
:10C1200077F9011C201C6943143012F09EFC637ADD
:10C13000012B02D8201C0FF0D5FCF7BDE5BA020098
:10C14000B6030000D1BA02001FB501228188131C7A
:10C1500068460FF0A3F9012268460349131C0FF04B
:10C160009DF905B000BDC046FE0300001FB5031CCD
:10C1700048331A78041C002A0DD000221A700132AC
:10C180008188131C68460FF089F90122684604492A
:10C19000131C0FF083F9201C74300FF0C6F91FBD7B
:10C1A000FF03000008B548300378002B06D0037861
:10C1B000012B03D0024801210FF002F808BDC04650
:10C1C000FF03000010B50121041C06200EF0F8FF4B
:10C1D000064B984209D1231C48331A78002A04D010
:10C1E0001B78012B01D020BFF5E710BD16FCFFFF27
:10C1F00073B5079C051C002C09DB061C48363078FB
:10C20000002806D03078012803D00D4816E00D48EC
:10C2100014E0069812B2C0B20090281C1BB2743011
:10C220000FF093F90020844207D02B1C4A331C8066
:10C2300007234C352880337000E0201C76BDC046B3
:10C2400012FCFFFF17FCFFFFF0B587B00D9E002E1C
:10C2500022DB041C039302920F1CFFF7A3FF231C95
:10C2600048331D78EDB2002D18D1391C05A80FF008
:10C2700045F90C9B05A90093029A039B0196201C8B
:10C28000FFF7B6FF05A80FF02CF9301E07D0201CD1
:10C29000FFF798FF281C02E0024800E0024807B0C0
:10C2A000F0BDC04617FCFFFF11FCFFFFF8B5041CF2
:10C2B000171E09DD061C48363378002B06D033786C
:10C2C000012B03D00C4816E00C4814E0221CE37943
:10C2D0005632013B1370231C0025201C54331D8053
:10C2E00050300FF09EF8231C4A331F800223281C75
:10C2F0004C3425803370F8BD12FCFFFF17FCFFFFA4
:10C30000F8B5041C171C1D1C002A09DD061C483644
:10C310003378002B06D03378012B03D0124822E06B
:10C32000124820E0002D01DAE37903E00B685B8816
:10C330005B429BB2221C64321380231C201C663398
:10C340001D7060300FF0E2F8221C00236C32137075
:10C350009D4200D0BBB2221C4A321380002004232D
:10C360004C3420803370F8BD12FCFFFF17FCFFFF38
:10C37000F7B5002A1BDD051C161C0F1CFFF712FF6A
:10C380002B1C48331878C4B2002C12D1391C01A8D8
:10C390000FF03FF801A9321C281CFFF787FF01A806
:10C3A0000EF0E2FF281CFFF70DFF201C02E0024800
:10C3B00000E00248FEBDC04617FCFFFF11FCFFFF76
:10C3C000FF2902D84172002000E001487047C046B2
:10C3D00017FCFFFFF0B51F1C85B00AAB1B78041CCF
:10C3E000039300933B1C0D1C161C12F004FA00284A
:10C3F00032D0237D082B2DD823680022191CFC3154
:10C400008A62A0211648C9005A5084461A50052055
:10C410000138C046C046C046C046C046C046C046B9
:10C42000C046C046C046C046C046F1D10120624663
:10C430002368985005225A5005F014FD039B201CD8
:10C440000093291C3B1C321C12F0D5F9237D0133CB
:10C450002375CCE7034800E0207505B0F0BDC04669
:10C46000FC0F00000EFCFFFFF0B51F1C85B00AABEF
:10C470001B78041C039300933B1C0D1C161C12F02C
:10C48000A2F9002832D0237D082B2DD82368002262
:10C49000191CFC318A62A0211648C9005A508446F2
:10C4A0001A5005200138C046C046C046C046C046A6
:10C4B000C046C046C046C046C046C046C046F1D190
:10C4C000012062462368985005225A5005F0CAFCA4
:10C4D000039B201C0093291C3B1C321C12F073F997
:10C4E000237D01332375CCE7034800E0207505B0B8
:10C4F000F0BDC046FC0F00000EFCFFFF70B5002928
:10C5000026D00D1C0026C468002C1ED00222A9884B
:10C51000A3884B40134216D1114203D1AB889B072D
:10C5200007D510E0A068A96810F02EFA002804D101
:10C53000F4E7A368AA68934205D12B88002B09D0A1
:10C5400022889A4206D0646ADEE7201C002E0DDCA9
:10C5500007480BE06B88002B02D062889A42F2D128
:10C56000A388044A01361343A380ECE770BDC0469C
:10C5700017FCFFFF0080FFFFF0B585B0002952D007
:10C580000D1C061CC468002C19D0AA880023920731
:10C5900002D5A3889B07DB0F226829688A420CD149
:10C5A000002B06D0A068A96810F0EEF900283CD155
:10C5B00003E0A368AA68934237D0646AE3E7F068AF
:10C5C0002A88071C031E22D01988914205D2596A75
:10C5D0001F1C00290DD00B1CF6E7191C3B1C08E0A2
:10C5E0000C88944207D14F886C88A74203D20B1C59
:10C5F000496A0029F4D183420BD119888A4205D3B4
:10C60000914206D158886988884202D96B62F560E8
:10C6100002E0596A69625D626846094901230EF0C9
:10C620003DFF002009E0074807E0A3881AB2002A6E
:10C6300002DA5B045B0CA380034805B0F0BDC04682
:10C64000FD03000017FCFFFF16FCFFFF064B10B5B3
:10C650001A1C041C08322C33026043600430FEF7BD
:10C6600011F8201C10BDC046D800030008B4024BCE
:10C670009C46043808BC60474DC6010008B4024B14
:10C680009C46043808BC604703BF02000C4A0023E4
:10C69000111C2C32083110B5038183724260C360D3
:10C6A0000361436143830160041C0430FDF7DCFF38
:10C6B000044B1A68002A00D11C60201C10BDC04623
:10C6C000D800030018280020F7B50E1C0125C46807
:10C6D0000192002C37D0238832889A4201D0002B57
:10C6E00026D1638872889A4201D0002B20D1FDF7B1
:10C6F0002FFF0123002806D0A288BF331340C03B80
:10C700005A425341DBB2019A934210D1A7883BB2FF
:10C71000002B0CDB201C311C1030102213F0CAF946
:10C720007B0607D4FDF714FF002803D006E00025A0
:10C73000646ACEE7201C0FF0EDFBF9E7211C0348EB
:10C74000FEF7B8F8F4E7281CFEBDC04615BF02008E
:10C7500008B4024B9C46043808BC604799C00200EC
:10C76000F0B587B001930EAB1B88061C03930D9B9D
:10C770000D1C0093019B02920C9F002B3DD0002FBB
:10C7800002D1009BDB0738D52820FEF74DF9041CA9
:10C7900010300EF078FE6B461B89258063801820D0
:10C7A000FEF742F90497071C051C009B0021059326
:10C7B000019B102208C7381C13F099F904A908221C
:10C7C000381C13F077F90E4B02226B610023A56031
:10C7D0000399E3602362636233680A43A2805B6863
:10C7E000301C211C9847002808D0201C0EF072FD38
:10C7F000201CFEF73BF9034800E0034807B0F0BDFA
:10C80000C5C0020016FCFFFF17FCFFFFF0B5041CBB
:10C81000161C00258380164A164B85710260218103
:10C8200046810573186889B08C46A8421DD0124A0B
:10C83000059504926A4604AB82CB82C2C02361464E
:10C8400002932A1C231CFFF78BFF0B4A094B06920D
:10C850006A461868079506AB82CB82C2C023311C9A
:10C8600002932A1C231CFFF77BFF201C09B0F0BD9C
:10C870002001030018280020EFC1020030B5002479
:10C88000034D84710560818042730373846030BD01
:10C890003801030070B5041C00250D4B0E1C083335
:10C8A000858085710360211C14300FF06DFD201C04
:10C8B000211C1C300FF08BFD064BA680A571E57185
:10C8C00025726572E5602561201C1C6070BDC04644
:10C8D00048010300242800208379DB0702D5417238
:10C8E000002000E00048704716FCFFFF8379DB075B
:10C8F00001D5407A00E001487047C04616FCFFFFB2
:10C9000038B50569002D23D0037A032B22D8041CE7
:10C91000FFF7ECFF283528702C20FEF785F82C2235
:10C920000021051C13F0E3F8002322695362E36839
:10C93000002B01D1E26005E0596A002901D00B1CEF
:10C94000FAE75A62237A256101332372002002E05C
:10C95000014800E0014838BD17FCFFFF13FCFFFF52
:10C9600010B5134C2068FFF7CBFF2068114B02690C
:10C97000114CE250114B5A68002A03D000225A6031
:10C980000132A2601B690C4A002B0FD000210B4B17
:10C9900019618023DB00D358012B05D1A923DB00CB
:10C9A000D158C9B2FFF798FF0123A36010BDC0465C
:10C9B000242800200405000000100040FC10004066
:10C9C00008B5002903DB024B196012F010F808BD0E
:10C9D0002828002070B5041C1E1C04AB1D7804F030
:10C9E0001BFB201C0D4B40302360FEF765F9231C18
:10C9F000221C4C331E701D730023E1214E32A364B0
:10CA00006365138053809381D381013B201C636451
:10CA10004902FFF7D5FF201C70BDC046C8FF0200C9
:10CA200002200D4A0D4B30B59850101C8022D200C8
:10CA30009C58002CFAD0A124084DE40029519958A3
:10CA40000029FCD00021054A11508022D2009A58BA
:10CA5000002AFAD030BDC0460405000000E00140C5
:10CA6000F0B50F4C0125A4460E4805518024E40082
:10CA70000459002CFAD000248027FF009C4207DADA
:10CA8000A5004E595651C559002DFCD00134F3E78D
:10CA9000002362468350C359002BFCD0F0BDC04632
:10CAA0000405000000E0014030B501240A480B4BAA
:10CAB0001C50041C8020C0001D58002DFAD00A60B4
:10CAC0001A58002AFCD00021044A11518022D200B9
:10CAD0009A58002AFAD030BD0405000000E0014059
:10CAE000F7B580277F053D697C690822113C6C43BE
:10CAF000061C211C684612F0DDFF104B009A9A427A
:10CB000019D00093002301937969301C13396943CC
:10CB1000FFF786FF019A301C00990FF06DFC301C66
:10CB2000211CFFF77DFF7969AB0813396943301C7D
:10CB3000221CFFF795FF0198FEBDC046FECA00000B
:10CB4000F0B50D1CABB00D9200213022061C12A8CE
:10CB50000B9312F0CCFF281C13F0A6F8431C0C9387
:10CB6000102B00DDB6E00B9B202B00D9B2E0301C6F
:10CB7000291C0FF07DFC071E29D1291C0C9A12A834
:10CB800012F098FF0D990B9A16A812F093FF8023CC
:10CB90005B051F695A69301C113A7A435D690D9231
:10CBA000FFF79EFF0D9B002108333022041C1EA8B6
:10CBB0000F9312F09CFF291C13397943301CFFF7A7
:10CBC0002FFF0F9B0B9300230C930E9335E0103037
:10CBD0000D990B9A12F05FFF041C381CFDF746FFFD
:10CBE000002C7AD0C9E70B991EA8302212F062FF00
:10CBF0001EA812A913F04EF8002822D13849301C83
:10CC0000221C109111940FF0F7FB6A460B9B0993BD
:10CC100015AB23CB23C223CB23C223CB23C2301C8F
:10CC2000149B1299139A0FF0FBFB01230E930B9B9D
:10CC300030330B930C9B01330C930C9BA342D2DB40
:10CC400010E06A460B9B099321AB23CB23C223CB75
:10CC500023C223CB23C2301C1E991F9A209B0FF0A6
:10CC6000DFFBE4E7E5433021ED1725404D430F9B03
:10CC70005D190E9B002B1BD1B81E05F039FB8442B9
:10CC80002AD017490134301C221C109111940FF046
:10CC9000B3FB6A46099515AB23CB23C223CB23C232
:10CCA00023CB23C2301C1299139A149B0FF0B8FBAC
:10CCB000301C0D99FFF7B4FE80235B0559690C23E6
:10CCC0006343133979430233301C0D9AFFF7C8FED2
:10CCD000002402E0034C00E0034C201C2BB0F0BD0C
:10CCE000FECA000017FCFFFF13FCFFFF38B582806F
:10CCF000FA2200230D4D92000835056041618371D1
:10CD0000C26083604382041C081C09490FF0B0FB19
:10CD1000051E09D0011C201C10311230022212F015
:10CD2000C9FE281CFDF7A2FE201C38BD60010300CF
:10CD3000ED13030030B50225837987B0041C2B4224
:10CD400004D1FDF791FCA3792B43A371201C0FF0B4
:10CD5000D5FB00282BD06B46DD1C281C0FF0C5FB33
:10CD60002B78002B03D001A80FF0BDFB0EE00122B1
:10CD7000104B1A60104B5A68002AFBD000225A60F0
:10CD80000E4B01321B6801930A4B5A60019BDA1764
:10CD9000920FD3189B102382FDF712FF0122E36844
:10CDA000A1881818A060131C02A80EF077FB0020C1
:10CDB00007B030BD00C00040FCC0004008C50040C6
:10CDC00010B5041C054B0833036018300EF0CCFA84
:10CDD000201C14300EF0C8FA201C10BD780103008E
:10CDE000FF23F0B52B4C8DB023700023051C694642
:10CDF0000088009303F0D0F8002802D16B469B789E
:10CE00002370254E3368DB68002B06D1002128886B
:10CE10000A1C0B1C0FF087FB3AE02378032BF5D894
:10CE20001E4901A8FDF710FF336801A9DE6804A8B8
:10CE30000EF0EFFA301C04A90FF049FB061C04A801
:10CE40000EF092FA371E1ED0311C2022103104A899
:10CE500012F030FE301CFDF709FE217804ABC9004A
:10CE60005918082202A812F025FE288802A90822D3
:10CE700001230FF058FB0127002804D128880C213A
:10CE8000074A0FF04EFB01A80EF06EFA002FBDD03E
:10CE90000DB0F0BD952000202C280020F5130300D4
:10CEA000FFFF000038B5041C8068002808D0064B3E
:10CEB0001D8801F0C7F80368291C1B6A15229847D2
:10CEC000201CFDF7DFFB38BDD42B0020F8B58C1EED
:10CED000E4B2051C069E132C22D80120071CA74093
:10CEE0003C1C244F3C421BD0E97F5C1869181F2C66
:10CEF0003EDC701C814203D90878C8540139F8E738
:10CF00000021C8B2984204D2545C70188470013178
:10CF1000F7E732789A183270EA7F9B18EB770DE0CA
:10CF20003478013CE4B2A3420AD10021C8B298424D
:10CF300004D2545C701884700131F7E7002017E0C8
:10CF4000EF7F0120DF193F1B1F2F11DCA01C3618BB
:10CF5000EF7FE819864205D23778301B0238077018
:10CF60000136F5E73C1B023C281CEC770FF028FB50
:10CF7000F8BDC0463F000800F0B585B001930AAB8C
:10CF80001E880BAB1B78451C02930EAB1B78041C50
:10CF900003930B78171C03704B8A102243820131D4
:10CFA000281C12F087FD6B469B88268363836B46A3
:10CFB0001B7B002623776B4601221B7A6761E68381
:10CFC000EB77A31CDA770C9B0C256362231C201CD7
:10CFD0000D9A28331A705E709E70311C2A1C2C30FA
:10CFE00012F085FD201C074BE663A363311C2A1C4D
:10CFF000403012F07CFD201C034B2665E36405B035
:10D00000F0BDC04641C5020033C5020038B50D1C55
:10D0100001F018F8041C0368002D02D15B699847E1
:10D0200008E09B689847854204D22368201C9B68CF
:10D030009847051CFA2080006843024905F058F91A
:10D04000E08038BD71020000F0B5071C161CA1B0CD
:10D0500002C7041C6A4918A81D1C0FF0F7FA331EFA
:10D0600003D0301C12F020FE83B202220192002273
:10D070000292039201320093049218A9321C381CC8
:10D08000FFF77AFF231C18A858335E4906930FF068
:10D09000DDFA2B1E03D0281C12F006FE83B20222FA
:10D0A000019200220292039201320093049218A985
:10D0B0002A1C0698FFF760FF231C18A8AC335249BE
:10D0C00007930FF0C3FA269B002B03D0181C12F015
:10D0D000EBFD83B2022201920022029203920132FE
:10D0E0000093049218A9269A0798FFF745FF631C3E
:10D0F000FF3318A8454908930FF0A8FA279B002B87
:10D1000003D0181C12F0D0FD83B20222019200223B
:10D110000292039201320093049218A9279A089868
:10D12000FFF72AFF231C5533FF3318A8384909930A
:10D130000FF08CFA289B002B03D0181C12F0B4FDC2
:10D1400083B20222019200220292039201320093E2
:10D15000049218A9289A0998FFF70EFF231CA933F7
:10D16000FF3318A82B490A930FF070FA299B002B64
:10D1700003D0181C12F098FD83B202220192002203
:10D1800018AD029203920132009304920A98291C6E
:10D19000299AFFF7F1FE204B1B780B93002B2CD123
:10D1A000069B12971393079B0DAF1493089B1B4983
:10D1B0001593099B381C16930A9B12AE17930FF018
:10D1C00045FA49201D213B7810222B707B8A6B8207
:10D1D00006ABC918C01812F06DFC06232B756B4600
:10D1E0009B8D2068AB83AE6100F03CFF0368291C77
:10D1F0001B6898470122084B1A70201C21B0F0BD13
:10D20000292A0000242A0000252A0000272A0000DD
:10D21000262A0000282A00002F2C00200A180000CF
:10D2200038B50025041C094B8580083385710360DF
:10D23000C1601430FDF740FD201C1830FDF73CFDA7
:10D24000034BA5602561201C1C6038BD78010300DC
:10D250002C280020FA21F0B5041C8FB0012306A869
:10D26000890002220EF01AF927882C4C2368DB680B
:10D27000002B4CD02A4D2B78032B48D8294902A8E3
:10D28000FDF7E2FC236802A9DE6806A80EF0C1F8EB
:10D2900006A9301C0FF01BF9061C06A80EF064F856
:10D2A0006B469A1D0823381C138004A9073B0FF016
:10D2B0003CF9002E08D0311C06A81031202212F0B3
:10D2C000F9FB301CFDF7D2FB2D7806ABED005D19A4
:10D2D0006B46281CDA8804A912F0DDFB002813D065
:10D2E0000822281C04A912F0E5FB236802A9DD68C6
:10D2F00003A80EF08EF8281C03A906AA20230FF01D
:10D30000ECF803A80EF030F802A80EF02DF8206813
:10D31000002801D00FF0D4F90FB0F0BD2C28002068
:10D3200095200020F513030010B507290CD880685C
:10D330000C1C00F087FE054A036811575B6C984788
:10D34000002802D0024800E0024810BD0115030089
:10D3500016FCFFFF17FCFFFFF0B59E4C0D1CA5440B
:10D36000041C07939AAB1B789B4909A80493069267
:10D37000FDF76AFC201C291C18300EF052F8C02062
:10D38000800000F051FF0820FDF74EFB061C002135
:10D3900000F010FE15ADA66000210C220EA812F0C0
:10D3A000A6FB2B1C0EAA83CA83C38C4B301CEB60DC
:10D3B0000023291C2B6110F06FF9A06800F042FED9
:10D3C00000210C220590281C12F091FB1420FDF77F
:10D3D0002BFB834B2A1C1593031CC2CAC2C3814B6F
:10D3E000059EC3600023A43603613368002B00D080
:10D3F00003613060A06800F035FE00210C22061C9D
:10D40000281C12F074FB1420FDF70EFB764B1593CD
:10D41000031C86CD86C3754BC36000230361336B49
:10D42000002B00D003613063A06800F00BFE15AD47
:10D4300000210C22061C281C12F059FB1420FDF7B9
:10D44000F3FA6B4B98361593031C86CD86C3694B54
:10D45000C360002303613368002B00D00361012502
:10D4600004AB1B7C04AA2B43306008A9281C13744E
:10D470000FF05DF8A06800F005FE03685E495B6A86
:10D480009847A06800F0FEFD03685C499B699847D7
:10D49000A06800F0F7FD0023026800931668049965
:10D4A0002A1CB047049B002B0AD0201C0FF011F956
:10D4B000032805DDA06800F0E5FD0368DB689847F8
:10D4C0002F254B2604ABED18F618E81F07350FF093
:10D4D0006DF8B542F9D104250EAB0A93A06804ABF0
:10D4E0005D7700F0CFFD03680AA91B699847A06823
:10D4F00000F0A8FD03680AA95B6D9847A06800F0DA
:10D50000A1FD03680021DB6D9847A06800F09AFD3B
:10D51000036802219B6D98470021201CFFF704FF40
:10D520001820FDF781FAA16800F0F4F9069BA168C4
:10D530001B6815A85B190093314B0CAE1B680027C4
:10D540000193304B1B6802932F4B1B6803932F4BA7
:10D550001A682F4B1B68FFF777FD3020FDF764FA40
:10D56000079AA16800F096FAA06800F06BFD0368C6
:10D57000311C9B6A98470823A0683380DB187380AE
:10D58000B78000F05FFD0368311CDB6A9847291CF7
:10D59000A0680FF068F8099B09215A19A0689B78C8
:10D5A0000FF074F8A06800F04DFDC8210771A06865
:10D5B000FFF72CFD04AB1B7FBB4204D0A06800F03A
:10D5C00041FD0FF039F809A80DF0CEFE95239B0020
:10D5D0009D44F0BDACFDFFFF011403004FC50200E8
:10D5E00055D201005DC50200E1CD01006BC502000E
:10D5F00099C5020079C5020015D6010049D601007F
:10D60000382800200C20002034280020302800205A
:10D610001020002013B506226846FDF725FB094BB4
:10D620001C68002C0AD0694601A80DF0F2FE201CEF
:10D6300001A90FF06AF801A80DF096FE68460DF0FA
:10D6400093FE13BD2C280020002373B501AE0C1CE3
:10D65000311C051C019302F09FFC002802D1B27816
:10D66000064B1A70064B1868002806D061426141CB
:10D67000044BC9B21D800FF050F873BD95200020F7
:10D680002C280020D42B0020F0B5041C97B0039167
:10D6900007A897490592FDF7D7FA964908A8FDF71C
:10D6A000D3FA221C0FAD1832281C07A90DF0C8FEB2
:10D6B00008AA291C09A80DF0C3FE281C0DF054FE71
:10D6C0008D490AA8FDF7C0FAA06800F0BBFC33261C
:10D6D0004F2703685B69984704ABF618FF18F01FE3
:10D6E00007360EF063FFBE42F9D104230D950025E5
:10D6F0000DAEA0687371357100F0A4FC0368311C95
:10D700005B6D9847A06800F09DFC0368291C9B6D29
:10D710009847A06800F096FC071C061C0A371F22D9
:10D72000291C381C12F0E3F9FD77301C0EF07BFF4A
:10D730000621A0680EF097FF099B09211A1DA06819
:10D740009B780EF0A3FFA06800F07CFCC821057157
:10D75000A068FFF75BFCA06800F074FCFF272E1C9C
:10D760000581A06800F06EFC0EF066FF0398FEF7DE
:10D77000FDFC0AA90CA80DF04CFE0CA97822039818
:10D78000FEF7F6FD0CA80DF0EFFD201C03990EF03E
:10D79000CFFF04952369DB073BD558490BA8FDF75C
:10D7A00029FB0BA90CA80DF0A9FE00230CA90093DE
:10D7B00001931A1C0398FEF747FD0CA80DF091FE8B
:10D7C000049B002B01D1043F00E00437282F09DD22
:10D7D000FE220023F90FBA424B41049A5B421A40E1
:10D7E000049206E003980EF0ECFA002F01DC01230E
:10D7F000049305980EF0C3F8002806D0012322698F
:10D800009A43131C0422134323610BA80DF069FEF5
:10D81000002623695B072AD50398FF21FEF7D0FD78
:10D820000025636902229B5E9D4218DA201C29B202
:10D8300014300DF01BFE0022011C0398131C7430E1
:10D84000FDF72AFBC8208000FCF7A8FF03980EF024
:10D85000B8FAC820FCF7A2FF23699B0705D5FA2078
:10D860008000FCF79BFF002601E00135D9E7236922
:10D870009A0732D508250BA81D4019D02049FDF77D
:10D88000B9FA0BA90CA80DF039FE00230CA90093DE
:10D8900001931A1C0398FEF7D7FC0CA80DF021FE8B
:10D8A0001848FCF77BFF0BA80DF01BFE164E14E08A
:10D8B0001649FDF79FFA0BA90CA80DF01FFE0CA945
:10D8C0002A1C2B1C009501950398FEF7BDFC0CA8A3
:10D8D0000DF007FE0BA80DF004FE6420FCF75EFFC0
:10D8E0000B4B01369E4200DC54E70DF009FC51E77A
:10D8F0000F1403005F1803001F1403002D1403000E
:10D9000072140300983A00008C0A0000AF14030060
:10D910008B0A0000F0B5051C0024584BA9B0083351
:10D9200003600391A9600BAB0022191901344A70FE
:10D93000102CF9D15A8201321A7051491A1B013C3C
:10D94000095D5174002CF8D19A7B597B12020A436D
:10D95000291C45270C31029125211B7813AE337009
:10D9600002ABFF187282C9181022381C12F0A2F8FC
:10D97000029B02AA73610123338333770933FB7758
:10D980001DAB1C706D239B181C706E23211C9B18F3
:10D990001EA80C227483F48374621C7012F0A7F822
:10D9A000384B211C0C2223A8B363F46312F09FF8B8
:10D9B000354B0322F364462302A95B1834650596B0
:10D9C0002C73DA7706AE0023321901345370102C11
:10D9D000F9D17382013333702C4A331B013C125D41
:10D9E0005A74002CF8D125201121B37B727B1B02C5
:10D9F0000BAF134332787B8202ABC9183A70C01860
:10DA0000102212F057F8012303983B7505ABBB6158
:10DA1000BC8300F027FB0368391C1B68984713ABD5
:10DA2000DB8BA868AB8200F01DFB03680094A98A19
:10DA3000029ADF680123B847A86800F013FB029040
:10DA40001420FCF7F1FF071C211C0C2212F04FF8E8
:10DA5000381C01233C61311C20C008220793069426
:10DA600012F028F80A4BFB60029B9B69002B00D048
:10DA70003B61281C029B9F6129B0F0BD900103000F
:10DA80001915030041C5020033C502000915030042
:10DA900091C70200F0B50026041C764BDDB00833B8
:10DAA00003608160C260868086717349321C47A81A
:10DAB0000EF00EFF231C14330893042300930E333F
:10DAC0000193113B049347A9331C089A02960396CD
:10DAD0001DA8FFF751FA6949321C47A80EF0F8FE5D
