:020000021000EC
:1080000000400020F90C0200350D0200370D02007F
:108010000000000000000000000000000000000060
:10802000000000000000000000000000390D020008
:1080300000000000000000003B0D02003D0D0200AA
:108040003F0D020021C001005D1302003F0D020040
:108050003F0D020000000000710D02003F0D020004
:108060003F0D020025180200E91102003F0D020039
:108070003F0D02003F0D02003F0D02003F0D0200C8
:108080003F0D02003F0D02003F0D02003F0D0200B8
:108090003F0D0200A1EC0100A5F901003F0D020017
:1080A0003F0D02003F0D0200000000000000000034
:1080B00000000000000000000000000000000000C0
:1080C00010B5064C2378002B07D1054B002B02D0AE
:1080D000044800E000BF0123237010BDB42000203D
:1080E000000000004CEF020008B5084B002B03D045
:1080F0000748084900E000BF07480368002B00D18B
:1081000008BD064B002BFBD09847F9E700000000A4
:108110004CEF0200B8200020B42000200000000036
:10812000164B002B00D1144B9D46402292029A1A06
:10813000924600218B460F461348144A121A15F036
:108140001EF90F4B002B00D098470E4B002B00D090
:1081500098470020002104000D000D48002802D09F
:108160000C4800E000BF0EF037FA2000290014F0A0
:1081700009FD0DF0AFFFC0460000080000400020E0
:108180000000000000000000B4200020B82C0020F7
:10819000000000000000000010B5041C034B083371
:1081A000036001F0D3FA201C10BDC046F8D70200CE
:1081B000F0B50025041C85B00F1C03930B990AAB86
:1081C0005D57161C01F09AFA154B391C08332360D1
:1081D00094239B00E01801235B420093321C039B15
:1081E00008F008FD9B239B00E6181822301C002194
:1081F00015F0C5F8301C291C14F0CBFDA223002279
:108200009B00E250F3687268201C1A609223054AB2
:108210009B00E250044A0433E25005B0F0BDC04672
:10822000F8D70200A086010040420F00F8B59B235A
:108230009B00C518161C2B696A681D4F1A60942391
:108240009B00C4184023201C194314F0D6FC31169F
:10825000201C14F0D2FC3114201C14F0CEFC31127E
:10826000201C14F0CAFC311C201C14F0C6FC201C7D
:10827000952114F0C2FC201CFF2114F0BEFC061C4A
:10828000030608D4EB686A68201C1A60FF2114F00A
:10829000B4FC301C0BE0013F002FECD1EB686A68A6
:1082A000201C1A60FF2114F0A8FC01204042F8BDF8
:1082B0008813000038B5051C0F4C37210022281CFC
:1082C000FFF7B4FF281C29210022FFF7AFFF002889
:1082D00009D18022A12392009B00EA5007480EF0AA
:1082E000BFFA012006E0013C002CE6D104480EF064
:1082F0004DFB201C38BDC0468813000088E40200F6
:108300009DE402009B239B0070B5C518161C2B69C9
:108310006A681A6094239B00C4184023201C1943E8
:1083200014F06BFC3116201C14F067FC3114201C77
:1083300014F063FC3112201C14F05FFC311C201C73
:1083400014F05BFC201C952114F057FC094E201CF6
:10835000FF2114F052FC03060BD5013E002EF6D18E
:10836000EB686A68201C1A60FF2114F046FC0120AB
:10837000404270BD88130000F8B59B239B00C518D0
:108380006A682B697A211A6094239B00C418201C08
:1083900014F033FC0021201C14F02FFC0021201CC1
:1083A00014F02BFC0021201C14F027FC0021201CC1
:1083B00014F023FC201C952114F01FFC164F201CE8
:1083C000FF2114F01AFC061C030618D4FF21201C00
:1083D00014F013FCFF21201C14F00FFCFF21201CC3
:1083E00014F00BFCFF21201C14F007FCEB686A68FA
:1083F000201C1A60FF2114F000FC301C0BE0013F30
:10840000002FDCD1EB686A68201C1A60FF2114F091
:10841000F4FB01204042F8BD8813000038B5051C6C
:10842000134C322014F02EFD281CFFF7A5FF372136
:108430000022281CFFF7FAFE8022281C2921D205E1
:10844000FFF7F4FE00280BD1281CFFF795FF094821
:108450000EF006FAA12301229B00EA50022006E05A
:10846000013C002CDDD104480EF090FA201C38BDF0
:1084700088130000BBE40200CFE402009B239B00B2
:10848000F7B5C5186A682B6948211A6094239B00C8
:10849000C418201C14F0B1FB0021201C14F0ADFB0B
:1084A0000021201C14F0A9FB0121201C14F0A5FBC5
:1084B000AA21201C14F0A1FB201C872114F09DFB95
:1084C0000026201CFF2114F098FB030615D46B46F0
:1084D00004271870201CFF2114F08FFB6B46013F0E
:1084E0009855002FF6D1EB686A68201C1A60FF21AE
:1084F00014F083FB6B4618780CE0074B01369E4264
:10850000DFD1EB686A68201C1A60FF2114F075FB4C
:1085100001204042FEBDC046404B4C00942370B544
:10852000051C9B00C618083BE958301C08F09EFB50
:108530009B2310249B00EB18DA685B681360301CE7
:10854000FF21013C14F059FB002CF8D1281C211C00
:10855000221CFFF76BFE012801D00B480FE0281CFE
:10856000FFF78CFF012803D1281CFFF757FF09E014
:10857000052803D1281CFFF79DFE03E003480EF0F9
:1085800005FA201C70BDC046EDE4020024E502009F
:108590007FB509210022051CFFF7B4FE002804D096
:1085A00024480EF0F3F9002041E0281C694610220F
:1085B0000FF09CFD041E2048F3D168467F217E22E7
:1085C0000FF074FD00280CD001282CD1A1239B00B2
:1085D000E8503F21684630220FF068FD01308002EC
:1085E00025E08022A12392009B00EA50C33A492152
:1085F000FF3A68460FF05AFD3121041C2F226846CD
:108600000FF054FD5022051C532168460FF04EFD1B
:1086100001231A1C8240101C0235E418AB40604351
:108620005843400A03E005480EF0B0F9201C04B09E
:1086300070BDC0465BE502007FE50200A4E50200D4
:1086400038B5041CFFF76AFFA2239B00011EE0500F
:10865000104811D010480EF003F9201CFFF798FFC6
:10866000912380229B00E0501021201C9200FFF7F4
:10867000DDFD051E04D009480EF088F9012506E04D
:1086800094239B00E018043BE15808F0EFFA281C03
:1086900038BDC046BCE50200D4E50200E5E50200B5
:1086A000031C30B5044A083204C334C934C334C986
:1086B00034C30A681A6030BD40D80200F8B5041C03
:1086C0000FF0BBFE051E53D12378032B48D16779E9
:1086D000012F45D1261C80223036301C291C9200E7
:1086E0000FF009FE5522234B4121E254224B9218F0
:1086F000E254221CDE3BFF3B313233701370231CEB
:108700006122323385201A705970722380002354FD
:108710001A4823541A4BE1541A4BE2542369B832D5
:10872000FF32A354184A190AA154184A190CA1542B
:10873000174A1B0EA354E3680132A354154A190AC1
:10874000A154154A190CA154144A1B0EA354E369F1
:1087500060785A1CE262311C3B1C00F00FFF65710F
:10876000002160780A1C00F017FF431E9841C0B238
:10877000F8BDC0462E0200002F02000015020000C6
:108780001602000017020000190200001A02000081
:108790001B0200001D0200001E0200001F0200005C
:1087A000002310B50371013BC362041C0FF04FFEA0
:1087B000011C0320002939D11D4B1E4AE35CA25C39
:1087C0001B0213431C4A1BB2013893422ED1231CB7
:1087D00069331B78081C1A06231C68331B781B049A
:1087E0001343221C663212781343221C673212781C
:1087F00012021343114A1B021B0A934216D0231C78
:1088000085331878013B1B7800061B041843231C92
:1088100082331B788334184323781B0218430002E9
:10882000074B000AC018431E9841C0B210BDC04695
:108830002F0200002E02000055AAFFFF46415400FF
:10884000BABEABFF0023F0B5036089B0071C081C5B
:10885000161C0FF092FD0B23051E00DA89E1C64BB2
:108860008200D4580C23002C00D182E13C60237894
:10887000002B0DD0607800F05BFE0123034007D190
:10888000002E00D175E1420700D472E10A2370E1A5
:108890000023E8B22370607000F056FE0323C20785
:1088A00000D566E1002E01D04307EFD4201C002143
:1088B000FFF776FF0025012825D1231CF333FF3372
:1088C00000221978914209D0DA79587911069A79FB
:1088D000000212040A4319790A43024304A96A50A8
:1088E00004351033102DEBD1002604AB9D59022026
:1088F000002D05D0201C291CFFF752FF00280AD0AC
:108900000436102EF1D10123032800D131E10028D3
:1089100001D00D232DE1231C221C3C331B783B325C
:1089200012781B02134380221BB292009342F0D1B3
:10893000231C221C47331B78463212781B02134338
:1089400011D1231C57331B781A06231C56331B786E
:108950001B041343221C543212781343221C553239
:108960001278120213430093009BA361231C40332F
:108970001A78531EE270012BCBD8231C3D33197893
:10898000A1700029C5D04B1E1942C2D1231C42330D
:108990001F78013B1B783F021F4327813B07B8D15B
:1089A000231C44331878013B1B780002184310D174
:1089B000231C53331878013B1B7800061B04184313
:1089C000231C50331B781843231C51331B781B0284
:1089D0001843231C261C3F331B783E3636781B0277
:1089E0001E43019695D0009B53430393039A3B0982
:1089F0009B199B18029398428BD3C01A09F074F804
:108A0000002886D05D4B0126984204D95C4E8642F0
:108A1000B64176420236019B029A0230EB18521997
:108A20006061E5612362A262032E17D1002F00D09E
:108A30006FE7231C5F331B7880001A06231C5E330C
:108A40001B781B041343221C5C3212781343221C34
:108A50005D3212781202134363620FE0002F00D1DF
:108A600057E7039AD3186362022E01D1400005E054
:108A700003230122434310405B081818414BC018E0
:108A8000009B400A834200D243E701235B422361FB
:108A9000E36081336371032E2FD1231C221C6133C9
:108AA0001B78603212781B021343012B25D1691CFD
:108AB000201C0FF0CCFC00281FD1334B6071334ACF
:108AC000E35CA25C1B021343314A1BB2934214D1F4
:108AD000231C33331B781A06231C32331B781B04E8
:108AE0001343221C303212781343221C3132127885
:108AF00012021343274A934208D0274A267013884C
:108B000001339BB21380E380002332E0234BE35C0C
:108B10001A06234BE35C1B04134385229200A25CDC
:108B20001343204AA25C120213431F4A9342E4D12A
:108B30001E4BE35C1A061E4BE35C1B0413438622A8
:108B40009200A25C13431B4AA25C120213432361EE
:108B5000194BE35C1A06194BE35C1B041343872291
:108B60009200A25C1343164AA25C12021343E36014
:108B7000C3E7181C09B0F0BDD0200020F50F00009D
:108B8000F5FF0000FF0100002F0200002E02000090
:108B900055AAFFFF525261418C2B002017020000A2
:108BA0001602000015020000727241611B020000F3
:108BB0001A020000190200001F0200001E0200003D
:108BC0001D020000F8B5051C0E1E06D1C768002F57
:108BD00013D043699F4211D30FE00FF05EFC0124D4
:108BE000A04242D9431C02D1012464423DE06B699A
:108BF000041C371C984201D237E001273C1C6B69EA
:108C000001349C4204D3012F01D800242DE002241A
:108C1000281C211C0FF041FC002808D0431C01D067
:108C2000012801D1041C20E0BC42E8D1EDE7281C5A
:108C3000211C0F4A0FF0FAFC002813D1002E0AD194
:108C40002B69EC605A1C10D00122013B2B616B791F
:108C500013436B7109E0281C311C221C0FF0E6FC49
:108C60000028EDD00128BFD00124201CF8BDC0464B
:108C7000FFFFFF0FF7B50B78041C0D1C2F2B01D045
:108C80005C2B00D101350026A6602B781F2B06D85F
:108C9000201C311C0FF06DFC6661ABE001352B78B8
:108CA0002F2BFBD05C2BF9D0A66920210B22301C86
:108CB0000FF021FB002108220B1C00920A1C5F1CF4
:108CC000EB5C0197202B19D92F2B17D05C2B15D0DB
:108CD0002E2B73D0009881426ED25FB2002F04DA3F
:108CE00003273A43444F803BFB5C00274348C05D69
:108CF00000286DD001379842F8D15DE00198002737
:108D00002D18202098427F41BB00002954D0317893
:108D1000E52901D1E03931700099082901D192008B
:108D2000D2B203211140012902D10F310B43DBB232
:108D30000C210A40042A02D104321343DBB2F3723D
:108D4000201C00210FF015FC00281DD1206821698E
:108D50000FF07DFB002817D162691378002B12D029
:108D60000823D17A0B4009D1A669D05CF15C0133AC
:108D7000884203D10B2BF8D1002005E0201C0021F4
:108D80000FF0DAFCE0E70420A369DB7A002805D0C5
:108D900004282FD103422DD101302BE05B0729D4C9
:108DA0006169CB7ADB0605D5236818780FF012FBD2
:108DB000A06074E705201DE006201BE0009B082B47
:108DC000FAD10B2392000099D2B20093019B76E76F
:108DD0001F1C413F192F02D802273A4307E01F1CEE
:108DE000613F192F03D80127203B3A43DBB273546C
:108DF0000131EBE7FEBDC04645E6020002E6020097
:108E00001FB5019003A8141C009103910FF0B5FA4F
:108E10000B22002817DB0D4B8000C1581A1C0029BB
:108E200001D000230B70019B002B01D00021197091
:108E300013501A1E07D00022012C04D101A8694644
:108E4000FFF700FD021C101C04B010BDD020002054
:108E5000F0B58FB00B900D1C01921323012900D99E
:108E6000D1E20BA80FF089FA0B23002800DACAE23E
:108E7000CF4B8200D4580C23002C00D1C3E2002336
:108E80002370C3B2181C049300F05EFB012103237E
:108E9000084200D0B7E20733420700D5B3E2049896
:108EA0000DAA00F079FB002801D00123ABE20D9E52
:108EB0007F2EFAD90590002D00D185E2059B019AFD
:108EC000F61A019B0D96013B1A4202D1002A00D0EE
:108ED00080E2FA21301CC90008F006FE0023B549E3
:108EE0005A00515A884201D20133F8E7B24BD35AA3
:108EF0000193019AB14B9A4203D9019B5B0A0193FA
:108F000002E0019B002B04D0019B802B03D980231E
:108F100000E001230193301C019908F0E5FDA84B06
:108F2000984200D85CE2A74B984200D85FE2A64B7B
:108F30008000C018430A039303230293002308937D
:108F40002033059A06939446069B039A634407933D
:108F5000089B9F186246079BFF18019B9B1ADB1911
:108F60009E4201D20E234EE2049803210CAA00F087
:108F700013FB002800D02AE20C9B944A013B934249
:108F800000D924E20C994B1EDA194B421340DF1B27
:108F9000029B0C97032B06D1069BDB190693079BBC
:108FA000DB19079302E0039BDB190393069B0D9FDC
:108FB0000199F81A039BC01A089BC01A08F094FD87
:108FC000029B0990022B03D17D4B9842CAD911E034
:108FD000029B032B05D17B4B099A0C269A42C1D9DF
:108FE0000DE0029B012B05D1794B06269F4206D846
:108FF000029E04E0764B06269F4200D8023E002DDA
:109000004FD1231C80223033181C291C92000A9354
:109010000FF071F9F0230127FF33E754DB19E75410
:10902000F223FF33E554DB19E654F423FE22FF3329
:109030000D9EE254059B6749981908F055FD3F22A3
:10904000FA218308134349006354F623FF33E054A5
:10905000DB19E254F823FF33E554DB19E554FA2316
:10906000FF33E554DB19E654FC23320AFF33E254A4
:10907000320CDB19E254FE23360EFF33E654564A17
:10908000A93BFF3BA354554A5533A3540C902A1CCB
:1090900004980A993B1C00F071FAF835002801D0B9
:1090A00003E7F025271C80223037381C002192006E
:1090B0000FF021F94A490B22381C0FF013F9231C39
:1090C00002213B335970694609790022997069463B
:1090D000097E1A70D970069B190A231C3F33197038
:1090E00001215970029B033B591E8B41211C4131C8
:1090F0000A70221C5B021B12423213700D9B344A11
:10910000934205D8221C433213701B12537008E09F
:10911000221C190A503213705170190C1B0E9170D9
:10912000D370231C3F224533DA70221CFF214932C1
:109130001D70517069460023097D13709370D170C2
:10914000137153719371274A0C92029A032A4DD1DD
:10915000221C2121733291702531D1706946097B1F
:10916000137053701F3A1170039A201C110A221CAD
:1091700055321170039A7730110C221C563211703F
:10918000039A110E221C57321170022151710139BC
:109190009371D37113725172937213730531231C3F
:1091A000D172802270331A70573A9A700E4937E0A4
:1091B000D020002072E402005CE40200FF01000005
:1091C000F50F0000F5FF000007020000FF7F000020
:1091D000FFFF0000C13E00002E0200002F02000031
:1091E00011E60200000021461DE60200221C573253
:1091F00013705370231C212259331A7025325A7070
:10920000A3186A46127B201C1A70039B7F491A0A16
:10921000231C47331A7080225A73573ADA735B3033
:10922000163A0FF05FF85523794A0498A354794A07
:10923000DB18A354391C059AA93B00F09FF90028BC
:1092400000D032E6029B032B06D1059B04989A1DA1
:10925000391C012300F092F98022381C0021920071
:109260000FF049F8029B032B0FD0012B01D16A4B61
:1092700000E06A4B1D43231CFF2230330C951D7008
:109280002D0E5A709A70DD7016E0644B221C1D433F
:10929000231C30331D70FF233132137053709370D1
:1092A000D370137153719371D37113725372231C62
:1092B0000F223B330C951A70079B391C1A1C5D1C3E
:1092C0000498012300F05AF9011E00D0EDE5802238
:1092D000381C92000FF00FF801230C930C9B039A9B
:1092E00093420ED20498391C2A1C01236E1C00F0F4
:1092F00045F9002800D0D8E50C9B351C01330C93B0
:10930000ECE7029B2E1C032B01D0089B01936B1CE6
:1093100003930498391C2A1C012300F02FF900281C
:1093200000D0C2E5019B039D9B19AB42EFD1029B8C
:10933000032B40D1221C4F33303213705370211C49
:109340000F3393704122333185250A707221AD00AD
:109350006155334D615533496254334AA354099BD7
:109360000132013BA354314A190AA154304A190C65
:10937000A154304A1B0EA354872302229B00E254BF
:109380002D4B234AE0542D4B391CE0542C4BE05418
:10939000CB3BFF3BA3541F4A5533A354059B049872
:1093A0005A1C012300F0EAF8059B0498DA1D391CC9
:1093B000012300F0E3F8002104980A1C00F0ECF807
:1093C000431E9841C3B21EE03F23059376E5012377
:1093D0000C93D7E51B4B019A9A4200D98DE593E592
:1093E0000323584301304008C018023B02E0022327
:1093F000023040000293134BC018430A039320230A
:1094000008931F3B9DE5181C0FB0F0BD31E602002C
:109410002E0200002F02000000FFFF0000FFFFFFF0
:1094200015020000160200001702000019020000D9
:109430001A0200001B0200001D0200001E020000B4
:109440001F020000FF01000010B5041C034B08338D
:10945000036007F091FA201C10BDC04668D80200D6
:1094600007B5043001AB0FF0D2FB011E019804D008
:1094700002480DF0F5F9012040420EBDC5E602009C
:1094800007B5043001AB0FF0F1FA011E019804D0CA
:1094900002480DF0E5F9012040420EBDDAE6020077
:1094A00010B5041C022A01D1036902E0012A01D18E
:1094B000C368C918201D0FF086FC011E05D00648A0
:1094C0000DF0CEF90120404204E00448E1680DF0BF
:1094D000C7F9E06810BDC046EFE6020001E70200F0
:1094E00008B504300FF05DFB011C0020814204D060
:1094F00002480DF0B5F90120404208BD19E702000D
:1095000084B030B50693031C0592084A04AC0832B7
:1095100004C3221C049132CA32C332CA32C332CAD3
:1095200032C330BC08BC04B01847C04668D802003B
:1095300008B5044B8000C0580368DB6A9847C0B286
:1095400008BDC046D420002008B5044B8000C05898
:1095500003689B6A9847C0B208BDC046D42000206B
:1095600010B5054C800000590468246BA047431EC9
:109570009841800010BDC046D420002010B5054C95
:10958000800000590468646BA047431E9841800026
:1095900010BDC046D420002038B50C1C151C012974
:1095A00013D0002904D003291ED10123136019E030
:1095B0000F4B8000C0580323002816D003689B6B14
:1095C0009847431E9841C3B20FE0094B8000C05832
:1095D0000323002809D00368DB6B9847231C00286D
:1095E00003D02860002300E00423181C38BDC046C7
:1095F000D420002070B5151C9022A8B092008218CB
:109600000B1C18A81F490DF02DFA0322AB0702D43A
:10961000023A2A400132AB0506D56B0501D5082375
:1096200000E010231A43D2B206AC18A9201C0FF098
:1096300082F9011E04D014480DF012F900201FE039
:109640002B0703D5201CE1680FF0BDFB0FAD201CDC
:109650002B1C16C816C316C816C316C816C3282056
:1096600000F04AFF6A46041C12AB43CB43C243CB13
:1096700043C2201C0F996A68AB68FFF741FF201CAA
:1096800028B070BD2EE7020035E70200081C08B5BF
:109690000FF086FC011C0020814204D002480DF02E
:1096A000DFF80120404208BD4DE70200081C08B564
:1096B000111C0FF063FD011C0020814204D00348FF
:1096C0000DF0CEF80120404208BDC04664E702001C
:1096D00008B5902380229B000021C0189200FFF75C
:1096E000B7FB011C0020814204D003480DF0B8F8FC
:1096F0000120404208BDC0467BE7020038B5041C8B
:109700000D1C07F09DF80D4B083323600C4B1A68B5
:10971000002A04D0291C0B480DF0A2F80CE01C60B4
:1097200090233021201C9B00E154074B1030E25461
:10973000013BE118FFF764FB201C38BD98D80200FC
:10974000D420002090E70200410200000A4B10B52F
:1097500008330360094B041C1A68824207D10022B7
:109760001A6090239B00101CE118FFF749FB201C96
:1097700007F072F8201C10BD98D80200D4200020F9
:1097800008B503484D2100220EF0A9FD08BDC046D2
:10979000DC2B002010B5041C034B036040300FF09D
:1097A00098FF201C10BDC046E8D8020073B5294CB4
:1097B000201C00F093F9284800F058FD274901A823
:1097C00000F068FF201C782201A9EC3002F02CF98F
:1097D000043401A80FF07DFF201C214913F04DF93E
:1097E000204921480CF0F4FD051C2049201C13F0F1
:1097F00044F9291C1E480CF04BFE291C1D480CF096
:1098000047FE291C1C480CF043FE1C4E291C301C32
:109810000CF03EFE291C301C0CF03AFE281C0CF00B
:10982000C7FC201C164913F028F9164813F07EF9DE
:10983000041C201C13F096F9011E03D012480DF0F1
:109840000FF8F6E7201C13F092F9FA20800000F0E0
:109850000DFDFAE7D8200020C4090000F8E7020057
:10986000FBE7020015E8020009E8020017E8020021
:1098700023E8020032E8020042E8020052E8020057
:1098800062E8020070E8020074E80200102337B5B5
:109890000C4D00930C4B281C019317211523162205
:1098A000FEF786FC094C0A49221C281C13F03CFCDC
:1098B000084D281C00F052F8281C0749221C13F000
:1098C00033FC37BDBC24002071E8020000200020DA
:1098D00099810100D8200020DD980100E823194A71
:1098E0009B0010B5C2501833041CC0180FF0F1FED5
:1098F000ED239B00E0180FF0ECFE81239B00E018A5
:1099000001F0F0F9201CC530FF3000F047FF201CAB
:109910008D30FF3001F0ACF9201C6530FF3001F0D4
:10992000A7F9201CEC3001F0A5FE201CD03002F07D
:10993000EFF9201C643006F0D5FF201DFFF72AFF49
:10994000201C10BD60DA020008B5034800219A22ED
:109950000FF0F1FC08BDC046482700201423F0B5E5
:10996000041C95B0192200931821043002F092FBD8
:10997000231C251C261C6433181CB4351321119399
:10998000B83606F0BBFF281C10F0C0FD1E210022D7
:10999000301C10F0C6FA201CD03002F0D9F9231C7C
:1099A000EC33181C06214A4A129301F087FE201C52
:1099B000002701226530131C00971121FF3001F0B0
:1099C00063F9201C8D3000971A2102220123FF30F9
:1099D00001F05AF9201CB530012102221A23FF3070
:1099E00002F074FA231CC533FF331093311C181C8A
:1099F0003A22042300F062FF81239B00E3181393B3
:109A00001D230093183B0193311C109A2B1C1398B3
:109A100001F08CFB93239B00E0181399109A129B82
:109A200001F060FD96239B00E018291C1C2202F027
:109A30009FFC9C239B00E0180A23009301330193B1
:109A400001330293013303930133049301330593EC
:109A500001330693013307930133089301330993CC
:109A600001330A9301330B9301330C9301330D93AC
:109A700001330E93013308220F930721103B10F09E
:109A800058FAE8239B00E018291C02F015FFEF2389
:109A90009B00E0181D2102F05DFAF8239B00E750BF
:109AA00011982770032112F0B7FF231C221C201CE1
:109AB00008499C33A0321C6011605760064A803010
:109AC0005A610221012207F005FA201C15B0F0BDF1
:109AD00038DF0200A9930200959302000123F0B53C
:109AE00006788DB01E4000D0A8E0041CFD20800543
:109AF00000F0CAFC231CD033181C039300F098FA22
:109B000000F090F9202000F0F7FC051C10300FF059
:109B10006FFE4B4B6E802B80182000F0EDFC071C75
:109B2000484B10C70490311C1022381C0A930B9626
:109B300013F025FC0AA90822381C13F003FC424B41
:109B4000049A039853611223AA60EE60AB80AE6161
:109B5000EE61291C02F074F8002805D0281C0FF0D3
:109B600081FD281C00F0EAFC0122237864201343C5
:109B7000237000F07BFB0025261C6536FF36301C69
:109B80000FF0AFFF002855D0201C8D30FF300FF0B4
:109B9000A8FF00284ED0092D4CDC6420013500F0D0
:109BA00065FB0A2DE8D1F82728482949BF0000F0B5
:109BB0003DFCE359002B34D100F05AF8011C06A8F3
:109BC00000F068FD0FF060FC04900FF05DFC6B4648
:109BD0000590198A08A80FF098FD059B09A8190C93
:109BE0000FF093FD08A909AA07A80FF0DEFD09A848
:109BF0000FF06FFD08A80FF06CFD01230093E82320
:109C00009B00E01806A9039B07AA02F0F1FE07A833
:109C10000FF05FFD06A80FF05CFDEA239B00E35800
:109C2000E351E823211C9B00E018EC31321C03F0C7
:109C300077F8A1E70748064900F0F8FB0DB0F0BD42
:109C4000FD03000005940200DD930200001C0020CB
:109C50000020002008000020BFF34F8F024A034B72
:109C6000DA60BFF34F8FFEE70400FA0500ED00E075
:109C7000F0B589B0192201A8124913F063FB002244
:109C80000524114B261C5A71802301255B055F6E4C
:109C9000381C311C07F0AEFF081C291C07F024FFFC
:109CA0000523021C611E1C1B5E435D4363439B181E
:109CB00001AA3F1A9B5C04480C1E4354E8D109B02A
:109CC000F0BDC046AFE80200DE2B0020F0B595B035
:109CD00018220021061C0EA813F051FB0EA8132118
:109CE00013F036F80EA8032113F0D3F80122474BE6
:109CF00000921B68002B01D0DBB20093002409A85E
:109D00000021434A012307F05BFAFF23221CB342E0
:109D1000624153421E4072B63E4B1022211C05A8E0
:109D20001F6813F02CFB3C4B6421301C059307F09B
:109D30006BFF0A2108F04EF8052569435031791868
:109D40000691301C0A2107F05FFF0A2108F042F853
:109D50006943503179180791301C0A2108F03AF80C
:109D60004D4350357F1980250897AD01009B002B8E
:109D700034D00026FA277F00032C02D1802500244E
:109D8000AD0105ABF358254A029363000133D318A4
:109D90000022019218780299095C581E03910178FB
:109DA000102008410399084204D0012090400199F5
:109DB0000143019101320633092AEBD1019B09A825
:109DC000D943174B09011940294313F01DF9FA2310
:109DD000139A0F999B001068014201D1FFF73CFFD5
:109DE000013B002BF7D10134013F6D00E4B2002F9D
:109DF000C2D10436102EBDD1044B1B68002BB5D048
:109E0000009B013BDBB20093B0E7C0465427002023
:109E1000F0FF000004200020FEE80200C8E8020075
:109E2000F01F000038B50023134C23600FF020FB17
:109E3000251C002808D0201C04210FF015FB002849
:109E400019D00E4B236016E0012204210C4B1A603E
:109E5000236800200B4A506054680948002CFBD04E
:109E6000A122D20082581B02013913430029F0D1EC
:109E70002B600123436038BD58270020ED5EBC0BEA
:109E800000D00040FCD00040F0B585B01F1C0AABEC
:109E90001B88061C0D1C02920393002F1BD0202050
:109EA00000F02AFB6B46041C1A89039BA9B200939D
:109EB0003B1C0FF0C0FB3368301C5B68211C9847CB
:109EC00000280BD0002C08D0201C0FF0CBFB201C4E
:109ED00000F034FB01E0024800E0024805B0F0BDAC
:109EE00017FCFFFF16FCFFFF38B50A4B1C68002C5F
:109EF0000ED0656D00F0A2FBA36C984206D3201C27
:109F00000FF0E7FA201C04490FF0D0FA2C1CEEE702
:109F100038BDC0468027002088270020031CF0B5EC
:109F20001B0C8FB00293284B04901C68274B0591A3
:109F30001E6885B20027002E43D0002C2DD0636D03
:109F400023490393A36C9AB21B0C8D4211D1214972
:109F50008A420ED1002B02D0029A93421BD1002FCD
:109F600018D1201C0FF0B5FA201C1B490FF09EFAE7
:109F700010E0002A01D0AA420DD1002B02D0029A93
:109F8000934208D1201C0FF0A4FA201C12490FF0B4
:109F90008DFA00E00127039CCFE7104BEB18012B53
:109FA0000FD91023291C0093029A0D4B06A80FF01D
:109FB00042FB3368301C9B6806A9984706A80FF03F
:109FC00051FB0FB0F0BDC0467C2700208C2700203D
:109FD000FE030000FF0300008827002002FCFFFFB3
:109FE0001D9F010010B572B60B4B1C68002C03D0EE
:109FF000201C0FF06EFA08E062B65C2000F07CFADC
:10A0000000215C22041C13F0BAF90023E364034B23
:10A01000201CE36310BDC0465C27002000400020E8
:10A02000024B1878012318407047C046E42B0020EB
:10A03000F7B5061CFFF7F4FF041E33D11A4D2E604E
:10A04000FFF7D0FF194B1A4918600FF02FFAFFF7EE
:10A05000C9FF184B1860184B4363184B836328687B
:10A0600000280ED0C027164E1649221C331C00971C
:10A07000FFF70AFF009728681349221C331CFFF7DB
:10A0800003FF0C2000F038FA0023838083710F4B0C
:10A0900003600F4B836000F0D7FA01210D4A13785B
:10A0A0000B431370F7BDC0468C27002060270020AB
:10A0B0008827002090270020FC3F0020999502006F
:10A0C0001D9F0100FF030000FE030000F8D80200FE
:10A0D000E99E0100E42B0020F7B5002801D1002003
:10A0E00019E00029FBD00193171C0D1C061CFFF77B
:10A0F00079FF041EF3D0084B019A43630660456064
:10A100008760064B002A00D0054B201CA36305493D
:10A110000FF0CCF9201CFEBDFC3F0020639502002F
:10A120008195020088270020024B1868434258415D
:10A130007047C04688270020002310B504499C00C2
:10A140006258002A01D00133F8E76050101C10BD9E
:10A1500064270020002310B5044A99008C588442DB
:10A1600001D00133F8E70020885010BD642700209B
:10A1700010B50024074BE058002802D003685B6844
:10A1800098470434182CF5D1034B1B68002B00D1E1
:10A1900020BF10BD6427002088270020F8B5FFF7F6
:10A1A0003FFF002855D02B4E3468351CE36CDA078E
:10A1B00018D502252B43E3640423274F3868C26C6B
:10A1C0001343C364636BC3630FF0A9F93B68181CA6
:10A1D000596C03F0A0F93068C36C2B4239D003F0FE
:10A1E000D4F936E01D4F1E4E3A68002A01D132687C
:10A1F00006E0216DB94203D1616D002900D00A1C2F
:10A200002A602A6831688A4208D11B0706D52C606B
:10A21000FFF7AEFF3B68002BFAD02B602B68A34200
:10A2200017D03268934204D10E4A5A630E4A9A6399
:10A2300005E0944203D10020191C021C06E0201CFA
:10A240000FF06DF92B68201C191C626C5B6C03F01D
:10A2500021F9F8BD602700208427002088270020EE
:10A2600090270020FC3F00209995020038B5114B43
:10A27000051C1C68FFF7D4FE002803D1281C12F02F
:10A2800001FE16E0E36CDB0706D5FFF7ABFE0A4BD9
:10A290001860002800D0041C00F0D0F94519A5640E
:10A2A000201C0FF016F9201C04490FF0FFF8FFF7EF
:10A2B00075FF38BD602700208427002080270020FC
:10A2C000F0B51E4B85B01C681D4B1A680393002A1D
:10A2D00005D00F1C051CFFF7A3FE002801D119486B
:10A2E0002AE0E36CDB070ED5FFF77CFE164B061E5B
:10A2F000186008D00FF0EDF8301C14490FF0D6F8B4
:10A30000341CFFF74BFF3B042B43A364201C0FF0CE
:10A31000E0F8201C0E490FF0C9F80E4B0020EB1896
:10A32000012B09D9C0230093039B291C18683A1CF0
:10A33000094BFFF7A9FD002005B0F0BD6027002004
:10A340008C27002016FCFFFF842700208827002090
:10A350007C27002002FCFFFF1D9F010010B5FFF7C6
:10A360005FFE002809D0054C20680FF0B2F8206885
:10A3700003490FF09BF8FFF711FF10BD6027002085
:10A380005C270020F7B500282FD00C1C051CFFF718
:10A3900047FE00282BD00726164F3868C36C1E4096
:10A3A00006D0281C211C144A0FF0AAF800261FE032
:10A3B00003F0D3F802213A68D36C1940019103D01D
:10A3C00003218B43D36413E001263343D364201C61
:10A3D000A8473A68D36C191CB143D164019E5B074E
:10A3E00006D5201C0FF0C4F802E0044E00E0044E35
:10A3F000301CFEBD602700207195020017FCFFFF96
:10A4000016FCFFFF021C10B5014B12CB12C210BD8F
:10A4100094270020034A044B12681A607E225A6077
:10A420007047C046042000209427002070B5124DCC
:10A43000031C2A78022A1AD081421AD90A1A072A3A
:10A4400017D9081C032218431040041E11D11A1CEE
:10A4500072B62878094EC300F0189A5141600FF087
:10A46000A1F82B7801332B7062B6201C02E004485F
:10A4700000E0044870BDC046E52B00209C2700206A
:10A4800013FCFFFF17FCFFFF38B50021041C07F089
:10A49000C9FC002823D1FE21201C890507F0CCFC33
:10A4A00000281CD104300CF015F9051C0F48401B86
:10A4B00008F074FB211C08F059F807F0D1FC0323C5
:10A4C0009843041C281C0CF00FF9201C0CF002F916
:10A4D000002806D1203C002CF7D1054805E00548AE
:10A4E00003E00119FFF7A2FF002038BD003800206B
:10A4F00013FCFFFF17FCFFFF38B5051C00240D4BB4
:10A500001B789C4209DA0C49E300C918281C0FF09B
:10A5100051F800280AD10134F1E7281C0CF0DAF8D0
:10A52000041E04D11420FFF7D1FB00E0041C201C02
:10A5300038BDC046E52B00209C27002038B50028F8
:10A5400018D00D4B1C780023A34211DA0B49DA0016
:10A550005558A8420AD98A185268904206D28023D8
:10A56000043802681B061343036003E00133EBE782
:10A570000CF0BAF838BDC046E52B00209C2700201F
:10A5800010B50024084A094B11681B68CB181360EA
:10A59000074BE058002802D003681B689847043432
:10A5A000282CF5D110BDC046D4270020DC27002080
:10A5B000AC27002070B5002816DD0C4B051C1A686E
:10A5C0001C1C0B4E002A02D0306812F036FBFA2118
:10A5D000256000243068074B89008361C4626943A9
:10A5E00012F033FB201C00E0034870BDDC27002084
:10A5F000D827002081A5010017FCFFFFF8B50A4EFF
:10A60000071C3568002D0AD13020FFF775FF041CA8
:10A6100006F044FB054BA5612360E5623460381CFD
:10A62000FFF7C8FFF8BDC046D827002068DE02004B
:10A63000014B18687047C046DC270020014B1868A2
:10A640007047C046D4270020094B10B51B68041C76
:10A65000002B02D10620FFF7D1FF0023054A990005
:10A660008858002801D00133F8E78C5010BDC0464F
:10A67000D8270020AC270020002310B5044A9900F9
:10A680008C58844201D00133F8E70020885010BD77
:10A69000AC27002010B5041C002902D00B78002B39
:10A6A00002D1034B236001E00FF01AF8201C10BD0B
:10A6B00050DF0200F8B5051C0E1C141C002908D040
:10A6C0000B78002B05D0081C97B212F0A0FE874231
:10A6D00002D90B4B2B6010E0601DFFF70DFF2860C7
:10A6E0000FF0D6F82868221C4780311C043012F085
:10A6F00029FE2B681C1900232371281CF8BDC046B5
:10A7000050DF0200014B03607047C04650DF02007B
:10A7100010B50548054C20600FF0BDF8201C044919
:10A72000044A12F001FD10BD50DF0200E0270020B6
:10A73000D396020000200020054A031C106810B5C3
:10A74000002803D00268146806CBA04710BDC0469D
:10A75000E427002010B5054C0121201C0FF08FF8D4
:10A76000201C0349034A12F0DFFC10BDE82700203B
:10A770003F9802000020002008B5074A0388012006
:10A78000934208D0834202D00020DB0703D41E206E
:10A79000FFF79CFA002008BDFFFF000010B5041C65
:10A7A000034B08330360FFF7D5FC201C10BDC046E7
:10A7B00010D90200FA2370B52A4A41899B005943F7
:10A7C000131C3833041C181C083A1D681E1C8D42CB
:10A7D0000CD2061C244B227B1D1D082A0BD8042AF0
:10A7E00009D89D1C022A06D81D1C04E0083B301C19
:10A7F0009342EAD1EEE7FA213068890007F074F954
:10A8000060812B78201C23732A2100220FF06DF821
:10A81000002801D0154824E0201C2B2110220FF025
:10A8200064F80028F6D1201C2D2101220FF05DF8DC
:10A830000028EFD1201C2E2101220FF056F800280D
:10A84000E8D16A78201C0E210FF04FF80028E1D1E2
:10A8500001223379201C1A432A210FF046F80028E0
:10A86000D8D170BD58DF0200DEEA02000EFCFFFF07
:10A870007FB5161C0F226A44041C1D1C1170002E8B
:10A8800015D0002B13DD012301890093006B01F02B
:10A8900047F9002801D007480AE000902189206B81
:10A8A000321C2B1C01F0F2F8002801D0F3E702481B
:10A8B00004B070BD0EFCFFFF17FCFFFFF7B5061CD0
:10A8C000002501931B4B14360833041C03600F1C36
:10A8D0000092858018228571C58105824582291CD8
:10A8E000301C12F04CFD301C1C2112F031FA6B466A
:10A8F0009B880221A3806B461B882173238114232C
:10A900006381231C38331A7927638A4301310A4053
:10A91000A571201C1D705D709D701A715D71FFF72F
:10A9200049FFA84203D10122A3791343A371201C3C
:10A93000FEBDC04610D9020030B50425837985B02C
:10A94000041C2B4204D1FFF7F7FBA3792B43A3711F
:10A95000A36AA2691B6800251A422AD1201C012182
:10A960006A460623FFF784FF002801D0124D20E03D
:10A970006B4602216846595600781B79227B40B20B
:10A980005BB251435343424389B2D200E281CA00D1
:10A99000228202229BB2DB006382A379201C9343B4
:10A9A000A3710EF0B0FF0122A18802A8131C0EF0C3
:10A9B00029FF281C05B030BD0EFCFFFFF7B5041CB5
:10A9C0000EF0C4FF251C0090201CFFF7B5FF0E22DF
:10A9D000A35E724F5B423C35BB4203DA2B789B0788
:10A9E00000D5B4E0201CFFF7A7FF0E22A35EFA22D9
:10A9F0005B4200269200934203DD2B789B0700D434
:10AA0000A5E0201CFFF798FF1022A35E5B42BB422B
:10AA100003DA2B785B0700D5A5E0201CFFF78CFF3D
:10AA20001022A35EFA225B429200934203DD2B7850
:10AA30005B0700D497E0201CFFF77EFF1222A35E85
:10AA4000BB4203DA2B781B0700D597E0201CFFF7E9
:10AA500073FF1223E25EFA239B009A4203DD2B78F8
:10AA60001B0700D48AE0002E0DD028780309032BA1
:10AA700009DC0F2201331340190102400A432A70F6
:10AA8000042B00D184E0231C3D331B780133DBB25F
:10AA9000092B01D86B7011E0002328786B70030933
:10AAA0000CD00F220F331340190102400A432A70C1
:10AAB000002B03D1D3B2012293432B7001262B78B4
:10AAC0000B203340019368D1354B009A04389A42E9
:10AAD00063DD902380191B049A425EDC201CFFF783
:10AAE0002BFF0E22A35E2F4F5B420320BB4254DBA1
:10AAF000C825201CFFF720FF0E22A35EAD005B429D
:10AB00000420AB4249DC201CFFF716FF1022A35E95
:10AB100002205B42BB4240DB201CFFF70DFF1022EE
:10AB2000A35E301C5B42AB4237DC201CFFF704FF06
:10AB30001222A35E0520BB422FDB201CFFF7FCFE88
:10AB40001222A35E0620AB4227DC019825E00126F5
:10AB5000311C2B785A0891430A1C0221B2408B43C6
:10AB600013432B704DE70126311C2B789A08914333
:10AB70008A0004218B4313432B705CE701222B785E
:10AB8000D9088A430821D2008B4313432B706CE70A
:10AB900001222B7813432B7075E7FEBD18FCFFFFD5
:10ABA000FF700200E0FCFFFF30B5C369C2681B689C
:10ABB00085B0041C451D1A424ED0EB7F002B01D0FE
:10ABC000013BEB77EB7F082B0DD90123A2791A42C9
:10ABD00009D11A43A271A1881A1C02A80EF012FE14
:10ABE000FFF72CFD2062EB7F012B1ED80123A279F9
:10ABF0001A421AD00022A188A271684602320EF0D1
:10AC000001FEA31DDD7F012D0FD1FFF717FD236A84
:10AC1000A188C01A144B984202D902A8042201E06C
:10AC2000032202A82B1C0EF0EDFD0323A5791D4085
:10AC3000012D16D1FFF702FD236AC01A0B4B984273
:10AC40000FD90222A379A1881343A37102A803326A
:10AC50002B1C0EF0D7FD04E0EB7F0B2BB2D8013399
:10AC6000AFE705B030BDC046E7030000DB050000DC
:10AC700010B5041C034B08330360FFF7FDFC201CD8
:10AC800010BDC04630D90200F0B5071C00250E1CCF
:10AC900085B002930AAB1B7808370393104B041C52
:10ACA00008330360019285808571291C381C1822A5
:10ACB00012F065FB381C311C039A12F04EF86B46FB
:10ACC0006A469B88127AA380A31DE671DA77631D1A
:10ACD0002562201CDD77FFF7B7FC201C05B0F0BD16
:10ACE00030D9020010B5041C034B08330360FFF792
:10ACF00031FA201C10BDC04650D902007FB5161C89
:10AD00000F226A44041C1D1C1170002E15D0002B4C
:10AD100013DD012301890093C06B00F001FF0028BF
:10AD200001D007480AE000902189E06B321C2B1CFF
:10AD300000F0ACFE002801D0F3E7024804B070BD7B
:10AD40000EFCFFFF17FCFFFF002330B585B003ACFE
:10AD5000217001890093051C221CC06B013300F097
:10AD6000DFFE002801D00A480FE0207060702989BA
:10AD70000090221CE86B022300F088FE0028F2D12C
:10AD8000207863780002184300B205B030BDC04699
:10AD90000EFCFFFF13B56B46DC1D0023221C237045
:10ADA0000133FFF7ABFF002801D1207800E0014814
:10ADB00016BDC0460EFCFFFFD0B5041C0EF0C0FE51
:10ADC0002269E369981A09F0C7FBA369061CE068C9
:10ADD0000F1C181A09F0C0FB021C0B1C301C391C7C
:10ADE00009F038FF0022104B08F06CFD0F4A104BA1
:10ADF00008F044FA09F040FC0021041C07F008F8B0
:10AE0000002804D0201C0B4907F042F8041C201C29
:10AE100009F0DEFB021C0B1C0020074908F0ECFFC8
:10AE200009F064FBD0BDC04600806640EA2E445461
:10AE3000FB2109400000B44300807640F0B5041CBB
:10AE400089B0006C0EF038FE051C206C0EF02BFE55
:10AE50000221071C201C0EF0A2FE02210590201CDE
:10AE60000EF0AFFE07F052FE02210190201C0EF002
:10AE7000BAFE07F04BFE0290281C09F0A9FB041C47
:10AE80000D1C09F097FE09F0F7FB291C0390201C0C
:10AE900009F03EFE09F0F0FB0490381C09F098FB25
:10AEA000041C0D1C09F086FE09F0E6FB291C071C9A
:10AEB000201C09F02DFE069007910399029807F0D7
:10AEC00055FB0499041C019807F050FB011C201C41
:10AED00007F07EFC09F07CFB051C05980E1C07F0B2
:10AEE00015FE041C0698079909F0C6FB011C201CDE
:10AEF00007F03CFB391C041C019807F037FB039951
:10AF000007F034FB011C201C06F0C2FF391C041C96
:10AF1000029807F02BFB049907F028FB011C201C6A
:10AF200006F0B6FF09F054FB021C0B1C281C311C58
:10AF300009F090FE00220C4B08F0C4FC0B4A0C4BAD
:10AF400008F09CF909F098FB0021041C06F060FF52
:10AF5000002804D0201C074906F09AFF041C201C7E
:10AF600007F0B4FD09B0F0BD00807640EA2E4454ED
:10AF7000FB2119400000B443F8B510210022041C45
:10AF80000EF0D0FD1D4E002834D1201C0821FFF703
:10AF900001FFB0422ED00325054027D1FA23184ADD
:10AFA00061899B005943131C50331E1C083A1F68CB
:10AFB000181C8F4203D3083B061C9342F7D1FA2199
:10AFC0003068890006F090FD11216081A022201CCC
:10AFD0000EF0A8FD00280DD101223379201C1A4360
:10AFE00010210EF09FFD002805D003E06420FFF73C
:10AFF0003DF9CAE7014D281CF8BDC0460EFCFFFF15
:10B0000098DF0200F7B50426041C80793040051E45
:10B0100016D10227201C0EF093FDA3790622BB4314
:10B020003343A371A188012368460EF0EBFBA3799B
:10B03000281C1A1CB243A2713B4202D1014800E015
:10B040000148FEBD14FCFFFF15FCFFFF10B583791E
:10B050005A070ED4041C9B0701D4FFF7D3FF236CBF
:10B06000201C002B02D0FFF7E9FE03E0FFF7A4FE4F
:10B0700000E0014810BDC04615FCFFFF70B5466CEE
:10B0800086B001AC051C01916260A360002E0BD05C
:10B090000A4905A8FFF7FEFA301C05A9221C0FF08B
:10B0A0003BFA05A80EF015FB2B1C0C3307CC07C38D
:10B0B0000222AB791343AB7106B070BDE4EA020023
:10B0C000642330B5041C0281438185B08180FFF781
:10B0D00053FF0222A379656C9343A371002D1CD00A
:10B0E000114901A8FFF7D6FA281C01A90FF049FA67
:10B0F000051C01A80EF0EDFA002D0ED0291C0C2223
:10B10000103101A812F01EF9201C0199029A039B2C
:10B11000FFF7B4FF281CFFF711FA0122A3791343AC
:10B12000A37105B030BDC046E4EA0200F7B5009354
:10B1300008AB1B88041C019309AB1D8800230F1C5E
:10B14000161C0D4A8380083283710260C36003615C
:10B1500043618361C36103621D2124300EF0D5FC7D
:10B16000009BE7632664201C291C6364019AFFF797
:10B17000A7FF201CFEBDC04650D90200F0B5051C3B
:10B18000A5B064200491059211F07CFE0C210422EC
:10B1900009A80FF042FCCE4924221BA812F0D2F8D5
:10B1A000052106A80A1C10F0CDFACA4907A802F02A
:10B1B000BDFAA86800F06EFBAC68C74918A8FFF795
:10B1C00069FA201C18A9782200F004FC18A80EF0D7
:10B1D00080FA6E246420013C11F054FE002CF9D159
:10B1E000A86800F057FBA8680EF096FE0121686879
:10B1F0000EF0C0FB0121071C68680EF0CEFB061C98
:10B200000A2011F03FFE0022B44B03929F4210DB54
:10B21000013203923A1CC8320BDB04220392C8228B
:10B220009200974205DC03220392C82F01DC013A09
:10B230000392002202929E4210DB01230293331CF0
:10B24000C8330BDB04230293C8239B009E4205DC1A
:10B2500003230293C82E01DC013B0293652606A856
:10B2600010F067FA02ABF618371C7B78002B06D07B
:10B270007B1E19783A7806A8FF2302F0EDF989239E
:10B2800002AA03379B189F42EFD16B460C21595EEF
:10B290006B4606A808229A5EFF2302F0DDF9002320
:10B2A000A8680093743006A91A1C10F052FA731E95
:10B2B0001B78039A934234D13378029A934230D167
:10B2C0007778002F2DD1391C28680EF068FC07F024
:10B2D0001DFC3A1C031C211C09A80FF0E9FB391CBA
:10B2E00028680EF06EFC07F011FC0122031C211CE3
:10B2F00009A80FF0DDFB391C28680EF074FC07F07C
:10B3000005FC211C031C022209A80FF0D1FBFE231F
:10B31000211C9B0509A803220FF0CAFB01237370AF
:10B32000E418892302AA03369B189E42BFD16420E9
:10B3300011F0A8FD0B2C00DC58E709A80FF0A4FBC6
:10B340000122011C0CA80FF068FB002409A80FF0D3
:10B350009BFB84423EDA211C002209A80FF096FBD9
:10B36000211C061C002209A80FF090FB011C301CB8
:10B3700007F0FCF8211C061C012209A80FF086FB2F
:10B380000122071C211C09A80FF080FB011C381C9E
:10B3900007F0ECF8011C301C06F07AFD211C061C9D
:10B3A000022209A80FF072FB0222211C071C09A827
:10B3B0000FF06CFB011C381C07F0D8F8011C301C86
:10B3C00006F066FD211C031C00220CA80FF070FB88
:10B3D0000134BBE709A90A1C012318A810F035F9AC
:10B3E00018A90FA80FF07EFB18A80FF072FB12A887
:10B3F00009A90CAA012310F028F9002315A80FA908
:10B4000012AA10F022F9002115A80A1C0FF03EFB29
:10B410000121061C002215A80FF038FB0022041C95
:10B42000022115A80FF032FBFC21071C8905301CF6
:10B4300007F09CF807F04AFBFC21061C18908905D0
:10B44000201C07F093F807F041FBFC21041C199025
:10B450008905381C07F08AF807F038FB221C031C0A
:10B46000311C1A902868FFF709FEA8680EF054FDF9
:10B4700007A908A8AC6810F054F90023184A0093F3
:10B4800008A90192201C1A1C00F046FA08A810F026
:10B490003BF9FA20800011F0F5FCA8680EF03CFDA5
:10B4A00015A80FF016FB12A80FF013FB0FA80FF052
:10B4B00010FB0CA80FF00DFB07A810F025F906A84B
:10B4C00010F022F909A80FF004FB25B0F0BDC0462A
:10B4D000EFEA020013EB020058EB0200E0FCFFFF72
:10B4E000DC050000F0B58360204B85B01F68051CAB
:10B4F00001604260002F36D02020FEF7FDFF041CC3
:10B5000010300EF075F90523238001336380182075
:10B51000FEF7F2FF164B061C0293002320C6191CEF
:10B5200001901022301C039311F029FF02A9082278
:10B53000301C11F007FF0F4B019A381C5361002398
:10B54000E360C233A3800023A260A361E3613B6890
:10B55000211C5B689847002805D0201C0EF082F85B
:10B56000201CFEF7EBFF281C05B0F0BDE4270020EF
:10B570007DB10100FF9B0200F7B5041C0121A37AF5
:10B5800000259C460D3399400091291C276FFB68CC
:10B590000193019B9D4231DABB687A696B43634436
:10B5A0005B00E67AD3181A785878E379012E04D133
:10B5B0005E1E361A101C321C0EE0022E05D15E1ED5
:10B5C000B21A267A013E301A06E0032E04D1267AFA
:10B5D000013EB61A021C301C5B004343606F667A62
:10B5E0008218D3189B79B34200DD331C627B1A4268
:10B5F00002D00123AB4019430135CAE71123C943E7
:10B60000FB56606C994023691940009B194311F067
:10B61000FBFCA37B072B18D8627B581C520062737B
:10B620000A499A00A073022B03D8885811F01FFC16
:10B63000A4E7074B201C236300236363054B895851
:10B64000E4622364143011F000FBF7BDF0DF020068
:10B6500079B50100279C020010B5041C044B03605F
:10B6600011F0EBFA201C05F02FFB201C10BDC0468A
:10B6700068DE020010B5041C0E4B08330360FEF7B1
:10B68000FBFF201C743010F03FF8201C603010F0DD
:10B690003BF8201C58300EF01CF8201C50300EF0E7
:10B6A00018F8201C044B14306361FFF7D5FF201CF1
:10B6B00010BDC04670D9020080DE0200F8B500253A
:10B6C000041C314B85800833036085711430161CCF
:10B6D0000F1C05F0E3FA201C2C4BE5626361256426
:10B6E0005030FFF70FF8201C5830FFF70BF8201CE4
:10B6F000603001F0ABFF201C33682667590009B2A7
:10B700000423F25E743010F01DF83378226FE37179
:10B710007368A78023721023E572A5722561D35642
:10B72000916859188B4204DA01209840013305438F
:10B73000F8E71123D168D35659188B4206DA012253
:10B740009A402069013302432261F6E71420FEF794
:10B75000D3FE226900212A430123061C05F030FD97
:10B76000FF226272221C0023012548326664657341
:10B77000A3732373201C1370A366FEF765FFA379E0
:10B78000201C2B43A371F8BD70D9020080DE02009B
:10B79000F7B5437A002B66D00121837A00259C46B9
:10B7A0000D3399400091291C076FFB680193019BA1
:10B7B0009D422CDABB687A696B4363445B00C67AAE
:10B7C000D3181A785C78C379012E04D15E1E361B1B
:10B7D000141C321C0EE0022E05D15E1EB21A067A2F
:10B7E000013E341B06E0032E04D1067A013EB61A50
:10B7F000221C341C5B006343446FA218D3189B794E
:10B80000002B02D00123AB4019430135CFE71123B0
:10B81000C943FB56041C99400369406C1940009BC6
:10B82000194311F0F1FB667AB31EDBB2FC2B14D87E
:10B83000FEF7FEFE0C4B051C236300230B486363DD
:10B840000B4BFF21E4622364704306F0DDF9011C19
:10B85000201C6943143011F0F8F9637A012B02D8E7
:10B86000201C0EF0EAF9F7BD3B9C0200B603000075
:10B87000279C020007B501228188131C68460DF041
:10B88000C1FF012268460249131C0DF0BBFF07BD32
:10B89000FE030000031C13B548331A78041C002A69
:10B8A0000DD000221A7001328188131C68460DF0F9
:10B8B000A9FF012268460449131C0DF0A3FF201CB8
:10B8C00074300FF036FF13BDFF03000008B5483099
:10B8D0000378002B06D00378012B03D00248012106
:10B8E0000DF036FE08BDC046FF03000010B5012173
:10B8F000041C06200DF02CFE064B984209D1231C97
:10B9000048331A78002A04D01B78012B01D020BFBD
:10B91000F5E710BD16FCFFFF73B5079C051C002C56
:10B9200009DB061C48363078002806D0307801281C
:10B9300003D00D4816E00D4814E0069812B2C0B2CC
:10B940000090281C1BB274300FF003FF00208442CB
:10B9500007D02B1C4A331C8007234C3528803370BA
:10B9600000E0201C76BDC04612FCFFFF17FCFFFF65
:10B97000F0B587B00D9E002E22DB041C03930292CB
:10B980000F1CFFF7A3FF231C48331D78EDB2002DD9
:10B9900018D1391C05A80FF0C4FE0C9B05A9009313
:10B9A000029A039B0196201CFFF7B6FF05A80FF033
:10B9B000ABFE301E07D0201CFFF798FF281C02E0CA
:10B9C000024800E0024807B0F0BDC04617FCFFFF88
:10B9D00011FCFFFFF8B5041C171E09DD061C4836D4
:10B9E0003378002B06D03378012B03D00C4816E0B7
:10B9F0000C4814E0221CE3795632013B1370231CDF
:10BA00000025201C54331D8050300DF0BFFE231C38
:10BA10004A331F800223281C4C3425803370F8BD24
:10BA200012FCFFFF17FCFFFFF7B5002A1BDD051C0A
:10BA3000161C0F1CFFF74AFF2B1C48331878C4B2A2
:10BA4000002C12D1391C01A80DF098FE01A9321C5E
:10BA5000281CFFF7BFFF01A80DF03BFE281CFFF7D5
:10BA600045FF201C02E0024800E00248FEBDC0463F
:10BA700017FCFFFF11FCFFFFFF2902D841720020D5
:10BA800000E001487047C04617FCFFFFF0B51F1CDF
:10BA900085B00AAB1B78041C039300933B1C0D1C60
:10BAA000161C10F098FF002832D0237D082B2DD8CB
:10BAB00023680022191CFC318A62A0211648C900A3
:10BAC0005A5084461A5005200138C046C046C04628
:10BAD000C046C046C046C046C046C046C046C04636
:10BAE000C046F1D1012062462368985005225A5081
:10BAF00005F046FE039B201C0093291C3B1C321CB6
:10BB000010F069FF237D01332375CCE7034800E083
:10BB1000207505B0F0BDC046FC0F00000EFCFFFF15
:10BB2000F0B51F1C85B00AAB1B78041C039300936F
:10BB30003B1C0D1C161C10F036FF002832D0237D54
:10BB4000082B2DD823680022191CFC318A62A02101
:10BB50001648C9005A5084461A5005200138C0467C
:10BB6000C046C046C046C046C046C046C046C046A5
:10BB7000C046C046C046F1D10120624623689850B5
:10BB800005225A5005F0FCFD039B201C0093291C44
:10BB90003B1C321C10F007FF237D01332375CCE7DB
:10BBA000034800E0207505B0F0BDC046FC0F000062
:10BBB0000EFCFFFF08B4024B9C46043808BC6047EB
:10BBC00047A0020070B5002926D00D1C0026C468CD
:10BBD000002C1ED00222A988A3884B40134216D104
:10BBE000114203D1AB889B0707D510E0A068A96874
:10BBF0000EF002FF002804D1F4E7A368AA6893427C
:10BC000005D12B88002B09D022889A4206D0E469FE
:10BC1000DEE7201C002E0DDC07480BE06B88002BB4
:10BC200002D062889A42F2D1A388044A01361343B3
:10BC3000A380ECE770BDC04617FCFFFF0080FFFF4C
:10BC4000F7B5002952D00D1C061CC468002C19D071
:10BC5000AA880023920702D5A3889B07DB0F2268DE
:10BC600029688A420CD1002B06D0A068A9680EF082
:10BC7000C3FE00283CD103E0A368AA68934237D0F2
:10BC8000E469E3E7F0682A88071C031E22D01988BC
:10BC9000914205D2D9691F1C00290DD00B1CF6E773
:10BCA000191C3B1C08E00C88944207D14F886C8813
:10BCB000A74203D20B1CC9690029F4D183420BD1DE
:10BCC00019888A4205D3914206D1588869888842EA
:10BCD00002D9EB61F56002E0D969E961DD6168468E
:10BCE000084901230DF08EFD002009E0064807E019
:10BCF000A3881AB2002A02DA5B045B0CA380034813
:10BD0000FEBDC046FD03000017FCFFFF16FCFFFF51
:10BD1000064B10B51A1C041C083230330260436015
:10BD20000430FEF717FA201C10BDC04690D902005F
:10BD300008B4024B9C46043808BC604711BD0100A2
:10BD400008B4024B9C46043808BC604761A002005E
:10BD50000C4A0023111C3032083110B50381837264
:10BD60004260C3600361436143830160041C04308B
:10BD7000FEF7E2F9044B1A68002A00D11C60201C6F
:10BD800010BDC04690D90200E4270020F7B50D1C75
:10BD90000126C4680192002C36D023882A889A4252
:10BDA00001D0002B25D163886A889A4201D0002BEC
:10BDB0001FD1FEF735F90123002806D0A288BF3332
:10BDC0001340C03B5A425341DBB2019A93420FD118
:10BDD000A28813B2002B0BDB231C291C103381C952
:10BDE00081C3530607D4FEF71BF9002803D006E0F1
:10BDF0000026E469CFE7201C0EF03BF9F9E7211C8F
:10BE00000248FEF7BFFAF4E7301CFEBD73A0020043
:10BE100008B4024B9C46043808BC604775A1020078
:10BE2000F0B587B001930EAB1B88061C03930D9BE6
:10BE30000D1C0093019B02920C9F002B3DD0002F04
:10BE400002D1009BDB0738D52020FEF755FB041CF0
:10BE500010300DF0CDFC6B461B89258063801820C7
:10BE6000FEF74AFB0497071C051C009B0021059365
:10BE7000019B102208C7381C11F081FA04A908227E
:10BE8000381C11F05FFA0E4B02226B610023A56093
:10BE90000399E360A361E36133680A43A2805B68AE
:10BEA000301C211C9847002808D0201C0DF0DAFB1C
:10BEB000201CFEF743FB034800E0034807B0F0BD39
:10BEC000A1A1020016FCFFFF17FCFFFFF0B5041C48
:10BED000161C00258380164A164B8571026021814D
:10BEE00046810573186889B08C46A8421DD0124A55
:10BEF000059504926A4604AB82CB82C2C023614698
:10BF000002932A1C231CFFF78BFF0B4A094B069256
:10BF10006A461868079506AB82CB82C2C023311CE3
:10BF200002932A1C231CFFF77BFF201C09B0F0BDE5
:10BF3000E0D90200E4270020B3A2020030B50024BB
:10BF4000034D84710560818042730373846030BD4A
:10BF500000DA020070B5041C00250D4B0E1C0833DE
:10BF6000858085710360211C14300EF061FA201C5D
:10BF7000211C1C300EF07FFA064BA680A571E571DE
:10BF800025726572E5602561201C1C6070BDC0468D
:10BF900018DA0200EC2700208379DB0702D5417212
:10BFA000002000E00048704716FCFFFF8379DB07A4
:10BFB00001D5407A00E001487047C04616FCFFFFFB
:10BFC00038B50569002D23D0037A032B22D8041C31
:10BFD000FFF7ECFF283528702C20FEF78DFA2C2275
:10BFE0000021051C11F0CBF9002322695362E3689C
:10BFF000002B01D1E26005E0596A002901D00B1C39
:10C00000FAE75A62237A256101332372002002E0A5
:10C01000014800E0014838BD17FCFFFF13FCFFFF9B
:10C0200010B5134C2068FFF7CBFF2068114B026955
:10C03000114CE250114B5A68002A03D000225A607A
:10C040000132A2601B690C4A002B0FD000210B4B60
:10C0500019618023DB00D358012B05D1A923DB0014
:10C06000D158C9B2FFF798FF0123A36010BDC046A5
:10C07000EC2700200405000000100040FC100040E8
:10C0800008B5002903DB024B196010F0A0FD08BDC4
:10C09000F027002070B5041C1E1C04AB1D7804F0B2
:10C0A00051FC201C0D4B40302360FEF72BFB231C62
:10C0B000221C4C331E701D730023E1214E32A364F9
:10C0C0006365138053809381D381013B201C63649B
:10C0D0004902FFF7D5FF201C70BDC046E8D802001A
:10C0E00002200D4A0D4B30B59850101C8022D20012
:10C0F0009C58002CFAD0A124084DE40029519958ED
:10C100000029FCD00021054A11508022D2009A5803
:10C11000002AFAD030BDC0460405000000E001400E
:10C12000F0B50F4C0125A4460E4805518024E400CB
:10C130000459002CFAD000248027FF009C4207DA23
:10C14000A5004E595651C559002DFCD00134F3E7D6
:10C15000002362468350C359002BFCD0F0BDC0467B
:10C160000405000000E0014030B501240A480B4BF3
:10C170001C50041C8020C0001D58002DFAD00A60FD
:10C180001A58002AFCD00021044A11518022D20002
:10C190009A58002AFAD030BD0405000000E00140A2
:10C1A000F7B580277F053D697C690822113C6C4307
:10C1B000061C211C684611F0C5F8104B009A9A42E3
:10C1C00019D00093002301937969301C1339694316
:10C1D000FFF786FF019A301C00990EF061F9301CC0
:10C1E000211CFFF77DFF7969AB0813396943301CC7
:10C1F000221CFFF795FF0198FEBDC046FECA000055
:10C20000F0B50C1CABB00021051C161C12A8302286
:10C2100011F0B5F8201C11F0FAF8021E102A00DD0A
:10C220001022211C12A811F08DF8311C202216A812
:10C2300011F088F880235B051A69281C0C925A6952
:10C240000C99113A51435E690D91FFF7A9FF0D9BBF
:10C25000002108333022041C1EA80F9311F08FF820
:10C26000311C0C9B13395943281CFFF739FF00235D
:10C270000F9E0B930E930B9BA34237DA311C1EA823
:10C28000302211F05FF81EA812A911F0B6F80028AC
:10C2900018D13549281C221C109111940EF000F978
:10C2A0006A46099615AB83CB83C283CB83C283CB0B
:10C2B00083C2281C149B1299139A0EF005F90123CE
:10C2C0000E930EE06A46099621AB83CB83C283CBE3
:10C2D00083C283CB83C2281C1E991F9A209B0EF019
:10C2E000F3F80B9B303601330B93C4E7E643302160
:10C2F000F61726404E430F9B9E190E9B002B1CD118
:10C300000C9B981E05F0F0FB84422AD0164901349C
:10C31000281C221C109111940EF0C2F86A4609964E
:10C3200015AB43CB43C243CB43C243CB43C2281CD0
:10C330001299139A149B0EF0C7F8281C0D99FFF759
:10C34000CFFE80235B0559690C9B13394B43191CA5
:10C350000C236343281C02330D9AFFF7E1FE0020F3
:10C3600000E002482BB0F0BDFECA000013FCFFFF46
:10C3700037B58280FA2200230D1C12499200083141
:10C38000837101604561C260836043820E49041C71
:10C3900001A8FEF77FF9281C01A90EF0F2F8051C90
:10C3A00001A80DF096F9002D09D0291C201C103190
:10C3B0001230022210F0C6FF281CFEF7BFF8201C26
:10C3C0003EBDC04638DA020066EB020030B50225F9
:10C3D000837985B0041C2B4204D1FDF7ADFEA3790F
:10C3E0002B43A371201C0EF0DDF800282BD06B46E8
:10C3F000DD1C281C0EF0CDF82B78002B03D001A8F3
:10C400000EF0C5F80EE00122104B1A60104B5A686E
:10C41000002AFBD000225A600E4B01321B680193A8
:10C420000A4B5A60019BDA17920FD3189B10238294
:10C43000FEF704F90122E368A188C018A060131C6C
:10C4400002A80DF0DFF9002005B030BD00C00040AB
:10C45000FCC0004008C5004010B5041C054B083363
:10C46000036018300DF035F9201C14300DF031F94F
:10C47000201C10BD58DA0200FF23F0B52B4C8DB004
:10C4800023700023051C69460088009304F0AEF871
:10C49000002802D16B469B782370254E3368DB68F9
:10C4A000002B06D1002128880A1C0B1C0EF08FF8E7
:10C4B0003AE02378032BF5D81E4901A8FEF7EAF8E5
:10C4C000336801A9DE6804A80DF058F9301C04A9EE
:10C4D0000EF057F8061C04A80DF0FBF8371E1ED00E
:10C4E000311C2022103104A810F02CFF301CFEF764
:10C4F00025F8217804ABC9005918082202A810F0C9
:10C5000021FF288802A9082201230EF060F80127E4
:10C51000002804D128880C21074A0EF056F801A8FB
:10C520000DF0D7F8002FBDD00DB0F0BD8820002051
:10C53000F42700206EEB0200FFFF000038B5041C5A
:10C540008068002808D0064B1D8801F011FA0368A6
:10C55000291C1B6A15229847201CFDF7FBFD38BDDE
:10C560008E2B0020F8B58C1EE4B2051C069E132C01
:10C5700022D80120071CA7403C1C244F3C421BD062
:10C58000E97F5C1869181F2C3EDC701C814203D9BE
:10C590000878C8540139F8E70021C8B2984204D29B
:10C5A000545C701884700131F7E732789A18327051
:10C5B000EA7F9B18EB770DE03478013CE4B2A342AC
:10C5C0000AD10021C8B2984204D2545C7018847019
:10C5D0000131F7E7002017E0EF7F0120DF193F1B53
:10C5E0001F2F11DCA01C3618EF7FE819864205D2F8
:10C5F0003778301B023807700136F5E73C1B023CE8
:10C60000281CEC770EF02FF8F8BDC0463F0008005C
:10C61000F0B585B001930AAB1E880BAB1B78451CA7
:10C6200002930EAB1B78041C03930B78171C03704A
:10C630004B8A102243820131281C10F083FE6B4686
:10C640009B88268363836B461B7B002623776B4680
:10C6500001221B7A6761E683EB77A31CDA770C9BD8
:10C660000C256362231C201C0D9A28331A705E70FF
:10C670009E70311C2A1C2C3010F081FE201C074BB0
:10C68000E663A363311C2A1C403010F078FE201CA6
:10C69000034B2665E36405B0F0BDC046E9A5020082
:10C6A000DBA5020038B50D1C01F062F9041C03681B
:10C6B000002D02D15B69984708E09B689847854246
:10C6C00004D22368201C9B689847051CFA20800030
:10C6D0006843024905F008FAE08038BD71020000A5
:10C6E000F0B5071C161CA1B002C7041C6A4918A8A3
:10C6F0001D1C0DF0FEFF331E03D0301C10F087FE12
:10C7000083B202220192002202920392013200932C
:10C71000049218A9321C381CFFF77AFF231C18A8B2
:10C7200058335E4906930DF0E4FF2B1E03D0281CFE
:10C7300010F06DFE83B20222019200220292039257
:10C7400001320093049218A92A1C0698FFF760FF93
:10C75000231C18A8AC33524907930DF0CAFF269B3F
:10C76000002B03D0181C10F052FE83B2022201925B
:10C7700000220292039201320093049218A9269A91
:10C780000798FFF745FF631CFF3318A84549089336
:10C790000DF0AFFF279B002B03D0181C10F037FEC5
:10C7A00083B202220192002202920392013200938C
:10C7B000049218A9279A0898FFF72AFF231C5533DB
:10C7C000FF3318A8384909930DF093FF289B002BDD
:10C7D00003D0181C10F01BFE83B20222019200222B
:10C7E0000292039201320093049218A9289A0998A0
:10C7F000FFF70EFF231CA933FF3318A82B490A9318
:10C800000DF077FF299B002B03D0181C10F0FFFDC3
:10C8100083B202220192002218AD029203920132E9
:10C82000009304920A98291C299AFFF7F1FE204BE5
:10C830001B780B93002B2CD1069B12971393079B0D
:10C840000DAF1493089B1B491593099B381C169335
:10C850000A9B12AE17930DF04CFF49201D213B7827
:10C8600010222B707B8A6B8206ABC918C01810F09F
:10C8700069FD06232B756B469B8D2068AB83AE61EB
:10C8800001F086F80368291C1B6898470122084BB1
:10C890001A70201C21B0F0BD292A0000242A0000B3
:10C8A000252A0000272A0000262A0000282A000046
:10C8B000E62B00200A18000038B50025041C094B9F
:10C8C0008580083385710360C1601430FDF71AFF5D
:10C8D000201C1830FDF716FF034BA5602561201CB6
:10C8E0001C6038BD58DA0200F4270020FA21F0B5A8
:10C8F000041C8FB0012306A8890002220CF082FFDD
:10C9000027882C4C2368DB68002B4BD02A4D2B78D2
:10C91000032B47D8294902A8FDF7BCFE236802A9CA
:10C92000DE6806A80CF02AFF06A9301C0DF029FECF
:10C93000061C06A80CF0CDFE6B469A1D0823381C79
:10C94000138004A9073B0DF044FE002E08D0311CD3
:10C9500006A81031202210F0F5FC301CFDF7EEFD8A
:10C960002D7806ABED005D196B46281CDA8804A90A
:10C9700010F0D9FC002812D00822281C04A910F0BD
:10C98000E1FC236802A9DD6803A80CF0F7FE281C6F
:10C9900003A906AA0DF0C0FD03A80CF09AFE02A898
:10C9A0000CF097FE2068002801D00DF0DCFE0FB0DF
:10C9B000F0BDC046F4270020882000206EEB020066
:10C9C00010B507290CD880680C1C00F0D1FF054A6F
:10C9D000036811575B6C9847002802D0024800E0BA
:10C9E000024810BD7AEC020016FCFFFF17FCFFFFA7
:10C9F000F0B59E4C0D1CA544041C07939AAB1B7804
:10CA00009B4909A804930692FDF744FE201C291CAB
:10CA100018300CF0BBFEC020800001F09BF808200D
:10CA2000FDF76AFD061C002100F05AFF15ADA66057
:10CA300000210C220EA810F0A2FC2B1C0EAA83CA07
:10CA400083C38C4B301CEB600023291C2B610EF040
:10CA500013FFA06800F08CFF00210C220590281C19
:10CA600010F08DFC1420FDF747FD834B2A1C159315
:10CA7000031CC2CAC2C3814B059EC3600023A436F7
:10CA800003613368002B00D003613060A06800F0C0
:10CA90007FFF00210C22061C281C10F070FC1420C3
:10CAA000FDF72AFD764B1593031C86CD86C3754B87
:10CAB000C36000230361336B002B00D0036130633C
:10CAC000A06800F055FF15AD00210C22061C281CA3
:10CAD00010F055FC1420FDF70FFD6B4B98361593A5
:10CAE000031C86CD86C3694BC36000230361336892
:10CAF000002B00D00361012504AB1B7C04AA2B434F
:10CB0000306008A9281C13740DF065FDA06800F0C2
:10CB10004FFF03685E495B6A9847A06800F048FFD2
:10CB200003685C499B699847A06800F041FF0023B7
:10CB300002680093166804992A1CB047049B002BD6
:10CB40000AD0201C0DF018FE032805DDA06800F0B7
:10CB50002FFF0368DB6898472F254B2604ABED18A1
:10CB6000F618E81F07350DF074FDB542F9D104251C
:10CB70000EAB0A93A06804AB5D7700F019FF036861
:10CB80000AA91B699847A06800F0F2FE03680AA989
:10CB90005B6D9847A06800F0EBFE03680021DB6D39
:10CBA0009847A06800F0E4FE036802219B6D984757
:10CBB0000021201CFFF704FF1820FDF79DFCA16851
:10CBC00000F0F4F9069BA1681B6815A85B19009397
:10CBD000314B0CAE1B6800270193304B1B6802934E
:10CBE0002F4B1B6803932F4B1A682F4B1B68FFF7C3
:10CBF00077FD3020FDF780FC079AA16800F096FAD7
:10CC0000A06800F0B5FE0368311C9B6A98470823B2
:10CC1000A0683380DB187380B78000F0A9FE03683A
:10CC2000311CDB6A9847291CA0680DF06FFD099B39
:10CC300009215A19A0689B780DF07BFDA06800F0CF
:10CC400097FEC8210771A068FFF72CFD04AB1B7F7E
:10CC5000BB4204D0A06800F08BFE0DF040FD09A897
:10CC60000CF037FD95239B009D44F0BDACFDFFFF0C
:10CC70007AEB0200F7A50200EDC8010005A602004C
:10CC800079C4010013A6020041A6020021A60200F9
:10CC9000ADCC0100E1CC01000028002008200020DC
:10CCA000FC270020F82700200C20002013B50622C6
:10CCB0006846FDF7FFFC094B1C68002C0AD069464A
:10CCC00001A80CF05BFD201C01A90DF071FD01A86D
:10CCD0000CF0FFFC68460CF0FCFC13BDF4270020B0
:10CCE000002373B501AE0C1C311C051C019303F02D
:10CCF0007DFC002802D1B278064B1A70064B1868EA
:10CD0000002806D061426141044BC9B21D800DF07C
:10CD100057FD73BD88200020F42700208E2B0020B3
:10CD2000F0B5041C97B0039107A897490592FDF749
:10CD3000B1FC964908A8FDF7ADFC221C0FAD1832D6
:10CD4000281C07A90CF031FD08AA291C09A80CF021
:10CD50002CFD281C0CF0BDFC8D490AA8FDF79AFC9F
:10CD6000A06800F005FE33264F2703685B699847EB
:10CD700004ABF618FF18F01F07360DF06AFCBE4230
:10CD8000F9D104230D9500250DAEA068737135719E
:10CD900000F0EEFD0368311C5B6D9847A06800F061
:10CDA000E7FD0368291C9B6D9847A06800F0E0FD33
:10CDB000071C061C0A371F22291C381C10F0DFFA3A
:10CDC000FD77301C0DF082FC0621A0680DF09EFC62
:10CDD000099B09211A1DA0689B780DF0AAFCA06888
:10CDE00000F0C6FDC8210571A068FFF75BFCA068D4
:10CDF00000F0BEFDFF272E1C0581A06800F0B8FDE5
:10CE00000DF06DFC0398FEF745FD0AA90CA80CF087
:10CE1000B5FC0CA978220398FEF706FE0CA80CF0CE
:10CE200058FC201C03990DF0D6FC04952369DB0700
:10CE30003BD558490BA800F079FC0BA90CA80EF0C3
:10CE400070FC00230CA9009301931A1C0398FEF7B1
:10CE50008FFD0CA80EF058FC049B002B01D1043F61
:10CE600000E00437282F09DDFE220023F90FBA4223
:10CE70004B41049A5B421A40049206E003980DF07D
:10CE80004BF8002F01DC0123049305980CF029FED8
:10CE9000002806D0012322699A43131C042213435D
:10CEA00023610BA80EF030FC002623695B072AD50E
:10CEB0000398FF21FEF7E0FD0025636902229B5ED7
:10CEC0009D4218DA201C29B214300CF084FC002298
:10CED000011C0398131C743000F07AFCC8208000F9
:10CEE000FDF7C4F903980DF017F8C820FDF7BEF957
:10CEF00023699B0705D5FA208000FDF7B7F90026C6
:10CF000001E00135D9E723699A0732D508250BA836
:10CF10001D4019D0204900F009FC0BA90CA80EF007
:10CF200000FC00230CA9009301931A1C0398FEF740
:10CF30001FFD0CA80EF0E8FB1848FDF797F90BA8A9
:10CF40000EF0E2FB164E14E0164900F0EFFB0BA9C1
:10CF50000CA80EF0E6FB0CA92A1C2B1C00950195D1
:10CF60000398FEF705FD0CA80EF0CEFB0BA80EF003
:10CF7000CBFB6420FDF77AF90B4B01369E4200DCB7
:10CF800054E70CF085FA51E788EB020040EF02000D
:10CF900098EB0200A6EB0200EBEB0200983A0000CF
:10CFA0008C0A000028EC02008B0A0000F0B5051C7A
:10CFB0000024584BA9B0083303600391A9600BAB60
:10CFC0000022191901344A70102CF9D15A82013209
:10CFD0001A7051491A1B013C095D5174002CF8D19B
:10CFE0009A7B597B12020A43291C45270C31029176
:10CFF00025211B7813AE337002ABFF187282C9185B
:10D000001022381C10F09EF9029B02AA73610123C2
:10D01000338333770933FB771DAB1C706D239B186B
:10D020001C706E23211C9B181EA80C227483F48391
:10D0300074621C7010F0A3F9384B211C0C2223A839
:10D04000B363F46310F09BF9354B0322F36446237A
:10D0500002A95B18346505962C73DA7706AE0023B7
:10D06000321901345370102CF9D1738201333370AB
:10D070002C4A331B013C125D5A74002CF8D1252038
:10D080001121B37B727B1B020BAF134332787B827F
:10D0900002ABC9183A70C018102210F053F90123DE
:10D0A00003983B7505ABBB61BC8300F071FC036862
:10D0B000391C1B68984713ABDB8BA868AB8200F068
:10D0C00067FC03680094A98A029ADF680123B847C5
:10D0D000A86800F05DFC02901420FDF70DFA071C13
:10D0E000211C0C2210F04BF9381C01233C61311C2F
:10D0F00020C008220793069410F024F90A4BFB6025
:10D10000029B9B69002B00D03B61281C029B9F6106
:10D1100029B0F0BD78DA020092EC0200E9A5020025
:10D12000DBA5020082EC020037A80200F0B5002661
:10D13000041C764BDDB0083303608160C2608680DA
:10D1400086717349321C47A80DF009FC231C143367
:10D150000893042300930E330193113B049347A9D2
:10D16000331C089A029603961DA8FFF751FA6949E5
:10D17000321C47A80DF0F3FB0423221C0093DB189C
:10D180000193073B15AF1032049347A9331C029655
:10D19000039632A8FFF73CFA381C5F49321C0DF0A9
:10D1A000DEFB231C1C33099304230093DB1801933B
:10D1B000073B391C0493099A331C0296039647A82F
:10D1C000FFF726FA5549321C381C0DF0C8FB5420D5
:10D1D000FDF792F9231C183307930423051C0093D1
:10D1E0000E330193113B391C0493079A331C0296AA
:10D1F0000396FFF70DFA281C494BA5620AA9EC62B9
:10D20000082230300A930B9610F09CF8454B099990
:10D21000AB63012329352B702682668223690422A1
:10D22000E361079810F08EF807990422089810F02F
:10D2300089F86622032304A95218D377BA22521818
:10D24000D377872252005218D377A26AA685911C01
:10D25000CB771DAB0C9332AB0D930F9247AB32499A
:10D26000321C10A80E930DF07AFB3022452031219C
:10D2700004AB9B181B7812323B7004AB9B181B88C5
:10D28000323A7B8204ABC918C01810F05BF8042353
:10D290000CADA0683B75BD61BE8300F079FB0368EF
:10D2A000391C1B689847822204AB9B181B88543298
:10D2B000238404AB9B181B885432A38404AB9B18B3
:10D2C0001B88A068638400F063FB071C1420FDF733
:10D2D00013F9051C311C0C2210F051F8281C134BBB
:10D2E0002E6110A910931196082210C010F02AF890
:10D2F0000F4BEB60BB69B34200D02B61BD61201CBA
:10D30000FCF71AFF201C5DB0F0BDC04688DA0200B1
:10D31000B2EC0200E2EC0200D2EC0200A2EC02004D
:10D3200031A90200B5A80200C2EC02009DD30100A1
:10D33000DFA80200F0B5041C0E1C151C85B000937C
:10D340000CAB1B88103001930CF052FA26806580DC
:10D350001820FDF7D1F8071C02AD2B1C3E1C0AAAB1
:10D3600003CA03C3009B002108C6301C102210F022
:10D3700006F8291C301C08220FF0E4FF064B02229D
:10D380007B61201C00230199A7600A43E360A2800F
:10D39000A361E36105B0F0BD09A90200F0B50B89F6
:10D3A0008BB00593CB68061C04934B88828C049C3D
:10D3B0009A420DD1059B049A1B1BD318032B3BDD0E
:10D3C0002188628808A801230CF01CFA0434F1E7D4
:10D3D000428C049C9A422FD1059B049A1B1BD318A4
:10D3E000032B29DD2388202006936388F7680793A1
:10D3F000124B089300230993FDF77EF86A4608ABA9
:10D40000051C03CB03C2C02306990293281C331CBE
:10D41000079AFFF78FFF3B68381C5B68291C984709
:10D42000002807D0002D05D0281C0CF01BF9281C63
:10D43000FDF784F80434CFE70BB0F0BDB3A90200C8
:10D4400070B5041C8EB080680DF0AEFA0223021C89
:10D450001A401AD1A38D002B17D069460C4BA28518
:10D460000493059204ABE56841CB41C11023111C24
:10D47000029306A8231CFFF75DFF2B68281C9B68FE
:10D4800006A9984706A80CF0EDF80EB070BDC0468E
:10D49000B3A90200002815D0006041608260C3601B
:10D4A000046145618661C761444604624C4644623A
:10D4B000544684625C46C462644604636E464663B6
:10D4C00074468463002A06D0C46B043C043A256881
:10D4D0001560B442F9D18C6BA6464E6BB546002B55
:10D4E00006D0CC6B043C043B1D682560B442F9D1E6
:10D4F0000C6BA446CC6AA3468C6AA2464C6AA14631
:10D500000C6AA046CF698E694D690C69CB688A6840
:10D51000086849687047006041608260C3600461C8
:10D5200045618661C761444604624C464462544684
:10D5300084625C46C462644604636E464663744615
:10D540008463C46B043C043925680D60B442F9D18E
:10D55000C7698669456904697047006041608260F7
:10D56000C360046145618661C761444604624C46FC
:10D570004462544684625C46C462644604636C46FA
:10D5800044637446846304697047846BA646446BA5
:10D59000A546046BA446C46AA346846AA246446AAC
:10D5A000A146046AA046C769866945690469C368DB
:10D5B000826800684168704710B5002810D0041CCC
:10D5C0000FF025FF431E201CE318984206D2027874
:10D5D0001978013B01705A700130F6E7002000E035
:10D5E000004810BD17FCFFFFF7B5C743051C0E1C14
:10D5F000FF0F002925D0002F00D045420024013420
:10D60000631EF318281C0A210193009404F0E2FB26
:10D61000CB17C9185940019B30311970281C0A21B9
:10D6200004F0F2FA051EEAD1002F03D12D23009A4F
:10D630000134B3540025301C3555FFF7BDFF281CBD
:10D6400000E00148FEBDC04617FCFFFF014B036030
:10D650007047C04610E0020030B50468608881421F
:10D6600006DAA588AA4203DA002901DB002A01DADA
:10D67000034804E05043611808188371002030BD4E
:10D6800017FCFFFFF0B5071C85B00D1C1E1C002900
:10D6900021DD002B1FD0046863880391994200DDCF
:10D6A0000393A38802929A4200DD0293002306347A
:10D6B0000193019B029A93420BDA201C311C039ABE
:10D6C0000FF040FE3B6876195B88E418019B01333C
:10D6D000EEE7002000E0014805B0F0BD17FCFFFFB9
:10D6E000F8B5041C0E1C151C1F1C002901DB002AA8
:10D6F00002DA0D4B236015E0101C48430630FCF79E
:10D70000FBFE20600CF0C4F82368201C5E809D8026
:10D71000002F05D0311C2A1C3B1CFFF7B3FF01E092
:10D720000EF007F8F8BDC04610E00200F0B5061C88
:10D7300087B00C1E05D000200F1C051C0190011C99
:10D7400015E0224B03603EE03022524294469C4456
:10D750006246092A14D90A2B0DD1019B2D180133D9
:10D760000193A94200DA291C0020051C01373B78EF
:10D77000002BE9D106E00028F8D001350020F5E7BC
:10D780000120F3E76A46928809B212B2301CFFF713
:10D79000A7FF33689D1D03AB1F1C2278002A12D0FF
:10D7A000111C3039092902D81A70013309E000220E
:10D7B0001A70BB4205D9381C0FF0DEFC3B1C2870E8
:10D7C00001350134E9E7301C07B0F0BD10E002007C
:10D7D000F0B5041C87B004A8151C1E1C0F1CFCF718
:10D7E00011FE23685A88954208DA9B889E4205DA22
:10D7F0001F2F03D9059B00939F4201DD18482DE0A0
:10D80000052300217B430193049B0293019B029A11
:10D81000CB18A03BD35C002203938B199C46531971
:10D82000276800937888834202DABB889C4507DB2F
:10D830000132052AF3D101310529E7D100200DE09D
:10D8400063465843009BFB18102717411818039B89
:10D850001F407B1E9F417F428771E9E707B0F0BD03
:10D8600017FCFFFFF7B503689E1D5B885A1A0192EB
:10D8700000291CDD0C1C051C0027994202DB0DF061
:10D8800058FF12E02B689B889F420EDA3119301C3A
:10D89000019A0FF057FD019B211CF0180DF03BFF82
:10D8A0002B6801375B88F618ECE7002000E00148A0
:10D8B000FEBDC04617FCFFFF10B50548054C2060B3
:10D8C0000BF0E9FF201C0449044A0FF02DFC10BDA9
:10D8D00010E002000428002009B702000020002008
:10D8E00038B50023041C0160436099420AD1064DFB
:10D8F0002B68002B02D10EF01CFA286023689B00D5
:10D90000EB586360201C38BD1428002070B5002837
:10D910000DD10C4C2668002E07D108300FF00FFCFB
:10D92000051C311CFFF7DCFF2560206808E00122A0
:10D93000054906480B68134002D1026043600A6043
:10D9400070BDC04608280020182800200C280020A0
:10D95000436810B5041C002B02D104480FF0E2F913
:10D96000606803681B69984710BDC046F2EC02006E
:10D97000436810B5041C002B02D104480FF0D2F903
:10D98000606803681B69984710BDC046F2EC02004E
:10D99000436810B5041C002B02D104480FF0C2F9F3
:10D9A000606803689B69984710BDC046F2EC0200AE
:10D9B000436810B5041C002B02D104480FF0B2F9E3
:10D9C000606803685B6A984710BDC046F2EC0200CD
:10D9D000F0B58DB0051C02F03FFC002000F0D0FB3C
:10D9E0000368071C1B6998473B68041C9B69381C2B
:10D9F00098473B68061C5B6A381C9847031C2888BC
:10DA000010380B2800D99BE004F064F8063D9A9A80
:10DA10009A5A9A9A9A619A76AF88201C391C0EF00D
:10DA20008CFB221C6B7B583201931378A879191C4C
:10DA30000223194306AB11701F80012306AA9370BD
:10DA4000D070131C6A461279E91D9A722B1C0622AB
:10DA5000163307A80B930FF075FC0B20291C06AB9F
:10DA6000C0180E3106220FF06DFC94346368A36079
:10DA7000A068002864D0C36806A99847A368002B53
:10DA8000F4D01B69F3E7201C3049AF880EF055FB3A
:10DA9000221C022058321378A9798343137006ABF5
:10DAA0001F809970A0346368A360A068002847D0E5
:10DAB000C36806A99847A368002BF4D01B69F3E755
:10DAC0005B69A888A91D002B3AD0984738E0636E9F
:10DAD000AF79002B34D01E4A002A31D0A366A06E45
