:020000021000EC
:1080000000400020F5FE010031FF010033FF0100B8
:108010000000000000000000000000000000000060
:1080200000000000000000000000000035FF01001B
:10803000000000000000000037FF010039FF0100D0
:108040003BFF010071C60100310502003BFF01004A
:108050003BFF0100000000006DFF01003BFF01003D
:108060003BFF010011070200BD0302003BFF0100BE
:108070003BFF01003BFF01003BFF01003BFF010014
:108080003BFF01003BFF01003BFF01003BFF010004
:108090003BFF010085F90100F5F701003BFF0100FE
:1080A0003BFF01003BFF010000000000000000005A
:1080B00000000000000000000000000000000000C0
:1080C00010B5064C2378002B07D1054B002B02D0AE
:1080D000044800E000BF0123237010BDBC20002035
:1080E0000000000038C6020008B5084B002B03D082
:1080F0000748084900E000BF07480368002B00D18B
:1081000008BD064B002BFBD09847F9E700000000A4
:1081100038C60200C0200020BC2000200000000063
:10812000164B002B00D1144B9D46402292029A1A06
:10813000924600218B460F461348144A121A12F039
:1081400094FD0F4B002B00D098470E4B002B00D016
:1081500098470020002104000D000D48002802D09F
:108160000C4800E000BF0DF0FFFA2000290012F0DB
:1081700072F90DF0C3F8C04600000800004000206E
:108180000000000000000000BC200020D02A0020D9
:1081900000000000000000007FB50025061C4378A9
:1081A00002AA194311700A4C017801234900009575
:1081B000201C00F079FD317803AE49000095201CA9
:1081C000321C012300F026FD307804B070BDC0469B
:1081D000742100207FB50026041C437802AA1943AD
:1081E00011700C4D0178012349000096281C00F005
:1081F0005BFD217803AC49000096281C221C022359
:1082000000F008FD207863780002181880B204B0EE
:1082100070BDC046742100201FB503AB44785A706E
:108220000022214319700178009249001A1C02486B
:10823000022300F039FD1FBD7421002038B5084C21
:108240000021251D281C102212F00FFD0023E560DF
:1082500025616361201C0349034A12F0DFFB38BD2E
:10826000D8200020176F02000020002038B5084CED
:108270000021251D281C102212F0F7FC0023E560C8
:1082800025616361201C0349034A12F0C7FB38BD16
:10829000F0200020616F02000020002010B51A4C71
:1082A0000821201C0022FFF7B7FF201C0921002213
:1082B000FFF7B2FF201C04210022FFF7ADFF201CB6
:1082C00005210022FFF7A8FF201C06210022FFF74E
:1082D000A3FF201C03210022FFF79EFF201C212169
:1082E000FF22FFF799FF201C18210122FFF794FFBE
:1082F0000A2012F073FA201C07211722FFF78CFFC7
:108300000A2012F06BFA10BDFF29002038B50F4D7E
:108310000022281C4821FFF77FFF052012F05EFA9B
:10832000281C4821FFF738FF4921041C281CFFF7AF
:1083300033FF2402201800B200110BF0BDFA002216
:10834000034B0AF06FFC0BF081FA38BDFB290020CB
:108350000000B03F08B52C210348FFF73BFF642124
:1083600008F014FC80B208BDFF29002008B50248BF
:108370002221FFF72FFF08BDFF29002008B5024882
:108380002421FFF727FF08BDFF29002038B5094C3D
:10839000051C0A1C201C1721FFF73EFFA022201CF1
:1083A0002A431821FFF738FF201C2E21FFF7F4FE87
:1083B00038BDC046FF29002038B50125354C0021C5
:1083C000201CFFF7E9FE344B1D70FFF767FF201CF0
:1083D00013212922FFF720FF201C14218922FFF7F7
:1083E0001BFF201C15210222FFF716FF201C002274
:1083F0001621FFF711FF281CB121FFF7C7FF2A1C28
:10840000201C0321FFF708FF2A1C201C0421FFF772
:1084100003FF0322201C0F21FFF7FEFE032107208C
:10842000FFF7B4FF291C0220FFF7B0FF00210B204B
:10843000FFF7ACFF70210A20FFF7A8FF24210C20D2
:10844000FFF7A4FF00210E20FFF7A0FF00211E2050
:10845000FFF79CFF70211D20FFF798FF20211F20B0
:10846000FFF794FF00211120FFF790FF70211020EB
:10847000FFF78CFF20211220FFF788FF201C082126
:10848000FF22FFF7C9FE201C18210F22FFF7C4FEB0
:10849000281C38BDFF290020FA29002010B5054C02
:1084A000C1B2201C04F016F9201C062104F06EF85D
:1084B00010BDC046E824002008B5024804F020F9A9
:1084C00008BDC046E824002008B543780020834258
:1084D00004D1C900C9B20248FFF75EFE08BDC0461C
:1084E000FD29002008B54378002B04D1C900C9B28A
:1084F0000148FFF791FE08BDFD290020F7B5019165
:108500000421041CFFF7E0FF0121030600D503311D
:10851000E120000408F0CAFB019B051C190108F0CA
:1085200035FB0321071C201CFFF7CEFF802252429F
:108530000243061CD2B2201C0321FFF7D3FFFAB27C
:10854000201CBFB20021FFF7CDFF3A0A201C0121F9
:10855000FFF7C8FF7F22201C32400321FFF7C2FF34
:10856000019809F0B1FB3901041C281C08F09EFB9E
:1085700009F0AAFB211C09F0C1F9054909F08CF8A2
:10858000211C08F097FE09F037FB00B2FEBDC04683
:1085900000007A4410B5134C5621201C0EF00CFD3F
:1085A000201C00210EF008FD201C26210EF004FDE9
:1085B000201C00210EF000FD201C0EF0F8FC00280D
:1085C00003D1642012F00AF9F6E7201C0EF0EFFC4C
:1085D000002806D0201C0EF010FD052012F0FEF839
:1085E000F3E710BD08210020F8B51F4B1F4F1B7883
:1085F0001F4E204D204C002B0CD0FFF7ABFE3880D7
:10860000FFF7BCFE3080FFF7B1FE2880FFF77EFE4B
:10861000206003E03B8033802B802360174C0121D6
:10862000201C0FF0FEFF164B01211860201C10F0DB
:1086300006F8144B01211860201C10F00EF8124BA4
:108640001860124801F032FB114B1860201C02F038
:1086500077F8104B1860201C02F088F80E4B186059
:10866000032012F0BBF8F8BDFA2900208829002069
:108670008A2900208C2900201421002014230020A6
:108680002021002024210020302100205023002020
:1086900034210020182100202C21002030B58DB07D
:1086A000041CFFF7A1FF3D4B1A68002A0CD10BA850
:1086B0003B4901F017FE0BA964223A4802F0F0FC96
:1086C0000BA80FF060F866E0374B38483849002CAB
:1086D00043D000881B8800900988364C0191201CEB
:1086E00035490DF0FBFD002855D0344D211C1D22CD
:1086F000281C04F015F9324B201C32491A680DF081
:10870000EDFD002847D0211C0722281C04F008F9A1
:108710002D4B201C1B682D4900932D4B1A682D4BA7
:108720001B680DF0DBFD002835D0211C1722281C0A
:1087300004F0F6F8284B201C1B6828490093284BAE
:108740001A68284B1B680DF0C9FD002823D0281C8F
:10875000211C142204F0E4F81DE000881B8800901E
:108760000988214801911649096802911849096848
:10877000039118490968049113490968059118493A
:108780000968069117490968079113490968089112
:10879000164911F0D6FE0DB030BDC046282100208C
:1087A000C2BE02003C2200208A2900208829002025
:1087B0008C290020DC290020CCBE0200FC240020F3
:1087C000142100207EBF02003021002021BF0200C2
:1087D00020210020242100202C210020BFBF0200E6
:1087E0003421002018210020CC21002087BF020066
:1087F00038B5051C234C5621201C0EF0DDFB201C37
:1088000000210EF0D9FB201C31210EF0D5FB201CDD
:1088100005210EF0D1FB201C04210EF0CDFB201C05
:1088200001210EF0C9FB201C00210EF0C5FB201C0D
:1088300019210EF0C1FB201C291C0EF0BDFB201CD1
:108840000EF0B5FB104D002807D1281C0F4911F080
:1088500078FE322011F0C2FFF1E7201C0EF0A7FBDA
:10886000002808D0201C0EF0C8FB0949021C281C57
:1088700011F067FEF1E7FFF78DFE281C054911F0A6
:1088800060FE38BD08210020CC210020D7BF0200A7
:10889000D9BF0200DFBF0200E12110B5084C490238
:1088A000201C0EF0FEFB201C0EF0B2FB041C00206E
:1088B000012C03D11130FFF79BFF201C10BDC046D7
:1088C0000821002008B5044B1860FFF7F5FDFFF7FD
:1088D000E3FFFFF771FD08BD28210020072008B540
:1088E000FFF7DCFD0120FFF7EDFF0EF0F1FB0221A9
:1088F000014800F0A3FBF8E73821002010B5602103
:1089000000220E480EF0F4FA482100220C480EF026
:10891000EFFA0C4C201C01F01DFD201C0A490B4AEB
:1089200012F07CF84D21002209480EF0E1FA0022F5
:108930004D21084B5A7059721A7210BDFF29002040
:10894000FB2900201C210020877702000020002046
:10895000FD290020082100207FB53D4C0321201C6B
:1089600011F012FD3B49201C11F013FD02F0E2FC56
:1089700001F002FB384D281C00F038FE6421281C51
:1089800000F05CFB01A810F030FA01A802F060FDD5
:10899000324B0268041C9A4210D1436B002B05D164
:1089A000836B002B02D1C36B002B07D086239B0067
:1089B000E818616BA26BE36B01F000FA201C02F077
:1089C000F5FC0025244C201C7D30FF300EF064FDAA
:1089D000002808D0201CA530FF300EF05DFD0028D7
:1089E00001D0092D04DD0EF078FB01F035FCFEE727
:1089F000201C6421013500F021FB0A2DE2D1F32671
:108A0000B600A359002B19D102A8211C00F0EAFAE4
:108A100003A8211C0EF0D3FCE6239B00E01802A95A
:108A2000012303AA02F0F0FF03A80EF0ACFE02A897
:108A30000EF0A9FEE8239B00E358A351E623064964
:108A40009B00C8180531FF3103F062F9BAE7C04650
:108A5000082500200994010038210020FECAFECA22
:108A600010B5041C054B0360054B40300360054BFB
:108A7000436007F0F1F9201C10BDC046A8B5020004
:108A8000C0B50200F4B5020008B4024B9C46403861
:108A900008BC6047618A010008B4024B9C46443818
:108AA00008BC6047618A010010B5041C044B0360D8
:108AB000044B0364044B4364FFF7D2FF201C10BD3A
:108AC000A8B00200C0B00200F4B0020008B4024B2B
:108AD0009C46403808BC6047A98A010008B4024B94
:108AE0009C46443808BC6047A98A010010B5041CA4
:108AF000FFF7DAFF201C02F059FC201C10BD08B45F
:108B0000024B9C46403808BC6047C046ED8A0100D5
:108B100008B4024B9C46443808BC6047ED8A01000B
:108B200010B5041CFFF79CFF201C02F03FFC201C2A
:108B300010BD08B4024B9C46403808BC6047C04694
:108B4000218B010008B4024B9C46443808BC6047A6
:108B5000218B010038B50A4D281C00F0B7F9094CEB
:108B6000281C221C084911F059FF084D1321281C0C
:108B700006F0B6FF281C0649221C11F04FFF38BD35
:108B80003821002000200020958B010008250020BE
:108B9000C9FA010038B5E6231C4A9B00C2501433C1
:108BA000041CC0180EF0EFFDEA239B00E0180EF045
:108BB000EAFD86239B00E01800F05AFF201CDD3000
:108BC000FF3001F0E1FB201CA530FF3000F0CAFDB2
:108BD000201C7D30FF3000F0C5FD601DFF3002F02D
:108BE0007BF8201CEC3000F0FFFD201C251C5430CD
:108BF000FFF75AFF064B0C35281CE36011F0C9FC47
:108C0000281C07F05FF9201C38BDC04608B20200DE
:108C100060B60200F0B51F1C85B00AAB1B78041CBF
:108C2000039300933B1C0D1C161C11F08CFB0028B9
:108C300032D0237D082B2DD823680022191CFC314B
:108C40008A62A0211648C9005A5084461A5005204D
:108C50000138C046C046C046C046C046C046C046B1
:108C6000C046C046C046C046C046F1D1012062465B
:108C70002368985005225A5007F0F4FC039B201CEF
:108C80000093291C3B1C321C11F05DFB237D01333A
:108C90002375CCE7034800E0207505B0F0BDC04661
:108CA000FC0F00000EFCFFFFF0B51F1C85B00AABE7
:108CB0001B78041C039300933B1C0D1C161C11F025
:108CC0002AFB002832D0237D082B2DD823680022D0
:108CD000191CFC318A62A0211648C9005A508446EA
:108CE0001A5005200138C046C046C046C046C0469E
:108CF000C046C046C046C046C046C046C046F1D188
:108D0000012062462368985005225A5007F0AAFCB9
:108D1000039B201C0093291C3B1C321C11F0FBFA06
:108D2000237D01332375CCE7034800E0207505B0AF
:108D3000F0BDC046FC0F00000EFCFFFFF0B587B091
:108D40001F1C0EAB1B88019003930D9B0D1C029200
:108D50000C9E0093002F39D0002E01D1DB0735D5B2
:108D6000202002F0FFFA041C103001F05DF86B4681
:108D70001B8925806380182002F0F4FA0496061CF3
:108D8000051C009B80C600211022301C059311F0A9
:108D90006CFF04A90822301C11F04AFF0D4B002281
:108DA0006B6102230399A5600B43E260A380E2613B
:108DB0000198211C00F06CFD002808D0201C0FF049
:108DC000A6FF201C02F0F2FA034800E0034807B0B7
:108DD000F0BDC0462571020013FCFFFF17FCFFFF2A
:108DE000F0B58180154989B000251E1C04916946A3
:108DF000134B85710360028146810573059504ABB1
:108E0000041C81CB81C1C023111C02932A1C231C8A
:108E10000C48FFF793FF094A079506926A4606AB8E
:108E200003CB03C2C023311C02932A1C231C054818
:108E3000FFF784FF201C09B0F0BDC0463772020066
:108E400008B1020024220020F8B5144B051C9B68D1
:108E5000DB0701D501F0CCF82E1C2F1CD436341CB6
:108E6000EC372068002815D003689B6898470028D5
:108E700010D001210A4A13780B4313702C1CAC3418
:108E80002068002802D003681B6898470434B44265
:108E9000F6D1F8BD0434BC42E3D1EFE7382100201D
:108EA000012A0020BFF34F8F024A034BDA60BFF361
:108EB0004F8FFEE70400FA0500ED00E008B5011C45
:108EC000014802F029F908BD3C22002030B50025F8
:108ED000041C91B085600C3006F0DEFF201C404B76
:108EE0002A1CE3606562A5631E213C300EF012F976
:108EF000201C18211922543002F0C0F9201CEC303B
:108F000000F082FC0522601D131C0621FF3001F0D9
:108F10000BFF201C01217D300B1C00951122FF301E
:108F200000F030FC201CA530009502211A220123FC
:108F3000FF3000F027FC201CCD3002231A21012233
:108F4000FF30FFF74DFF201CDD3004213A22FF30B7
:108F500001F0C2FA86239B00E0181D22052100F0D3
:108F600053FE95239B00E0181C2101F01FFC9A235F
:108F70009B00E0180A23009301330193013302930D
:108F800001330393013304930133059301330693B3
:108F900001330793013308930133099301330A9393
:108FA00001330B9301330C9301330D9301330E9373
:108FB000013308220F930721103B0FF0BAFBE62381
:108FC0009B00E01802F0AAFCEC239B00E0181D2196
:108FD00003F0BCFAF323201C9B00E55011B030BD18
:108FE00060B60200F0B58DB00190134905A81922B2
:108FF00011F01EFE80230424052501275B055E6E0B
:10900000301C291C07F048FE081C391C07F0BEFD67
:10901000042305221B1B5343361A181805ABC35CE7
:1090200003A9554357436354013CE9D2019801F029
:1090300069F901980DB0F0BDF0BF020010B500292C
:109040000DDB012380681840041C081C002C03D091
:1090500001F0AAF8002003E011F0C0FBFAE7014894
:1090600010BDC04617FCFFFFF0B5A7B004900691F5
:1090700007920C2104220BA80EF014FCDA492422DA
:1090800019311DA811F0D4FD052108A80A1C0FF004
:10909000F8FBD64909A801F09DFC049B6E245D1DD8
:1090A000FF35281C01F054FFD1491AA801F01AF924
:1090B0001AA97822281C01F0CDFF1AA80EF063FB34
:1090C00004987D30FF300EF0E7F9002807D10498AE
:1090D000A530FF300EF0E0F9002800D17AE1281C1D
:1090E00001F036FF281C0FF0A7FD0024C14F01211D
:1090F000381C0FF096FA0121061C381C0FF09FFA5D
:109100000022BD4B03929E4210DB01320392321CBF
:10911000C8320BDB04220392C8229200964205DC7F
:1091200003220392C82E01DC013A0392002202922C
:10913000984210DB01230293031CC8330BDB04238A
:109140000293C8239B00984205DC03230293C8289E
:1091500001DC013B0293652708A80FF089FB04ABF3
:10916000FF183E1C7378002B06D0731E19783278D6
:1091700008A8FF2301F0C4FB892304AA03369B1827
:109180009E42EFD16B460C21595E6B4608A808221F
:109190009A5EFF2301F0B4FB00239848009308A9CE
:1091A0001A1C0FF075FB7B1E1B78039A93423AD171
:1091B0003B78029A934236D17E78002E33D18622B4
:1091C00092009446049B311C6344181C05930EF0D6
:1091D00043FA08F031FD321C031C211C0BA80EF0D1
:1091E000ACFB311C05980EF044FA08F025FD012275
:1091F000031C211C0BA80EF0A0FB311C05980EF0DF
:1092000045FA08F019FD211C031C02220BA80EF0E0
:1092100094FBFE23211C9B050BA803220EF08DFB63
:1092200001237B70E418892304AA03379B189F420B
:10923000B9D173486421FFF701FF0B2C00DC55E71F
:109240000BA80EF066FB0122011C0EA80EF02AFBF3
:1092500000240BA80EF05DFB84423EDA211C0022A4
:109260000BA80EF058FB211C061C00220BA80EF0C8
:1092700052FB011C301C08F00FFA211C061C0122B5
:109280000BA80EF048FB0122071C211C0BA80EF0B6
:1092900042FB011C381C08F0FFF9011C301C07F0D0
:1092A0008DFE211C061C02220BA80EF034FB0222AC
:1092B000211C071C0BA80EF02EFB011C381C08F00B
:1092C000EBF9011C301C07F079FE211C031C002265
:1092D0000EA80EF032FB0134BBE70BA90A1C0123D8
:1092E0001AA80FF0F7F81AA911A80EF040FB1AA857
:1092F0000EF034FB14A80BA90EAA01230FF0EAF814
:10930000002317A811A914AA0FF0E4F8002117A848
:109310000A1C0EF000FB0121061C002217A80EF00B
:10932000FAFA0022041C022117A80EF0F4FAFC211C
:10933000071C8905301C08F0AFF908F05DFCFC2122
:10934000061C1A908905201C08F0A6F908F054FCA8
:10935000FC21041C1B908905381C08F09DF908F0BD
:109360004BFC862189008C46049A031C6244311C04
:109370001C90101C221C00F021FD281C0FF05CFC2E
:1093800009A90AA80FF06CFA00231E4A00930AA943
:109390000192281C1A1C01F02BFE0AA80FF053FAA8
:1093A000281C0FF049FC17A80EF0D8FA14A80EF0EC
:1093B000D5FA11A80EF0D2FA0EA80EF0CFFA09A82D
:1093C0000FF041FA08A80FF03EFA0BA80EF0C6FA0B
:1093D00027B0F0BD04986421013CFFF72FFE002C5C
:1093E00000D06DE67BE6C046F0BF02002DC0020053
:1093F00072C0020014230020E0FCFFFFB022002016
:1094000038210020DC050000F0B5F324214DA40034
:1094100028598DB0002835D003F0A8FB836D9B0739
:1094200030D52C5902AE0C220021301C11F01DFC4D
:10943000201C03F0ABFB07AC231C174F01900297D5
:1094400007CE07C3142001F08DFF031C079746CCFD
:1094500046C3124BC36000230361019BA4331A6807
:10946000002A00D002611860F3239B00E85803F043
:109470008DFB036813215B6A9847FA21281C890039
:10948000FFF7DCFDBFF34F8F054A064BDA60BFF3F1
:109490004F8FFEE738210020A58E01004D7302009A
:1094A0000400FA0500ED00E038B500230360F32363
:1094B000124A9B00D358002B08D00421041C0DF045
:1094C00043FF002819D00E4B236016E0012204212F
:1094D0000C4B1A60036800240B4A54605568094C11
:1094E000002DFBD0A122D200A2581B020139134348
:1094F0000029F0D103600123636038BD38210020CA
:10950000ED5EBC0B00D00040FCD0004038B5051C1F
:10951000EC30041CD4352868002802D003685B684E
:1095200098470435A542F6D10121024A13788B43AE
:10953000137038BD012A002008B5024801F0ECFD87
:1095400008BDC0463C220020F0B587B01F1C0EAB02
:109550001B88019003930D9B0D1C02920C9E00939F
:10956000002F39D0002E01D1DB0735D5202001F0A6
:10957000F9FE041C103000F057FC6B461B89258057
:109580006380182001F0EEFE0496061C051C009B6B
:1095900080C600211022301C059311F066FB04A93F
:1095A0000822301C11F044FB0D4B00226B6102239A
:1095B0000399A5600B43E260A380E2610198211C3E
:1095C00000F066F9002808D0201C0FF0A0FB201C3A
:1095D00001F0ECFE034800E0034807B0F0BDC046D0
:1095E0009773020013FCFFFF17FCFFFFF0B5041C8C
:1095F00089B021490DF0FEFE201C20490DF01CFF12
:10960000201C1F490DF018FF1E49201C0DF014FFEF
:10961000201CFFF749FF00250627201C1A4B0C30A1
:10962000A3621A4B1A49A36367606462E56210F093
:10963000B8FF184A059504926A46261C04AB03CB72
:1096400003C2C023EC36029305213A1C231C301CB4
:10965000FFF77AFF104A079506926A4606AB03CBDE
:1096600003C2C023301C02930C491A22231CFFF7AB
:109670006BFF09B0F0BDC0463C220020142300203F
:109680005023002024220020498E01005B73020039
:1096900070170000699001006F730200FD03000065
:1096A00030B5C369C2681B6885B0041C451D1A42E9
:1096B0004BD0EB7F002B01D0013BEB77EB7F082BEE
:1096C0000DD90123A2791A4209D11A43A271A188A6
:1096D0001A1C02A800F0C6FB1F4B1B682362EB7F1D
:1096E000012B1DD80123A2791A4219D00022A1888A
:1096F000A2716846023200F0B5FBA31DDB7F012B8F
:109700000ED1154A216A12681448521AA188824261
:1097100002D902A8042201E0032202A800F0A2FB61
:109720000323A2791340012B14D10B49206A096845
:10973000091A0B4881420DD902210A43A271A1885E
:1097400002A8052200F08EFB04E0EB7F0B2BB5D8BE
:109750000133B2E705B030BD6C250020E7030000FF
:10976000DB05000010B5041C044B211C083303600A
:1097700003480DF050FE201C10BDC04620B1020071
:1097800038210020F0B5071C0025161C85B0029377
:109790000AAB1B7808370393114B041C0833036092
:1097A000019185808571291C381C182211F05DFA01
:1097B000381C311C039A10F07CFF6B466A469B886C
:1097C000127AA380A31DE671DA77631D2562211C3E
:1097D000DD7704480DF00EFE201C05B0F0BDC0463C
:1097E00020B102003821002010B5041C044B211CBC
:1097F0000833036003480DF030FE201C10BDC04646
:1098000040B10200382100200023054A838008323D
:10981000837102608360C3600361C3827047C04686
:1098200040B10200F7B50D1C012684680192002C9E
:109830002AD023882A889A4201D0002B22D163881B
:109840006A889A4201D0002B1CD1C023A288134001
:10985000C03B59424B4101998B4212D113B2002BAC
:109860000FDB231C291C103381C981C3530603D588
:10987000201C0DF022FE05E0211C044800F0FCFC39
:1098800000E00026E469D2E7301CFEBDBB74020094
:10989000F7B5002952D00D1C061C8468002C19D085
:1098A000AA880023920702D5A3889B07DB0F2268B2
:1098B00029688A420CD1002B06D0A068A9680FF055
:1098C00083FA00283CD103E0A368AA68934237D00A
:1098D000E469E3E7B0682A88071C031E22D01988D0
:1098E000914205D2D9691F1C00290DD00B1CF6E747
:1098F000191C3B1C08E00C88944207D14F886C88E7
:10990000A74203D20B1CC9690029F4D183420BD1B1
:1099100019888A4205D3914206D1588869888842BD
:1099200002D9EB61B56002E0D969E961DD616846A1
:109930000849012300F096FA002009E0064807E0F4
:10994000A3881AB2002A02DA5B045B0CA3800348E6
:10995000FEBDC046FD03000017FCFFFF16FCFFFF25
:10996000F0B585B01E1C0AAB1B88071C0D1C0292AB
:109970000393002E1AD0202001F0F4FC6B46041C47
:109980001A89039BA9B20093331C0FF0A9F9381C64
:10999000211CFFF77DFF00280BD0002C08D0201CD5
:1099A0000FF0B5F9201C01F001FD01E0024800E0D4
:1099B000024805B0F0BDC04617FCFFFF13FCFFFFD7
:1099C00070B5002926D00D1C00268468002C1ED0FE
:1099D0000222A988A3884B40134216D1114203D119
:1099E000AB889B0707D510E0A068A9680FF0ECF9D9
:1099F000002804D1F4E7A368AA68934205D12B8814
:109A0000002B09D022889A4206D0E469DEE7201CA8
:109A1000002E0DDC07480BE06B88002B02D062881B
:109A20009A42F2D1A388044A01361343A380ECE79B
:109A300070BDC04617FCFFFF0080FFFF10B5041C7F
:109A40008AB0002B0FD0102092B289B2009002A8E9
:109A50000FF046F902A9201CFFF7B2FF02A80FF091
:109A600056F9002000E001480AB010BD17FCFFFFC6
:109A700010B5041C044B211C0833036003480DF08F
:109A8000ECFC201C10BDC04660B102003821002053
:109A90001FB503AB5A700022197001890092034868
:109AA0001A1C0223FFF700F905B000BD7421002045
:109AB000F0B5151C0F2285B06A44071C1C1C1170E0
:109AC000002D16D0002B14DD01230B4E01890093CD
:109AD000301CFFF7E9F8002801D008480AE039896E
:109AE0002A1C0090231C301CFFF794F8002801D09A
:109AF000F3E7034805B0F0BD742100200EFCFFFF22
:109B000017FCFFFF7FB5002303AC104D21700189C6
:109B1000061C0093281C221C0133FFF7C5F80028FF
:109B200001D00B480FE02070607031890090221C3A
:109B3000281C0223FFF76EF80028F2D12078637802
:109B40000002184300B204B070BDC046742100206A
:109B50000EFCFFFF13B56B46DC1D0023221C237097
:109B60000133FFF7A5FF002801D1207800E001486C
:109B700016BDC0460EFCFFFFF8B510210022041CE4
:109B8000FFF786FF1D4E002835D1201C0821FFF766
:109B9000E1FFB0422FD00325054027D1FA23184A10
:109BA00061899B005943131C50331E1C083A1F68DF
:109BB000181C8F4203D3083B061C9342F7D1FA21AD
:109BC0003068890006F0E2FF11216081A022201C8C
:109BD000FFF75EFF00280ED101223379201C1A43C3
:109BE0001021FFF755FF002806D004E06421054846
:109BF000FFF724FAC9E7014D281CF8BD0EFCFFFF52
:109C000030B7020038210020F8B5051C0F1C0021D8
:109C1000144B24350833041C161C03601822818061
:109C20008171C160016141618161C1610162281C72
:109C300011F01BF8281C1D2110F036FD01256423AE
:109C4000A7802681A5716381201CFFF795FFA3796A
:109C5000054AAB43A37108239168201C0B43936012
:109C6000F8BDC04660B1020038210020F7B5837905
:109C700002271D1C3D4013D10126041CB3433B4366
:109C8000837181880622331C684600F0EBF8A379C3
:109C9000281C1A1CBA43A271334202D1014800E0C9
:109CA0000148FEBD14FCFFFF15FCFFFFF0B58379F2
:109CB00085B09A0775D4041CDB0701D4FFF7D6FFE3
:109CC000394D281C0EF023FD071C281C0EF016FD34
:109CD000A369E268061C981A07F0AEFF226A63695E
:109CE000051C981A07F0A8FF0290381C0AF082F8A9
:109CF0000090381C0AF03AF80190301C0AF07AF80B
:109D0000071C301C0AF032F800990390029807F003
:109D1000C3FC0199061C281C07F0BEFC011C301C6A
:109D200007F0ECFD2369061CE069181A07F084FFB0
:109D3000039907F0B1FC391C041C281C07F0ACFC8B
:109D4000009907F0A9FC011C201C07F037F9391C09
:109D5000041C029807F0A0FC019907F09DFC011C6F
:109D6000201C07F02BF9011C301C0AF089F80F4960
:109D700007F092FC09F0DCFD0D4A0E4B08F014FBD5
:109D800009F02AFE0021041C07F0D2F8002804D0B4
:109D9000201C064907F012F9041C201C07F02CFFB8
:109DA00000E0054805B0F0BD142300200000B443D6
:109DB000EA2E4454FB21194015FCFFFFF0B587B093
:109DC00001AD071C05A8161C6A60AB6000930191E9
:109DD0000FF00BF805A801F03BFB019B426B041C44
:109DE0009A4213D1826BB24210D1C26B00998A425F
:109DF0000CD1201C01F0DAFA3B1C0C3307CD07C351
:109E00000122BB791343BB7107B0F0BD054A636300
:109E1000009B2260A663E36305A8211C0EF0E6FF09
:109E2000E7E7C046FECAFECA002303804380024B18
:109E30001B6843607047C0466C25002008B5031CB2
:109E4000012904D1064806CB0DF0B0FB06E002293B
:109E500004D10348191C0022FFF7E4FC08BDC046EA
:109E60002422002010B54280054A041C126801809B
:109E70004260002B02D0191CFFF7E0FF201C10BD30
:109E80006C25002008B5031C024806CB0DF08EFBA4
:109E900008BDC04624220020F0B5061C0027204B38
:109EA00085B01C680290039185B2360C002C2AD034
:109EB000636D1C490193A36C9AB21B0C8D4211D1A6
:109EC00019498A420ED1002B01D0B34219D1002F7B
:109ED00017D1201C0DF003FC201C14490DF0ECFBE5
:109EE00001370EE0002A01D0AA420AD1002B01D08E
:109EF000B34206D1201C0DF0F2FB201C0B490DF0E3
:109F0000DBFB019CD2E70A4BEB18012B05D9094872
:109F1000291C321C084BFFF791FD05B0F0BDC0466F
:109F200070250020FE030000FF03000058250020DC
:109F300002FCFFFF24220020999E010010B572B69A
:109F40000B4B1C68002C03D0201C0DF0C8FB08E054
:109F500062B65C2001F006FA00215C22041C10F0BD
:109F600084FE0023E364034B201CE36310BDC04662
:109F7000642500200040002073B5FFF7DFFF124B7F
:109F8000124918600DF098FBFFF7D8FFC026104B60
:109F9000104D1860104B114C4363114B11498363F2
:109FA00000220096281C231CFFF7DAFC0096281CD0
:109FB000231C0D490022FFF7D3FC01230B4A9168B3
:109FC0000B43936073BDC0465C25002058250020DC
:109FD0006025002024220020FC3F0020999E0100E3
:109FE0007B770200FF030000FE0300003821002001
:109FF0000D4B70B50D481C680DF040FA0C4B1D1C44
:10A000001A6880181860002C0DD02B68A26C666D41
:10A01000934206D3201C0DF062FB201C05490DF075
:10A020004BFB341CEFE770BD682500203821002071
:10A030006C25002058250020F7B5002801D100200C
:10A0400019E00029FBD00193171C0D1C061CFFF71B
:10A0500075FF041EF3D0084B019A43630660456008
:10A060008760064B002A00D0054B201CA3630549DE
:10A070000DF022FB201CFEBDFC3F00204F770200AC
:10A080006577020058250020024B1868434258416A
:10A090007047C0465825002010B5094C201CFFF71A
:10A0A00035FA084B1B68002B08D1F3239B00E058BE
:10A0B000002802D002F09AFD00E030BF10BDC0467B
:10A0C00038210020582500200121F8B52F4E346892
:10A0D000351CE36C0B4218D002252B43E3640423A8
:10A0E0002B4F3868C26C1343C364636BC3630DF0BA
:10A0F00015FB3B68181C596C02F0A7FC3068C36C58
:10A100002B4241D002F0DBFC3EE0224F224E3A6867
:10A11000002A03D021480078084201D0326806E0C6
:10A12000216DB94203D1616D002900D00A1C2A605B
:10A130002A6831688A420CD11B070AD52C60FFF7C8
:10A14000ABFF3B68002BFAD0144A1278D207F6D442
:10A150002B602B68A34217D03268934204D1104A77
:10A160005A63104A9A6305E0944203D10020191CF7
:10A17000021C06E0201C0DF0D1FA2B68201C191CD3
:10A18000626C5B6C02F020FCF8BDC0465C250020D0
:10A19000742500205825002060250020012A002079
:10A1A000FC3F00207B77020038B50D4B051C1C6876
:10A1B000E36CDB0706D5FFF7C1FE0A4B18600028E9
:10A1C00000D0041C084B18682818A064201C0DF04F
:10A1D00086FA201C05490DF06FFAFFF775FF38BDB0
:10A1E0005C250020742500206C25002068250020B7
:10A1F000134B73B51C68051CE36C0E1CDB0706D5FE
:10A20000FFF79CFE0F4B1860002800D0041C33049D
:10A210002B43A364201C0DF062FA201C0A490DF0A8
:10A220004BFA0A4BEB18012B07D9C02308480093BF
:10A23000291C321C074BFFF793FBFFF745FF73BD4B
:10A240005C250020742500207025002002FCFFFF03
:10A2500024220020999E010010B5054C20680DF0C5
:10A260003EFA206803490DF027FAFFF72DFF10BDD5
:10A270005C25002064250020F7B5002829D007269A
:10A28000154F041C38680D1CC36C1E4005D0201CE3
:10A29000124A0DF03BFA00261CE002F0F8FB022106
:10A2A0003A68D36C1940019103D003218B43D364E6
:10A2B00010E001263343D364281CA0473A68D36CCE
:10A2C000191CB143D164019E5B0703D5FFF7C4FF9E
:10A2D00000E0034E301CFEBD5C2500205D770200CF
:10A2E00017FCFFFF10B5041C002902D00B78002BCF
:10A2F00002D1034B236001E00DF04CFA201C10BD8D
:10A3000088B70200F8B5051C0E1C141C002908D0E3
:10A310000B78002B05D0081C97B210F0BFFD8742C8
:10A3200002D90B4B2B6010E0601D01F01BF8286078
:10A330000EF024FD2868221C4780311C043010F0E8
:10A3400077FC2B681C1900232371281CF8BDC0461C
:10A3500088B70200014B03607047C04688B702000F
:10A3600010B50548054C20600EF00BFD201C04497B
:10A37000044A10F053FB10BD88B702007825002076
:10A38000877702000020002010B5041C044B211C1C
:10A390000833036003480DF060F8201C10BDC04670
:10A3A00080B10200382100201FB503AB5A70002293
:10A3B00019700189009203481A1C0223FEF774FCED
:10A3C00005B000BD74210020FA2370B52A4A4189E6
:10A3D0009B005943131C3833041C181C083A1D6891
:10A3E0001E1C8D420CD2061C244B227B1D1D082AEC
:10A3F0000BD8042A09D89D1C022A06D81D1C04E08B
:10A40000083B301C9342EAD1EEE7FA21306889001C
:10A4100006F0BCFB60812B78201C23732A210022CC
:10A42000FFF7C2FF002801D0154824E0201C2B2193
:10A430001022FFF7B9FF0028F6D1201C2D210122A0
:10A44000FFF7B2FF0028EFD1201C2E210122FFF7D9
:10A45000ABFF0028E8D16A78201C0E21FFF7A4FF8B
:10A460000028E1D101223379201C1A432A21FFF769
:10A470009BFF0028D8D170BD90B702008AC00200AF
:10A480000EFCFFFFF0B5151C0F2285B06A44071CB7
:10A490001C1C1170002D16D0002B14DD01230B4E57
:10A4A00001890093301CFEF7FFFB002801D008480B
:10A4B0000AE039892A1C0090231C301CFEF7AAFBF5
:10A4C000002801D0F3E7034805B0F0BD7421002057
:10A4D0000EFCFFFF17FCFFFFF7B5061C00251A4B0B
:10A4E00014360833041C03600F1C01928580182267
:10A4F0008571C58105824582291C301C10F0B5FB91
:10A50000301C1C2110F0D0F86B469B88022623815A
:10A5100014236381231C032134331A79A780B243A7
:10A520000A40A5712673201C1D705D709D701A7104
:10A530005D71FFF749FFA84203D1044A9368334392
:10A540009360201CFEBDC04680B10200382100206F
:10A55000F7B5041C0EF02DF8251C00900E23E25ECA
:10A560005B4F52423835BA4205DA022329780B4054
:10A5700000D083E008E0FA21002389008A4203DD4D
:10A580002B789B077AD500231020215E4942B942DF
:10A5900003DA2E7870077DD406E0FA26B600B142C1
:10A5A00002DD2E78700775D51220265EBE4203DAD2
:10A5B0002F7838077AD406E0FA27BF00BE4202DDC2
:10A5C0002F78380772D5002B13D0251C38352B78FF
:10A5D0009C461B09032B0CDC0F2701333B40180161
:10A5E000019060463840071C019807432F70042BE8
:10A5F00066D0231C39331B7838340133DBB2092B86
:10A6000001D8637014E00023637023789C461B0913
:10A610000ED00F2560460F3328402B40051C1F012C
:10A620003D432570002B03D1EBB20125AB432370D2
:10A63000012724780B233C4047D1264D0098043B4A
:10A64000A84242DD9025DB192D04A8423DDC224DB5
:10A65000053BAA4239DBC820DB198000824234DC8A
:10A66000023BA94231DB3B1C81422EDC0433AE426B
:10A670002BDBDB19864228DC231C26E00123181C77
:10A6800029784E08B043061C02209E408143314386
:10A69000297079E701202E78B30898438300181CAD
:10A6A00004239E4306432E7001237DE701272B7868
:10A6B000D80887430820FF0083433B432B7084E77F
:10A6C00001272B783B432B7093E7181CFEBDC04637
:10A6D00018FCFFFFFF700200E0FCFFFF7FB50121C7
:10A6E0006A460623041CFFF7CDFE051E22D16B46E9
:10A6F00002216846012659561B79227B5BB25343DF
:10A700000078514340B242439BB2DB006382A3799D
:10A7100089B2D200B343E281CA002282A371201C15
:10A720000DF053FFA18802A8321C331CFFF79AFBDF
:10A73000281C00E0014804B070BDC0460EFCFFFFBD
:10A7400008B50DF0DBFF064906F0A6FF09F0F0F8AA
:10A75000044A054B07F028FE09F078F808BDC0460A
:10A760000000B443EA2E4454FB21194008B50DF013
:10A77000CEFF064906F090FF09F0DAF8044A054BCF
:10A7800007F012FE09F062F808BDC0460000B443AD
:10A79000EA2E4454FB211940034B1A6883680020B9
:10A7A0009A4240417047C0466C250020084B10B5C6
:10A7B00008330360FA23041C00229B00827181800D
:10A7C000C3608260211C03480CF036FE201C10BDC3
:10A7D000A0B10200382100201FB5F323154A9B00C9
:10A7E000D358041C002B03D001A80DF099FF0EE0F4
:10A7F0000122114B1A60114B5A68002AFBD000222B
:10A800005A600F4B01321B6801930B4B5A60019B3E
:10A81000A188DA17920FD3189B102382094BE268A4
:10A820001B6802A8D3180122A360131CFFF71AFBB0
:10A830001FBDC0463821002000C00040FCC00040C1
:10A8400008C500406C25002008B5044B82681B68D1
:10A85000934201D3FFF7C0FF08BDC0466C2500201E
:10A8600010B5002810D0041C10F018FB431E201C4B
:10A87000E318984206D202781978013B01705A70A9
:10A880000130F6E7002000E0004810BD17FCFFFF94
:10A89000F7B5C743051C0E1CFF0F002925D0002F5C
:10A8A00000D0454200240134631EF318281C0A21FD
:10A8B0000193009406F0E0FACB17C9185940019BA8
:10A8C00030311970281C0A2106F0F0F9051EEAD172
:10A8D000002F03D12D23009A0134B3540025301CDE
:10A8E0003555FFF7BDFF281C00E00148FEBDC046FE
:10A8F00017FCFFFF014B03607047C046D0B7020052
:10A9000030B504686088814206DAA588AA4203DA75
:10A91000002901DB002A01DA034804E050436118F2
:10A9200008188371002030BD17FCFFFFF0B5071C2D
:10A9300085B00D1C1E1C002921DD002B1FD00468D2
:10A9400063880391994200DD0393A38802929A429F
:10A9500000DD0293002306340193019B029A934287
:10A960000BDA201C311C039A10F062F93B6876194F
:10A970005B88E418019B0133EEE7002000E001480A
:10A9800005B0F0BD17FCFFFFF8B5041C0E1C151C2C
:10A990001F1C002901DB002A02DA0D4B236015E0A1
:10A9A000101C4843063000F0DDFC20600EF0E6F994
:10A9B0002368201C5E809D80002F05D0311C2A1C3E
:10A9C0003B1CFFF7B3FF01E00DF052FFF8BDC0469E
:10A9D000D0B70200F0B5061C87B00C1E05D00020D1
:10A9E0000F1C051C0190011C15E0224B03603EE08A
:10A9F0003022524294469C446246092A14D90A2BBA
:10AA00000DD1019B2D1801330193A94200DA291CB5
:10AA10000020051C01373B78002BE9D106E0002817
:10AA2000F8D001350020F5E70120F3E76A46928867
:10AA300009B212B2301CFFF7A7FF33689D1D03ABAC
:10AA40001F1C2278002A12D0111C3039092902D883
:10AA50001A70013309E000221A70BB4205D9381C74
:10AA600010F000F83B1C287001350134E9E7301C78
:10AA700007B0F0BDD0B70200F0B5041C87B00F1CC2
:10AA800004A82249151C1E1C0EF0DBF823685A8806
:10AA9000954208DA9B889E4205DA1F2F03D9059B51
:10AAA00000939F4201DD1A482DE0052300217B43DE
:10AAB0000193049B0293019B029ACB18A03BD35CA9
:10AAC000002203938B199C465319276800937888BA
:10AAD000834202DABB889C4507DB0132052AF3D1A9
:10AAE00001310529E7D100200DE063465843009B62
:10AAF000FB18102717411818039B1F407B1E9F410E
:10AB00007F428771E9E707B0F0BDC0463C220020D4
:10AB100017FCFFFFF7B503689E1D5B885A1A019268
:10AB200000291CDD0C1C051C0027994202DB0DF0DE
:10AB30009FFE12E02B689B889F420EDA3119301C71
:10AB4000019A10F075F8019B211CF0180DF082FE9F
:10AB50002B6801375B88F618ECE7002000E001481D
:10AB6000FEBDC04617FCFFFF10B50548054C206030
:10AB70000EF007F9201C0449044A0FF04FFF10BDE6
:10AB8000D0B702007C25002047880200002000206A
:10AB9000054B1A78F0231343044A13701F22C37A1B
:10ABA0001343034A1370704710050050040500500A
:10ABB00005050050F0B5041C85B000252A1C636F04
:10ABC000A17A06330293E37949009C465B00009327
:10ABD000637A01310393A37B277B0193304B591890
:10ABE0004B1E1B780878012F05D16646013E361AA8
:10ABF000181C331C0FE0022F06D16646013EF31AE3
:10AC0000267A013E301A06E0032F04D1267A013E4F
:10AC1000F61A031C301C009E7043C3180298C31818
:10AC20001E780398864201D9231C09331B780198AA
:10AC3000034202D00123AB401A4301350631092DEE
:10AC4000CED1D2430F21174B10011B78D2050B40F8
:10AC500003431549DBB20B70E37AD20E1A43134B50
:10AC60001A70E37B072B18D8A27B581C5200A273E2
:10AC70000F499A00E073022B03D888580FF0A3FD08
:10AC80009BE70C4B201C2363002363630A4B89580A
:10AC9000E462236414300FF084FC05B0F0BDC046BC
:10ACA00090C002001005005004050050050500503A
:10ACB000D8B70200B5AB0100B789020010B5041C7B
:10ACC000044B03600FF065FC201C05F0FBF8201C12
:10ACD00010BDC04660B6020010B5041C0F4B211C0D
:10ACE000083303600E480CF096FB201C74300DF006
:10ACF000AAFD201C64300DF0A6FD201C5C300CF079
:10AD000042FD201C54300CF03EFD201C054B14303D
:10AD10006361FFF7D3FF201C10BDC046C0B1020025
:10AD20003821002078B60200F7B50025041C1F1C4E
:10AD3000254B85800833036085711430161C019102
:10AD400005F0AAF8201C214BE562636125644430BC
:10AD500001F0CCFE201C5430FFF7FCFA201C5C30C4
:10AD6000FFF7F8FA201C6430FFF7C4FD201C7100C7
:10AD700074303AB20DF085FD04231A1CA021032083
:10AD8000C132FF329200C90501335050112BF4D16A
:10AD900020226B46E2721F3A9B88A273FE326272D7
:10ADA000221CA38000234C32E6712772A372237306
:10ADB000E373237463731370054AE3669168043385
:10ADC0000B43201C9360FEBDC0B1020078B60200A8
:10ADD00038210020F7B5437A002B69D0436F077BF9
:10ADE00006330193C3799C465B000093827A314B12
:10ADF000520001329A1800231E1C511E0C78117843
:10AE0000012F05D16546013D6D1A211C2C1C0FE058
:10AE1000022F06D16546013D2C1B057A013D691ABA
:10AE200006E0032F04D1057A013D2D1B0C1C291CC3
:10AE3000009D6943019D2C19615C002902D001210C
:10AE4000B1400B4301360632092ED6D1DB430F2128
:10AE5000041C194A18011278DB050A4002431749FD
:10AE6000D2B20A70E27ADB0E1343154A1370667A87
:10AE7000B31EDBB2FC2B15D812480CF0FFFA124BB4
:10AE8000051C2363002311486363114BFF21E46217
:10AE90002364704305F00AFF011C201C6943143031
:10AEA0000FF07FFB637A012B02D8201CFFF770FEA6
:10AEB000F7BDC04690C002001005005004050050C8
:10AEC000050500503821002091AB0100B6030000B9
:10AED000B789020007B501228188131C6846FEF776
:10AEE000C1FF6846024902220123FEF7BBFF07BDEE
:10AEF000FE030000154B10B59B685B0725D5427B10
:10AF0000041C022A02D10DF07CFE1EE0C37A5B0015
:10AF1000C372837A0133DBB2032B01D0837203E067
:10AF2000002383722033C372002A02D1201CFFF752
:10AF300051FF637B012B05D1A3730023201CE37316
:10AF4000FFF738FE201C0DF029FE10BD382100202F
:10AF5000031C13B54C331A78041C002A0DD00022B0
:10AF60001A7001328188131C6846FEF77BFF684621
:10AF7000044902220123FEF775FF201C74300DF0F6
:10AF800077FC13BDFF03000008B54C300378012B9C
:10AF900003D902480221FFF72BF908BDFF03000087
:10AFA00073B5079E041C002E1ADB051C4C3528784F
:10AFB000012817D806981BB2C0B20090201C12B20C
:10AFC00074300DF065FC0023301E98420BD0221C1B
:10AFD0004E321680062250342380181C2A7002E05C
:10AFE000014800E0014876BD17FCFFFF12FCFFFF9F
:10AFF000F0B587B00D9D002D22DB041C0393029257
:10B000000E1CFFF7C1FF231C4C331F78002F19D1F2
:10B01000311C05A80DF024FC0C9B05A90093029A95
:10B02000039B0195201CFFF7BBFF05A80DF00BFC4F
:10B03000281E08D006200121FFF7DAF8381C02E0AC
:10B04000024800E0024807B0F0BDC04617FCFFFF11
:10B0500011FCFFFFF8B5041C171E19DD061C4C3649
:10B060003378012B16D8021CC3795A32013B137076
:10B07000031C002558331D8054300CF0E1FB231CC9
:10B080004E331F80022350342580281C337002E089
:10B09000014800E00148F8BD17FCFFFF12FCFFFF6C
:10B0A000F7B5002A1BDD051C171C0E1CFFF76CFFF3
:10B0B0002B1C4C331C78002C13D1311C01A80CF034
:10B0C000B7FB01A93A1C281CFFF7C4FF01A80CF02C
:10B0D0005AFB06200121FFF78BF8201C02E00248F2
:10B0E00000E00248FEBDC04617FCFFFF11FCFFFF59
:10B0F000FF2902D84172002000E001487047C04695
:10B1000017FCFFFF0421034A93680B4201D08B43D5
:10B110009360704738210020F0B589B002900D1C73
:10B1200072B6FF2200238A425B4102985B421D40B7
:10B13000FFF7E8FF029B1E7C002E00D10136434B37
:10B140001022002104A81F680FF08FFD404B281C1F
:10B150006421049305F0AAFD0A2105F08DFE052463
:10B160006143503179180591281C0A2105F09EFD94
:10B170000A2105F081FE6143503179180691281C9F
:10B180000A2105F079FE4C4350343F192025002454
:10B19000079700230093FA235B000193032C01D14E
:10B1A00020250024009A04ABD3582A4A0393630055
:10B1B0000133D3180022944619780398405C591E35
:10B1C0000F7810213941014204D00121604691409D
:10B1D0000843844601320633092AEDD1F0231E4884
:10B1E0001E4A0370D13B191C294311706146C943A3
:10B1F0000F01FFB20770FA2709110B402B431370A0
:10B20000BF0017480FF0D4F8002801D1FEF7FCF872
:10B21000013F002FF5D1019B6D000134013BEDB2E0
:10B22000E4B20193002BB9D1009B04330093102B9F
:10B23000B1D1029B1B7C002BABD0013EF6B2002E9D
:10B24000A7D1FEF7E1F809B0F0BDC0460C20002000
:10B25000C6C0020090C00200040500500505005061
:10B260000825002030B50024034D847105608180DD
:10B2700042730373846030BDE8B1020010B5041C52
:10B28000002304F091FDE121054B201C2360054BB8
:10B2900049022364044B63640FF00FF9201C10BDB6
:10B2A000A8B00200C0B00200F4B00200034A044B90
:10B2B0004260044A036000201A60704700200020AA
:10B2C00008000020FE07008070B5051C04200AF06D
:10B2D000C9FA061C1448801B06F0F6FC08F028FB8F
:10B2E000124B002207F09EFC05F04AFE0323984310
:10B2F000041C301C0AF0C0FA286800280AD1201C5F
:10B300000AF0B0FA28600028F6D1203C002CF3D1D6
:10B31000074807E0A408A40004196C60281C0DF07D
:10B3200096FC002070BDC046003800200000E83FB9
:10B3300013FCFFFF10B572B6084C201CFFF7C4FFCA
:10B34000002805D1201C0830FFF7B0FF002802D0EC
:10B3500062B6034800E062B610BDC04680250020FA
:10B3600013FCFFFF38B5104C051C2368002B04D0DC
:10B37000211C0DF074FC002809D1A368002B08D013
:10B38000211C281C08310DF06AFC002801D0041C87
:10B3900007E0281C0AF066FA041E02D11420FDF70B
:10B3A0008DFD201C38BDC0468025002008B5002832
:10B3B00015D00B4B1A68904202D95A68904208D3B4
:10B3C0009A68904202D9DB68984202D30AF054FA94
:10B3D00005E08023043802681B061343036008BDA0
:10B3E0008025002008B5084A03880120934209D02F
:10B3F000834202D00020DB0704D404481E21FEF75C
:10B400009BF8002008BDC046FFFF00003821002047
:10B4100002200D4A0D4B30B59850101C8022D200EE
:10B420009C58002CFAD0A124084DE40029519958C9
:10B430000029FCD00021054A11508022D2009A58E0
:10B44000002AFAD030BDC0460405000000E00140EB
:10B45000802370B55B0544201D695E69FFF782FF9C
:10B4600000214422041C0FF000FC311C133944223B
:10B470006943201C0FF0DCFB054B22689A4204D084
:10B48000201C002144220FF0F0FB201C70BDC046A0
:10B49000FECAFECA30B501240A480B4B1C50041CDE
:10B4A0008020C0001D58002DFAD00A601A58002ACA
:10B4B000FCD00021044A11518022D2009A58002A5F
:10B4C000FAD030BD0405000000E0014010B5054C85
:10B4D0000121201C0DF0C7FC201C0349034A0FF07A
:10B4E0009DFA10BD90250020278E0200002000202C
:10B4F00010B5041C054B0833036014300CF043F9FD
:10B50000201C10300CF03FF9201C10BD00B20200CE
:10B51000FF23F7B51D4D01AE2B700023041C311C19
:10B520000088019304F0A6F8002801D1B3782B70AD
:10B530002B78032B06D9002120880A1C0B1C0DF048
:10B540009DFC22E00C2768460DF04FFC6846FFF793
:10B550007FFF29780E4B794341184A68061C002565
:10B560009A420DD120880831082201230DF086FC73
:10B570000135002804D12088391C064A0DF07CFCD6
:10B58000301CFFF713FF002DD5D0F7BD8820002019
:10B59000FECAFECAFFFF000038B5041C8068002800
:10B5A00008D0074B1D8801F0F1FA0368291C1B6ABB
:10B5B00015229847211C03480BF04FFF38BDC046A9
:10B5C0008E29002038210020F8B58C1EE4B2051C1D
:10B5D000069E132C22D80120071CA7403C1C244F98
:10B5E0003C421BD0E97F5C1869181F2C3EDC701CA4
:10B5F000814203D90878C8540139F8E70021C8B25C
:10B60000984204D2545C701884700131F7E73278A4
:10B610009A183270EA7F9B18EB770DE03478013C82
:10B62000E4B2A3420AD10021C8B2984204D2545CC9
:10B63000701884700131F7E7002017E0EF7F0120D8
:10B64000DF193F1B1F2F11DCA01C3618EF7FE819F4
:10B65000864205D23778301B023807700136F5E78D
:10B660003C1B023C281CEC770DF03DFCF8BDC046AD
:10B670003F000800F0B585B001930AAB1E880BAB04
:10B680001B78451C02930EAB1B78041C03930B78AC
:10B69000171C03704B8A102243820131281C0FF0C3
:10B6A000C7FA6B469B88268363836B461B7B002609
:10B6B00023776B4601221B7A6761E683EB77A31C35
:10B6C000DA770C9B0C256362231C201C0D9A28330F
:10B6D0001A705E709E70311C2A1C2C300FF0C5FA57
:10B6E000201C074BE663A363311C2A1C40300FF07B
:10B6F000BCFA201C034B2665E36405B0F0BDC046D0
:10B70000978E0200898E020038B50D1C01F03EFABA
:10B71000041C0368002D02D15B69984708E09B6810
:10B720009847854204D22368201C9B689847051CD3
:10B73000FA2080006843024905F028FAE08038BD0D
:10B7400071020000F0B5071C161CA1B002C7041C52
:10B750006A4918A81D1C0DF00CFC331E03D0301CC8
:10B760000FF09CFB83B2022201920022029203920C
:10B7700001320093049218A9321C381CFFF77AFF9B
:10B78000231C18A858335E4906930DF0F2FB2B1EBC
:10B7900003D0281C0FF082FB83B202220192002208
:10B7A0000292039201320093049218A92A1C06986F
:10B7B000FFF760FF231C18A8AC33524907930DF024
:10B7C000D8FB269B002B03D0181C0FF067FB83B21D
:10B7D000022201920022029203920132009304920B
:10B7E00018A9269A0798FFF745FF631CFF3318A88E
:10B7F000454908930DF0BDFB279B002B03D0181C77
:10B800000FF04CFB83B202220192002202920392BB
:10B8100001320093049218A9279A0898FFF72AFF8B
:10B82000231C5533FF3318A8384909930DF0A1FBA9
:10B83000289B002B03D0181C0FF030FB83B2022290
:10B84000019200220292039201320093049218A9FD
:10B85000289A0998FFF70EFF231CA933FF3318A875
:10B860002B490A930DF085FB299B002B03D0181C54
:10B870000FF014FB83B202220192002218AD029253
:10B8800003920132009304920A98291C299AFFF727
:10B89000F1FE204B1B780B93002B2CD1069B1297AB
:10B8A0001393079B0DAF1493089B1B491593099B9A
:10B8B000381C16930A9B12AE17930DF05AFB4920C1
:10B8C0001D213B7810222B707B8A6B8206ABC91836
:10B8D000C0180FF0ADF906232B756B469B8D2068C1
:10B8E000AB83AE6101F062F90368291C1B689847BD
:10B8F0000122084B1A70201C21B0F0BD292A00003B
:10B90000242A0000252A0000272A0000262A0000F9
:10B91000282A0000022A00200A18000038B5002555
:10B92000041C094B85800833857103601030FEF7D5
:10B9300011FD201C1430FEF70DFD044BA560E560E1
:10B94000201C1C6038BDC04600B2020094250020B7
:10B95000F0B5082787B002AB9A1C0088012304A920
:10B9600017800DF08DFA194C2378032B25D802A8E7
:10B970000DF03BFA02A8FFF76BFD0C232478144E60
:10B980005C430419E31901936368051CB34206D1B3
:10B99000019804A93A1C0FF03CF900280AD02E6047
:10B9A00004A96660019808220FF042F902A8291C38
:10B9B0000DF01CFA281CFFF7F9FC064B186800284C
:10B9C00001D00DF010FB07B0F0BDC046882000206C
:10B9D000FECAFECA9425002010B507290CD880683D
:10B9E0000C1C01F0D3F8054A036811575B6C9847AB
:10B9F000002802D0024800E0024810BDC2C1020087
:10BA000016FCFFFF17FCFFFFF0B58E4C0D1CA54484
:10BA1000041C8D4909A805930792FEF763FC201CBE
:10BA2000291C14300BF00CFFC020800001F0DCFC5E
:10BA30000820FFF797FC071C002101F05FF815AD07
:10BA4000A76000210C220EA80FF00FF92B1C0EAAE4
:10BA500043CA43C37D4B381CEB600023291C2B6178
:10BA60000DF0F8FBA06801F091F800210C2206907F
:10BA7000281C0FF0FAF81420FFF774FC744B2A1CF2
:10BA80001593031CC2CAC2C3724B069FC360002336
:10BA9000A43703613B68002B00D003613860A068C5
:10BAA00001F084F800210C22061C281C0FF0DDF8A0
:10BAB0001420FFF757FC684B1593031C86CD86C3F3
:10BAC000664BC36000230361336B002B00D003611E
:10BAD000012504AB1B7C04AA2B43306308A9281C56
:10BAE00013740DF0CFF9A06801F070F803685C4999
:10BAF0005B6A9847A06801F069F8036859499B6937
:10BB00009847A06801F062F8002302680093166865
:10BB100005992A1CB047059B002B0AD0201C0DF06C
:10BB20006BFA032805DDA06801F050F80368DB68B4
:10BB300098472F254B2604ABED18F618E81F07355C
:10BB40000DF0C7F9B542F9D104260EAB0A93A068EF
:10BB500004AB5E7701F03AF803680AA91B699847BD
:10BB6000A06801F013F803680AA95B6D9847A06804
:10BB700001F00CF803680021DB6D9847A06801F024
:10BB800005F8036802219B6D98470021201CFFF7F0
:10BB900023FF1820FFF7E6FBA16800F03FFA079BA0
:10BBA000A1681B6815A89B1900932F4B0CAD1B684F
:10BBB000002701932D4B1B6802932D4B1B680393A9
:10BBC0002C4B1A682C4B1B68FFF7BCFD2C20FFF791
:10BBD000C9FBA16800F0B4FBA06800F0D7FF0368C0
:10BBE000291C9B6A98470823A0682B80DB186B8070
:10BBF000AF8000F0CBFF0368291CDB6A9847311C3B
:10BC0000A0680DF0C3F9099B09219A19A0689B78D7
:10BC10000DF0CFF9A06800F0B9FFC8210771A06846
:10BC2000FFF772FD04AB1B7FBB4204D0A06800F09D
:10BC3000ADFF0DF094F909A80BF0A5FD95239B002D
:10BC40009D44F0BDACFDFFFFCFC00200A58E0200F9
:10BC500051B901004D73020011B50100B38E02000D
:10BC60007DBC0100D1BC0100A025002004200020E3
:10BC70009C250020982500200820002013B50622CE
:10BC80006846FEF73FFB094B1C68002C0AD069464A
:10BC900001A80BF0CDFD201C01A90DF0C9F901A8E8
:10BCA0000BF071FD68460BF06EFD13BD942500206E
:10BCB00008B5002902D10223C36005E00A23011C54
:10BCC000C36002480BF0B8FB08BDC0463821002015
:10BCD000002373B501AE0C1C311C051C019303F04D
:10BCE000C9FC002802D1B278064B1A70064B1868BE
:10BCF000002806D061426141044BC9B21D80FFF7A4
:10BD0000D7FF73BD88200020942500208E290020B5
:10BD1000F0B5041C95B00D1C05A89E49FEF7E2FA8B
:10BD20009D4906A8FEF7DEFA221C0DAF1432381C1E
:10BD300005A90BF094FD06AA391C07A80BF08FFD8E
:10BD4000381C0BF020FD954908A8FEF7CBFAA06837
:10BD500000F01CFF332603685B69984702ABF618B6
:10BD6000F01F0DF0B6F84F2302AA07369B189E422B
:10BD7000F6D104230B9700270BAEA06873713771BF
:10BD800000F004FF0368311C5B6D9847A06800F069
:10BD9000FDFE0368391C9B6D9847A06800F0F6FE15
:10BDA000031C061C0A331F22391C181C02930EF0B8
:10BDB0005CFF029B301CDF770DF0C8F80621A068FD
:10BDC0000DF0E4F8079B09211A1DA0689B780DF07F
:10BDD000F0F8A06800F0DAFEC8210771A068FFF74C
:10BDE00093FCA06800F0D2FEFF260781A06800F057
:10BDF000CDFE0DF0B4F8281CFFF7AAF808A90AA890
:10BE00000BF016FD0AA97822281CFFF749F90AA8A9
:10BE10000BF0B9FC201C291C0DF012F903970297B6
:10BE2000E368DB073CD55E4909A8FEF7D3FD09A905
:10BE30000AA80CF015FD00230AA9009301931A1C0F
:10BE4000281CFFF7D5F80AA80CF0FDFC039B002B7B
:10BE500001D1043E00E00436282E09DDFE22002335
:10BE6000F10FB2424B41039A5B421A40039206E043
:10BE7000281C0CF0E1FE002E01DC0123039349484D
:10BE80000BF00AFB002806D00123E2689A43131C3A
:10BE900004221343E36009A80CF0D5FC00230293AD
:10BEA000E3685B072ED5281CFF21FFF721F9002747
:10BEB000236902229B5E9F421ADA201C39B210309D
:10BEC0000BF0E3FC0022011C281C131C7430FEF74D
:10BED000D3FDC82134488900FDF7B0F8281C0CF0C8
:10BEE000ABFE3148C821FDF7A9F8E3689B0707D5E9
:10BEF000FA212D488900FDF7A1F80023029301E003
:10BF00000137D5E7E3689A0734D5082709A81F4009
:10BF10001BD02649FEF75EFD09A90AA80CF0A0FC7B
:10BF200000230AA9009301931A1C281CFFF760F84C
:10BF30000AA80CF088FC1E491B48FDF77FF809A8E9
:10BF40000CF081FC1B4B029314E01B49FEF742FDF1
:10BF500009A90AA80CF084FC0AA93A1C3B1C00970A
:10BF60000197281CFFF744F80AA80CF06CFC09A8FC
:10BF70000CF069FC0C481E21FDF760F8029B0133B0
:10BF80000293029A0D4B9A4200DC49E7FDF73CFA16
:10BF900046E7C046DDC002002BC60200EDC002002D
:10BFA000FBC00200B42200203821002040C1020062
:10BFB000983A00008C0A00007DC102008B0A000044
:10BFC00070B54A88838A90B09A4222D10B89002B9F
:10BFD0001FD0CB681B78012B1BD1041C0E4E0D1CEF
:10BFE000301CFEF7B5FF301C0CF026FEA06800F0F8
:10BFF000CDFD036815215B6A9847FA2080000EF09A
:10C00000EDFB2B8804A80380002301A90B7003F02B
:10C0100003FC10B070BDC0463C220020F0B5051CEA
:10C020000024584BA9B0083303600391A9600BABFF
:10C030000022191901344A70102CF9D15A820132A8
:10C040001A7051491A1B013C095D5174002CF8D13A
:10C050009A7B597B12020A43291C45270C31029115
:10C0600025211B7813AE337002ABFF187282C918FA
:10C070001022381C0EF0DCFD029B02AA7361012322
:10C08000338333770933FB771DAB1C706D239B180B
:10C090001C706E23211C9B181EA80C227483F48331
:10C0A00074621C700EF0E1FD384B211C0C2223A899
:10C0B000B363F4630EF0D9FD354B0322F3644623DA
:10C0C00002A95B18346505962C73DA7706AE002357
:10C0D000321901345370102CF9D17382013333704B
:10C0E0002C4A331B013C125D5A74002CF8D12520D8
:10C0F0001121B37B727B1B020BAF134332787B821F
:10C1000002ABC9183A70C01810220EF091FD01233D
:10C1100003983B7505ABBB61BC8300F047FD03682A
:10C12000391C1B68984713ABDB8BA868AB8200F007
:10C130003DFD03680094A98A029ADF680123B8478D
:10C14000A86800F033FD02901420FFF70BF9071CDC
:10C15000211C0C220EF089FD381C01233C61311C8E
:10C1600020C00822079306940EF062FD0A4BFB6084
:10C17000029B9B69002B00D03B61281C029B9F61A6
:10C1800029B0F0BD20B20200DAC10200978E020091
:10C19000898E0200CAC10200A190020073B5436AF1
:10C1A0004A88DB8B9A4225D1041C018D261C4B1C2E
:10C1B000038511480BF017FA1436051E0FD00388BB
:10C1C000A3824388A068E38200F0F0FC626A0368FF
:10C1D000D18B00220092DC68321C042309E0A068A5
:10C1E00000F0E4FC626A0368D18B0095DC68321CC5
:10C1F0002B1CA04773BDC04624220020F0B587B099
:10C2000002900B890393CB6801934B88028C019CAD
:10C210009A420DD1039B019A1B1BD318032B49DDB6
:10C220002188628804A80123FDF71CFE0434F1E78D
:10C23000029A019DD28B9A423CD1039B019A5B1BCF
:10C24000D318032B36DD20202F886E88FFF78AF85D
:10C25000041C1030FDF7E8FD278066801820FFF7EA
:10C2600081F8154B061C04930023071C0593029BC1
:10C27000002108C61022301C0EF0F7FC04A9301C67
:10C2800008220EF0D5FC0D4B0D487B610023E360C6
:10C29000C233A3800023A760E361211CFDF7F8FAF5
:10C2A000002805D0201C0CF032FD201CFFF77EF882
:10C2B0000435C2E707B0F0BDA99102002D9102003C
:10C2C00024220020F0B5071C8DB080680CF067FFB9
:10C2D00002231840041E2BD13B8D002B28D038851B
:10C2E00008A804ADFDF7A0FD18202C806C80FFF796
:10C2F00039F8061C0F4B80C60190211C1022301CFF
:10C30000029303940EF0B1FC02A90822301C0EF037
:10C310008FFC094B019A094853611223291CAA601A
:10C32000EC60AB80EC61FDF74BFB281C0CF0EFFCE4
:10C330000DB0F0BDA99102002D9102002422002031
:10C34000F0B50026041C764BDDB008330360816035
:10C35000868086717349321C47A80CF0FBFE231CB3
:10C3600010330893042300930E330193113B04937D
:10C3700047A9331C089A029603961DA8FFF77AF97D
:10C380006949321C47A80CF0E5FE0423221C0093E7
:10C39000DB180193073B15AF0C32049347A9331CFC
:10C3A0000296039632A8FFF765F9381C5F49321CE4
:10C3B0000CF0D0FE231C1833099304230093DB18E0
:10C3C0000193073B391C0493099A331C0296039688
:10C3D00047A8FFF74FF95649321C381C0CF0BAFE3B
:10C3E0005420FEF7BFFF231C143307930423051CBE
:10C3F00000930E330193113B391C0493079A331CAD
:10C4000002960396FFF736F9281C4A4B65620AA983
:10C41000EC62082230300A930B960EF009FC464B72
:10C420000999AB63012329352B70A681E681E36866
:10C430000422A36107980EF0FBFB079904220898D9
:10C440000EF0F6FB6622032304A95218D377BA2212
:10C450005218D377872252005218D377626A268502
:10C46000911CCB771DAB0C9332AB0D930F9247AB66
:10C470003249321C10A80E930CF06CFE302245207D
:10C48000312104AB9B181B7812323B7004AB9B1814
:10C490001B88323A7B8204ABC918C0180EF0C8FB67
:10C4A00004230CADA0683B75BD61BE8300F07EFB2C
:10C4B0000368391C1B689847822204AB9B181B88B1
:10C4C0005432A38304AB9B181B885432238404ABDF
:10C4D0009B181B88A068E38300F068FB071C1420EE
:10C4E000FEF740FF051C311C0C220EF0BEFB281C81
:10C4F000134B2E6110A910931196082210C00EF054
:10C5000097FB104BEB60BB69B34200D02B61BD6160
:10C51000211C0D480AF090FF201C5DB0F0BDC04604
:10C5200030B20200FAC102002AC202001AC202009E
:10C53000EAC102009DC10100D99002000AC20200B6
:10C54000FDC10100039102003821002070B50025D3
:10C55000041C0C4B858008338571036014300E1C5D
:10C560000CF072FE201C18300CF071FE064BA680F9
:10C57000A571E57125726572E5602561201C1C605E
:10C5800070BDC04650B20200A4250020072906D87D
:10C59000044B054A5956054B0020D15000E0044891
:10C5A0007047C046C2C10200001000400C050000E8
:10C5B00017FCFFFFF323084A9B00D058002806D140
:10C5C000642906D83D33054AFF33D15002E00448C0
:10C5D00000E004487047C0463821002000100040A9
:10C5E00016FCFFFF17FCFFFF8379DB0702D54172C2
:10C5F000002000E00048704716FCFFFF8379DB074E
:10C6000001D5407A00E001487047C04616FCFFFFA4
:10C6100038B50569002D23D0037A032B22D8041CDA
:10C62000FFF7ECFF283528702C20FEF79BFE2C220C
:10C630000021051C0EF019FB002322695362E368F8
:10C64000002B01D1E26005E0596A002901D00B1CE2
:10C65000FAE75A62237A256101332372002002E04F
:10C66000014800E0014838BD17FCFFFF13FCFFFF45
:10C6700010B5134C2068FFF7CBFF2368114C1A69E3
:10C68000114BE250114B5A68002A03D000225A6025
:10C690000132A2601B690B4A002B10D000210B4B0A
:10C6A00019618023DB00D358012B06D1A923DB00BD
:10C6B000D1580748C9B2FFF797FF0123A36010BD07
:10C6C000A42500200010004004050000FC100040DC
:10C6D000E8240020F323064A9B00D358002B05D101
:10C6E000C171044A04488150181C00E00348704797
:10C6F00038210020240500000010004016FCFFFF38
:10C70000F7B582790023D2077DD4F3233F4E9B00F7
:10C71000F3580196002B73D10769051C002F08D12F
:10C720002C20FEF71FFE041C391C2C220EF09DFA53
:10C730002C612B69002B65D00022354B01215A60FA
:10C740008022D20511605A68002AFCD00622314BA3
:10C75000314C9A56314B0721E250281CFFF72AFF33
:10C76000A2230027DB00E7502D4A2E4B391CE25054
:10C77000281CFFF7AFFF012208212B4B2B48E75065
:10C780000433E2502A4BE1500433E050022329489D
:10C79000235029488446664628482650284884461F
:10C7A000A7206646C00026501820844666462548C5
:10C7B00026502E6924482650C1208000215023494C
:10C7C0008538FF380B500B60802189006358713821
:10C7D000FF38034363501E4B5F6062605A68002A53
:10C7E000FCD0002401271A4B01981C610A4B291C1C
:10C7F0009F600AF021FEAB793B43AB71231C02E042
:10C80000144B00E0144B181CFEBDC046382100201C
:10C81000FC000040C2C10200001000400C050000F6
:10C82000746962751C0500002C05000020000402DC
:10C830001405000034050000FFFF00003C05000067
:10C8400021100100540500000405000000E100E093
:10C85000FC10004016FCFFFF13FCFFFFF323284AE7
:10C860009B00D25830B5002A45D1002945D00B781D
:10C87000232B42D80224234BDC67234B013C5A6113
:10C88000224A14615A69214C002AFBD00025204A13
:10C89000A1501D494D6001212160111C5A68002AD8
:10C8A000FCD00124194A94600024174A14611C69C1
:10C8B000164A002CFBD000695050002012494861F4
:10C8C000012111615A69002AFCD000210E4A5160F1
:10C8D0000E4A013151605A68002AFCD00020012222
:10C8E000C021094B49001861084B9A60094B921806
:10C8F0005A501A6002E0084800E0084830BDC046BF
:10C900003821002004E100E0FC100040001000404D
:10C910000405000000E100E016FCFFFF17FCFFFF2C
:10C9200010B58CB0002911D0232A0FD801ACD31C2C
:10C93000002023700123A07002A86370E3700EF042
:10C9400077F9211C0348FFF789FF00E002480CB08B
:10C9500010BDC046E824002017FCFFFF13B5041CDF
:10C960000E480CF042FC0023226843629A4201D137
:10C9700020600BE0516A002902D001330A1CF9E75C
:10C98000032B02DDFEF712FD06E05062012268462D
:10C990001D21131CFDF766FA13BDC046E8240020D4
:10C9A00038B5051C07480CF020FC0123041C2B7033
:10C9B0000430FDF767FA0023201C2B70FEF7F6FC0D
:10C9C00038BDC046E8240020002815D00060416032
:10C9D0008260C360046145618661C7614446046248
:10C9E0004C464462544684625C46C46264460463B6
:10C9F0006E46466374468463002A06D0C46B043CCA
:10CA0000043A25681560B442F9D18C6BA6464E6B8A
:10CA1000B546002B06D0CC6B043C043B1D6825605A
:10CA2000B442F9D10C6BA446CC6AA3468C6AA246E8
:10CA30004C6AA1460C6AA046CF698E694D690C69A3
:10CA4000CB688A6808684968704700604160826006
:10CA5000C360046145618661C761444604624C4617
:10CA60004462544684625C46C462644604636E4613
:10CA7000466374468463C46B043C043925680D60C6
:10CA8000B442F9D1C7698669456904697047006095
:10CA900041608260C360046145618661C76144464C
:10CAA00004624C464462544684625C46C4626446F6
:10CAB00004636C4644637446846304697047846B02
:10CAC000A646446BA546046BA446C46AA346846A82
:10CAD000A246446AA146046AA046C76986694569B8
:10CAE0000469C3688268006841687047024B1B682C
:10CAF00003607E23436070470C20002038B500237C
:10CB0000041C0160436099420AD1064D2B68002B3A
:10CB100002D10CF0EBFD286023689B00EB586360AA
:10CB2000201C38BDB425002070B500280DD10C4C58
:10CB30002668002E07D108300DF07BFF051C311C44
:10CB4000FFF7DCFF2560206808E001220549064860
:10CB50000B68134002D1026043600A6070BDC0469A
:10CB6000A8250020B8250020AC250020436810B57A
:10CB7000041C002B02D104480DF080FD606803689E
:10CB80001B69984710BDC04615C40200436810B524
:10CB9000041C002B02D104480DF070FD606803688E
:10CBA0001B69984710BDC04615C40200436810B504
:10CBB000041C002B02D104480DF060FD606803687E
:10CBC0009B69984710BDC04615C40200436810B564
:10CBD000041C002B02D104480DF050FD606803686E
:10CBE0005B6A984710BDC04615C40200436810B583
:10CBF000041C002B02D104480DF040FD606803685E
:10CC0000DB6A984710BDC04615C402000048704753
:10CC1000FFFF00007FB503791648002B28D0164D82
:10CC2000164C2B78201C002B22D102AE301C0CF0AD
:10CC300090FB002816D17388592B13D13378B28812
:10CC4000D91F012904D80092201C20210C4A03E09E
:10CC5000201C202100920B4A09F00CFB01232B70B1
:10CC6000201C05E0201C084920220EF032F9F7E7CD
:10CC700004B070BD38C40200032A0020042A00203A
:10CC800052C402006FC4020094C4020010B5041C18
:10CC9000024B08C00CF03BFC201C10BD68B3020026
:10CCA00010B5041C024B08C00CF046FC201C10BD43
:10CCB00078B30200F0B597B00593036807AD1B6821
:10CCC00004910393111C2B1C061C91C991C30024D1
:10CCD000D3680CA8211C0C22EB602C610DF0C5FF61
:10CCE0000B4B10940F9311AB1C70002211AB191950
:10CCF00001344A70102CF8D15A82059A019300929F
:10CD0000301C04992A1C0CAB039CA04717B0F0BD43
:10CD10009993020038B5064B041C03604068002854
:10CD200004D005690DF081FE281CF8E7201C38BDF1
:10CD300078B2020038B5064B041C03604068002836
:10CD400004D005690DF071FE281CF8E7201C38BDE1
:10CD500048B3020038B5064B041C03604068002845
:10CD600004D005690DF061FE281CF8E7201C38BDD1
:10CD700058B3020038B5064B041C03604068002815
:10CD800004D005690DF051FE281CF8E7201C38BDC1
:10CD900088B3020038B5064B041C036040680028C5
:10CDA00004D005690DF041FE281CF8E7201C38BDB1
:10CDB00098B3020038B5064B041C03604068002895
:10CDC00004D005690DF031FE281CF8E7201C38BDA1
:10CDD00098B2020038B5064B041C03604068002876
:10CDE00004D005690DF021FE281CF8E7201C38BD91
:10CDF000A8B2020038B5064B041C03604068002846
:10CE000004D005690DF011FE281CF8E7201C38BD80
:10CE100088B2020038B5064B041C03604068002845
:10CE200004D005690DF001FE281CF8E7201C38BD70
:10CE3000D8B3020038B5064B041C036040680028D4
:10CE400004D005690DF0F1FD281CF8E7201C38BD61
:10CE5000E8B30200FC3070B5C56B061C002D16D17E
:10CE600034200DF0E6FD041C291C34220DF0FDFEDB
:10CE7000084BA5606360084B65612361074B256221
:10CE8000E361074BE562A362064B2360F463F06B3A
:10CE900070BDC04678B3020068B30200D8B3020088
:10CEA000E8B30200F8B30200FC3038B5046C051C8E
:10CEB000002C0DD124200DF0BCFD064B4460836195
:10CEC000054B8460C46004614461C46103602864EC
:10CED000286C38BD48B3020030B40200FC3038B5CD
:10CEE000046C051C002C0DD124200DF0A2FD064B76
:10CEF00044608361054B8460C46004614461C46123
:10CF000003602864286C38BD48B3020030B40200C6
:10CF1000104B10B5083303600F4B041CC360802313
:10CF20000E4A5B00C250C018FDF7C8FE201C0C4B17
:10CF3000B830E360FFF74EFF201CAC30FFF73AFF3C
:10CF4000201CA030FFF756FF201C6C30FFF7E2FEDC
:10CF5000201C10BD60B40200D8B4020078B60200F4
:10CF6000B8B20200F0B5051C041C87B0AC356B6884
:10CF7000AB60A868002807D0C368211C9847AB683D
:10CF8000002BF4D01B69F3E7251CB0352868002876
:10CF900004D006690DF049FD301CF8E7221CFC2383
:10CFA0005832117828600B401370231C5C331870C2
:10CFB000201C0A300CF091FB201C34300CF08DFB4F
:10CFC000606E002804D005690DF02FFD281CF8E7DD
:10CFD000251C606698352868002804D006690DF085
:10CFE00024FD301CF8E72860251CA4352E68002E8F
:10CFF00005D03769301C0DF018FD3E1CF7E72E6098
:10D0000001AD311C281C0C220DF02FFE231C2A1C04
:10D010006C3383CA83C3094BE667A367311C0C22B8
:10D02000281C0DF022FE231C803307CD07C3301CC3
:10D03000034A90341A60266007B0F0BD7D93020069
:10D040006F9302003C4BF0B5083303603B4B002567
:10D05000C360A0234382031C041C163385B00571F2
:10D06000856005748582181C02930CF029FB8022D0
:10D07000201CD201111C2B1C0095383000F0F8FE4A
:10D08000231C4033181C03930CF01AFB221CFC23B6
:10D09000643211780C270B401370231C201C68335A
:10D0A0001D70274B291CE3663A1C256778300DF06C
:10D0B000DCFD231C261C88331D60224B0836F367D9
:10D0C0008436291C3A1C301C0DF0CFFD1E4B1F4A24
:10D0D000F360231CA03335611A601D4A5D60DA607D
:10D0E0001C4A1D619A61DD6102980CF0F6FA039802
:10D0F0000CF0F3FA184B601CE360231CC4331D7062
:10D100005D709D70FF3002F0C7FE8C235B00E55020
:10D11000231C1933FF335D618023104A5B00E2500A
:10D12000231C0122201CFE3352425A86023B9D637F
:10D13000DD631D6405B0F0BD60B40200B8B202004A
:10D1400078B202007D9302006F93020088B2020061
:10D1500098B20200A8B20200D8B4020078B6020069
:10D1600038B5074C2368002B07D1A02040000DF0F4
:10D1700060FC051CFFF766FF2560206838BDC046CF
:10D18000BC25002038B50C220D1C0021041C0DF01C
:10D190006CFD00232361024B2560201CE36038BD39
:10D1A0008B93020070B50025041C254B05710360AC
:10D1B000244B45718360244BC5604361234B8561DB
:10D1C0000362234B4562C362224B05638363C563DD
:10D1D000291C4430FFF7D6FF201C291C5830FFF7CC
:10D1E000D1FF201C291C6C30FFF7CCFF1A4B251CEB
:10D1F0002360231C8035F833002204C59D42FBD1F7
:10D20000261CE936FF36281C0021082208350DF0BF
:10D210002CFDB542F7D18E239B00E218002308C5F0
:10D220009542FBD18E229200A3540C4B0C4AE3187A
:10D23000A2180021198002339342FAD1201C70BD3C
:10D24000A8B3020058B3020068B3020078B302002A
:10D2500088B3020098B30200A8B402003A020000AA
:10D2600062020000F0B58DB0051C02F039F8002014
:10D27000FFF776FF0368071C1B6998473B68041C8F
:10D280009B69381C98473B68061C5B6A381C9847AA
:10D29000031C288810380B2800D99BE003F06CFC95
:10D2A000063D9A9A9A5A9A9A9A619A76AF88201C61
:10D2B000391C0CF052FE221C6B7B58320193137800
:10D2C000A879191C0223194306AB11701F80012392
:10D2D00006AA9370D070131C6A461279E91D9A72DF
:10D2E0002B1C0622163307A80B930DF0A1FC0B2074
:10D2F000291C06ABC0180E3106220DF099FC94349F
:10D300006368A360A068002864D0C36806A9984732
:10D31000A368002BF4D01B69F3E7201C3049AF88C9
:10D320000CF01BFE221C022058321378A97983438B
:10D33000137006AB1F809970A0346368A360A06867
:10D34000002847D0C36806A99847A368002BF4D0EB
:10D350001B69F3E75B69A888A91D002B3AD09847A1
:10D3600038E0636EAF79002B34D01E4A002A31D0EA
:10D37000A366A06E00282DD0C368391C9847A36E01
:10D38000002B01D1636EF3E71B69F1E70122AB7B50
:10D39000E91D1A4001925A07920FDB08029206A873
:10D3A00006226F7B04930DF043FC6A46127906ABAC
:10D3B000DA716A46127A9F711A726A46127C201CD0
:10D3C0005A722B1C0F330993231C8C3380301B683B
:10D3D00006A99847301C291C0CF01AFB0DB0F0BDB3
:10D3E000FFFF0000FF9702000723D72802D9024B56
:10D3F00018600023181C7047C02500201FB5A32308
:10D400008022DB00D205D3580820DB0700D405308A
:10D410001C4948221C4B02F0A9F900280AD080B20E
:10D42000002807D1BFF34F8F184A194BDA60BFF3BA
:10D430004F8FFEE7002302A8029301330370154BC0
:10D440001B6843600CF0D9F9002801D0072017E0D1
:10D4500068460CF0D0F90028F8D169460CF0C9F9FB
:10D460000028F3D10C4802F0B1F980B2002807D1AE
:10D470000A4802F0B5F980B2002801D100F008FB9B
:10D4800005B000BDC4250020099802000400FA057B
:10D4900000ED00E0C025002065D2010001980200E7
:10D4A00080B2002807D1BFF34F8F034A034BDA60E5
:10D4B000BFF34F8FFEE770470400FA0500ED00E070
:10D4C00038B500200D1CFFF74BFE03685B6A9847D8
:10D4D0002B78041C142B17D002D8132B05D041E055
:10D4E000152B16D0222B37D03CE06B680122188810
:10D4F0009B786468191C5D08DB0611405B0F2A40AD
:10D50000002C2FD0A0472DE06B6818889978A3686D
:10D510001EE06A6891780B090907090F012902D0FA
:10D52000022908D011E0013BDBB20021022B0DD80B
:10D530000D49C95C0AE00421012B07D0023B584287
:10D54000434101315B42194000E000211088E3684B
:10D55000002B07D0984705E06B6818882369002BDB
:10D5600000D09847002038BD9CC40200014B1878B9
:10D570007047C046252A0020F0B5314E87B0347878
:10D5800000960026B44257D11C1C01920D1C071CAA
:10D5900001F088F8B04201D00B264DE0002C0FD0EE
:10D5A000222003A903940CF037F9002808D006269E
:10D5B000082841D01138061C7042464104363BE031
:10D5C000002302AA101C137001F048FC011EE3D1D5
:10D5D00001241C4E274030782540A04338436B007F
:10D5E0000227051C0720019ABD4302401D431C234E
:10D5F000BA409D431543357003AD0C22281C0DF035
:10D6000034FB0920104B311C039302ABC0180522D8
:10D610002F710DF00DFB0D48291C01F08FFC002827
:10D6200007D00726042807D0013E082804D0053675
:10D6300002E0061C009B1C70301C07B0F0BDC04609
:10D64000252A002089200020C1D40100242A00209E
:10D6500008B5074801F03CFD0023984206D0073387
:10D66000042803D0013B082800D00533181C08BD4E
:10D67000242A0020002373B501930F4B01AD1B78C2
:10D680000E1C291C2B7001F0F5FF041E04D004238E
:10D6900005280FD007330DE0281C311C01F088FC51
:10D6A000231C002806D00723042803D0013B0828A8
:10D6B00000D00533181C76BD242A002073B5104C09
:10D6C0000E1C051C211C684605220DF0B1FA012E26
:10D6D00006D0022E11D1012223781343B34303E075
:10D6E00002222378B3439343281C694623700CF02D
:10D6F00091F8031E02D00B2300E00223181C76BD14
:10D700008920002008B5094B1A780923002A0AD07D
:10D71000011C074801F084FC0023984203D0033326
:10D720000E2800D00333181C08BDC046252A00204F
:10D73000242A002073B50E1C151C026800939468FF
:10D740002B1C321C0149A04776BDC046FFFF0000DC
:10D7500073B50E1C151C06AA11780268009301917E
:10D7600014692B1C321C0149A04776BDFFFF000045
:10D77000F0B50C1C002187B06E460091151C0CA959
:10D780000DAA0988127831800193002A03D1011C67
:10D790004679F8310EE0201C291C6A460CF053F83B
:10D7A000031E3CD14FE008310F1C083F3F88AF42B9
:10D7B00003D00132B242F6D33DE030212032920054
:10D7C00012580132D27F0A4235D00221002002AE27
:10D7D000D206F3600CABD20FB3601C4B8A1A3580B3
:10D7E000B270B0809C4207D1FFF7BAFC03681B6996
:10D7F00098470CF0B5FB041C201C311C0CF027F8DA
:10D8000080B200281FD0112813D00ADC08280ED0BF
:10D81000201C291C6A460CF016F8002809D00320A9
:10D8200011E00B4B984204D00A4B9842F0D10620ED
:10D8300009E0052007E0201C291C6A460CF003F8CB
:10D840000028ECD1063007B0F0BDC046FFFF000055
:10D850000330000001340000F0B5051C97B0081C2F
:10D860002E240B9100F0B2FA04ABE418109010A92A
:10D870000120221C0BF0E5FF002801D00320CEE0A0
:10D8800023880B9A0A9093830B9B0A9A1B7D9342E1
:10D8900050D96B791D2B01D90720C0E00B9B9B69E8
:10D8A0000C930A9B0C9A9B009C586369002B46D1F1
:10D8B000638B002B43D1631CDB7F022B3FD134E011
:10D8C0006169631CDA7FA31CDB7F0091618B002000
:10D8D0000191218B0291217F03910C9904910D9963
:10D8E0000591211C293109780691211C2A310978DA
:10D8F000079169791F31C9006918089110A90CF0C6
:10D900004FFB0028BAD16B79071C1A1C20329200F9
:10D910001F335451DB005B5BE3836B7901336B7125
:10D92000231C28331B78BB4230D80A980130C3B27D
:10D930000A93A9E72B79002001332B716FE0201C9B
:10D9400000F044FA002610900D960C96231C283304
:10D950001B78B342B4D9626AB3009F58002311AA5E
:10D960001370002011A9CA1801335070102BF8D180
:10D970002C4B381C4B820BF0E7FF002803D07B694F
:10D980000C937B8B0D930136F6B2DFE78E239B0061
:10D99000EB5C132B00D97FE7626ABB009E58002323
:10D9A00011AA1370002011A9CA1801335070102B4E
:10D9B000F8D11C4B301C4B820BF0C6FF0C9000289A
:10D9C0002AD1301C00F002FA328B738B0092327F26
:10D9D000109001928E229200AA5C0C981D32FF32A8
:10D9E0005200AA180232029210A972690CF0AEFB22
:10D9F000002800D042E78E238E219B00EA5C89003C
:10DA0000531CDBB26B541D337A32FF3392005B0040
:10DA10005651EB185B88F383781CC7B280E717B0C8
:10DA2000F0BDC0460129000038B5051C0BF063FEAF
:10DA3000041E1CD1281C211C782280300DF015F901
:10DA4000281CE930211C5022FF300DF00EF9281C53
:10DA5000211C0822F8300DF008F9064B211CE818AB
:10DA600028220DF002F98E239B00EC5400E00624DE
:10DA7000201C38BD3A0200000B68002B01D1036066
:10DA800002E0024B0360002343607047FF970200EF
:10DA90001FB5002302AC0393283323806933FF337F
:10DAA0006380E380803B01A8FF3B0D4905220370A2
:10DAB0000CF0D0F880B200280FD1802080000CF04C
:10DAC000C5F880B2002808D1201C0CF0C1F880B243
:10DAD000002802D10CF0B8F880B204B010BDC046E6
